:020000041000EA
:1000000000B5324B212058609868022188439860DF
:10001000D860186158612E4B002199600221596106
:100020000121F02299502B49196001219960352056
:1000300000F044F80222904214D00621196600F024
:1000400034F8196E01211966002018661A6600F04E
:100050002CF8196E196E196E052000F02FF8012189
:100060000842F9D1002199601B49196000215960AB
:100070001A491B48016001219960EB211966A021F2
:10008000196600F012F800219960164914480160C1
:100090000121996001BC002800D000471248134993
:1000A000086003C880F30888084703B5996A0420EC
:1000B0000142FBD001200142F8D103BD02B5186610
:1000C0001866FFF7F2FF186E186E02BD00000240BE
:1000D000000000180000070000035F00212200005C
:1000E000F4000018222000A00001001008ED00E03C
:1000F00000000000000000000000000074B24E7A12
:1001000000200420F7010010C3010010C5010010F9
:10011000C1010010C1010010C1010010C101001097
:10012000C1010010C1010010C1010010C701001081
:10013000C1010010C1010010C9010010CB01001065
:10014000CD010010CD010010CD010010CD01001037
:10015000CD010010CD010010CD010010CD01001027
:10016000CD010010CD010010CD010010CD01001017
:10017000CD010010CD010010CD010010CD01001007
:10018000CD010010CD010010CD010010CD010010F7
:10019000CD010010CD010010CD010010CD010010E7
:1001A000CD010010CD010010CD010010CD010010D7
:1001B000CD010010CD010010CD010010CD010010C7
:1001C00000BE00BE00BE00BE00BE00BE00F04BF888
:1001D000103800BEF2EB8871B08E0010D48E001083
:1001E0003402001090A31AE700202149086006C8D5
:1001F00081F3088810471F48006800282FD10DA4FC
:100200000ECC002902D000F012F8F9E71A491B4A77
:10021000002000E001C19142FCD1194988471949E9
:1002200088471949884700BEFDE701C901C29A42C3
:10023000FBD37047D48E0010C0000020AC02002019
:10024000C09000100000042000000420C0900010A6
:1002500000100420001004200000000070470B482C
:1002600005F022FE0047EFF30580C0B270470000A2
:1002700008ED00E0000000D0B0020020680A022073
:100280009D44001089050010594400105756000085
:1002900006005250ABB36053748D001006005250EC
:1002A000861C0302848D0010060052505422A29D29
:1002B000908D001005005250DE65F468C09000106B
:1002C000F8B5C04610B5064C2378002B07D1054B76
:1002D000002B02D0044800E000BF0123237010BDB2
:1002E000B003002000000000D0720010044B10B5D5
:1002F000002B03D00349044800E000BF10BDC046F6
:1003000000000000B4030020D0720010D0231B06B0
:100310005B689B0105D4D0231B06802292045A619E
:100320007047D0231B06802292049A61F8E7D023FD
:100330001B065B681B0505D4D0231B068022120117
:100340005A617047D0231B06802212019A61F8E798
:10035000014B00221A707047610A0220D0231B064D
:100360005B689B0404D4D0231B065B68DB0407D5C1
:10037000D0231B06802292019A61802252019A6149
:10038000D0231B065B681B0505D4D0231B068022E7
:1003900012015A617047D0231B06802212019A6114
:1003A000F8E7000010B5D0231B061968014806F0D5
:1003B00001FE10BDD072001010B5FFF7F3FF10BDA5
:1003C00010B50F2002F03EF9FBE710B50F2002F048
:1003D00039F9FBE7F8B5DE4657464E464546E0B5E7
:1003E00006F0F4FD192003F0FDF8022003F0FAF8FE
:1003F000032003F0F7F8062003F0F4F8092003F0D7
:10040000F1F80A2003F0EEF80B2003F0EBF80C20D3
:1004100003F0E8F80D2003F0E5F8152003F0E2F80A
:10042000D024240680239B049B46636208239A46BB
:100430006362383399466362C133FF33A36280231A
:100440001B019846636280256D0165628027BF01AC
:10045000676280239B03A3628026F6006662042104
:10046000022003F00BF85B4663615346A3614B46E1
:10047000A3614346A361A561A761A661E121174C71
:100480004902200003F0FCF80221002002F0F6FFF0
:100490000221012002F0F2FFE36A60225A406E233B
:1004A00013400F4A15432B60E26A102313402B6060
:1004B00000220121072002F0F9FF0022012108207B
:1004C00002F0F4FF074B01220C21072003F03EF855
:1004D000F0BCBB46B246A946A046F8BD004003406A
:1004E0002C4003400505001010B5D0231B061968E9
:1004F000034806F05FFD01F0D3FE04F063F8C04648
:10050000F472001070B584B000230393194B1B786C
:10051000002B09D1082926D0174B186803A901F030
:10052000AFFA144B01221A70144D2E6801F00AFF25
:1005300002000024009403AB0721300002F05AFEB1
:100540002D6801F0FFFE0200009403AB0621280095
:1005500002F050FE039B002B03D0094B8022520572
:100560001A6004B070BD074B186803A901F088FA3F
:10057000D7E7C046610A0220A409022074090220BC
:1005800004ED00E0A809022070B582B0FFF722FF59
:1005900000210A2001F0F8F83E4B186000210A20E3
:1005A00001F0F2F83C4C206000210A2001F0ECF848
:1005B0003A4B18602368002B09D080220023019356
:1005C0001F21009152003649364801F035FE334B69
:1005D0001B68002B09D08022002301931F2100916A
:1005E00052003149314801F027FE80246400002583
:1005F000019502230093002322002D492D4801F08C
:100600001BFE019501260096002322002A492B4853
:1006100001F012FE01950096002322002849294886
:1006200001F00AFEFA21284B009300230122490021
:10063000264802F0C5FD04009621254B00930023B7
:1006400001224900234802F0BBFD234B0093002305
:1006500000221421214802F0B3FD214B1860214BE8
:10066000009300230122C8211F4802F0A9FD1F4B5F
:100670001860002C08D001F05FFE02002B000095EE
:100680003100200002F0B6FD194806F0B7FDFFF773
:100690002BFFC046540A0220A8090220A409022008
:1006A0001C730010190C001028730010C90B0010E7
:1006B0003C730010D108001040730010CB030010F1
:1006C00048730010C10300100D0300105473001094
:1006D0002F0300105C7300105103001068730010AA
:1006E000740902205D030010747300107809022061
:1006F000B90300107047000010B5014803F04AFF2D
:100700007C730010FEE700000423024A1370024AC3
:10071000137070475E0A02205F0A022070B5D02471
:1007200024068025ED0065613C2001F08BFFA5616A
:1007300002E03C2001F086FFD0231B065B689B058E
:10074000F7D470BD10B5024806F034FC10BDC046A9
:100750008C73001030B583B0544B1B78002B55D0F0
:10076000042B66D1D0231B065B681B0504D4D02361
:100770001B065B68DB0407D5D0231B068022120111
:100780009A61802252019A61D0231B068022920135
:100790005A615B689B054CD5454B1B889BB2002B6F
:1007A00022D1444B02221A700024404B1C70424B51
:1007B00003221A703E4B1C80D0231B06802292011C
:1007C0009A613E4B1D6801F0B7FD020000940023C2
:1007D0000121280002F00EFD394806F0EBFBFFF77F
:1007E000B1FFFFF79BFF24E0314B1B889BB2012B2D
:1007F00008D02F4B1B889BB2022BD5D12D4B032247
:100800001A70D1E72B4B01221A70CDE7294B1B78C8
:10081000022B10D0022B24D0032B3BD0012B3ED037
:10082000254A137801331370FFF778FF204B00221D
:100830001A8003B030BD204A1278022AEAD11C4B3C
:100840001A88204B1A70D0231B065B689B05E7D5DE
:10085000194B04221A70164B00221A80FFF75EFF14
:10086000DEE7154A1278032AD6D1114B1A88154BA8
:100870005A80D0231B065B689B05D1D50E4B022204
:100880001A700B4B00221A80FFF748FF0E4806F043
:100890005FFBC5E70B4B00221A705A80C0E7094B7B
:1008A00064221A70094A5A80BAE7C0465E0A0220DA
:1008B0005C0A02205F0A0220600A022078090220F6
:1008C000907300100C090020A07300101027000086
:1008D00010B5FFF719FFFFF73DFF0F2001F0B2FE43
:1008E000F9E7000030B583B0AB4B1B78042B20D068
:1008F000002B10D1A94B1B78032B00D116E1022B42
:1009000000D12EE1A64C2178A64806F053FB618861
:10091000A54806F04FFBD02424068025ED00656134
:100920001E2001F08FFEA5610F2001F08BFE03B0A9
:1009300030BD00281FD09D4A138801339BB213801D
:100940009A4B1B889BB2022B02D9984B00221A802B
:10095000964B1B889BB2002B55D0944B1B889BB2A7
:10096000012B00D197E0914B1B889BB2022BD2D177
:1009700000238F48ABE08D4A1388013B9BB2138064
:10098000DEE76B46DA1D1570002104E01478894B10
:100990001C6001310132002915D1864B9B699B06F1
:1009A000FBD4F3E76B46DA1D0D23137000210029F9
:1009B00019D1804B9B699B06FBD414787D4B1C603E
:1009C00001310132F3E703780D3B5A425341DBB268
:1009D00001300578002D19D0002BD2D1764B0022A2
:1009E0009B5EAB42DED06B46DA1D157000210029FC
:1009F000E9D1704B9B699B06FBD414786D4B1C604E
:100A000001310132F3E700236C48E2E7FFF79AFE79
:100A100081E76B46DA1D14700021002926D1654B51
:100A20009B699B06FBD41478624B1C600131013238
:100A3000F3E76B46DA1D0D231370002108E05D4BD0
:100A40009B699B06FBD415785A4B1D60013101321E
:100A50000029F4D01AE0574B9B699B06FBD414780D
:100A6000544B1C60013101320029F4D003780D3B56
:100A70005A425341DBB201300478002C0ED0002BD7
:100A8000C7D14D4B00229B5EA342D2D06B46DA1DEC
:100A900014700021E8E700234948EDE7FFF752FE14
:100AA00039E76B46DA1D1470002108E0414B9B6961
:100AB0009B06FBD414783F4B1C60013101320029A6
:100AC000F4D003780D3B5A425341DBB20130047835
:100AD000002C28D0002BE4D1374B00229B5EA34290
:100AE00004D06B46DA1D1470002115E06B46DA1D48
:100AF0000D23137000210029F3D12E4B9B699B0617
:100B0000FBD415782B4B1D6001310132F3E71478CB
:100B1000284B1C60013101320029D2D1254B9B6941
:100B20009B06FBD4F3E7FFF70DFEF4E600280CD09C
:100B30001E4A128892B223498A4200D9DFE61B4935
:100B40000A88643292B20A80D9E6184A128892B2B0
:100B5000632A00D8D3E615490A88643A92B20A801B
:100B6000CDE600280BD0114B1B889BB25A2B00D925
:100B7000C8E60E4A13880A339BB21380C2E60B4BB9
:100B80001B889BB2092B00D8BCE6084A13880A3B95
:100B90009BB21380B6E6C0465F0A0220600A0220BC
:100BA0000C090020F0730010FC7300105C0A022096
:100BB000DC7300100040034024090020B4730010CF
:100BC000C8730010AC26000010B509E0D0231B0646
:100BD0005B68DB0504D4D0231B065B681B0614D5B9
:100BE00001210C4B1868494201F070F80128F7D137
:100BF000D0231B065B68DB05E8D5D0231B065B68AA
:100C00001B06E3D4FFF76EFEEAE70020FFF76AFE5B
:100C1000E6E7C046A409022010B509E0D0231B0670
:100C20005B68DB0504D5D0231B065B681B0614D468
:100C300001210C4B1868494201F048F80128F7D10E
:100C4000D0231B065B68DB05E8D4D0231B065B685A
:100C50001B06E3D5FFF746FEEAE70020FFF742FE5A
:100C6000E6E7C046A809022070470000084A13685A
:100C70001868203080F30988022080F31488BFF3BD
:100C80006F8F3FBCAE4608BC04BC62B6184700007C
:100C90006C040020EFF30980154B1A6820381060AF
:100CA000F0C044464D4656465F46F0C00D2212073E
:100CB000146E556E566F176F3038F0C008B572B6A7
:100CC00001F0E4FC62B60CBC116808681030F0C892
:100CD000A046A946B246BB4680F309880D221207FA
:100CE0003038F0C81466556656671767F0C818475D
:100CF0006C04002010B503F065FC000000B583B063
:100D000002E0D0231B069B6DD0231B061B6DDB0767
:100D1000F7D4D0231B06FF221A6500230193114B41
:100D20001A68EFF3108072B61368002BFCD0BFF383
:100D30005F8F0D4A1168002313600A4A1268BFF3DF
:100D40005F8F136080F31088084B186801AA00F0C9
:100D500005FB019B002B03D0054B802252051A6036
:100D600003B000BD6804002034090220AC09022051
:100D700004ED00E010B5031F802464041C60043BF4
:100D80001960043B02491960143B1A60403810BDD9
:100D9000F50C001010B50A4B1B68002B08D1094B4D
:100DA000802252051A60BFF34F8FBFF36F8F10BDC3
:100DB0003421054B054AFF31054803F051FBC0467D
:100DC0000007002004ED00E00874001040750010DA
:100DD0002874001072B6044A136801331360BFF31D
:100DE0004F8FBFF36F8F704730090220074B1B688E
:100DF000002B09D0064A1168BFF35F8F00221A60EA
:100E000081F31088014B1A6062B67047000700201A
:100E10002C09022010B50A4B1B68002B05D0013BA2
:100E2000074A1360002B07D010BDA621054B064AC8
:100E30004900064803F014FBFFF7D8FFF4E7C0466B
:100E400030090220807400102C75001028740010E6
:100E5000EFF3108072B6704780F31088704700007F
:100E600010B5FFF7F5FF040001F072FA002803D077
:100E7000034B802252051A602000FFF7EDFF10BDE2
:100E800004ED00E010B5094C00232360084A13600C
:100E9000052003F09FFCFA21890005F059F801387C
:100EA000044B18600723236010BDC04610E000E02B
:100EB00018E000E014E000E010B5224B1968FF22B2
:100EC00012040A431A601968FF2212060A431A60C4
:100ED00002201D49404202F001FA01201B49404214
:100EE00002F0FCF905201A49404202F0F7F9FFF739
:100EF000C9FF184B00221A60D0231B06164A196836
:100F00001170FF221A6502E0D0231B069B6DD023CF
:100F10001B061B6DDB07F7D4D0231B061C680F34A0
:100F2000FF21200003F0D6FD0C49200003F0D2FC85
:100F30000121200003F0BEFCFFF798FE01F0A6FBA4
:100F4000FFF7D8FE20ED00E0950C0010610E0010B8
:100F5000690C001030090220C8010020FD0C0010AF
:100F600010B50A4B1B78D02212061068834200D0BD
:100F700010BDFFF778F9002805D0D0231B061B68A9
:100F80004000C018F4E701F0DFFDF1E7C8010020E0
:100F900010B582B0EFF30583DBB2002B10D1254BE7
:100FA0001A78D0231B061B689A420FD00368BFF340
:100FB0005F8F00221A6081F3108820BF02B010BD3D
:100FC0001D4B1E4A1E491F4803F04AFA1E4B1B6860
:100FD000002B21D10368002B24D01B4C23601B4A1B
:100FE00011601B4A944663449B10012199400B02F7
:100FF0001943090A174B186801235B420093002329
:10100000012200F0C9F82368002BD7D0124B0B4AFD
:1010100012490C4803F024FA0F4B084A10490948BA
:1010200003F01EFAB9210F4B044A8900054803F06A
:1010300017FAC046C801002094740010087500100B
:10104000D702000028740010000700202C0902209D
:1010500000FFFF2FAC09022008740010EB02000013
:10106000DF020000F474001010B582B00C000368B9
:101070002B498C4663449A1001239340190219436B
:10108000090A284B1A78D0231B061B689A4220D0E5
:1010900040BF254B1B6802689A423BD01A68002A61
:1010A000FCD0BFF35F8F214B1A68114319601E4BB0
:1010B0001B68BFF35F8F00221A600023D022120644
:1010C00053650268BFF35F8F136084F3108802B02A
:1010D00010BD40BF0368BFF35F8F00221A6084F326
:1010E0001088EFF30583DBB2002B04D1104B186896
:1010F00000F0E4F8EBE7002301930D4B186801AA18
:1011000000F02CF9019B002BE1D00A4B8022520504
:101110001A60DCE7054B1A6811431960CDE7C04639
:1011200000FFFF2FC80100206804002034090220BE
:10113000AC09022004ED00E010B502F03BF9054BCC
:101140009C4660448000044B186000F018F8034B84
:10115000186010BD4000003468040020AC09022073
:10116000002A03D1014206D1100003E00840884262
:1011700003D0002070470120FCE70120FAE710B5FA
:101180001C2002F025F9041E03D0002308C000F043
:10119000EFF8200010BD0000F8B5CE46474680B5F8
:1011A00006000D009046994600282ED00B0E1F0613
:1011B000002B31D1002936D001F0CCFC002802D11F
:1011C000089B002B36D101F0AFF834684A4629005D
:1011D0002000FFF7C5FF002833D04346002B02D084
:1011E0002300AB43336001F07FF9002F08D00028C3
:1011F00041D001F0E1FD040083013FD52402240A1F
:101200002000C0BCB946B046F8BDA521254B264AF2
:101210004900264803F024F94C21254B224AFF318E
:10122000224803F01DF9A621224B1F4A49001F48FE
:1012300003F016F95021204B1B4AFF311B4803F0E5
:101240000FF9089B002B14D04346002B0ED1390018
:101250004B46002B02D08023DB0419432943301D69
:10126000089A01F09BFA3C00089FBCE780214904E2
:10127000EEE7089FB7E7FFF78DFDBAE7FFF7AAFD96
:1012800034684A4629002000FFF76AFF002805D08D
:101290004346002B02D02300AB433360FFF7BAFD77
:1012A000ACE7C0464C75001064760010587500100D
:1012B00098750010C0750010D8750010F8B50400BE
:1012C0000D0000280CD00B0E1F06002B0ED10600BF
:1012D0000C3601F029F8206923681D43256017E0CA
:1012E000164B174A1749184803F0BAF8174B144A17
:1012F0001749154803F0B4F821681940994206D1FE
:1013000011E0802189042368194301F037FB28008C
:10131000B0420CD04568026813021B0A5101EBD49D
:1013200021680B42F3D0D201EBD51F43E9E72368D4
:10133000BB43236001F0D8F82068F8BD4C7500105D
:101340005076001021020000587500102C76001015
:101350002202000010B5FFF7B1FF10BD10B5130059
:101360000A000100014801F081FF10BD5513001073
:10137000030008334360012252428260C36003616C
:1013800000230360704700230361704730B50C6889
:10139000631C10D0030008331A005B681D68A54267
:1013A000FAD953684B6099608A605160086103689C
:1013B0000133036030BD0269F3E703694168826865
:1013C0008A60416851605A68824206D000220261F8
:1013D0001A68013A1A601868704782685A60F5E71F
:1013E0000300406A002803D01B6B1B682020C01A32
:1013F000704710B50400FFF7EDFCA26BE36B9A4257
:1014000004D00024FFF706FD200010BD0124F9E7F9
:1014100010B50400FFF7DEFCA36B002B04D1012400
:10142000FFF7F8FC200010BD0024F9E770B50400B8
:101430001500866B026C002A0CD10368002B03D0C8
:1014400000200136A66370BD806801F0EFFB002329
:10145000A360F6E7002D0ED1406805F063FC6368D9
:10146000226C944663446360A26893421BD3236852
:1014700063602800E5E7C06805F054FC236C5A421D
:10148000E168CB1AE36021688B4203D2A3689C46D3
:101490006244E260022D01D00020D2E7002E04D089
:1014A000013E0020CDE72800CBE70020C9E700007F
:1014B00070B582B00190846C002C0AD0A26BE36BF3
:1014C0009A420CD2A26B93420FD80025280002B09A
:1014D00070BD174B174A1849184802F0C1FF184B46
:1014E000144A1849154802F0BBFF4523E65C76B262
:1014F000002201A92000FFF799FF0500731C06D008
:101500007F2E0FD0013676B24523E654DEE7636ABC
:10151000002BDBD02000243001F0B0F90028D5D01A
:101520000125D3E7084B034A0849044802F098FF15
:101530007876001088790010D40B00008C760010AB
:10154000C4760010D50B00000C770010F50B0000DE
:1015500010B5030008001A6C002A0AD0D96889184F
:10156000D9609C68A14201D31968D960D96805F097
:10157000D9FB10BD70B50500FFF72CFC4523EC5CD2
:1015800064B20AE06B6A002B17D02800243001F007
:1015900075F900280ED1013C64B2002C0DDDAB6C56
:1015A000002BEFD02800FFF783FF0028F3D001F0D5
:1015B000C5FAF0E701F0C2FAEDE74523FF22EA544D
:1015C000FFF728FCFFF706FC4423EC5C64B201E063
:1015D000013C64B2002C0BDD2B69002B08D02800E5
:1015E000103001F04BF90028F2D001F0A7FAEFE734
:1015F0004423FF22EA54FFF70DFC70BDF8B5040048
:101600000D0000282BD0C36B002B54D0016C00269A
:101610000F0C1A0C002F36D190B2002826D1002EC4
:1016200049D1FFF7D7FB2268E36B206C01005943D7
:101630005118A1600021A1636260013B4343D318AC
:10164000E360FF234422A3540132A354002D29D187
:101650002369002B1DD1FFF7DDFB0120F8BD882198
:10166000184B194A4900194802F0FAFE081C89B2C1
:101670009BB24B4380B292B242431B0CD3181B0C5B
:10168000CDD00126CBE792B2002AFAD13A1C181C21
:10169000EDE72000103001F0F1F80028DBD0FFF773
:1016A00079FBD8E720001030FFF762FE20002430DD
:1016B000FFF75EFECFE74621054B034AFF310348A3
:1016C00002F0CEFE2C770010007A00108C7600100D
:1016D0003477001070B51D00049C00290BD12460E4
:1016E000E063216401212000FFF788FF5023E554C7
:1016F0000023A36470BD2260F2E70000F0B583B060
:1017000004000D001700002831D000200A0C230C23
:10171000002A27D19AB2002A16D1002827D1280002
:1017200060430300553322D8543001F051FE061EA9
:1017300007D00200543200903B0029002000FFF740
:10174000C9FF300003B0F0BD1A1C2E1CABB2A1B211
:101750005943B6B293B27343090C5B181B0CDCD02F
:101760000120DAE79BB2002BFAD1261CEEE7E32139
:10177000024B034A4900034802F072FE58770010FA
:10178000EC7900108C76001010B50C00002809D000
:10179000884207D302220021FFF7B0FF002800D0C3
:1017A000846310BD024B034A0349044802F058FE0B
:1017B00064770010B87900101B0300008C760010CD
:1017C000F0B585B004000F0001921E00002813D070
:1017D000002917D0022E02D1E36B012B1BD101F09F
:1017E000B9F9051E1ED1019B002B5ED04F4B504A0C
:1017F0005049514802F034FE504B4D4A50494E4832
:1018000002F02EFE036C002BE4D04E4B484A4E49AA
:10181000494802F025FECC214C4B454A89004648F8
:1018200002F01EFE002540E0A56B320039002000CA
:10183000FFF7FCFDA36C002B10D0022E01D1002D70
:1018400004D12000FFF734FE002804D1FFF7E2FAAC
:10185000012005B0F0BDFFF79DFAF7E7636A002BA2
:1018600004D10028F2D0FFF795FAEFE720002430EA
:1018700001F004F80028E9D0FFF78CFAE6E7FFF75B
:10188000C9FA0020E5E702A801F0F4F8013519E0F3
:1018900044230022E25420E045230022E25421E0C8
:1018A0002000FFF767FE00F01FFEFFF793FAA36B1F
:1018B000E26B9342B8D3022EB6D0019B002BDED050
:1018C000002DE0D0FFF7A6FA00F02EFDFFF782FA18
:1018D0004423E25C52B2531CDAD04523E25C52B29C
:1018E000531CD9D0FFF796FA01A902A801F0CEF84F
:1018F000002813D12000FFF77CFD0028D0D0200065
:101900001030019900F02CFF2000FFF733FE00F0AB
:10191000EBFD0028C9D1FFF73DFAC6E72000FFF72D
:1019200029FE00F0E1FD002093E7C046D8750010C5
:10193000A4790010330300008C7600102C7700107F
:101940002E0300006C7700102F030000C4770010F6
:10195000F0B5D646474680B583B004000F0001922B
:101960001D00002819D000291DD0022D02D1E36BE3
:10197000012B21D1FFF76CFA8046A36BE26B9342F7
:1019800020D3022D1ED000244046FFF765FA200028
:1019900003B0C0BCBA46B046F0BD2F4B2F4A304909
:1019A000304802F05DFD036C002BDED02E4B2B4A3D
:1019B0002E492C4802F054FD2D4B284A2D49294828
:1019C00002F04EFD4523E65C76B2A36B9A462A00F0
:1019D00039002000FFF72AFD731C07D07F2E2BD083
:1019E000013676B24523E6540124CDE7A36C002BE3
:1019F00010D0022D02D15346002B23D12000FFF737
:101A000057FD002820D0019A002A1FD0012313601F
:101A10000124B9E7636A002B01D10124B4E7200057
:101A2000243000F02BFF002812D0019A002A11D098
:101A3000012313600124A7E70F4B084A0F49094807
:101A400002F00EFD01249FE701249DE701249BE79E
:101A5000012499E7012497E72C7700106C79001096
:101A6000020400008C7600106C7700100304000064
:101A7000C4770010040400000C7700108D040000EF
:101A800070B504000D0000281FD0036C002B22D17C
:101A90000368002B25D0FFF7DBF90600A26BE36B90
:101AA00093424CD94523E35C5BB20132A2635A1CDA
:101AB00020D07F2B3DD001335BB24522A3540124BB
:101AC0003000FFF7C9F9200070BD224B224A23499C
:101AD000234802F0C5FC234B1F4A2349204802F04B
:101AE000BFFC8368002BD6D0204B1B4A20491C48E2
:101AF00002F0B6FCA36C002B0AD02000FFF7D8FC44
:101B000000281ED0002D1ED001232B600124D7E712
:101B1000636A002B01D10124D2E72000243000F0B9
:101B2000ADFE002811D0002D11D001232B6001241F
:101B3000C6E7104B084A1049094802F091FC0024FE
:101B4000BEE70124BCE70124BAE70124B8E7012479
:101B5000B6E7C0462C77001058790010AD0400009D
:101B60008C76001014780010B1040000307800105A
:101B7000B60400000C77001035050000F0B585B004
:101B800004000F00019200280ED0002912D000F0AE
:101B9000E1FF061E17D1019B002B4ED0434B444A58
:101BA0004449454802F05CFC444B414A44494248A0
:101BB00002F056FC036C002BE9D0424B3C4A4249F0
:101BC0003D4802F04DFC002637E039002000FFF7C9
:101BD000BFFC013DA5632369002B04D1FFF71AF96F
:101BE000012005B0F0BD2000103000F047FE0028B5
:101BF000F4D0FFF7CFF8F1E7FFF70CF90020F0E79A
:101C000002A800F037FF013621E044230022E2540D
:101C100028E045230022E25429E02000FFF7AAFC37
:101C200000F062FC09E02000FFF7A4FC00F05CFC7F
:101C30002000FFF7EDFB002835D1FFF7CBF8A56BAF
:101C4000002DC2D1019B002BD6D0002ED8D0FFF79B
:101C5000E1F800F069FBFFF7BDF84423E35C5BB2F9
:101C60000133D2D04523E35C5BB20133D1D0FFF71F
:101C7000D1F801A902A800F009FF0028D3D1200063
:101C8000FFF7C6FB0028C8D020002430019900F0DF
:101C900067FD2000FFF76EFC00F026FC0028CCD189
:101CA000FFF778F8C9E700209BE7C046D875001019
:101CB000487900105A0500008C76001094780010C6
:101CC00051050000A07800105505000070B584B0E3
:101CD000041E01910BD0036C002B0ED100F03AFFD3
:101CE000051E16D1019B002B0DD1060060E0554B5F
:101CF000554A5649564802F0B3FB564B524A56498C
:101D0000534802F0ADFB554B4F4A5549504802F03D
:101D1000A7FB002600254BE0013BA3632368002BB3
:101D200008D02369002B09D1FFF774F80126300091
:101D300004B070BD01F04CF8A060F2E72000103054
:101D400000F09CFD0028EFD0FFF724F8ECE7002E10
:101D500002D1FFF75FF8EAE7424B3B4A42493C4871
:101D600002F07EFB02A800F085FE01352AE0442344
:101D70000022E25431E045230022E25432E0FFF732
:101D800029F8A06800F0F8FE0600FFF743F839E0F4
:101D90002000FFF7EFFB00F0A7FB09E02000FFF7B2
:101DA000E9FB00F0A1FB2000FFF732FB002838D14F
:101DB000FFF710F8A36B002BAED1019B002BC6D010
:101DC000002DCFD0FFF726F800F0AEFAFFF702F8AB
:101DD0004423E35C5BB20133C9D04523E35C5BB2CF
:101DE0000133C8D0FFF716F801A902A800F04EFE93
:101DF0000028D3D12000FFF70BFB0028C8D02368B0
:101E0000002BBCD020002430019900F0A9FC200058
:101E1000FFF7B0FB00F068FB0028C9D1FEF7BAFF5E
:101E2000C6E7002E01D1002681E7FEF7D3FF200090
:101E3000FFF7D6FA0100A06800F058FFFEF7EAFFAE
:101E4000F1E7C0469478001034790010E3050000F3
:101E50008C76001014780010E7050000D87500108B
:101E6000EC050000FC7800103206000070B5002878
:101E700004D000290ED0002500230DE00F4B104A9E
:101E80001049114802F0ECFA104D2D19002D01D027
:101E90002960686070BD0133072BF7D8DC000B4A5E
:101EA000121952688242EFD0002DF4D1DA00074CAB
:101EB0001259002AEFD1DA00A518ECE72C790010AE
:101EC000D8790010C90A00008C760010DC090220C5
:101ED00070B504000D001600FEF77CFF4423E35CA0
:101EE0005BB201330DD04523E35C5BB201330CD010
:101EF000FEF790FFA36B002B0BD02000FFF73AFBFF
:101F000070BD44230022E254EDE745230022E25451
:101F1000EEE7200024303200290000F07FFCECE7DF
:101F2000084B1B681B68002B04D1074B012252424F
:101F30001A607047034B1B68DB681A68024B1A6013
:101F4000F7E7C04674040020BC09022010B5040065
:101F5000006B01F083FA200001F080FA10BD000050
:101F6000F0B5DE4657464646C0B582460F0014001F
:101F70009B46089E0A9D9200A521286B04F0CCFE8A
:101F80001F4B9C466444A4002B6B9C46644407236F
:101F90009C43A046002F0ED000240F2C08D83A5D99
:101FA0002B1934331A703B5D002B01D00134F4E758
:101FB00043230022EA541F2E1CD8EE62EE64281D33
:101FC000FFF7E1F928001830FFF7DDF92D61202334
:101FD0009E1BAE616D625A4651464046FEF7CAFEF0
:101FE0002860099B002B00D01D60E0BCBB46B246B8
:101FF000A846F0BD034B044A0449054802F030FAF4
:10200000FFFFFF3F547A0010F87C00109F03000090
:102010001C7A001070B5002407E0A3001B1998007B
:102020000E4BC018FFF7A4F901341F2CF5D90C4D45
:102030002800FFF79DF90B4C2000FFF799F90A489B
:10204000FFF796F90948FFF793F90948FFF790F968
:10205000084B1D60084B1C6070BDC046800400200A
:102060007C09022090090220C8090220340A0220BB
:10207000200A0220740400207804002010B5040017
:10208000FEF7A8FE284A136801331360274B1B682C
:10209000002B0CD0264B1B68002B0DD1234B1B684B
:1020A000DB6AE26A934207D8204B1C6004E01F4BB6
:1020B0001C601368012B31D01E4A13680133136072
:1020C0006364E26A1C4B1B689A4201D91A4B1A607E
:1020D0001A4993009B189B00CB185B68A360986813
:1020E000E060221D42609A60E06A83001A18920044
:1020F000521862611A189200525801321B189B0044
:102100005A50FEF787FE0A4B1B68002B05D0074B81
:102110001B68DA6AE36A9A4203D310BDFFF77AFFBD
:10212000CAE7FEF737FEF8E7380902206C04002002
:102130001C0A0220440902204809022080040020D1
:1021400010B514E0FEF746FE0B4BDB68DC68201D83
:10215000FFF733F9094A1368013B1360084A136813
:10216000013B1360FEF756FE2000FFF7EFFE044B25
:102170001B68002BE6D110BD340A0220380902206A
:102180003C09022010B5FFF7DBFF034B1B68012B56
:10219000F9D9FEF7FFFDF6E78004002070B50400D2
:1021A0000D001F4B1E681F4B19686D2200208854BC
:1021B00018680430FFF701F9631C0DD03419194B6E
:1021C0001B685C60A6421DD9174B1868154B19682F
:1021D0000431FFF7DBF870BD002DEFD0134A5168D2
:1021E000104B1868816018688C68C46018680430E7
:1021F00060601868043088601B685A611368013396
:102200001360E8E70A4B1868064B19680431FFF7BA
:10221000BDF8084B1B68A342DDD9064B1C60DAE70A
:10222000480A02206C04002078040020200A0220C2
:1022300074040020BC090220F0B587B00490059119
:1022400016001F00900001F0C3F8041E21D070207A
:1022500001F0BEF8051E18D07022002104F05CFDCC
:102260002C63002D19D00023039302950D9B01933D
:102270000C9B00933B00320005990498FFF770FE19
:102280002800FFF7FBFE012005E0200001F0E6F842
:10229000E7E70120404207B0F0BD01204042FAE7E5
:1022A00000B583B08022154B0193002300935200A8
:1022B00013491448FFF7C0FF012807D0012808D0B0
:1022C000431C14D0104B1B6803B000BD00F04CFF42
:1022D000F4E772B60D4B012252421A600C4B0232E7
:1022E0001A600C4B00221A60FEF7E6FDEAE70A4B83
:1022F0000A4A0B490B4802F0B3F8C046B009022065
:10230000807A001085210010CC010020BC09022039
:102310001C0A0220480A0220887A0010D87C00108B
:10232000220800001C7A0010024A1368013313606F
:102330007047C04640090220014B18687047C046EC
:10234000480A0220014B18687047C046480A02201C
:10235000F8B5564B1B68002B00D09CE0544B1D6811
:1023600001351D60002D10D1524B1B681B68002BDE
:1023700027D1504A1168504B1868106019604F4AB5
:10238000136801331360FFF7CBFD4D4B1B68AB4265
:102390001DD900264B4B1B68DA6A93009B189A00E4
:1023A000494BD358012B00D90126484B1B68002B01
:1023B00000D16DE0464B1B68002B00D073E030006D
:1023C000F8BD444B444A4549454802F049F80026C7
:1023D00035E03B4B012252421A60DBE7384B1A6072
:1023E000D8E7D968516040E0196A516000219962CC
:1023F000116801391160DA6A3A4909688A4201D9DB
:1024000038490A6030499000801882008A18526862
:102410009A609068D86044609460D86A8200171807
:10242000BC0064185C61BC0064580134B8004450BE
:10243000DA6A244B1B68DB6A9A4200D301261D4BE3
:102440001B681B68002BC4D01A4B1B68DB68DB6859
:102450005A689542C2D35A699868D9688160986869
:1024600048601C1D5168A142BBD000215961116810
:10247000013911609A6A002ABDD0D869196A816051
:10248000D86948601900183150688842AED1ABE76E
:10249000FEF730F98EE70D4A136801331360FEF73B
:1024A00029F900268BE7012689E7C046400902206A
:1024B000480A02207404002078040020C009022089
:1024C000BC0902206C04002080040020C409022002
:1024D000580A02209C7A0010B47C0010A90A00005F
:1024E0001C7A00104809022010B54A4B1B68002BCB
:1024F0000FD0FEF76FFC474B1A68013A1A601B6851
:10250000002B00D080E0444B1B68002B0DD1002431
:102510007BE0424B424A4349434801F0A1FF196A1C
:10252000516015E0D968516021E000233F4A1268EC
:10253000002A4AD03D4BDB68DB689A6AD869196A81
:102540008160D86948601900183150688842E6D027
:10255000002199621168013911605A699868D96837
:102560008160986848601C1D5168A142DAD0002142
:102570005961116801391160D96A2D4A1268914276
:1025800001D92B4A11602B488A00521892008218F8
:1025900052689A609168D9604C609460DC6AA200CD
:1025A0001119890009185961111989000958013157
:1025B000121992001150204A1268D26AD96A9142C7
:1025C000B4D31E4A01211160B0E7002B01D0FFF700
:1025D000A7FC1B4B1C68002C0AD1184B1C68002C54
:1025E00013D0FEF7D7FB01240FE0013C002C07D0ED
:1025F000FFF7AEFE0028F8D0104B01221A60F4E776
:102600000F4B00221A60E8E70024FEF703FC2000CD
:1026100010BDC0464009022038090220147B00107A
:10262000C87C0010950800001C7A0010C809022020
:1026300048090220800400206C040020580A02206F
:10264000C409022010B5041E0DD00B4B1B68002BD3
:102650000CD1FFF769FE00212000FFF79FFDFFF777
:1026600043FF002801D1FEF795FB10BD034B044A40
:102670000449054801F0F4FE40090220647A001084
:10268000EC7C00102B0500001C7A001070B52A4B62
:102690001B68002B03D0294B01221A6070BD274B09
:1026A00000221A60264B1B681B6B264A1968914250
:1026B00002D15968914212D0214B186819683431FF
:1026C000FEF720F8204B1B689A00D21891001F4A91
:1026D0008A58002A11D1002B09D0013BF4E79968F0
:1026E0009142E9D1DA68174B9A42E5D1EAE7184BF3
:1026F000184A1949194801F0B3FE144D9900CA1837
:1027000090002818426854684460C9188A0008324A
:10271000521994420BD09A00D21891000B4A5218C9
:102720005268D168064A1160074A1360B6E76068CC
:1027300089006A185060EEE740090220580A02201A
:102740006C040020A5A5A5A548090220800400204E
:102750002C7B0010A07C0010E40B00001C7A001001
:1027600010B50C00002809D0074B19681831FEF786
:102770000DFE01212000FFF711FD10BD034B044A9F
:102780000449054801F06CFE6C0400203C7B0010FD
:10279000887C0010FE0B00001C7A001070B503004E
:1027A0001000002B1ED0154A1268002A20D0144CAD
:1027B0002568802212061143A9615A682168CA61FE
:1027C000216895680D6221681831696021681831A7
:1027D0009160226893621A6801321A600121FFF742
:1027E000DDFC70BD074B084A0849094801F038FE76
:1027F000084B054A0849064801F032FE400902200C
:102800006C0400203C7B0010687C0010180C000059
:102810001C7A0010487B00101C0C000070B50300EF
:1028200008001100002B18D05A680F4C2568EA6187
:10283000256896682E6225681835756025681835F4
:102840009560226893621A6801321A60002901D0EB
:1028500001204042FFF7A2FC70BD044B044A054929
:10286000054801F0FDFDC0466C0400203C7B0010D3
:10287000487C0010340C00001C7A001010B5C368AE
:10288000DB68002B4CD09A6AD869196A8160D869D4
:102890004860180018305168814247D00021996281
:1028A0001168013911602B4A1268002A44D15A6913
:1028B0009868D9688160986848601C1D5168A14279
:1028C00037D000215961116801391160D96A224A53
:1028D0001268914201D9204A116020488A0052189A
:1028E0009200821852689A609168D9604C60946036
:1028F000DC6AA200111989000918596111198900AF
:1029000009580131121992001150DA6A144B1B68F0
:10291000DB6A9A421CD9134B01221A60012018E08D
:10292000114B124A1249134801F09AFD196A51607D
:10293000B4E7D9685160C4E70F4A5168D9618C681F
:102940001C62606088609A62116801311160DCE786
:10295000002010BD40090220480902208004002008
:102960006C040020580A0220647B00102C7C0010AC
:10297000640C00001C7A0010C809022010B5324B0C
:102980001B68002B4DD080231B0619430160C368D0
:10299000002B4CD00269416884688C60816844686F
:1029A0004C605168814248D00021016111680139B1
:1029B00011605A699868D9688160986848601C1DE0
:1029C0005168A1423CD00021596111680139116060
:1029D000D96A1E4A1268914201D91C4A11601C48EA
:1029E0008A0052189200821852689A609168D960E1
:1029F0004C609460DC6AA2001119890009185961C1
:102A00001119890009580131121992001150DA6A1E
:102A1000104B1B68DB6A9A4202D90F4B01221A60E5
:102A200010BD0E4B0E4A0F490F4801F019FD0F4B18
:102A30000B4A0F490C4801F013FD81685160B3E760
:102A4000D9685160BFE7C04640090220480902200A
:102A5000800400206C040020580A0220747B0010BF
:102A6000087C00109C0C00001C7A0010647B001095
:102A7000A40C0000034B1B680360034B1B684360FE
:102A80007047C046C0090220480A0220F8B5040079
:102A90000D00002817D000291BD0FEF79BF91F4B13
:102AA0001A686368D61A1E4908686D21415C0029BE
:102AB00016D01B4B1A686D230021D1540124FEF758
:102AC000A9F92000F8BD174B174A1849184801F01A
:102AD000C7FCCE21174B144A0901154801F0C0FC70
:102AE0002968481C18D0144800682768874205D018
:102AF000934203D800232B600124E0E7B14203D8BE
:102B000000232B600124DAE79B1A5B182B6020005E
:102B1000FFF7B0FF0024D2E70024D0E7480A0220E4
:102B20006C040020A47B00104C7D0010DF0C000022
:102B30001C7A0010B07B0010C0090220014B01225A
:102B40001A607047580A0220014B18687047C04647
:102B50006C040020064B1B68002B07D0054B1B683C
:102B6000002B01D0002002E0022000E0012070478D
:102B70001C0A02204009022070B5041E4CD0C26A13
:102B8000274B1B68DB6A9A423ED28369002B05DB28
:102B9000234B1B68D96A20235B1A836193009B181F
:102BA0009B00204A9B1862699A4205D01C4B1B6807
:102BB000DB6AE362012030E0251D2800FEF7FDFB03
:102BC000174B1B68DA6AE262174B1B689A4201D9FD
:102BD000154B1A60134993009B189B00CB185B6838
:102BE000A3609A68E26055609D60E06A83001A18ED
:102BF0009200521862611A189200525801321B1842
:102C00009B005A50012008E0C26C054B1B68DB6A30
:102C10009A4203D3002000E0002070BD0120FCE7B1
:102C20006C040020800400204809022070B5041EB6
:102C300045D0254B1B6883420CD1036D002B0FD070
:102C4000013B0365C26AC16C8A423AD0002B0DD0A9
:102C5000002070BD1D4B1E4A1E491F4801F000FC9C
:102C60001E4B1B4A1E491C4801F0FAFB051D28009B
:102C7000FEF7A3FBE26CE26220239B1AA361194BCF
:102C80001B689A4201D9174B1A60174993009B1889
:102C90009B00CB185B68A3609A68E26055609D60FA
:102CA000E06A83001A189200521862611A189200A2
:102CB000525801321B189B005A500120C9E70020CE
:102CC000C7E70020C5E7C0466C040020C07B0010A9
:102CD000347D0010341000001C7A0010D87B0010E6
:102CE00035100000480902208004002070B5041E41
:102CF0000BD0026D002A09D0C36C8B4200D20B00AE
:102D0000E16A994201D0012A06D070BD214B224AC6
:102D10002249234801F0A4FB224A1268A24232D081
:102D2000E362A269002A02DB2022D31AA3618B008E
:102D3000591889001C4BC91863698B42E5D1251DC0
:102D40002800FEF73AFBE26A184B1B689A4201D949
:102D5000164B1A60144993009B189B00CB185B68B4
:102D6000A3609A68E26055609D60E06A83001A186B
:102D70009200521862611A189200525801321B18C0
:102D80009B005A50C1E70A4B034A0A49044801F024
:102D900067FBC046D87B0010107D00108410000037
:102DA0001C7A00106C0400208004002048090220D6
:102DB000F07B00109F100000044A136898691368A4
:102DC000D96A126820235B1A936170476C04002053
:102DD000054B1B68002B04D0034B1A68136D01339D
:102DE0001365014B186870476C040020074B1A6884
:102DF0001368002B06D101330360002B04D1D36884
:102E0000186870470023F7E70020FAE770040020F5
:102E100010B54160006191420CD8D21A83699A4280
:102E200001D3012010BD011D094B1868FEF7AEFA51
:102E30000020F7E79A4201D2994206D2011D054BC4
:102E40001868FEF7A3FA0020ECE70120EAE7C04685
:102E50007C0400207004002070B504000D001600F2
:102E600005E0A3699C4665442000236A9847A3694E
:102E700059192B0032002000FFF7CAFF0028F0D1BB
:102E800070BD000070B505000E000C4B1B68DB68C0
:102E9000DC68201DFEF791FA2823E35C5A0707D46B
:102EA000012293432732A354236A2000984770BD20
:102EB000320029002000FFF7CFFFF5E77004002063
:102EC00010B505E0DB68186801214942FFF7DAFF19
:102ED000054B1B681A68002AF4D1044A024910689D
:102EE0000860136010BDC046700400207C04002000
:102EF00070B50500FFF720FA0400074B1B688342FA
:102F000005D800232B60044B1C60200070BDFFF728
:102F1000D7FF01232B60F6E7B409022070B582B019
:102F200004000D00FFF700FA01A8FFF7E1FF06001B
:102F3000019B002B23D1002D01D1A04213D2002DE3
:102F400005D0104A12681268002A13D10125A11B6E
:102F50000D4B18682A00FEF7BBFFFFF7C5FA0028E3
:102F60000AD002B070BDFFF7BFFA31002000FFF7B2
:102F700089FFF6E71D00EAE7FDF70CFFF1E7FFF731
:102F8000B3FAEEE77C0400204C0A022030B587B08B
:102F900002E0029B002B0FDA394B1868002202A9CD
:102FA000FEF7ECFD002869D0029B002BF1DA039BB1
:102FB000059904989847ECE7049C6369002B02D0BC
:102FC000201DFEF7FAF901A8FFF792FF050002990C
:102FD0000929E1D889002B4B59588F462822A35C38
:102FE00001210B43A354039BA26994466344190037
:102FF000039B02002000FFF70BFF0028CCD0282302
:10300000E35C5A0707D4012293432732A354236A6F
:1030100020009847C0E7039BA269944663441900C7
:103020002A002000FFF718FFF1E72822A35C012106
:103030008B43A354B0E72822A35C01210B43A35484
:103040000399A161002906D009180300020020009D
:10305000FFF7DEFEA0E70C4B0C4A0D490D4801F0CE
:10306000FFF92823E35C9A0704D501229343273212
:10307000A35491E7200000F0F1F98DE707B030BDCF
:103080004C0A0220C87D0010647D00105C7E001098
:10309000590300008C7D001000B583B001A8FFF734
:1030A000A5FE0199FFF73AFFFFF770FFF6E7000072
:1030B00070B5FDF78FFE104B1B68002B02D0FDF79B
:1030C000A9FE70BD0D4D2800FEF752F90C4C2000F2
:1030D000FEF74EF90B4B1D600B4B1C6000221021BC
:1030E0000A20FEF70BFB044B18600028E7D00749C5
:1030F000FEF7BCFEE3E7C0464C0A02204C09022062
:1031000060090220700400207C040020F07D001083
:10311000F0B5C64600B580460D0016001F00079C9E
:10312000002914D0FFF7C4FF43462360A561E7617F
:10313000069B2362201DFEF726F9002E04D02822CC
:10314000A35C04210B43A35480BCB846F0BD6C21A2
:10315000024B034AFF31034801F082F9F87D001069
:10316000447E00108C7D001000B583B0FFF7A0FFF7
:103170000C4B1B68002B0ED080220B4B01931F239E
:1031800000930023D20009490948FFF755F80028A9
:1031900001D003B000BD1A21064B074AFF31074892
:1031A00001F05EF94C0A0220500A0220147E001041
:1031B000993000101C7E0010787E00108C7D00106D
:1031C000F0B585B003900D0016001F002C2000F014
:1031D000FFF8041E0BD028230022C25401900A9B42
:1031E00000933B00320029000398FFF791FF200075
:1031F00005B0F0BD30B585B004001D00002814D026
:10320000164B1868002826D00091019202940529D7
:103210001ADCFFF79FFC02280ED0104B1868002321
:1032200000226946FEF7CCFA13E08C210C4B0D4AC4
:10323000FF310D4801F014F9084B18680023089A73
:103240006946FEF7BDFA04E000232A006946FEF74E
:103250007FFB05B030BD0020FBE7C0464C0A0220D2
:10326000247E00102C7E00108C7D001010B584B0E0
:1032700014001A0002235B42009301900291039410
:10328000034B186800236946FEF762FB04B010BDCB
:103290004C0A0220054B984204D3054B984203D3B5
:1032A000002000E0002070470120FCE7C001001072
:1032B000CC010010044B9B68103080001950BFF304
:1032C0005F8F82F31088704700ED00E0024B9B682F
:1032D00010308000C058704700ED00E0F8B50500E0
:1032E0000E00EFF3108772B6FFF7F0FF0400B04254
:1032F00003D0FFF7CFFF002806D03A0031002800A6
:10330000FFF7D8FF2000F8BD024B034A31210348E4
:1033100001F0A6F8907E00102C7F0010D47E0010E3
:10332000EFF3108072B6034B1B68002BFBD0BFF38A
:103330005F8F70472C0100D0BFF35F8F024B0022DC
:103340001A6080F3108870472C0100D0F8B5060091
:103350000C001500FFF7E4FFE308F718F15C072203
:103360002240012393400B4205D1DBB20B433B705B
:10337000FFF7E2FFF8BD2100280001F00BF9000083
:10338000034B1B6802201840431E9841C0B270478F
:1033900000C00640002307E0054A9A189200BFF3D8
:1033A0005F8F0021116001331F2BF5D97047C04694
:1033B00040000034054A1078431CDBB21370172B11
:1033C00002D9130010221A707047C046D0010020A5
:1033D00070B50400430707D0072302009A43130087
:1033E0000833834214D80024FEF79EFF174B1B6856
:1033F000002B0FD0002C13D0154B1B681C19154A3D
:10340000944214D8A34216D3FFF76EF800250AE0C1
:103410001C00E9E7104B072293430C4A1360E9E7CD
:10342000FFF762F80025FDF767F9280070BDFFF788
:103430005BF80025F7E7054A1568ED18044B1C609A
:10344000FFF752F8002DF0D1EDE7C04664040020EC
:10345000B8090220F7FF01003309002010B5002849
:1034600000D110BD024B034A8B21034800F0F8FF46
:103470004C7F0010AC7F0010607F001010B58300FF
:10348000084A944663441C6840226240C0241440A9
:103490008022520113431C60C000034B9C466044D1
:1034A000416010BD04C001400040014080000B4B52
:1034B0009C46604400290DD00823002A0CD0042229
:1034C0001343026853400C221340802252011043E0
:1034D000036070470023F0E70022F1E704C00140D9
:1034E000072303409B00C00899403C308000014BFB
:1034F000C150704700400140F8B507000C001600AD
:103500001D00FFF7EDFFFB089B00ED18072038407A
:1035100080008440002E04D080239B011D432C603A
:10352000F8BDC0239B011D432C60F9E710B5D023E3
:103530001B061B68002B03D0024BFFF7DDFF10BDFD
:10354000014BFAE7304101400041014010B51C0039
:10355000FFF7ECFFD0231B061A689200054BD450EE
:1035600005490D2001F0B6F901210D2001F0A2F965
:1035700010BDC046CC0300207D35001070B5D023AF
:103580001B061B68002B02D0134D002402E0134DD4
:10359000FBE701341D2C1DD8E30808339B005A5962
:1035A000072323409B00DA4013000F2216001E4021
:1035B0001A42EED031002000FFF792FFD0231B0605
:1035C0001B689B00064A9B58002BE2D0310020006C
:1035D0009847DEE770BDC0463041014000410140E0
:1035E000CC03002010B501238340D0221206936241
:1035F00093610521FFF742FF10BD000070B5040084
:103600000D00062001F0E6F8C000290002F0A0FC41
:10361000C60908D00E4B9E4217D87F2318400130B0
:103620003500460800E001256562A6622C34802042
:103630008001044300232360062001F0CBF88000C2
:10364000A901891902F084FC70BD0026014DEBE749
:10365000FEFF0000FFFF0000002909D00A22064BF0
:103660009C466044434258414000044BC25270475C
:1036700080225200F3E7C0460080FCBF24090020EE
:1036800070B505000C00062001F0A4F8002829D030
:10369000164B9D4227D08022D203154B1A60154B42
:1036A0001A60154B9B6811009943FAD1002128003C
:1036B000FFF7D2FF21002800FFF7A0FF2C002C34D9
:1036C000E96A60224A406E21114080225201224361
:1036D00011600A4B2B6380239B01234310221A6045
:1036E0000323AB6470BD80221204D6E70080034040
:1036F00000E0004000F0004000C000400103000076
:1037000070B505000C00080000F07AFB200000F006
:103710004BFC0849200000F08BFBFFF74BFE064BEB
:103720009C466044800068602C75A400034BE55003
:1037300070BDC046153A001040000034540400200B
:1037400010B5002922D003681B7B99421ED8174B65
:103750009C466144090183689C4661440C68496841
:10376000002A19D003681B7B9A4215D883680F483A
:103770008446624412019A181068536802000120BE
:103780008B4201D80ED00020C0B210BD084B094AB0
:103790003B21094800F064FE054B064A3B210648E0
:1037A00000F05EFEA242EFD8EDE7C046FFFFFF0F3C
:1037B0001080001038820010CC7F001010B5002956
:1037C0001ED0037B99421BD84B005B18033B046857
:1037D000A4466344002919D0002A1DD0914221D06B
:1037E000002A25D0047BA24222D804685000801809
:1037F000033820188170197800291FD11A7010BD64
:10380000104B114A6921114800F02AFE104B114A51
:1038100070310E4800F024FE0F4B0E4A71210B4808
:1038200000F01EFE0D4B0B4A7221084800F018FEF6
:10383000044B054A6921054800F012FE41701A70D8
:10384000DDE7C046448000108C82001060800010CC
:10385000B880001068820010C4800010D080001072
:1038600070B506000D001400002914D0002A14D0F1
:10387000806873689847002806D02200290030002D
:10388000FFF79CFF280007E02A0021003000FFF727
:1038900095FF200000E0100070BD0800FCE700006C
:1038A000F0B583B00500009201930AAB1C780BAB16
:1038B0001F78002C26D003685A7B944207D101233D
:1038C000002B19D1002C3BD1200003B0F0BD002CFF
:1038D0000CD01A7B944209D81A6863001B19033B69
:1038E000D3189B78002BEBD00123E9E73E4B3F4AEE
:1038F00069213F4800F0B4FD3E4B3F4A65213F48F7
:1039000000F0AEFD03689C7B002CDBD012D01A7B4C
:1039100094420FD862001219033A19688C46624427
:1039200051789973002900D1D97300239370537093
:103930001370C7E72C4B2D4A69212D4800F090FDEC
:10394000002C3AD02B681B7B9C4236D82C4BE318BA
:103950001B01AA6894466344009A1A60019A5A604F
:10396000089A9A60099ADA602E68002C2BD030D021
:10397000337B9C422DD863001B19033B326894466D
:10398000634400229A705A701A70717B22003000D2
:10399000FFF766FF7073844200D095E7287D009A98
:1039A000019B00F08DFA061E01D0002F17D00C9B52
:1039B000002B00D188E71E7086E7124B124A3B218C
:1039C0000E4800F04DFD114B114AA621084800F0A9
:1039D00047FD054B054A6921054800F041FD28686F
:1039E000210000F0BBFCE2E7448000108C82001054
:1039F00060800010E880001098820010CC7F0010DA
:103A0000FFFFFF0F1080001038820010C87F0010E9
:103A10007C820010F0B5DE4657464E464546E0B57E
:103A20008BB00990002308938200B24BD658370020
:103A300032E0B14BB14A3F21B14800F011FDB14B2A
:103A4000B14A3B21B14800F00BFDB14BB14A8C218A
:103A5000AE4800F005FDB04BAE4A9021AB4800F0F7
:103A6000FFFCA84BAD4A4021A84800F0F9FC2A68A9
:103A70006B68099800F024FA00239A4698467B6800
:103A8000BFF35F8F00221A6086F310884346002B35
:103A900051D1002800D126E100F0BEF902000B1E32
:103AA000C7DB00200021069007917868EFF31086AD
:103AB00072B601680029FCD0BFF35F8F3968884671
:103AC0004C7B002C32D0BAD0097B8C42B7D89449B9
:103AD00065182D01B9688C46654428686968801AA4
:103AE00099410029C3DC01D10028C0D10021404602
:103AF00000F02AFCA042A8D12A686B6806920793BE
:103B0000AB689846EB689A464346002BA3D0002C3E
:103B1000A7D03B681B7B9C42A3D8631EFA68D35C8A
:103B200008931B02184338610020A8E700239A4637
:103B300098460020A3E7089B1B0223439946514661
:103B40001800C04705000E007A68EFF3108B72B6BC
:103B5000136859424B41D9B2002BF9D1BFF35F8FA3
:103B6000002E26DB002E52DD3B69002B53D04B4547
:103B700072D100F051F902000B1E73DB0100180036
:103B800052197341984202D804D1914202D90122BC
:103B90005242D317002B6BDB0021049101310391BA
:103BA000029451460191414600913800FFF778FE9A
:103BB00049E03B69002BD5D04B451CD1069A079BA9
:103BC00010001900521BB341994202D804D190420F
:103BD00002D901225242D317002B12DB002104919B
:103BE0000131039102945146019141460091380000
:103BF000FFF756FE27E04B4B464A9F21434800F013
:103C00002FFC3D4B3D4A3F213D4800F029FC002E52
:103C100001D1002DA8D13A68002C45D0537B9C429D
:103C20002CD1012100293FD1D37B002B42D1D47369
:103C3000002C52D03B681B7B9C424ED8FA68013C5A
:103C4000135D0133135500233B617A68BFF35F8F27
:103C500013608BF310881FE7324B2E4AA2212B48AA
:103C600000F0FEFB244B254A3F21254800F0F8FBDD
:103C7000214B224A3F21224800F0F2FB002C0DD0BC
:103C8000137B9C420AD863001B19033B10688446CF
:103C900063449B78002BC5D00121C3E7224B234A04
:103CA0006921234800F0DCFB224B234AF7212048FE
:103CB00000F0D6FB002B0AD0117B8B4207D85900AD
:103CC000CB18033B11688C4663445C70AFE7164B1E
:103CD000164A6921164800F0C3FB0A4B0F4A4021DF
:103CE0000A4800F0BDFB0BB0F0BCBB46B246A9468B
:103CF000A046F0BD54040020108100100482001082
:103D00002C8100101080001038820010CC7F001031
:103D1000808100101C8200109881001044820010E5
:103D2000FFFFFF0FA4810010448000108C82001060
:103D300060800010E08100105882001010B50A4B1E
:103D40005B68002B04D00A21084800F04DF910BD33
:103D5000054C2300064A1021206800F015FA0321C3
:103D60002000FFF7CDFCEEE7D40100200809002079
:103D70004137001070B5EFF305833F20184010382D
:103D8000EFF3108C72B6194B1B68002BFBD0BFF3FE
:103D90005F8F012319008140154A5163154A12783B
:103DA0001400C440234214D0114B5C6A8300124DAE
:103DB0005B599C4206D38300104C1B598A430D4922
:103DC0000A7007E00A4A031D9B0099589950002386
:103DD00000E00023BFF35F8F044A002111608CF3E1
:103DE0001088002B00D0984770BDC046280100D035
:103DF00000400540640A022014090020D40300207A
:103E000010B50100024A0348FFF7A0FA10BDC046F2
:103E1000B0820010620A0220044B5B6A034A906A77
:103E20001900536A9942F9D17047C04600400540D5
:103E300070B504000D00EFF3108672B61B4B1B68C3
:103E4000002BFBD0BFF35F8F002D1CD0200000F0B3
:103E500039FD174B83420BD01900200000F03AFDCA
:103E60000121200000F026FD0123A340114A136028
:103E7000A400114BE550BFF35F8F0C4B00221A607A
:103E800086F3108870BDA2000B4B0021D150012297
:103E9000A2400A490B7893430B700549200000F0BB
:103EA00043FD0021200000F005FDE4E7280100D0DB
:103EB000753D001038600540D4030020640A0220DC
:103EC000F0B5DE4600B584B00400150001921E0076
:103ED0000293FFF7A1FF03958E4202D84ED185428F
:103EE0004CD9EFF3108B72B6274B1B68002BFBD01D
:103EF000BFF35F8F254A17780125A540EBB23B43FE
:103F00001370234B5D63221D92000199D150A200D2
:103F10002049029850501B6A2B4212D11C4B1B6C3B
:103F20002B4208D00020BFF35F8F174B00221A608E
:103F30008BF3108823E0184B184AC121184800F071
:103F40008FFAFFF769FF8E4214D802D1039B834298
:103F500010D80E4B1B78BB420ED00D4B1D625D631B
:103F60001F2004400123A3400E4A1360074B1F701B
:103F70001E38D8E70020D6E70120D4E7012004B09E
:103F800080BCBB46F0BDC046280100D0640A0220B8
:103F90000040054014090020D4820010488300101E
:103FA000F882001080E200E0EFF3108C72B60B4B49
:103FB0001B68002BFBD0BFF35F8F01238340084AAF
:103FC000136208490A789A430A70BFF35F8F034B64
:103FD00000221A608CF310887047C046280100D078
:103FE00000400540640A0220024B9C46614489005F
:103FF000016070474000003410B50400FFF7DAF9A3
:1040000001002000FFF7F0FF01235B426360BFF374
:104010005F8F10BD10B50400FFF7CCF90100200040
:10402000FFF7E2FF01235B42636000232372BFF3CB
:104030005F8F10BD10B500291ED0037B99421BD89D
:104040004B005B18033B0468A4466344002919D065
:10405000002A1DD0914221D0002A25D0047BA24203
:1040600022D804685000801803382018817019780D
:1040700000291FD11A7010BD104B114A6921114837
:1040800000F0EEF9104B114A70310E4800F0E8F9DB
:104090000F4B0E4A71210B4800F0E2F90D4B0B4A11
:1040A0007221084800F0DCF9044B054A69210548F3
:1040B00000F0D6F941701A70DDE7C0464480001068
:1040C0000885001060800010B8800010F484001093
:1040D000C4800010D080001070B506000D001400E0
:1040E000002914D0002A14D08068736898470028EB
:1040F00006D0220029003000FFF79CFF280007E0CF
:104100002A0021003000FFF795FF200000E010009A
:1041100070BD0800FCE7000010B5002343730133B5
:104120008373037BC3730123027B9A4214D9002B50
:104130000CD0027B934209D85A00D218033A016886
:104140008C4662440133DBB25370EDE70B4B0C4AF3
:1041500069210C4800F084F9002A09D0924207D85E
:10416000016853009A18033A8A180023537010BD4F
:10417000024B034A6921034800F072F944800010A1
:10418000088500106080001010B5017342608360E4
:10419000FFF7C2FF10BD000070B50400081E00D17B
:1041A00070BD002934D0237B994231D84B005B1875
:1041B000033B2268944663445A78002AF0D02DD0FD
:1041C000237B9A422AD853009B18033B21688C46D4
:1041D00063445D7800215970002825D0237B9842E4
:1041E00022D843001B18033B21688C4663440021FE
:1041F000597001002000FFF76FFF06002900200022
:10420000FFF7CAFF020031002000FFF765FFC7E794
:10421000084B094A6921094800F022F9054B064A72
:104220006921064800F01CF9024B034A6921034842
:1042300000F016F94480001008850010608000101E
:1042400070B505000C001600002928D02DD0037B86
:1042500099422AD84B005B18033B0268944663449A
:104260005A78002A27D19A78002A2AD11978FFF79C
:1042700093FF0300002E03D0EA7B002A27D1EC73C2
:10428000002B37D1002C49D02B7B9C4246D82B6881
:1042900061000C19033C1C190023637070BD224B94
:1042A000224A3821224800F0DBF8224B224A6921B9
:1042B000224800F0D5F8224B1C4A3A211C4800F055
:1042C000CFF8204B194A3B21194800F0C9F8002AC1
:1042D0000AD0297B8A4207D851008A18033A2968F4
:1042E0008C4662445470CAE7124B134A6921134842
:1042F00000F0B6F8002B0BD02A7B934208D843007D
:104300001B18033B2A689446634400229A70B9E75D
:10431000084B094A6921094800F0A2F8054B064AF2
:104320006921064800F09CF808840010E084001021
:104330001084001044800010088500106080001078
:10434000548400107C84001070B504000A00457B82
:104350002900FFF775FF6073280070BD70B5040079
:10436000002967D0437B8B420ED0002911D0037BFC
:1043700099420ED84B005B18033B0268D018837833
:10438000002B0CD1002056E00121FFF7DDFF0120BA
:1043900051E0294B294A6921294800F061F8002B96
:1043A00020D0227B93421DD85A00D318033B2268A9
:1043B000D2182568EB5C8B421AD0002B1BD0227BD5
:1043C000934218D85A00D318033B2268D218537866
:1043D0008B4216D0002BF0D11A4B1B4A67211B4889
:1043E00000F03EF8144B154A6921154800F038F8E2
:1043F0004378137007E0104B104A6921104800F011
:104400002FF84378537000238370437001222000FB
:10441000FFF716FF0200617B814205D02000FFF705
:104420005BFE6073012006E0094B074A6D210748D7
:1044300000F016F8002070BD4480001008850010C0
:1044400060800010A0840010C88400101084001048
:10445000A884001000BEFDE710B5FFF7FBFF0000C9
:1044600010B582B00C001900002A0CD0084B002AAD
:104470000BD00192009323000200064802F09AFD3F
:104480000120FFF7E7FF044BF1E7034AF1E7C046DD
:1044900014850010248500102085001070B52B4B6A
:1044A0002B4A1A602B4B2C4A1A602C4B9A682A4BC9
:1044B0009343FAD12A4C01E008CC9847294B9C42FF
:1044C000FAD300F007F9234B274A1A60234B9B6865
:1044D000DB43DB01FAD1254B40229A675A671A6702
:1044E000DA66234C09E0234B234A83212348FFF754
:1044F000B7FF2000FFF780FD0834214B9C4209D212
:104500002368002BF5D0012BEDD12000FFF782FDB1
:104510000C34F2E71B4CA1681B4DC022280002F0AE
:1045200001FCA560FBF79FFE002800D000BEFEF74F
:1045300031FF00F05BFBFFF701FC144C01E008CCFD
:104540009847134B9C42FAD370BDC04600E0004030
:10455000BFCDFBFE00F00040FE7F3C0000C00040ED
:1045600094020020A4020020FFFFFF0100F00140A0
:104570008402002054850010E4850010748500102A
:104580009402002000ED00E000000020A4020020C2
:10459000AC0200200FB400B583B0084802F0D8FC8C
:1045A000049B002B07D005A90191180002F0E0FC44
:1045B000034802F0CDFC0120FFF74CFFC48500103A
:1045C000F072001010B50148FFF7E4FFD485001029
:1045D000F8B5DE4657464E464546E0B505000F00A5
:1045E00092460A9A93424ED31A0E91461E020A9A96
:1045F00000233000494601F0EDFC80466C00641950
:10460000A4002F4B9C4664446368834200D26060E0
:104610002B1FDBB29B46012B3BD9C0239B012343BD
:10462000802212011A60AB00264A9958002905D051
:10463000506901F08DFC01300138FDD153465A011B
:1046400023685A40E0231A4080235B0123431A6009
:104650005A46012A28D980239B0123438022120134
:104660001A6043466360424600233000494601F029
:10467000B1FCAD00134B58510120F0BCBB46B24613
:10468000A946A046F8BD104B104A2D211048FFF74F
:10469000E7FE012FC1D1C0239B01234303221A60EF
:1046A000A368DB07FCD5C9E72168794003220A40EB
:1046B0001A60A2680123BB401342FAD0CBE7C04680
:1046C00000800040E4030020F485001058860010AC
:1046D0000886001030B583B00C2000F021FBFEF7F7
:1046E0004FFE00280DD0002304E099002D4A2E48EB
:1046F00088500133092BF8D92A4B2C4A5A6203B04F
:1047000030BD2B4B00229A6700F012FB294B01228F
:104710001A60274B5B6C012BFBD1274B03221A60DD
:10472000234B9B6B012BFBD1022400940533234ABE
:104730000121234800F068FA00940523214A012151
:10474000214800F061FA214B00930022022104204D
:10475000FFF73EFF1E4D00952B0000220121052092
:10476000FFF736FF104C00942300002200210720A1
:10477000FFF72EFF00942300002200210820FFF7FE
:1047800027FF0A4B00932300002200210920FFF796
:104790001FFF00952B00002200210620FFF718FFC5
:1047A000ADE7C046E4030020006CDC021BB700004C
:1047B000008000403CB0004030B00040002F6859FD
:1047C0000080024000389C1C00C00240001BB70063
:1047D000405973078000014BC0587047E403002024
:1047E000074B9B68103080001950BFF35F8FBFF3F9
:1047F0005F8F044B0021196082F310887047C04618
:1048000000ED00E0240100D010B5091A0439480871
:10481000090B05D14005400D044B184380B210BD73
:10482000034B044A8B210448FFF71AFE00E0FFFF08
:1048300068860010808800107886001010B5091A6C
:1048400004394C08090B08D14905490D064A1143A2
:104850000180064B2343438010BD054B054A93213D
:104860000548FFF7FDFDC04600F0FFFF00F8FFFF21
:104870006886001054880010788600100123834059
:10488000034A10681840431E9841C0B27047C046A2
:1048900000E100E0002904D0034B1860034B1860CE
:1048A0007047034B1860FBE780E200E000E100E0A6
:1048B00080E100E010B5012383401800FFF7EAFF14
:1048C00010BD0000024B9B6810308000C05870473C
:1048D00000ED00E070B504000D00EFF3108672B635
:1048E0000C4B1B68002BFBD0BFF35F8F2000FFF742
:1048F000E9FF094B984201D0A84205D132002900B6
:104900002000FFF76DFF70BD044B054A6E2105487E
:10491000FFF7A6FD240100D0CD010010C4860010D1
:104920009C88001078860010F0B5CE46474680B5CA
:1049300083B006000D00EFF3108872B6574B1B686A
:10494000002BFBD0BFF35F8F554B9A6834001034B7
:10495000A300D758534B9F4207D0AF4200D19BE0F2
:104960000197514BFB1A2F2B09D9424639003000D1
:10497000FFF736FF03B0C0BCB946B046F0BD30000B
:10498000FFF77CFF814600213000FFF793FFBFF364
:104990005F8FFBF768FC002801D0844219D1012306
:1049A000019C9C43414923003F4A9B1A5B41594368
:1049B000090D49B20022A368AB4212D00622A256CA
:1049C000002A0DDB53009B189B002200364CE41894
:1049D000F1E71E21364B374AFF313748FFF740FDDC
:1049E0002200AB4251D106256557002D39DB6B0003
:1049F0005B199A002C4B9B189A68A260DA79E271D5
:104A000006229A56A2719B795BB2002B10DABD2068
:104A10000002A0806B005B199B00234AD318274A31
:104A200011789971157049463000FFF743FF9CE7F4
:104A3000201D6B005B199B001B4A9B181A1D9B884D
:104A4000D90A1C2907D15B055B150233590051189F
:104A5000FFF7DAFEDDE71A4B1A4A99211648FFF7ED
:104A6000FFFC00280CD1002A08D0FF239371164BBD
:104A70009380124B1A78A2711970D4E7094FF8E7A6
:104A8000201D1249FFF7DAFECDE7A921104B094A94
:104A900049000948FFF7E4FC024F66E7240100D013
:104AA00000ED00E0CD010010FC010020AAAA0000EA
:104AB000D88700106C88001078860010630A0220E6
:104AC000C08700108C88001000BDFFFF3602002058
:104AD000FC87001010B5032304009C43064A94464B
:104AE000644422681840C000FC3383409A4313009A
:104AF00081400B43236010BD00E400E070B504006A
:104B0000012606432D4BF31A2F2B28D8FBF7ABFBBE
:104B100000282BD0EFF3108C72B6294B1B68002BAA
:104B2000FBD0BFF35F8F274D22002449521A524118
:104B300055432D0D6DB2244B9B6880001B58B3422A
:104B40001BD00022032A32D853009B189B001B491C
:104B5000CB189B795BB2AB421FD00132F2E77821D0
:104B60001A4B1B4AFF311B48FFF77AFCBD211A4B39
:104B7000174A49001748FFF773FC134B9B68174A05
:104B80001A50174B1A78A2711D70BFF35F8F0C4B30
:104B900000221A608CF3108870BD08005300991829
:104BA00089004118FF268E710E4A8A80E9E78C2120
:104BB0000D4B074AFF310748FFF752FCFC0100206C
:104BC000240100D0AAAA000000ED00E00488001033
:104BD00038880010788600102C880010CD01001055
:104BE000630A022000BDFFFFA08400100022044BD6
:104BF00002E0044902C30132072AFAD97047C046CD
:104C000000E400E080808080F0B5CE4600B504006E
:104C10000E0091461F000C2001F09AF90500430197
:104C20001B1A9901C91AC90009188901484601F0DF
:104C30008FF90200103A98235B009A4233D87B1E0A
:104C4000062B36D8069B013B062B32D8069B9F428B
:104C500035D34B461A09AA4237D33F04069B1D039E
:104C60002F432368002B36DB234B9C4241D080220C
:104C70005201224B1A60224B1A60224B9B68110092
:104C80009943FAD12660A060231DC02292011A43E5
:104C9000212313602368002BFCDAE76008231360EC
:104CA00080BCB946F0BD184B184A16211848FFF7CA
:104CB000D7FB184B154A19211548FFF7D1FB164BA6
:104CC000124A1F211248FFF7CBFB144B0F4A222137
:104CD0000F48FFF7C5FB22683F231340B342C3D1FF
:104CE000A3681B051B0D8342BED1E368002FBBD117
:104CF000D6E780229201BCE700C0024000E00040FD
:104D000000F0004000C00040B8880010A0890010EA
:104D1000D4880010208900106C890010848900104C
:104D200080239B000343014AD36270470080054003
:104D3000064BAA2212011A602F22DA60044B054AA0
:104D40001A60024B5B68002BFBDA704700400240A0
:104D50000060024000B0FA00704710B5002802D091
:104D60000B684968984710BD0100002007E08300E8
:104D70001B185B00501C08601078C01830380A6897
:104D80001378303BDBB2092BF1D97047F0B5DE4622
:104D900057464E464546E0B583B093461F000C9BF0
:104DA0009A460D9C0E9B99460F9B9B0703D0B846D5
:104DB0000F00060022E00192A34688464E46B946FF
:104DC0000700B44207D2551C4B4641462020B84745
:104DD00001342A00F5E73D004F465C46019B9B46A7
:104DE000B1464646B84637002E0007E0013C551C48
:104DF0005346185D43463900B0472A00002CF5D1D0
:104E000035003E0047460F9B9B0707D4100003B0B8
:104E1000F0BCBB46B246A946A046F0BDB0464E46E1
:104E2000B9462F005D46531BB342EFD2541C4B468C
:104E300041462020B8472200F5E7F0B5CE46474668
:104E400080B585B0944698460C9D0D9C0EAB1B78A2
:104E50009946109A119B129EB7071CD4002B0CD0B8
:104E6000F7070AD54F46002F02D10C37374204D03E
:104E7000013B02E030272F550134944201D21F2C10
:104E8000F8D9F70707D59C4205D21F2C03D8302745
:104E90002F550134F5E7F70615D5770505D4002C15
:104EA00003D0944224D09C4222D00F9A102A2BD0B7
:104EB0000F9A102A30D00F9A022A35D01F2C02D810
:104EC00030222A5501341F2C05D84A46002A31D0F9
:104ED0002D222A55013403960293019400954346EE
:104EE0006246FFF753FF05B0C0BCB946B046F0BDFF
:104EF000621E012C06D00F9F102F01D01400D4E7A2
:104F0000023CD2E71400D0E7B206D1D41F2CCFD890
:104F100078222A550134D1E7B206CCD51F2CCAD845
:104F200058222A550134C9E71F2CC7D860322A55A8
:104F30000134C3E7720703D52B222A550134CAE78F
:104F40003207C8D520222A550134C4E7F0B5DE4621
:104F500057464E464546E0B593B081468A4608928C
:104F600009931CAB10CB1B789B461E9D219B98463A
:104F7000002C03D1102342469A4390468023DB0045
:104F800046461E4042461A4212D0002C22D000262D
:104F90000EE03033D9B2771C0AAB995529002000B6
:104FA00000F0D6FFAC4216D31F2F14D83E000400E9
:104FB0002900200000F0CCFFCBB2092BE9D94246F2
:104FC000920605D54121C918C9B20A39C9B2E2E72A
:104FD0006121F8E7270043460693209B05931F9B1A
:104FE000049303955B46029301970AAB0093099BD8
:104FF000089A51464846FFF720FF13B0F0BCBB4665
:10500000B246A946A046F0BDF0B5DE4657464E462C
:105010004546E0B595B0089009910A920B931E9E03
:105020001F9C20AB1B789B46229B9946239D269B69
:105030009A463300234303D1103352469A43924693
:105040008023DB0057461F4052461A4219D03300D6
:1050500023432DD0002714E03033DAB27B1C98466E
:105060000CABDA554A462B003000210000F0B2FFAD
:10507000A5421FD819D043461F2B1BD84746060010
:105080000C004A462B003000210000F0A3FFD3B2F1
:10509000092BE1D95246920605D54122D218D2B247
:1050A0000A3AD2B2DAE76122F8E7B145E3D901E082
:1050B0000023984653460693259B0593249B04930F
:1050C0004B4603935B460293434601930CAB00931C
:1050D0000B9B0A9A09990898FFF7AFFE15B0F0BC30
:1050E000BB46B246A946A046F0BD0000F0B5DE467C
:1050F00057464E464546E0B591B083468A460C92E7
:1051000098461A9C08941B9D099522002B002000AC
:10511000290001F0EEF9002800D0E5E0012252421A
:10512000D74B2000290001F0DFF9002800D0DBE098
:1051300001225242D34B2000290001F0BFF9002880
:1051400000D0D1E000220023089D2800099E3100F4
:1051500001F0B4F9002800D0DDE008980999069024
:1051600007918023DB001E9A1A400D921E9A1A4264
:1051700001D106231C930698079904000D000A002C
:105180000600024300D1D1E0080D4005400DBE4CA1
:10519000A44660440A03120BBC4B13431F0001F0EA
:1051A000BBF9BB4ABB4B01F046F9BB4ABB4B01F014
:1051B0001BF904000D000022B94B3000390001F04A
:1051C0000AF9B84AB84B01F036F902000B0020008A
:1051D000290001F009F901F0B7F9814601F09CF9C5
:1051E00004000D00B14AB24B01F025F90022B14B89
:1051F00001F0FAF801F0A8F90600AF4AAF4B200021
:10520000290001F018F904000D00300001F084F9C4
:10521000AB4AAC4B01F00FF902000B002000290053
:1052200001F0D9F804000D0002000B0001F003F9B1
:105230000A900B91A44BF31800261F0522002B00A7
:105240002000290001F0D0F80E900F9122002B00D1
:1052500000208021C90501F0BEF804000D000022E5
:105260009A4B0A980B9901F0C8F80022984B01F06C
:10527000BBF802000B000A980B9901F0BEF800225F
:10528000944B01F0B1F802000B000A980B9901F061
:10529000B4F802000B002000290001F0A5F802007C
:1052A0000B000E980F9901F0A8F80022774B01F03F
:1052B0009BF832003B0001F0BEF806000F0004002E
:1052C0000D00069A079B01F00FF9002830D001234A
:1052D0005B429C46E14400227D4B3000390001F0E6
:1052E0008CF804000D0023E01E9B04931D9B039388
:1052F0001C9B0293089A099B0092019343460C9AC7
:105300005146584600F0FCF811B0F0BCBB46B2461E
:10531000A946A046F0BD00230024069307940695F5
:1053200080231B069C46664407961AE7002399468D
:105330004B466333C62B1ED804261E9B1B0526D561
:105340002B0023430FD0644A644B0698079901F061
:10535000C3F8002879D00022614B0698079901F024
:10536000ADF8002871D01C9B4B4506DD4A46981AC3
:10537000431E1C9303E00526DFE700231C938023D4
:10538000DB001E9A1A431E920026002399461D9B9D
:105390009E4264D29F1B02231E9A1A400A921E9AB2
:1053A000134202D0002E00D000274B46002B07D01E
:1053B00022002B000698079901F01FF8069007912C
:1053C000002200230898099901F078F8002848D1B4
:1053D000444B1E9A1340049303971C9B0293069B15
:1053E000079C0093019443460C9A5146584600F09E
:1053F00087F8002E00D187E71E9B9B063DD54525EB
:10540000441C4346020051462800D8474B46DA1751
:105410009B18534005220592013E049600220392F8
:105420000A3202924A46D00F01900093434622006E
:1054300051465846FFF78AFD0A9B002B00D163E7CF
:1054400002005F460C9E1D9D54E01C9B002B9ED0CD
:105450000D9B002B9BD01C9B013B1C9397E70027C7
:1054600099E7069C079D22002900802000068446BB
:1054700061440B0006920793AAE76525C0E7C04682
:10548000FFFFEF7FFFFFEFFF01FCFFFF0000F03F9A
:10549000FB799F501344D33FB3C8608B288AC63F23
:1054A0000000F83F61436F63A787D23F71A379097A
:1054B0004F930A400000E03F1655B5BBB16B024068
:1054C000EF39FAFE422EE63FFF03000000002C40B9
:1054D00000002440000018402D431CEBE2361A3F28
:1054E00080842E41FFF7FFFF541C43465146202085
:1054F000B8472200931BAB42F6D3100004E7C04626
:10550000F0B5DE4657464E464546E0B595B00690A6
:10551000079193469946209F1E9A1F9B10001900E1
:1055200000F0E7FF002831D101225242BF4B1E9804
:105530001F9900F0C3FF002837D101225242BC4B13
:105540001E981F9900F0D0FF00283DD10022B94BD2
:105550001E981F9900F0C8FF002850D10022B64BBA
:105560001E981F9900F0AAFF002848D100220023AE
:105570001E981F9900F0A2FF002850D100239846E2
:10558000229B5B0500D4B6E0002458E0229B0393E5
:10559000219B029303230193A84B00934B465A4649
:1055A00007990698FFF7F2FB0EE1229B0393219BDC
:1055B000029304230193A24B00934B465A4607994A
:1055C0000698FFF7E3FBFFE00423229A1A40229992
:1055D0000B4210D09B4B002A0FD00422229903913A
:1055E00021990291019200934B465A4607990698D9
:1055F000FFF7CCFBE8E0944BEDE70322EEE7229BBC
:105600000493219B039302971E9B1F9C009301947C
:105610004B465A4607990698FFF768FDD4E01E9A54
:105620001F9B0020002100F0D6FE1E901F91012339
:105630009846A5E70CAB30221A55013F01341F2CC8
:1056400001D8092FF6D81E981F9900F07DFF05009C
:1056500000F062FF02000B001E981F9900F0BBFED5
:10566000FA007A4B9B181A685B680A920B9300F059
:10567000E2FE0890099100F08BFF060000F048FF61
:1056800002000B000898099900F0A5FE0890099106
:1056900000226F4B00F028FF00282ED0013630008A
:1056A00000F036FF02000B000A980B9900F00CFF87
:1056B000002801D001350026002F2CD1280000F051
:1056C0002BFF02000B001E981F9900F084FE0600BD
:1056D0000F0000225E4B00F0F1FE002846D10022B0
:1056E0005B4B3000390000F0FFFE00283ED1EB0795
:1056F0003CD501353AE0062746E70022544B08988E
:10570000099900F0DBFE0028D6D1002E01D0F30766
:10571000D2D50136D0E7AA461F2C11D8013F0A2165
:10572000300000F015FC651C30310CAB19550A2116
:10573000300000F00DFC092E0ED906002C00EBE71E
:1057400055461F2C0CD87B1E002F09D00CAA3021E7
:1057500011551F000134F4E72B0055461C00F0E7FB
:105760001F2C03D80CAB2E221A5501341F2C10D835
:105770000A21280000F0C4FB661C30310CAB19551F
:105780000A21280000F0BCFB051E01D03400EDE723
:1057900034000323229A1340012B1CD01F2C06D85F
:1057A0004346002B32D00CAB2D221A550134229BDC
:1057B0000393219B029301940CAB00934B465A46F2
:1057C00007990698FFF7E2FA15B0F0BCBB46B2465F
:1057D000A946A046F0BD219B002B13D04346002BC9
:1057E00002D10C3313420FD0219B013B21931900AE
:1057F00003E00CAB30221A5501348C42CED21F2C60
:10580000F7D9CBE72199F8E72199F6E7229B5B07C7
:1058100004D50CAB2B221A550134C8E7229B1B0779
:10582000C5D50CAB20221A550134C0E7FFFFEFFFAE
:10583000FFFFEF7F65CDCD4165CDCDC1B8890010AB
:10584000BC890010B0890010AC890010A88B001032
:105850000000E03FF0B5DE4657464E464546E0B50F
:1058600093B082468B4690461193002900D1EBE21B
:1058700000275546119B1878002800D1E7E225281B
:1058800009D07C1C43463A005946A847119B013376
:1058900011932700EEE7013311930024119A117838
:1058A0000B00203BD8B2102803D88300D048C3583F
:1058B0009F460B00303BDBB2092B2CD92A292FD075
:1058C00000230A93119B1A782E2A39D000239A4676
:1058D000119A1378683BD9B2122976D88B00C54942
:1058E000CB589F4601231C4301321192D6E7022375
:1058F0001C4301321192D1E704231C43013211925F
:10590000CCE708231C4301321192C7E710231C4344
:1059100001321192C2E711A8FFF726FA0A90D1E7E7
:105920001C9B1A1D1C921868002804DB0A90119B0E
:1059300001331193C6E702231C4343420A93F6E75F
:105940008022D20014435A1C11925A781300303B23
:10595000DBB2092B04D92A2A07D000239A46B7E7DD
:1059600011A8FFF701FA8246B2E71C9B1A1D1C9290
:105970001868002804DB8246119B01331193A7E7C6
:105980000020F8E780235B002343511C11915278DB
:105990006C2A01D01C0018E0C0239B001C4301317D
:1059A000119112E080232343511C11915278682AEF
:1059B00001D01C0009E0C0231C430131119104E017
:1059C00080235B001C4301321192119B1878030065
:1059D000253BDAB2532A00D92CE29300864AD358E9
:1059E0009F4680239B001C4301321192EDE78023E8
:1059F0005B001C4301321192E7E7782809D0582850
:105A000038D06F2838D0622838D010239C430A261B
:105A100000E01026582833D0692803D0642801D02C
:105A20000C229443630501D50122944369282AD0AE
:105A3000642828D0A30500D59FE0E30500D5B8E091
:105A4000630600D4CAE01C9A111D1C911168FF2244
:105A50000A4005940A9B049353460393029600233D
:105A60000193009243463A0059462800FFF76EFA28
:105A7000070027E01026CDE70826CBE70226C9E776
:105A800020221443C8E7A30520D4E30550D46306BD
:105A900066D51C9A111D1C911168FF220A40D3176C
:105AA000D118594005940A9B0493534603930296D8
:105AB000D20F0192009143463A0059462800FFF761
:105AC00045FA0700119B01331193D3E61C9BDA1DA5
:105AD00007218A43110008311C91116853689C46C4
