:020000041000EA
:1000000000B5324B212058609868022188439860DF
:10001000D860186158612E4B002199600221596106
:100020000121F02299502B49196001219960352056
:1000300000F044F80222904214D00621196600F024
:1000400034F8196E01211966002018661A6600F04E
:100050002CF8196E196E196E052000F02FF8012189
:100060000842F9D1002199601B49196000215960AB
:100070001A491B48016001219960EB211966A021F2
:10008000196600F012F800219960164914480160C1
:100090000121996001BC002800D000471248134993
:1000A000086003C880F30888084703B5996A0420EC
:1000B0000142FBD001200142F8D103BD02B5186610
:1000C0001866FFF7F2FF186E186E02BD00000240BE
:1000D000000000180000070000035F00212200005C
:1000E000F4000018222000A00001001008ED00E03C
:1000F00000000000000000000000000074B24E7A12
:1001000000200420F7010010C3010010C5010010F9
:10011000C1010010C1010010C1010010C101001097
:10012000C1010010C1010010C1010010C701001081
:10013000C1010010C1010010C9010010CB01001065
:10014000CD010010CD010010CD010010CD01001037
:10015000CD010010CD010010CD010010CD01001027
:10016000CD010010CD010010CD010010CD01001017
:10017000CD010010CD010010CD010010CD01001007
:10018000CD010010CD010010CD010010CD010010F7
:10019000CD010010CD010010CD010010CD010010E7
:1001A000CD010010CD010010CD010010CD010010D7
:1001B000CD010010CD010010CD010010CD010010C7
:1001C00000BE00BE00BE00BE00BE00BE00F04BF888
:1001D000103800BEF2EB8871A0A00010C4A000107F
:1001E0003402001090A31AE700202149086006C8D5
:1001F00081F3088810471F48006800282FD10DA4FC
:100200000ECC002902D000F012F8F9E71A491B4A77
:10021000002000E001C19142FCD1194988471949E9
:1002200088471949884700BEFDE701C901C29A42C3
:10023000FBD37047C4A00010C0000020B40200200F
:10024000B8A200100000042000000420B8A2001092
:1002500000100420001004200000000070470B482C
:1002600006F0D4FC0047EFF30580C0B270470000F1
:1002700008ED00E0000000D0B8020020840A02204F
:1002800001520010ED040010BD510010575600003F
:1002900006005250ABB36053E49E0010060052506B
:1002A000861C0302F49E0010060052505422A29DA8
:1002B000009F001005005250DE65F468B8A20010DF
:1002C000F8B5C04610B5064C2378002B07D1054B76
:1002D000002B02D0044800E000BF0123237010BDB2
:1002E000B803002000000000D8830010044B10B5B4
:1002F000002B03D00349044800E000BF10BDC046F6
:1003000000000000BC030020D8830010FEE710B5F9
:10031000FFF7FCFFF8B5DE4657464E464546E0B5CA
:1003200007F006FD192004F00FF8022004F00CF885
:10033000032004F009F8062004F006F8092004F070
:1003400003F80A2004F000F80B2003F0FDFF0C2056
:1003500003F0FAFF0D2003F0F7FF152003F0F4FF80
:10036000D024240680239B049B46636208239A467C
:100370006362383399466362C133FF33A3628023DB
:100380001B019846636280256D0165628027BF016D
:10039000676280239B03A3628026F60066620421C5
:1003A000022003F01DFF5B4663615346A3614B4689
:1003B000A3614346A361A561A761A661E121224C27
:1003C0004902200004F00EF80221002003F008FF8B
:1003D0000221012003F004FFE36A60225A406E23E9
:1003E00013401A4A15432B60E26A102313402B6016
:1003F00000220121072003F00BFF00220121082029
:1004000003F006FF124B01220C21072003F050FFDE
:100410001049114807F042FF0321042003F0E0FED9
:100420000321052003F0DCFE00220121042003F05B
:10043000EFFE00220121052003F0EAFEF0BCBB46DE
:10044000B246A946A046F8BD004003402C400340F8
:1004500069040010A08601008402002010B502F09B
:10046000D1FD04F061FF000070B584B00023039358
:10047000194B1B78002B09D1082926D0174B186877
:1004800003A902F0AFF9144B01221A70144D2E6823
:1004900002F00AFE02000024009403AB07213000A2
:1004A00003F05AFD2D6802F0FFFD0200009403AB3B
:1004B0000621280003F050FD039B002B03D0094BBD
:1004C000802252051A6004B070BD074B186803A95A
:1004D00002F088F9D7E7C0467E0A0220BC09022054
:1004E0008C09022004ED00E0C009022010B5FFF7DE
:1004F00011FF01F0CDF9024807F032FDFFF7AEFF22
:100500000F0300107047000010B5014804F0F4FE1E
:10051000D8830010FEE70000034B00221A70034B43
:1005200003321A707047C0467C0A02207B0A022000
:1005300010B500F063FE10BD10B500F037FF0028C5
:1005400002D0024B00221A7010BDC0467C0A022065
:1005500010B500F05DFF002802D0024B00221A7097
:1005600010BDC0467C0A022010B5114B1B78012B30
:100570000CD0022B12D0002B00D010BD00F06EFF6B
:100580000028FAD00A4B01221A70F6E700F08AFF21
:100590000028F2D0064B02221A70EEE700F0A6FF08
:1005A0000028EAD00023024A1370024A1370E4E7DD
:1005B0007D0A02207C0A022010B50C4B1B78052B0B
:1005C00006D89B000A4AD3589F46084800F0AEFE62
:1005D00010BDFFF7B1FFFBE7FFF7BAFFF8E7FFF742
:1005E000C3FFF5E7FFF798FFF2E7C0467C0A022059
:1005F000E883001010B500F01BFE10BD10B5124BC3
:100600001B78022B02D0032B03D010BDFFF7D4FFC1
:10061000FBE7FFF7EFFF00F03DFE002803D10A4B98
:1006200000221A70F1E700F035FE012803D1064BD5
:1006300001221A70E9E700F02DFE0228E5D1024BF5
:1006400002221A70E1E7C0467B0A022030B583B06F
:1006500000232A4815E06B46DA1D1470002108E0DB
:10066000274B9B699B06FBD41478254B1C600131FA
:1006700001320029F4D003780D3B5A425341DBB2DA
:1006800001300478002C27D0002BE4D11D4B002230
:100690009B5EA3420FD06B46DA1D14700021002927
:1006A000E9D1174B9B699B06FBD41478144B1C6053
:1006B00001310132F3E76B46DA1D0D23137000217F
:1006C0000029E8D10E4B9B699B06FBD415780C4B97
:1006D0001D6001310132F3E700F040F80F2002F015
:1006E00063FE0023084A1370084A03211170084A68
:1006F0001370084A137003B030BDC0460084001068
:10070000004003403C0900207A0A02207B0A0220B4
:100710007C0A02207D0A022010B50F4B1B78022BA9
:1007200016D009D8002B0FD0012B10D1FFF700FFF6
:10073000094B02221A700AE0042B08D1FFF75EFF72
:10074000054B01221A7002E0034B01221A7010BD02
:10075000014B04221A70FAE77A0A022010B5034806
:1007600007F0DAFA1E2002F01FFE10BD14840010FC
:1007700030B583B0A94B1B889BB2002B50D0A74B40
:100780001B889BB2012B00D1D8E0A44B1B889BB2E5
:10079000022B00D16EE103B030BD6B46DA1D147040
:1007A000002104E014789E4B1C60013101320029C5
:1007B00016D19B4B9B699B06FBD4F3E76B46DA1D76
:1007C0000D231370002108E0954B9B699B06FBD419
:1007D0001578934B1D60013101320029F4D00FE0F0
:1007E00003780D3B5A425341DBB201300478002CB0
:1007F00019D0002BD1D18B4B00229B5EA342DDD0C0
:100800006B46DA1D147000210029E9D1844B9B69E5
:100810009B06FBD41478824B1C6001310132F3E754
:1008200000238148E2E7FFF799FF00237F4826E095
:100830006B46DA1D1470002100291AD1784B9B6990
:100840009B06FBD41478764B1C6001310132F3E730
:100850006B46DA1D0D2313700021002919D1704B4E
:100860009B699B06FBD415786D4B1D6001310132ED
:10087000F3E703780D3B5A425341DBB20130047871
:10088000002C16D0002BD3D1664B00229B5EA342D6
:10089000DED06B46DA1D147000210029E9D1604BCF
:1008A0009B699B06FBD414785D4B1C6001310132BF
:1008B000F3E7FFF753FF6EE76B46DA1D1470002174
:1008C000002926D1564B9B699B06FBD41478544BC8
:1008D0001C6001310132F3E76B46DA1D0D23137002
:1008E000002108E04E4B9B699B06FBD415784C4BCE
:1008F0001D60013101320029F4D01AE0484B9B6998
:100900009B06FBD41478464B1C6001310132002950
:10091000F4D003780D3B5A425341DBB201300478E6
:10092000002C0ED0002BC7D13E4B00229B5EA34271
:10093000D2D06B46DA1D14700021E8E700233A4854
:10094000EDE7FFF70BFF0023394832E06B46DA1D75
:1009500014700021002926D1314B9B699B06FBD4E2
:1009600014782F4B1C6001310132F3E76B46DA1D1E
:100970000D231370002108E0294B9B699B06FBD4D3
:100980001578274B1D60013101320029F4D01AE09F
:10099000234B9B699B06FBD41478214B1C600131CF
:1009A00001320029F4D003780D3B5A425341DBB2A7
:1009B00001300478002C0BD0002BC7D1194B00223A
:1009C0009B5EA342D2D06B46DA1D14700021E8E78B
:1009D000FFF7C4FEDFE66B46DA1D1470002104E069
:1009E00014780F4B1C600131013200292DD10C4BC2
:1009F0009B699B06FBD4F3E76B46DA1D0D2313704E
:100A0000002104E01578064B1D60013101320029F8
:100A10002BD1034B9B699B06FBD4F3E7780A02209A
:100A2000004003403C09002018840010208400107E
:100A300038840010364B9B699B06FBD41478344BEA
:100A40001C60013101320029F4D003780D3B5A4279
:100A50005341DBB201300478002C0ED0002BBAD108
:100A60002C4B00229B5EA342C6D06B46DA1D14704D
:100A70000021E8E700232848EDE7FFF76FFE002399
:100A8000264832E06B46DA1D14700021002926D179
:100A90001F4B9B699B06FBD414781D4B1C600131D6
:100AA0000132F3E76B46DA1D0D2313700021002994
:100AB00025D1174B9B699B06FBD41578144B1D6001
:100AC00001310132F3E71478114B1C60013101321E
:100AD000002904D10E4B9B699B06FBD4F3E70378F6
:100AE0000D3B5A425341DBB201300478002C0BD04D
:100AF000002BC7D1074B00229B5EA342D2D06B468E
:100B0000DA1D14700021E3E7FFF728FE43E6C04634
:100B1000004003403C090020188400105484001059
:100B200030B583B04F4B1B889BB2002B4FD04D4B41
:100B30001B889BB2002B4DD14A4B1B889BB2022BCA
:100B400000D18BE0FFF70AFE03B030BD6B46DA1D23
:100B50001470002100291AD1434B9B699B06FBD4DA
:100B60001478414B1C6001310132F3E76B46DA1D0A
:100B70000D2313700021002919D13B4B9B699B0663
:100B8000FBD41578384B1D6001310132F3E703784F
:100B90000D3B5A425341DBB201300478002CD1D0D6
:100BA000002BD3D1314B00229B5EA342DED06B469B
:100BB000DA1D147000210029E9D12B4B9B699B069B
:100BC000FBD41478284B1C6001310132F3E7002379
:100BD0002748E2E700232648DFE76B46DA1D14705A
:100BE000002108E0204B9B699B06FBD414781E4B28
:100BF0001C60013101320029F4D003780D3B5A42C8
:100C00005341DBB201300478002C9BD0002BE4D19F
:100C1000164B00229B5EA3420FD06B46DA1D147068
:100C200000210029E9D1104B9B699B06FBD4147865
:100C30000D4B1C6001310132F3E76B46DA1D0D23C9
:100C4000137000210029E8D1074B9B699B06FBD458
:100C50001578054B1D6001310132F3E7002305488B
:100C6000D1E7C046780A0220004003403C0900203A
:100C7000708400108084001070B584B004000023DC
:100C8000564833E00F226A441570002104E01578BD
:100C9000534B1D6001310132002921D1504B9B691A
:100CA0009B06FBD4F3E70F226A440D231370002147
:100CB00008E04B4B9B699B06FBD41678484B1E60A3
:100CC000013101320029F4D01AE0454B9B699B06A3
:100CD000FBD41578424B1D60013101320029F4D05C
:100CE00003780D3B5A425341DBB201300578002DA9
:100CF0000BD0002BC6D13B4B00229B5EAB42D2D027
:100D00000F226A4415700021E8E7FFF727FD002352
:100D1000354826E00F226A441570002100291AD1B7
:100D20002F4B9B699B06FBD415782D4B1D60013121
:100D30000132F3E70F226A440D23137000210029CA
:100D400019D1274B9B699B06FBD41678244B1E6058
:100D500001310132F3E703780D3B5A425341DBB2D4
:100D600001300578002D16D0002BD3D11D4B002269
:100D70009B5EAB42DED00F226A4415700021002931
:100D8000E9D1174B9B699B06FBD41578144B1D606A
:100D900001310132F3E7FFF7E1FC144B0F221A8017
:100DA000023A5A8048329A80253ADA80002C0BD0D9
:100DB000302300932533233A0F210D4806F0ACFF72
:100DC000FFF7CCFC04B070BD3023009325330D2217
:100DD0000F21084806F0A0FFF2E7C046808400100B
:100DE000004003403C09002018840010D403002078
:100DF00090840010A884001070B584B00400002313
:100E0000564833E00F226A441570002104E015783B
:100E1000534B1D6001310132002921D1504B9B6998
:100E20009B06FBD4F3E70F226A440D2313700021C5
:100E300008E04B4B9B699B06FBD41678484B1E6021
:100E4000013101320029F4D01AE0454B9B699B0621
:100E5000FBD41578424B1D60013101320029F4D0DA
:100E600003780D3B5A425341DBB201300578002D27
:100E70000BD0002BC6D13B4B00229B5EAB42D2D0A5
:100E80000F226A4415700021E8E7FFF767FC002392
:100E9000354826E00F226A441570002100291AD136
:100EA0002F4B9B699B06FBD415782D4B1D600131A0
:100EB0000132F3E70F226A440D2313700021002949
:100EC00019D1274B9B699B06FBD41678244B1E60D7
:100ED00001310132F3E703780D3B5A425341DBB253
:100EE00001300578002D16D0002BD3D11D4B0022E8
:100EF0009B5EAB42DED00F226A44157000210029B0
:100F0000E9D1174B9B699B06FBD41578144B1D60E8
:100F100001310132F3E7FFF721FC144B5E221A8006
:100F2000513A5A8097329A80743ADA80002C0BD06A
:100F3000302300937433233A5E210D4806F0ECFE13
:100F4000FFF70CFC04B070BD3023009374330D2206
:100F50005E21084806F0E0FEF2E7C046C0840010BB
:100F6000004003403C09002018840010D4030020F6
:100F700090840010A884001070B584B00400002391
:100F8000564833E00F226A441570002104E01578BA
:100F9000534B1D6001310132002921D1504B9B6917
:100FA0009B06FBD4F3E70F226A440D231370002144
:100FB00008E04B4B9B699B06FBD41678484B1E60A0
:100FC000013101320029F4D01AE0454B9B699B06A0
:100FD000FBD41578424B1D60013101320029F4D059
:100FE00003780D3B5A425341DBB201300578002DA6
:100FF0000BD0002BC6D13B4B00229B5EAB42D2D024
:101000000F226A4415700021E8E7FFF7A7FB0023D1
:10101000354826E00F226A441570002100291AD1B4
:101020002F4B9B699B06FBD415782D4B1D6001311E
:101030000132F3E70F226A440D23137000210029C7
:1010400019D1274B9B699B06FBD41678244B1E6055
:1010500001310132F3E703780D3B5A425341DBB2D1
:1010600001300578002D16D0002BD3D11D4B002266
:101070009B5EAB42DED00F226A441570002100292E
:10108000E9D1174B9B699B06FBD41578144B1D6067
:1010900001310132F3E7FFF761FB144BAD221A80F7
:1010A000A03A5A80E6329A80C33ADA80002C0BD0FC
:1010B00030230093C333233AAD210D4806F02CFEB4
:1010C000FFF74CFB04B070BD30230093C3330D22F7
:1010D000AD21084806F020FEF2E7C04670840010FB
:1010E000004003403C09002018840010D403002075
:1010F00090840010A884001010B50100024806F08A
:101100000BFEFFF72BFB10BDD084001010B50100C3
:10111000024806F001FEFFF721FB10BDDC84001041
:1011200010B50100024806F0F7FDFFF717FB10BDF0
:10113000E884001010B50100024806F0EDFDFFF74D
:101140000DFB10BDF884001010B50100024806F038
:10115000E3FDFFF703FB10BD0485001030B583B03D
:101160000023234815E06B46DA1D1470002108E0C7
:10117000204B9B699B06FBD414781E4B1C600131ED
:1011800001320029F4D003780D3B5A425341DBB2BF
:1011900001300478002C27D0002BE4D1164B00221C
:1011A0009B5EA3420FD06B46DA1D1470002100290C
:1011B000E9D1104B9B699B06FBD414780D4B1C6046
:1011C00001310132F3E76B46DA1D0D231370002164
:1011D0000029E8D1074B9B699B06FBD41578054B8A
:1011E0001D6001310132F3E7FFF7B8FA03B030BDFB
:1011F00000840010004003403C09002010B50A4B59
:101200001B78002B00D110BD084CE21C211D601D75
:1012100000F046FBA21C601C210000F08BFB024B7F
:1012200000221A70EFE7C0467F0A0220240900203E
:10123000D0231B065B681B0504D4D0231B065B6808
:10124000DB0407D5D0231B06802212019A6180227D
:1012500052019A61D0231B065B689B0404D4D023FF
:101260001B06802292015A61704770B5D024240673
:101270008025ED0065613C2002F096F8A56102E052
:101280003C2002F091F8D0231B065B689B05F7D445
:1012900070BD000010B582B0224B1B889BB2022BA0
:1012A00004D9204A1388013B9BB21380FFF760FAF0
:1012B000D0231B065B689B0502D4032002B010BD3F
:1012C000D0231B06802292019A61174B1C6801F003
:1012D000E5FE0200002300930121200002F03CFE05
:1012E000FFF71EFCFFF7C1FF0E4B1B889BB2002BC4
:1012F0000ED00C4B1B889BB2012B0ED0094B1B88C8
:101300009BB2022BDAD1074B00221A800220D5E7CC
:10131000044B00221A800020D0E7024B00221A80E2
:101320000120CBE7780A02209009022010B50400C2
:101330001D4B1B889BB2052B04D91B4A1388013B0C
:101340009BB21380184B1B889BB2002B14D0164BFA
:101350001B889BB2012B13D0134B1B889BB2022B13
:1013600012D0114B1B889BB2042B11D0D0231B062B
:101370005B689B050FD410BD0120FFF77DFCF5E7EE
:101380000120FFF739FDF1E70120FFF7F5FDEDE75B
:10139000FFF7E4FEEAE7044B1A88227000221A8065
:1013A000FFF763FFE7E7C046780A022010B5154B48
:1013B00018886423584380B2FA235B0098420FD206
:1013C000104B05221A80FA2040000F4B5880FFF77F
:1013D00093FED0231B065B689B0509D4002010BD3B
:1013E0000A4B9842F1D9074B64221A800748ECE770
:1013F000044B00221A800020FFF73EFCFFF735FF68
:101400000120ECE7780A02201C09002010270000C8
:1014100010B5104B1B889A009B185800C0B2642866
:1014200003D90C4B0A221A8064200B4B1870FFF76B
:101430006DFED0231B065B689B0501D4002010BD08
:10144000044B00221A800020FFF7D6FCFFF70DFFA7
:101450000120F4E7780A02201C09002010B50F4B88
:101460001B889BB23C2B04D90C4A1388013B9BB2CE
:1014700013800A4B1888C0B2094B9871FFF750FED1
:10148000D0231B065B689B0501D4002010BD034BD5
:1014900000221A80FFF7E9FE0120F7E7780A022010
:1014A0001C09002010B50F4B1B889BB23C2B04D9A4
:1014B0000C4A1388013B9BB213800A4B1888C0B2B8
:1014C000094B5871FFF736FED0231B065B689B055E
:1014D00001D4002010BD034B00221A80FFF7C5FE87
:1014E0000120F7E7780A02201C09002010B50F4BF5
:1014F0001B889BB23C2B04D90C4A1388013B9BB23E
:1015000013800A4B1888C0B2094B1871FFF71CFEF4
:10151000D0231B065B689B0501D4002010BD034B44
:1015200000221A80FFF7A1FE0120F7E7780A0220C7
:101530001C090020D0231B065B689B0105D4D02327
:101540001B06802292045A617047D0231B0680221A
:1015500092049A61F8E7D0231B065B681B0505D44B
:10156000D0231B06802212015A617047D0231B062C
:10157000802212019A61F8E7014B00221A7070472D
:101580007E0A0220D0231B065B689B0404D4D02370
:101590001B065B68DB0407D5D0231B068022920163
:1015A0009A61802252019A61D0231B065B681B0559
:1015B00005D4D0231B06802212015A617047D02324
:1015C0001B06802212019A61F8E70000014B0122FC
:1015D0001A7070477F0A022010B582B000210A20DD
:1015E00000F084FF164B186000210A2000F07EFFF7
:1015F000144C206000210A2000F078FF124B186084
:101600002368002B0AD08022002301931F3300930C
:10161000002352000D490E4801F0C0FC0A4B1B6824
:10162000002B0AD08022002301931F330093002354
:1016300052000849084801F0B1FC02B010BDC04694
:10164000700A0220C0090220BC0902201085001087
:10165000351700101C850010B916001070B582B047
:1016600080246400002501950223009300232200BA
:101670000B490C4801F092FC0195012600960023CD
:1016800022000949094801F089FC019500960023D0
:1016900022000749074801F081FC02B070BDC04636
:1016A00030850010C517001034850010BB170010DE
:1016B0003C850010B117001070B51FE0D0231B0649
:1016C0005B68DB050ED4D0231B065B681B0609D4C0
:1016D000164B1B889BB2002B04D0144A1388013B85
:1016E0009BB21380D02424068025ED0065611E2066
:1016F00001F05AFEA5610F2001F056FE01210C4BAE
:101700001868494201F094F90128F7D1D0231B064B
:101710005B68DB05D2D5D0231B065B681B06CDD4E6
:10172000024A138801339BB21380DBE7780A022058
:10173000BC09022070B51FE0D0231B065B68DB05E7
:101740000ED5D0231B065B681B0609D5164B1B88DC
:101750009BB2002B04D0144A1388013B9BB2138028
:10176000D02424068025ED0065611E2001F01CFEBA
:10177000A5610F2001F018FE01210C4B18684942A9
:1017800001F056F90128F7D1D0231B065B68DB0571
:10179000D2D4D0231B065B681B06CDD5024A138822
:1017A00001339BB21380DBE7780A0220C0090220D4
:1017B00010B50F2001F0F8FDFBE710B50F2001F088
:1017C000F3FDFBE710B5FEF741FFFEF7A5FF0F2085
:1017D00001F0EAFDF9E7000010B582B0FA211F4BD5
:1017E00000930023012249001D4802F09BFB0400E6
:1017F00096211C4B00930023012249001A4802F055
:1018000091FB1A4B009300230022C821184802F0D4
:1018100089FB184B1860184B009300230122C82144
:10182000164802F07FFB164B1860FA21154B009307
:10183000002301228900144802F074FB134B186046
:10184000002C08D001F02AFC0200002300930121A3
:10185000200002F081FB02B010BDC046351500101B
:10186000488500105715001050850010791500109C
:101870005C8500108C090220851500106885001019
:1018800090090220CD15001070850010340A022046
:1018900010B5FFF7A1FEFFF7E1FEFFF79DFF10BDBA
:1018A000F0B5CE46474680B583B005000E00140063
:1018B0001F4F00239846009301330022D0213800A7
:1018C00006F018FD0123994600932200D12138002B
:1018D00006F01CFD4B4600933200D121380006F083
:1018E00015FD4346009301332A00D121380006F04C
:1018F0000DFD227813099800181840000F210A40A6
:101900008018207033781C09A200A41864000B40D2
:10191000E41834702A78130998001B185B001140F2
:101920005B182B7003B0C0BCB946B046F0BDC046D2
:1019300084020020F0B5CE46474680B583B006004D
:101940000F0014000022042313701F4D002398463B
:1019500000930133D021280006F0CCFC01239946E6
:1019600000933A00D121280006F0D0FC4B460093AA
:101970003200D121280006F0C9FC43460093013310
:101980002200D121280006F0C1FC3A7813099D00FD
:101990005D196D000F200240AD183D7033781909B4
:1019A0008A00891849000340C91831702278130948
:1019B00099005B185B0010401B18237003B0C0BC7B
:1019C000B946B046F0BDC046840200207047000012
:1019D000084A13681868203080F30988022080F3D1
:1019E0001488BFF36F8F3FBCAE4608BC04BC62B620
:1019F000184700007C040020EFF30980154B1A689B
:101A000020381060F0C044464D4656465F46F0C050
:101A10000D221207146E556E566F176F3038F0C0D6
:101A200008B572B601F0E4FC62B60CBC1168086837
:101A30001030F0C8A046A946B246BB4680F30988DC
:101A40000D2212073038F0C81466556656671767BE
:101A5000F0C818477C04002010B503F065FC0000B6
:101A600000B583B002E0D0231B069B6DD0231B067C
:101A70001B6DDB07F7D4D0231B06FF221A6500235A
:101A80000193114B1A68EFF3108072B61368002BA4
:101A9000FCD0BFF35F8F0D4A1168002313600A4A20
:101AA0001268BFF35F8F136080F31088084B1868CB
:101AB00001AA00F005FB019B002B03D0054B8022FF
:101AC00052051A6003B000BD780400204C090220C2
:101AD000C409022004ED00E010B5031F8024640453
:101AE0001C60043B1960043B02491960143B1A60F6
:101AF000403810BD591A001010B50A4B1B68002B56
:101B000008D1094B802252051A60BFF34F8FBFF3F3
:101B10006F8F10BD3421054B054AFF31054803F096
:101B200051FBC0461007002004ED00E0788500104E
:101B3000B08600109885001072B6044A136801330D
:101B40001360BFF34F8FBFF36F8F704748090220B8
:101B5000074B1B68002B09D0064A1168BFF35F8F43
:101B600000221A6081F31088014B1A6062B6704738
:101B7000100700204409022010B50A4B1B68002BF7
:101B800005D0013B074A1360002B07D010BDA621EA
:101B9000054B064A4900064803F014FBFFF7D8FF3F
:101BA000F4E7C04648090220F08500109C8600102A
:101BB00098850010EFF3108072B6704780F310889C
:101BC0007047000010B5FFF7F5FF040001F072FA4E
:101BD000002803D0034B802252051A602000FFF733
:101BE000EDFF10BD04ED00E010B5094C00232360AB
:101BF000084A1360052003F09FFCFA21890005F0D4
:101C000059F80138044B18600723236010BDC04603
:101C100010E000E018E000E014E000E010B5224B16
:101C20001968FF2212040A431A601968FF2212067B
:101C30000A431A6002201D49404202F001FA0120C5
:101C40001B49404202F0FCF905201A49404202F0CB
:101C5000F7F9FFF7C9FF184B00221A60D0231B06C3
:101C6000164A19681170FF221A6502E0D0231B067C
:101C70009B6DD0231B061B6DDB07F7D4D0231B06FF
:101C80001C680F34FF21200003F0D6FD0C49200012
:101C900003F0D2FC0121200003F0BEFCFFF798FE08
:101CA00001F0A6FBFFF7D8FE20ED00E0F9190010C7
:101CB000C51B0010CD19001048090220C8010020E2
:101CC000611A001010B50A4B1B78D022120610685A
:101CD000834200D010BDFEF7C6FA002805D0D023FD
:101CE0001B061B684000C018F4E701F0DFFDF1E7B8
:101CF000C801002010B582B0EFF30583DBB2002BE2
:101D000010D1254B1A78D0231B061B689A420FD09E
:101D10000368BFF35F8F00221A6081F3108820BF31
:101D200002B010BD1D4B1E4A1E491F4803F04AFA5F
:101D30001E4B1B68002B21D10368002B24D01B4CA9
:101D400023601B4A11601B4A944663449B10012187
:101D500099400B021943090A174B186801235B428B
:101D600000930023012200F0C9F82368002BD7D08C
:101D7000124B0B4A12490C4803F024FA0F4B084A45
:101D80001049094803F01EFAB9210F4B044A890093
:101D9000054803F017FAC046C80100200486001069
:101DA00078860010D70200009885001010070020E8
:101DB0004409022000FFFF2FC4090220788500108B
:101DC000EB020000DF0200006486001010B582B054
:101DD0000C0003682B498C4663449A1001239340FE
:101DE00019021943090A284B1A78D0231B061B68CD
:101DF0009A4220D040BF254B1B6802689A423BD0D4
:101E00001A68002AFCD0BFF35F8F214B1A68114378
:101E100019601E4B1B68BFF35F8F00221A600023FE
:101E2000D022120653650268BFF35F8F136084F3FC
:101E3000108802B010BD40BF0368BFF35F8F00225F
:101E40001A6084F31088EFF30583DBB2002B04D112
:101E5000104B186800F0E4F8EBE7002301930D4BFA
:101E6000186801AA00F02CF9019B002BE1D00A4B65
:101E7000802252051A60DCE7054B1A68114319608D
:101E8000CDE7C04600FFFF2FC801002078040020E6
:101E90004C090220C409022004ED00E010B502F054
:101EA0003BF9054B9C4660448000044B186000F0F1
:101EB00018F8034B186010BD40000034780400206F
:101EC000C4090220002A03D1014206D1100003E018
:101ED0000840884203D0002070470120FCE7012021
:101EE000FAE710B51C2002F025F9041E03D00023E8
:101EF00008C000F0EFF8200010BD0000F8B5CE4695
:101F0000474680B506000D009046994600282ED021
:101F10000B0E1F06002B31D1002936D001F0CCFC6E
:101F2000002802D1089B002B36D101F0AFF83468AD
:101F30004A4629002000FFF7C5FF002833D043465A
:101F4000002B02D02300AB43336001F07FF9002F58
:101F500008D0002841D001F0E1FD040083013FD505
:101F60002402240A2000C0BCB946B046F8BDA52111
:101F7000254B264A4900264803F024F94C21254BDD
:101F8000224AFF31224803F01DF9A621224B1F4AA5
:101F900049001F4803F016F95021204B1B4AFF311E
:101FA0001B4803F00FF9089B002B14D04346002B6D
:101FB0000ED139004B46002B02D08023DB0419439D
:101FC0002943301D089A01F09BFA3C00089FBCE7AA
:101FD00080214904EEE7089FB7E7FFF78DFDBAE7D8
:101FE000FFF7AAFD34684A4629002000FFF76AFF80
:101FF000002805D04346002B02D02300AB433360BA
:10200000FFF7BAFDACE7C046BC860010D4870010CD
:10201000C88600100887001030870010488700101D
:10202000F8B504000D0000280CD00B0E1F06002B85
:102030000ED106000C3601F029F8206923681D43F3
:10204000256017E0164B174A1749184803F0BAF8ED
:10205000174B144A1749154803F0B4F82168194082
:10206000994206D111E0802189042368194301F0C7
:1020700037FB2800B0420CD04568026813021B0AE7
:102080005101EBD421680B42F3D0D201EBD51F43B1
:10209000E9E72368BB43236001F0D8F82068F8BD66
:1020A000BC860010C087001021020000C886001006
:1020B0009C8700102202000010B5FFF7B1FF10BD91
:1020C00010B513000A000100014801F081FF10BDA6
:1020D000B92000100300083343600122524282609D
:1020E000C3600361002303607047002303617047EE
:1020F00030B50C68631C10D0030008331A005B680D
:102100001D68A542FAD953684B6099608A60516096
:10211000086103680133036030BD0269F3E70369B6
:10212000416882688A60416851605A68824206D07C
:10213000002202611A68013A1A60186870478268C2
:102140005A60F5E70300406A002803D01B6B1B6848
:102150002020C01A704710B50400FFF7EDFCA26BF9
:10216000E36B9A4204D00024FFF706FD200010BD67
:102170000124F9E710B50400FFF7DEFCA36B002B88
:1021800004D10124FFF7F8FC200010BD0024F9E77A
:1021900070B504001500866B026C002A0CD1036830
:1021A000002B03D000200136A66370BD806801F0CB
:1021B000EFFB0023A360F6E7002D0ED1406805F089
:1021C00063FC6368226C944663446360A268934234
:1021D0001BD3236863602800E5E7C06805F054FC62
:1021E000236C5A42E168CB1AE36021688B4203D228
:1021F000A3689C466244E260022D01D00020D2E731
:10220000002E04D0013E0020CDE72800CBE70020BF
:10221000C9E7000070B582B00190846C002C0AD030
:10222000A26BE36B9A420CD2A26B93420FD80025AB
:10223000280002B070BD174B174A1849184802F021
:10224000C1FF184B144A1849154802F0BBFF45233B
:10225000E65C76B2002201A92000FFF799FF050095
:10226000731C06D07F2E0FD0013676B24523E6547C
:10227000DEE7636A002BDBD02000243001F0B0F9E8
:102280000028D5D00125D3E7084B034A0849044864
:1022900002F098FFE8870010F88A0010D40B0000C5
:1022A000FC87001034880010D50B00007C880010DB
:1022B000F50B000010B5030008001A6C002A0AD0C4
:1022C000D9688918D9609C68A14201D31968D9607E
:1022D000D96805F0D9FB10BD70B50500FFF72CFCDF
:1022E0004523EC5C64B20AE06B6A002B17D028002F
:1022F000243001F075F900280ED1013C64B2002CA5
:102300000DDDAB6C002BEFD02800FFF783FF00281A
:10231000F3D001F0C5FAF0E701F0C2FAEDE745238A
:10232000FF22EA54FFF728FCFFF706FC4423EC5C8D
:1023300064B201E0013C64B2002C0BDD2B69002B80
:1023400008D02800103001F04BF90028F2D001F03D
:10235000A7FAEFE74423FF22EA54FFF70DFC70BD14
:10236000F8B504000D0000282BD0C36B002B54D00F
:10237000016C00260F0C1A0C002F36D190B20028E9
:1023800026D1002E49D1FFF7D7FB2268E36B206CE2
:10239000010059435118A1600021A1636260013B13
:1023A0004343D318E360FF234422A3540132A354D0
:1023B000002D29D12369002B1DD1FFF7DDFB012062
:1023C000F8BD8821184B194A4900194802F0FAFE55
:1023D000081C89B29BB24B4380B292B242431B0CA1
:1023E000D3181B0CCDD00126CBE792B2002AFAD12C
:1023F0003A1C181CEDE72000103001F0F1F800281D
:10240000DBD0FFF779FBD8E720001030FFF762FE42
:1024100020002430FFF75EFECFE74621054B034A3C
:10242000FF31034802F0CEFE9C880010708B001034
:10243000FC870010A488001070B51D00049C0029C2
:102440000BD12460E063216401212000FFF788FFA5
:102450005023E5540023A36470BD2260F2E700001E
:10246000F0B583B004000D001700002831D0002023
:102470000A0C230C002A27D19AB2002A16D1002870
:1024800027D1280060430300553322D8543001F08F
:1024900051FE061E07D00200543200903B00290076
:1024A0002000FFF7C9FF300003B0F0BD1A1C2E1C3E
:1024B000ABB2A1B25943B6B293B27343090C5B18E5
:1024C0001B0CDCD00120DAE79BB2002BFAD1261CD2
:1024D000EEE7E321024B034A4900034802F072FE93
:1024E000C88800105C8B0010FC87001010B50C0031
:1024F000002809D0884207D302220021FFF7B0FF4D
:10250000002800D0846310BD024B034A03490448ED
:1025100002F058FED4880010288B00101B03000026
:10252000FC870010F0B585B004000F0001921E007A
:10253000002813D0002917D0022E02D1E36B012B03
:102540001BD101F0B9F9051E1ED1019B002B5ED0F5
:102550004F4B504A5049514802F034FE504B4D4ABF
:1025600050494E4802F02EFE036C002BE4D04E4B37
:10257000484A4E49494802F025FECC214C4B454A79
:102580008900464802F01EFE002540E0A56B32009F
:1025900039002000FFF7FCFDA36C002B10D0022EA9
:1025A00001D1002D04D12000FFF734FE002804D112
:1025B000FFF7E2FA012005B0F0BDFFF79DFAF7E75B
:1025C000636A002B04D10028F2D0FFF795FAEFE7F9
:1025D0002000243001F004F80028E9D0FFF78CFA3D
:1025E000E6E7FFF7C9FA0020E5E702A801F0F4F8F2
:1025F000013519E044230022E25420E04523002263
:10260000E25421E02000FFF767FE00F01FFEFFF715
:1026100093FAA36BE26B9342B8D3022EB6D0019B20
:10262000002BDED0002DE0D0FFF7A6FA00F02EFD43
:10263000FFF782FA4423E25C52B2531CDAD04523FE
:10264000E25C52B2531CD9D0FFF796FA01A902A856
:1026500001F0CEF8002813D12000FFF77CFD002800
:10266000D0D020001030019900F02CFF2000FFF79F
:1026700033FE00F0EBFD0028C9D1FFF73DFAC6E7B5
:102680002000FFF729FE00F0E1FD002093E7C0469F
:1026900048870010148B001033030000FC870010E3
:1026A0009C8800102E030000DC8800102F0300001F
:1026B00034890010F0B5D646474680B583B0040093
:1026C0000F0001921D00002819D000291DD0022DF5
:1026D00002D1E36B012B21D1FFF76CFA8046A36B8B
:1026E000E26B934220D3022D1ED000244046FFF718
:1026F00065FA200003B0C0BCBA46B046F0BD2F4B0F
:102700002F4A3049304802F05DFD036C002BDED0CB
:102710002E4B2B4A2E492C4802F054FD2D4B284AB3
:102720002D49294802F04EFD4523E65C76B2A36BA5
:102730009A462A0039002000FFF72AFD731C07D0B3
:102740007F2E2BD0013676B24523E6540124CDE707
:10275000A36C002B10D0022D02D15346002B23D1A5
:102760002000FFF757FD002820D0019A002A1FD033
:10277000012313600124B9E7636A002B01D101240E
:10278000B4E72000243000F02BFF002812D0019A7B
:10279000002A11D0012313600124A7E70F4B084A38
:1027A0000F49094802F00EFD01249FE701249DE72F
:1027B00001249BE7012499E7012497E79C880010F6
:1027C000DC8A001002040000FC870010DC88001086
:1027D0000304000034890010040400007C88001009
:1027E0008D04000070B504000D0000281FD0036C9C
:1027F000002B22D10368002B25D0FFF7DBF9060060
:10280000A26BE36B93424CD94523E35C5BB201328C
:10281000A2635A1C20D07F2B3DD001335BB24522EE
:10282000A35401243000FFF7C9F9200070BD224BEA
:10283000224A2349234802F0C5FC234B1F4A23495F
:10284000204802F0BFFC8368002BD6D0204B1B4AE7
:1028500020491C4802F0B6FCA36C002B0AD02000D3
:10286000FFF7D8FC00281ED0002D1ED001232B60BE
:102870000124D7E7636A002B01D10124D2E72000AD
:10288000243000F0ADFE002811D0002D11D001231E
:102890002B600124C6E7104B084A1049094802F092
:1028A00091FC0024BEE70124BCE70124BAE701241F
:1028B000B8E70124B6E7C0469C880010C88A00101B
:1028C000AD040000FC87001084890010B1040000F2
:1028D000A0890010B60400007C88001035050000B7
:1028E000F0B585B004000F00019200280ED0002939
:1028F00012D000F0E1FF061E17D1019B002B4ED035
:10290000434B444A4449454802F05CFC444B414A2D
:102910004449424802F056FC036C002BE9D0424B7C
:102920003C4A42493D4802F04DFC002637E0390060
:102930002000FFF7BFFC013DA5632369002B04D1F4
:10294000FFF71AF9012005B0F0BD2000103000F0AB
:1029500047FE0028F4D0FFF7CFF8F1E7FFF70CF9B6
:102960000020F0E702A800F037FF013621E0442301
:102970000022E25428E045230022E25429E020000E
:10298000FFF7AAFC00F062FC09E02000FFF7A4FCBE
:1029900000F05CFC2000FFF7EDFB002835D1FFF7CD
:1029A000CBF8A56B002DC2D1019B002BD6D0002EF9
:1029B000D8D0FFF7E1F800F069FBFFF7BDF844233A
:1029C000E35C5BB20133D2D04523E35C5BB20133FD
:1029D000D1D0FFF7D1F801A902A800F009FF002823
:1029E000D3D12000FFF7C6FB0028C8D02000243038
:1029F000019900F067FD2000FFF76EFC00F026FC57
:102A00000028CCD1FFF778F8C9E700209BE7C04643
:102A100048870010B88A00105A050000FC87001093
:102A2000048A001051050000108A001055050000AE
:102A300070B584B0041E01910BD0036C002B0ED135
:102A400000F03AFF051E16D1019B002B0DD10600A8
:102A500060E0554B554A5649564802F0B3FB564B79
:102A6000524A5649534802F0ADFB554B4F4A55491F
:102A7000504802F0A7FB002600254BE0013BA36372
:102A80002368002B08D02369002B09D1FFF774F8C5
:102A90000126300004B070BD01F04CF8A060F2E7F0
:102AA0002000103000F09CFD0028EFD0FFF724F844
:102AB000ECE7002E02D1FFF75FF8EAE7424B3B4A12
:102AC00042493C4802F07EFB02A800F085FE013539
:102AD0002AE044230022E25431E045230022E2545C
:102AE00032E0FFF729F8A06800F0F8FE0600FFF7D3
:102AF00043F839E02000FFF7EFFB00F0A7FB09E007
:102B00002000FFF7E9FB00F0A1FB2000FFF732FBFC
:102B1000002838D1FFF710F8A36B002BAED1019B32
:102B2000002BC6D0002DCFD0FFF726F800F0AEFA6C
:102B3000FFF702F84423E35C5BB20133C9D04523BD
:102B4000E35C5BB20133C8D0FFF716F801A902A815
:102B500000F04EFE0028D3D12000FFF70BFB002829
:102B6000C8D02368002BBCD020002430019900F08D
:102B7000A9FC2000FFF7B0FB00F068FB0028C9D1DA
:102B8000FEF7BAFFC6E7002E01D1002681E7FEF767
:102B9000D3FF2000FFF7D6FA0100A06800F058FF2D
:102BA000FEF7EAFFF1E7C046048A0010A48A00108D
:102BB000E3050000FC87001084890010E705000091
:102BC00048870010EC0500006C8A001032060000F7
:102BD00070B5002804D000290ED0002500230DE098
:102BE0000F4B104A1049114802F0ECFA104D2D1904
:102BF000002D01D02960686070BD0133072BF7D824
:102C0000DC000B4A121952688242EFD0002DF4D139
:102C1000DA00074C1259002AEFD1DA00A518ECE7C8
:102C20009C8A0010488B0010C90A0000FC87001025
:102C3000F409022070B504000D001600FEF77CFFB9
:102C40004423E35C5BB201330DD04523E35C5BB20C
:102C500001330CD0FEF790FFA36B002B0BD02000AC
:102C6000FFF73AFB70BD44230022E254EDE7452311
:102C70000022E254EEE7200024303200290000F068
:102C80007FFCECE7084B1B681B68002B04D1074B4B
:102C9000012252421A607047034B1B68DB681A68B6
:102CA000024B1A60F7E7C04684040020D4090220D2
:102CB00010B50400006B01F083FA200001F080FAE7
:102CC00010BD0000F0B5DE4657464646C0B5824608
:102CD0000F0014009B46089E0A9D9200A521286BB8
:102CE00004F0CCFE1F4B9C466444A4002B6B9C4616
:102CF000644407239C43A046002F0ED000240F2CD1
:102D000008D83A5D2B1934331A703B5D002B01D083
:102D10000134F4E743230022EA541F2E1CD8EE624C
:102D2000EE64281DFFF7E1F928001830FFF7DDF900
:102D30002D6120239E1BAE616D625A46514640466E
:102D4000FEF7CAFE2860099B002B00D01D60E0BC86
:102D5000BB46B246A846F0BD034B044A04490548A9
:102D600002F030FAFFFFFF3FC48B0010688E0010A6
:102D70009F0300008C8B001070B5002407E0A300B7
:102D80001B1998000E4BC018FFF7A4F901341F2C33
:102D9000F5D90C4D2800FFF79DF90B4C2000FFF7EB
:102DA00099F90A48FFF796F90948FFF793F9094896
:102DB000FFF790F9084B1D60084B1C6070BDC046C2
:102DC0009004002094090220A8090220E0090220B2
:102DD000500A02203C0A02208404002088040020BB
:102DE00010B50400FEF7A8FE284A136801331360EB
:102DF000274B1B68002B0CD0264B1B68002B0DD1DA
:102E0000234B1B68DB6AE26A934207D8204B1C60A5
:102E100004E01F4B1C601368012B31D01E4A13685D
:102E2000013313606364E26A1C4B1B689A4201D948
:102E30001A4B1A601A4993009B189B00CB185B68C9
:102E4000A3609868E060221D42609A60E06A830097
:102E50001A189200521862611A18920052580132E0
:102E60001B189B005A50FEF787FE0A4B1B68002B6D
:102E700005D0074B1B68DA6AE36A9A4203D310BD98
:102E8000FFF77AFFCAE7FEF737FEF8E7500902209E
:102E90007C040020380A02205C090220600902201C
:102EA0009004002010B514E0FEF746FE0B4BDB68E3
:102EB000DC68201DFFF733F9094A1368013B1360F2
:102EC000084A1368013B1360FEF756FE2000FFF727
:102ED000EFFE044B1B68002BE6D110BD500A022008
:102EE000500902205409022010B5FFF7DBFF034B05
:102EF0001B68012BF9D9FEF7FFFDF6E790040020CF
:102F000070B504000D001F4B1E681F4B19686D2221
:102F10000020885418680430FFF701F9631C0DD0B5
:102F20003419194B1B685C60A6421DD9174B1868F1
:102F3000154B19680431FFF7DBF870BD002DEFD099
:102F4000134A5168104B1868816018688C68C46017
:102F50001868043060601868043088601B685A6123
:102F6000136801331360E8E70A4B1868064B1968C9
:102F70000431FFF7BDF8084B1B68A342DDD9064BAF
:102F80001C60DAE7640A02207C0400208804002028
:102F90003C0A022084040020D4090220F0B587B046
:102FA0000490059116001F00900001F0C3F8041E64
:102FB00021D0702001F0BEF8051E18D0702200212B
:102FC00004F05CFD2C63002D19D0002303930295BF
:102FD0000D9B01930C9B00933B00320005990498D4
:102FE000FFF770FE2800FFF7FBFE012005E0200040
:102FF00001F0E6F8E7E70120404207B0F0BD01200C
:103000004042FAE700B583B08022154B01930023BC
:103010000093520013491448FFF7C0FF012807D05E
:10302000012808D0431C14D0104B1B6803B000BD0E
:1030300000F04CFFF4E772B60D4B012252421A60C9
:103040000C4B02321A600C4B00221A60FEF7E6FDB0
:10305000EAE70A4B0A4A0B490B4802F0B3F8C046AC
:10306000C8090220F08B0010E92E0010CC010020CE
:10307000D4090220380A0220640A0220F88B0010CA
:10308000488E0010220800008C8B0010024A136842
:10309000013313607047C04658090220014B18687D
:1030A0007047C046640A0220014B18687047C0464A
:1030B000640A0220F8B5564B1B68002B00D09CE038
:1030C000544B1D6801351D60002D10D1524B1B68FB
:1030D0001B68002B27D1504A1168504B18681060AC
:1030E00019604F4A136801331360FFF7CBFD4D4B56
:1030F0001B68AB421DD900264B4B1B68DA6A930054
:103100009B189A00494BD358012B00D90126484BF4
:103110001B68002B00D16DE0464B1B68002B00D0D4
:1031200073E03000F8BD444B444A4549454802F03D
:1031300049F8002635E03B4B012252421A60DBE79A
:10314000384B1A60D8E7D968516040E0196A51607D
:1031500000219962116801391160DA6A3A490968F7
:103160008A4201D938490A603049900080188200AB
:103170008A1852689A609068D86044609460D86AEF
:1031800082001718BC0064185C61BC0064580134EC
:10319000B8004450DA6A244B1B68DB6A9A4200D3B9
:1031A00001261D4B1B681B68002BC4D01A4B1B68E3
:1031B000DB68DB685A689542C2D35A699868D96857
:1031C0008160986848601C1D5168A142BBD00021F5
:1031D00059611168013911609A6A002ABDD0D86915
:1031E000196A8160D86948601900183150688842AE
:1031F000AED1ABE7FDF786F98EE70D4A13680133D0
:103200001360FDF77FF900268BE7012689E7C046AA
:1032100058090220640A0220840400208804002047
:10322000D8090220D40902207C0400209004002048
:10323000DC090220740A02200C8C0010248E00107D
:10324000A90A00008C8B00106009022010B54A4BBF
:103250001B68002B0FD0FEF76FFC474B1A68013A32
:103260001A601B68002B00D080E0444B1B68002BC9
:103270000DD100247BE0424B424A4349434801F0D0
:10328000A1FF196A516015E0D968516021E000235F
:103290003F4A1268002A4AD03D4BDB68DB689A6AD5
:1032A000D869196A8160D869486019001831506876
:1032B0008842E6D0002199621168013911605A698B
:1032C0009868D9688160986848601C1D5168A1425F
:1032D000DAD000215961116801391160D96A2D4A8B
:1032E0001268914201D92B4A11602B488A0052186A
:1032F0009200821852689A609168D9604C6094601C
:10330000DC6AA20011198900091859611119890094
:1033100009580131121992001150204A1268D26ADC
:10332000D96A9142B4D31E4A01211160B0E7002B43
:1033300001D0FFF7A7FC1B4B1C68002C0AD1184BCF
:103340001C68002C13D0FEF7D7FB01240FE0013CD2
:10335000002C07D0FFF7AEFE0028F8D0104B01225A
:103360001A60F4E70F4B00221A60E8E70024FEF72A
:1033700003FC200010BDC04658090220500902205D
:10338000848C0010388E0010950800008C8B001083
:10339000E009022060090220900400207C04002043
:1033A000740A0220DC09022010B5041E0DD00B4B5C
:1033B0001B68002B0CD1FFF769FE00212000FFF7EE
:1033C0009FFDFFF743FF002801D1FEF795FB10BDDD
:1033D000034B044A0449054801F0F4FE5809022051
:1033E000D48B00105C8E00102B0500008C8B00101D
:1033F00070B52A4B1B68002B03D0294B01221A60A1
:1034000070BD274B00221A60264B1B681B6B264A97
:103410001968914202D15968914212D0214B186823
:1034200019683431FDF776F8204B1B689A00D218E2
:1034300091001F4A8A58002A11D1002B09D0013B64
:10344000F4E799689142E9D1DA68174B9A42E5D1DD
:10345000EAE7184B184A1949194801F0B3FE144D10
:103460009900CA1890002818426854684460C91826
:103470008A000832521994420BD09A00D218910057
:103480000B4A52185268D168064A1160074A136005
:10349000B6E7606889006A185060EEE758090220B4
:1034A000740A02207C040020A5A5A5A560090220BD
:1034B000900400209C8C0010108E0010E40B000083
:1034C0008C8B001010B50C00002809D0074B196830
:1034D0001831FEF70DFE01212000FFF711FD10BD90
:1034E000034B044A0449054801F06CFE7C040020AB
:1034F000AC8C0010F88D0010FE0B00008C8B0010BF
:1035000070B503001000002B1ED0154A1268002A67
:1035100020D0144C2568802212061143A9615A68F4
:103520002168CA61216895680D6221681831696057
:10353000216818319160226893621A6801321A601A
:103540000121FFF7DDFC70BD074B084A0849094817
:1035500001F038FE084B054A0849064801F032FEE2
:10356000580902207C040020AC8C0010D88D00107B
:10357000180C00008C8B0010B88C00101C0C000084
:1035800070B5030008001100002B18D05A680F4CCA
:103590002568EA61256896682E6225681835756089
:1035A000256818359560226893621A6801321A609E
:1035B000002901D001204042FFF7A2FC70BD044B5E
:1035C000044A0549054801F0FDFDC0467C04002081
:1035D000AC8C0010B88D0010340C00008C8B0010E7
:1035E00010B5C368DB68002B4CD09A6AD869196A99
:1035F0008160D8694860180018305168814247D00E
:10360000002199621168013911602B4A1268002A61
:1036100044D15A699868D9688160986848601C1DCF
:103620005168A14237D000215961116801391160F8
:10363000D96A224A1268914201D9204A1160204871
:103640008A0052189200821852689A609168D96074
:103650004C609460DC6AA200111989000918596154
:103660001119890009580131121992001150DA6AB2
:10367000144B1B68DB6A9A421CD9134B01221A6057
:10368000012018E0114B124A1249134801F09AFD2B
:10369000196A5160B4E7D9685160C4E70F4A5168AC
:1036A000D9618C681C62606088609A62116801311F
:1036B0001160DCE7002010BD5809022060090220DB
:1036C000900400207C040020740A0220D48C001096
:1036D0009C8D0010640C00008C8B0010E00902200F
:1036E00010B5324B1B68002B4DD080231B061943AD
:1036F0000160C368002B4CD00269416884688C600B
:10370000816844684C605168814248D00021016161
:103710001168013911605A699868D96881609868A0
:1037200048601C1D5168A1423CD0002159611168BC
:1037300001391160D96A1E4A1268914201D91C4AA6
:1037400011601C488A0052189200821852689A60D0
:103750009168D9604C609460DC6AA20011198900FC
:10376000091859611119890009580131121992007B
:103770001150DA6A104B1B68DB6A9A4202D90F4B70
:1037800001221A6010BD0E4B0E4A0F490F4801F07E
:1037900019FD0F4B0B4A0F490C4801F013FD8168CE
:1037A0005160B3E7D9685160BFE7C04658090220AD
:1037B00060090220900400207C040020740A02208A
:1037C000E48C0010788D00109C0C00008C8B001095
:1037D000D48C0010A40C0000034B1B680360034B47
:1037E0001B6843607047C046D8090220640A022063
:1037F000F8B504000D00002817D000291BD0FEF7F3
:103800009BF91F4B1A686368D61A1E4908686D2118
:10381000415C002916D01B4B1A686D230021D1543E
:103820000124FEF7A9F92000F8BD174B174A1849E3
:10383000184801F0C7FCCE21174B144A090115485E
:1038400001F0C0FC2968481C18D01448006827689B
:10385000874205D0934203D800232B600124E0E780
:10386000B14203D800232B600124DAE79B1A5B18CE
:103870002B602000FFF7B0FF0024D2E70024D0E740
:10388000640A02207C040020148D0010BC8E0010FD
:10389000DF0C00008C8B0010208D0010D809022056
:1038A000014B01221A607047740A0220014B18680C
:1038B0007047C0467C040020064B1B68002B07D0D5
:1038C000054B1B68002B01D0002002E0022000E025
:1038D00001207047380A02205809022070B5041EE2
:1038E0004CD0C26A274B1B68DB6A9A423ED283697E
:1038F000002B05DB234B1B68D96A20235B1A8361ED
:1039000093009B189B00204A9B1862699A4205D03D
:103910001C4B1B68DB6AE362012030E0251D280098
:10392000FEF7FDFB174B1B68DA6AE262174B1B6858
:103930009A4201D9154B1A60134993009B189B00BA
:10394000CB185B68A3609A68E26055609D60E06A8E
:1039500083001A189200521862611A189200525885
:1039600001321B189B005A50012008E0C26C054B25
:103970001B68DB6A9A4203D3002000E0002070BD80
:103980000120FCE77C040020900400206009022054
:1039900070B5041E45D0254B1B6883420CD1036DC6
:1039A000002B0FD0013B0365C26AC16C8A423AD03A
:1039B000002B0DD0002070BD1D4B1E4A1E491F4814
:1039C00001F000FC1E4B1B4A1E491C4801F0FAFB8B
:1039D000051D2800FEF7A3FBE26CE26220239B1A80
:1039E000A361194B1B689A4201D9174B1A601749FA
:1039F00093009B189B00CB185B68A3609A68E260F9
:103A000055609D60E06A83001A1892005218626146
:103A10001A189200525801321B189B005A5001206C
:103A2000C9E70020C7E70020C5E7C0467C040020A6
:103A3000308D0010A48E0010341000008C8B00100C
:103A4000488D00103510000060090220900400200D
:103A500070B5041E0BD0026D002A09D0C36C8B42D6
:103A600000D20B00E16A994201D0012A06D070BD54
:103A7000214B224A2249234801F0A4FB224A126822
:103A8000A24232D0E362A269002A02DB2022D31ACA
:103A9000A3618B00591889001C4BC91863698B42BC
:103AA000E5D1251D2800FEF73AFBE26A184B1B689A
:103AB0009A4201D9164B1A60144993009B189B0037
:103AC000CB185B68A3609A68E26055609D60E06A0D
:103AD00083001A189200521862611A189200525804
:103AE00001321B189B005A50C1E70A4B034A0A498E
:103AF000044801F067FBC046488D0010808E00101E
:103B0000841000008C8B00107C04002090040020A6
:103B100060090220608D00109F100000044A1368A5
:103B200098691368D96A126820235B1A93617047F9
:103B30007C040020054B1B68002B04D0034B1A6843
:103B4000136D01331365014B186870477C04002026
:103B5000074B1A681368002B06D101330360002B52
:103B600004D1D368186870470023F7E70020FAE70C
:103B70008004002010B54160006191420CD8D21A37
:103B800083699A4201D3012010BD011D094B1868B9
:103B9000FEF7AEFA0020F7E79A4201D2994206D228
:103BA000011D054B1868FEF7A3FA0020ECE7012081
:103BB000EAE7C0468C0400208004002070B50400B1
:103BC0000D00160005E0A3699C4665442000236AA9
:103BD0009847A36959192B0032002000FFF7CAFF4C
:103BE0000028F0D170BD000070B505000E000C4B30
:103BF0001B68DB68DC68201DFEF791FA2823E35C74
:103C00005A0707D4012293432732A354236A200082
:103C1000984770BD320029002000FFF7CFFFF5E77D
:103C20008004002010B505E0DB68186801214942D6
:103C3000FFF7DAFF054B1B681A68002AF4D1044A23
:103C4000024910680860136010BDC046800400205F
:103C50008C04002070B50500FFF720FA0400074B24
:103C60001B68834205D800232B60044B1C60200096
:103C700070BDFFF7D7FF01232B60F6E7CC090220C8
:103C800070B582B004000D00FFF700FA01A8FFF73D
:103C9000E1FF0600019B002B23D1002D01D1A042A2
:103CA00013D2002D05D0104A12681268002A13D1D1
:103CB0000125A11B0D4B18682A00FEF7BBFFFFF77B
:103CC000C5FA00280AD002B070BDFFF7BFFA310074
:103CD0002000FFF789FFF6E71D00EAE7FDF70CFF7C
:103CE000F1E7FFF7B3FAEEE78C040020680A022040
:103CF00030B587B002E0029B002B0FDA394B186811
:103D0000002202A9FEF7ECFD002869D0029B002BDF
:103D1000F1DA039B059904989847ECE7049C6369E2
:103D2000002B02D0201DFEF7FAF901A8FFF792FF41
:103D3000050002990929E1D889002B4B59588F4673
:103D40002822A35C01210B43A354039BA269944640
:103D500063441900039B02002000FFF70BFF0028BB
:103D6000CCD02823E35C5A0707D40122934327329F
:103D7000A354236A20009847C0E7039BA269944696
:103D8000634419002A002000FFF718FFF1E72822FA
:103D9000A35C01218B43A354B0E72822A35C01213B
:103DA0000B43A3540399A161002906D0091803000D
:103DB00002002000FFF7DEFEA0E70C4B0C4A0D4985
:103DC0000D4801F0FFF92823E35C9A0704D501228E
:103DD00093432732A35491E7200000F0F1F98DE7D7
:103DE00007B030BD680A0220388F0010D48E001052
:103DF000CC8F001059030000FC8E001000B583B07A
:103E000001A8FFF7A5FE0199FFF73AFFFFF770FF42
:103E1000F6E7000070B5FDF78FFE104B1B68002B16
:103E200002D0FDF7A9FE70BD0D4D2800FEF752F936
:103E30000C4C2000FEF74EF90B4B1D600B4B1C6029
:103E4000002210210A20FEF70BFB044B186000280B
:103E5000E7D00749FEF7BCFEE3E7C046680A022048
:103E60006409022078090220800400208C040020CC
:103E7000608F0010F0B5C64600B580460D001600F4
:103E80001F00079C002914D0FFF7C4FF434623609E
:103E9000A561E761069B2362201DFEF726F9002E2F
:103EA00004D02822A35C04210B43A35480BCB84651
:103EB000F0BD6C21024B034AFF31034801F082F947
:103EC000688F0010B48F0010FC8E001000B583B016
:103ED000FFF7A0FF0C4B1B68002B0ED080220B4B72
:103EE00001931F2300930023D20009490948FFF7DB
:103EF00055F8002801D003B000BD1A21064B074A2F
:103F0000FF31074801F05EF9680A02206C0A0220BE
:103F1000848F0010FD3D00108C8F0010E88F001082
:103F2000FC8E0010F0B585B003900D0016001F0048
:103F30002C2000F0FFF8041E0BD028230022C254CE
:103F400001900A9B00933B00320029000398FFF781
:103F500091FF200005B0F0BD30B585B004001D0014
:103F6000002814D0164B1868002826D00091019222
:103F7000029405291ADCFFF79FFC02280ED0104B93
:103F80001868002300226946FEF7CCFA13E08C2162
:103F90000C4B0D4AFF310D4801F014F9084B18681D
:103FA0000023089A6946FEF7BDFA04E000232A00C0
:103FB0006946FEF77FFB05B030BD0020FBE7C04639
:103FC000680A0220948F00109C8F0010FC8E001055
:103FD00010B584B014001A0002235B4200930190D4
:103FE00002910394034B186800236946FEF762FBB5
:103FF00004B010BD680A0220054B984204D3054B5B
:10400000984203D3002000E0002070470120FCE725
:10401000C0010010CC010010044B9B6810308000E0
:104020001950BFF35F8F82F31088704700ED00E0F6
:10403000024B9B6810308000C058704700ED00E0D4
:10404000F8B505000E00EFF3108772B6FFF7F0FF2A
:104050000400B04203D0FFF7CFFF002806D03A009B
:1040600031002800FFF7D8FF2000F8BD024B034ABB
:104070003121034801F0A6F8009000109C90001038
:1040800044900010EFF3108072B6034B1B68002BB6
:10409000FBD0BFF35F8F70472C0100D0BFF35F8F61
:1040A000024B00221A6080F3108870472C0100D068
:1040B000F8B506000C001500FFF7E4FFE308F71859
:1040C000F15C07222240012393400B4205D1DBB271
:1040D0000B433B70FFF7E2FFF8BD2100280001F021
:1040E0000BF90000034B1B6802201840431E984147
:1040F000C0B2704700C00640002307E0054A9A1886
:104100009200BFF35F8F0021116001331F2BF5D99F
:104110007047C04640000034054A1078431CDBB2AB
:104120001370172B02D9130010221A707047C04663
:10413000D001002070B50400430707D00723020018
:104140009A4313000833834214D80024FEF79EFFDD
:10415000174B1B68002B0FD0002C13D0154B1B687E
:104160001C19154A944214D8A34216D3FFF76EF8CF
:1041700000250AE01C00E9E7104B072293430C4A94
:104180001360E9E7FFF762F80025FCF7BDF92800A6
:1041900070BDFFF75BF80025F7E7054A1568ED18D5
:1041A000044B1C60FFF752F8002DF0D1EDE7C0463C
:1041B00074040020D0090220F7FF01004B09002001
:1041C00010B5002800D110BD024B034A8B210348D3
:1041D00000F0F8FFBC9000101C910010D09000106F
:1041E00010B58300084A944663441C68402262402C
:1041F000C02414408022520113431C60C000034BB2
:104200009C466044416010BD04C001400040014034
:1042100080000B4B9C46604400290DD00823002AE7
:104220000CD004221343026853400C221340802216
:1042300052011043036070470023F0E70022F1E7CA
:1042400004C00140072303409B00C00899403C3054
:104250008000014BC150704700400140F8B5070095
:104260000C0016001D00FFF7EDFFFB089B00ED188A
:104270000720384080008440002E04D080239B011A
:104280001D432C60F8BDC0239B011D432C60F9E742
:1042900010B5D0231B061B68002B03D0024BFFF781
:1042A000DDFF10BD014BFAE7304101400041014004
:1042B00010B51C00FFF7ECFFD0231B061A68920014
:1042C000054BD45005490D2001F0B6F901210D2010
:1042D00001F0A2F910BDC046DC030020E14200104D
:1042E00070B5D0231B061B68002B02D0134D002491
:1042F00002E0134DFBE701341D2C1DD8E308083301
:104300009B005A59072323409B00DA4013000F22D9
:1043100016001E401A42EED031002000FFF792FF37
:10432000D0231B061B689B00064A9B58002BE2D03B
:10433000310020009847DEE770BDC04630410140A3
:1043400000410140DC03002010B501238340D0224E
:104350001206936293610521FFF742FF10BD000032
:1043600070B504000D00062001F0E6F8C000290039
:1043700002F0A0FCC60908D00E4B9E4217D87F233E
:10438000184001303500460800E001256562A6624C
:104390002C3480208001044300232360062001F098
:1043A000CBF88000A901891902F084FC70BD0026B9
:1043B000014DEBE7FEFF0000FFFF0000002909D0E0
:1043C0000A22064B9C466044434258414000044B3D
:1043D000C252704780225200F3E7C0460080FCBF03
:1043E0003C09002070B505000C00062001F0A4F87F
:1043F000002829D0164B9D4227D08022D203154B8E
:104400001A60154B1A60154B9B6811009943FAD13D
:1044100000212800FFF7D2FF21002800FFF7A0FFAE
:104420002C002C34E96A60224A406E21114080221F
:104430005201224311600A4B2B6380239B012343CB
:1044400010221A600323AB6470BD80221204D6E7E9
:104450000080034000E0004000F0004000C0004049
:104460000103000070B505000C00080000F07AFBA5
:10447000200000F04BFC0849200000F08BFBFFF708
:104480004BFE064B9C466044800068602C75A4007F
:10449000034BE55070BDC046794700104000003422
:1044A0006404002010B5002922D003681B7B9942C8
:1044B0001ED8174B9C466144090183689C466144A1
:1044C0000C684968002A19D003681B7B9A4215D8EA
:1044D00083680F488446624412019A181068536832
:1044E000020001208B4201D80ED00020C0B210BDC6
:1044F000084B094A3B21094800F064FE054B064A77
:104500003B21064800F05EFEA242EFD8EDE7C04630
:10451000FFFFFF0F80910010A89300103C91001046
:1045200010B500291ED0037B99421BD84B005B18A5
:10453000033B0468A4466344002919D0002A1DD017
:10454000914221D0002A25D0047BA24222D80468BF
:1045500050008018033820188170197800291FD165
:104560001A7010BD104B114A6921114800F02AFE43
:10457000104B114A70310E4800F024FE0F4B0E4ACA
:1045800071210B4800F01EFE0D4B0B4A72210848AA
:1045900000F018FE044B054A6921054800F012FEA0
:1045A00041701A70DDE7C046B4910010FC93001012
:1045B000D091001028920010D8930010349200106F
:1045C0004092001070B506000D001400002914D0B0
:1045D000002A14D0806873689847002806D022000B
:1045E00029003000FFF79CFF280007E02A00210087
:1045F0003000FFF795FF200000E0100070BD0800BC
:10460000FCE70000F0B583B00500009201930AAB0F
:104610001C780BAB1F78002C26D003685A7B944281
:1046200007D10123002B19D1002C3BD1200003B06E
:10463000F0BD002C0CD01A7B944209D81A68630094
:104640001B19033BD3189B78002BEBD00123E9E720
:104650003E4B3F4A69213F4800F0B4FD3E4B3F4A84
:1046600065213F4800F0AEFD03689C7B002CDBD049
:1046700012D01A7B94420FD862001219033A1968BB
:104680008C46624451789973002900D1D973002374
:10469000937053701370C7E72C4B2D4A69212D4836
:1046A00000F090FD002C3AD02B681B7B9C4236D842
:1046B0002C4BE3181B01AA6894466344009A1A60C5
:1046C000019A5A60089A9A60099ADA602E68002C5A
:1046D0002BD030D0337B9C422DD863001B19033B79
:1046E00032689446634400229A705A701A70717B43
:1046F00022003000FFF766FF7073844200D095E718
:10470000287D009A019B00F08DFA061E01D0002F33
:1047100017D00C9B002B00D188E71E7086E7124B48
:10472000124A3B210E4800F04DFD114B114AA621C3
:10473000084800F047FD054B054A6921054800F08F
:1047400041FD2868210000F0BBFCE2E7B4910010B5
:10475000FC930010D09100105892001008940010A3
:104760003C910010FFFFFF0F80910010A8930010F4
:1047700038910010EC930010F0B5DE4657464E46D7
:104780004546E0B58BB00990002308938200B24BF8
:10479000D658370032E0B14BB14A3F21B14800F062
:1047A00011FDB14BB14A3B21B14800F00BFDB14BBB
:1047B000B14A8C21AE4800F005FDB04BAE4A9021C5
:1047C000AB4800F0FFFCA84BAD4A4021A84800F0E0
:1047D000F9FC2A686B68099800F024FA00239A46CD
:1047E00098467B68BFF35F8F00221A6086F31088BB
:1047F0004346002B51D1002800D126E100F0BEF93C
:1048000002000B1EC7DB002000210690079178688C
:10481000EFF3108672B601680029FCD0BFF35F8FFA
:10482000396888464C7B002C32D0BAD0097B8C4248
:10483000B7D8944965182D01B9688C466544286835
:104840006968801A99410029C3DC01D10028C0D1D0
:104850000021404600F02AFCA042A8D12A686B68DB
:1048600006920793AB689846EB689A464346002B3E
:10487000A3D0002CA7D03B681B7B9C42A3D8631E0F
:10488000FA68D35C08931B02184338610020A8E73C
:1048900000239A4698460020A3E7089B1B02234367
:1048A000994651461800C04705000E007A68EFF39C
:1048B000108B72B6136859424B41D9B2002BF9D113
:1048C000BFF35F8F002E26DB002E52DD3B69002BED
:1048D00053D04B4572D100F051F902000B1E73DB2F
:1048E0000100180052197341984202D804D1914234
:1048F00002D901225242D317002B6BDB0021049115
:1049000001310391029451460191414600913800D2
:10491000FFF778FE49E03B69002BD5D04B451CD111
:10492000069A079B10001900521BB341994202D806
:1049300004D1904202D901225242D317002B12DB3C
:1049400000210491013103910294514601914146A5
:1049500000913800FFF756FE27E04B4B464A9F2157
:10496000434800F02FFC3D4B3D4A3F213D4800F0BD
:1049700029FC002E01D1002DA8D13A68002C45D089
:10498000537B9C422CD1012100293FD1D37B002BAA
:1049900042D1D473002C52D03B681B7B9C424ED832
:1049A000FA68013C135D0133135500233B617A68BB
:1049B000BFF35F8F13608BF310881FE7324B2E4AD3
:1049C000A2212B4800F0FEFB244B254A3F2125481D
:1049D00000F0F8FB214B224A3F21224800F0F2FB75
:1049E000002C0DD0137B9C420AD863001B19033B9B
:1049F0001068844663449B78002BC5D00121C3E72F
:104A0000224B234A6921234800F0DCFB224B234A36
:104A1000F721204800F0D6FB002B0AD0117B8B42F7
:104A200007D85900CB18033B11688C4663445C706F
:104A3000AFE7164B164A6921164800F0C3FB0A4B34
:104A40000F4A40210A4800F0BDFB0BB0F0BCBB464A
:104A5000B246A946A046F0BD640400208092001032
:104A6000749300109C92001080910010A893001085
:104A70003C910010F09200108C93001008930010ED
:104A8000B4930010FFFFFF0F14930010B4910010B7
:104A9000FC930010D091001050930010C8930010A8
:104AA00010B50A4B5B68002B04D00A21084800F0BF
:104AB0004DF910BD054C2300064A1021206800F076
:104AC00015FA03212000FFF7CDFCEEE7D40100200A
:104AD00018090020A544001070B5EFF305833F20AE
:104AE00018401038EFF3108C72B6194B1B68002B6E
:104AF000FBD0BFF35F8F012319008140154A51633A
:104B0000154A12781400C440234214D0114B5C6A39
:104B10008300124D5B599C4206D38300104C1B59F5
:104B20008A430D490A7007E00A4A031D9B00995801
:104B30009950002300E00023BFF35F8F044A002157
:104B400011608CF31088002B00D0984770BDC046D0
:104B5000280100D000400540820A02202C090020D4
:104B6000E403002010B50100024A0348FFF7A0FA51
:104B700010BDC04620940010800A0220044B5B6ADE
:104B8000034A906A1900536A9942F9D17047C046A6
:104B90000040054070B504000D00EFF3108672B6BA
:104BA0001B4B1B68002BFBD0BFF35F8F002D1CD06D
:104BB000200000F039FD174B83420BD01900200074
:104BC00000F03AFD0121200000F026FD0123A34062
:104BD000114A1360A400114BE550BFF35F8F0C4BDB
:104BE00000221A6086F3108870BDA2000B4B0021D2
:104BF000D1500122A2400A490B7893430B7005491A
:104C0000200000F043FD0021200000F005FDE4E756
:104C1000280100D0D94A001038600540E403002084
:104C2000820A0220F0B5DE4600B584B0040015000B
:104C300001921E000293FFF7A1FF03958E4202D856
:104C40004ED185424CD9EFF3108B72B6274B1B68BF
:104C5000002BFBD0BFF35F8F254A17780125A540B5
:104C6000EBB23B431370234B5D63221D920001990D
:104C7000D150A2002049029850501B6A2B4212D1F9
:104C80001C4B1B6C2B4208D00020BFF35F8F174BCF
:104C900000221A608BF3108823E0184B184AC121B8
:104CA000184800F08FFAFFF769FF8E4214D802D13E
:104CB000039B834210D80E4B1B78BB420ED00D4B8A
:104CC0001D625D631F2004400123A3400E4A136050
:104CD000074B1F701E38D8E70020D6E70120D4E725
:104CE000012004B080BCBB46F0BDC046280100D006
:104CF000820A0220004005402C0900204494001044
:104D0000B89400106894001080E200E0EFF3108C7B
:104D100072B60B4B1B68002BFBD0BFF35F8F0123D8
:104D20008340084A136208490A789A430A70BFF31D
:104D30005F8F034B00221A608CF310887047C046C7
:104D4000280100D000400540820A0220024B9C4608
:104D500061448900016070474000003410B50400D0
:104D6000FFF7DAF901002000FFF7F0FF01235B42B3
:104D70006360BFF35F8F10BD10B50400FFF7CCF97F
:104D800001002000FFF7E2FF01235B426360002384
:104D90002372BFF35F8F10BD10B500291ED0037BB7
:104DA00099421BD84B005B18033B0468A44663443C
:104DB000002919D0002A1DD0914221D0002A25D0E7
:104DC000047BA24222D804685000801803382018BF
:104DD0008170197800291FD11A7010BD104B114A2B
:104DE0006921114800F0EEF9104B114A70310E485C
:104DF00000F0E8F90F4B0E4A71210B4800F0E2F980
:104E00000D4B0B4A7221084800F0DCF9044B054AAF
:104E10006921054800F0D6F941701A70DDE7C046F7
:104E2000B491001078960010D091001028920010D4
:104E300064960010349200104092001070B5060085
:104E40000D001400002914D0002A14D08068736863
:104E50009847002806D0220029003000FFF79CFF69
:104E6000280007E02A0021003000FFF795FF20000E
:104E700000E0100070BD0800FCE7000010B5002342
:104E8000437301338373037BC3730123027B9A4211
:104E900014D9002B0CD0027B934209D85A00D218A7
:104EA000033A01688C4662440133DBB25370EDE78C
:104EB0000B4B0C4A69210C4800F084F9002A09D0F8
:104EC000924207D8016853009A18033A8A180023BF
:104ED000537010BD024B034A6921034800F072F978
:104EE000B491001078960010D091001010B50173A5
:104EF00042608360FFF7C2FF10BD000070B5040080
:104F0000081E00D170BD002934D0237B994231D8CE
:104F10004B005B18033B2268944663445A78002A8E
:104F2000F0D02DD0237B9A422AD853009B18033B04
:104F300021688C4663445D7800215970002825D093
:104F4000237B984222D843001B18033B21688C46E0
:104F500063440021597001002000FFF76FFF060035
:104F600029002000FFF7CAFF020031002000FFF7F0
:104F700065FFC7E7084B094A6921094800F022F993
:104F8000054B064A6921064800F01CF9024B034A0A
:104F90006921034800F016F9B491001078960010CA
:104FA000D091001070B505000C001600002928D023
:104FB0002DD0037B99422AD84B005B18033B026833
:104FC000944663445A78002A27D19A78002A2AD135
:104FD0001978FFF793FF0300002E03D0EA7B002A25
:104FE00027D1EC73002B37D1002C49D02B7B9C426E
:104FF00046D82B6861000C19033C1C190023637010
:1050000070BD224B224A3821224800F0DBF8224BA7
:10501000224A6921224800F0D5F8224B1C4A3A2145
:105020001C4800F0CFF8204B194A3B21194800F0EA
:10503000C9F8002A0AD0297B8A4207D851008A1869
:10504000033A29688C4662445470CAE7124B134AEB
:105050006921134800F0B6F8002B0BD02A7B93424D
:1050600008D843001B18033B2A6894466344002277
:105070009A70B9E7084B094A6921094800F0A2F87B
:10508000054B064A6921064800F09CF87895001007
:105090005096001080950010B49100107896001082
:1050A000D0910010C4950010EC95001070B504006C
:1050B0000A00457B2900FFF775FF6073280070BD6B
:1050C00070B50400002967D0437B8B420ED00029C5
:1050D00011D0037B99420ED84B005B18033B02684A
:1050E000D0188378002B0CD1002056E00121FFF767
:1050F000DDFF012051E0294B294A6921294800F0B0
:1051000061F8002B20D0227B93421DD85A00D3187F
:10511000033B2268D2182568EB5C8B421AD0002B27
:105120001BD0227B934218D85A00D318033B226825
:10513000D21853788B4216D0002BF0D11A4B1B4A51
:1051400067211B4800F03EF8144B154A69211548A9
:1051500000F038F84378137007E0104B104A6921CB
:10516000104800F02FF84378537000238370437089
:1051700001222000FFF716FF0200617B814205D06B
:105180002000FFF75BFE6073012006E0094B074A31
:105190006D21074800F016F8002070BDB491001092
:1051A00078960010D09100101096001038960010DC
:1051B000809500101896001000BEFDE710B5FFF7AF
:1051C000FBFF000010B582B00C001900002A0CD0C3
:1051D000084B002A0BD001920093230002000648DE
:1051E00002F09AFD0120FFF7E7FF044BF1E7034AC5
:1051F000F1E7C04684960010949600109096001037
:1052000070B52B4B2B4A1A602B4B2C4A1A602C4B37
:105210009A682A4B9343FAD12A4C01E008CC98476C
:10522000294B9C42FAD300F007F9234B274A1A6016
:10523000234B9B68DB43DB01FAD1254B40229A6765
:105240005A671A67DA66234C09E0234B234A832105
:105250002348FFF7B7FF2000FFF780FD0834214BFC
:105260009C4209D22368002BF5D0012BEDD1200000
:10527000FFF782FD0C34F2E71B4CA1681B4DC022E6
:10528000280002F001FCA560FAF7EDFF002800D02D
:1052900000BEFEF731FF00F05BFBFFF701FC144C92
:1052A00001E008CC9847134B9C42FAD370BDC0462E
:1052B00000E00040BFCDFBFE00F00040FE7F3C0060
:1052C00000C000409C020020AC020020FFFFFF0154
:1052D00000F001408C020020C49600105897001086
:1052E000E49600109C02002000ED00E00000002089
:1052F000AC020020B40200200FB400B583B008480F
:1053000002F0D8FC049B002B07D005A901911800DE
:1053100002F0E0FC034802F0CDFC0120FFF74CFF57
:10532000349700104497001010B50148FFF7E4FFD0
:1053300048970010F8B5DE4657464E464546E0B55C
:1053400005000F0092460A9A93424ED31A0E9146D8
:105350001E020A9A00233000494601F0EDFC804607
:105360006C006419A4002F4B9C466444636883421C
:1053700000D260602B1FDBB29B46012B3BD9C023C0
:105380009B012343802212011A60AB00264A9958E0
:10539000002905D0506901F08DFC01300138FDD1A4
:1053A00053465A0123685A40E0231A4080235B0188
:1053B00023431A605A46012A28D980239B0123439C
:1053C000802212011A604346636042460023300087
:1053D000494601F0B1FCAD00134B58510120F0BC1F
:1053E000BB46B246A946A046F8BD104B104A2D2137
:1053F0001048FFF7E7FE012FC1D1C0239B012343D3
:1054000003221A60A368DB07FCD5C9E7216879404D
:1054100003220A401A60A2680123BB401342FAD05B
:10542000CBE7C04600800040F403002068970010DE
:10543000CC9700107C97001030B583B00C2000F0A2
:1054400021FBFEF74FFE00280DD0002304E0990059
:105450002D4A2E4888500133092BF8D92A4B2C4A63
:105460005A6203B030BD2B4B00229A6700F012FB4A
:10547000294B01221A60274B5B6C012BFBD1274B78
:1054800003221A60234B9B6B012BFBD10224009457
:105490000533234A0121234800F068FA00940523CC
:1054A000214A0121214800F061FA214B009300229A
:1054B00002210420FFF73EFF1E4D00952B00002225
:1054C00001210520FFF736FF104C00942300002235
:1054D00000210720FFF72EFF009423000022002167
:1054E0000820FFF727FF0A4B00932300002200212A
:1054F0000920FFF71FFF00952B0000220021062046
:10550000FFF718FFADE7C046F4030020006CDC0293
:105510001BB70000008000403CB0004030B00040AD
:10552000002F68590080024000389C1C00C00240D7
:10553000001BB700405973078000014BC0587047EB
:10554000F4030020074B9B68103080001950BFF314
:105550005F8FBFF35F8F044B0021196082F31088C7
:105560007047C04600ED00E0240100D010B5091AD4
:1055700004394808090B05D14005400D044B184378
:1055800080B210BD034B044A8B210448FFF71AFE7A
:1055900000E0FFFFDC970010F4990010EC9700107A
:1055A00010B5091A04394C08090B08D14905490DF1
:1055B000064A11430180064B2343438010BD054B2F
:1055C000054A93210548FFF7FDFDC04600F0FFFFA7
:1055D00000F8FFFFDC970010C8990010EC9700104E
:1055E00001238340034A10681840431E9841C0B20B
:1055F0007047C04600E100E0002904D0034B18606A
:10560000034B18607047034B1860FBE780E200E033
:1056100000E100E080E100E010B5012383401800C4
:10562000FFF7EAFF10BD0000024B9B6810308000BE
:10563000C058704700ED00E070B504000D00EFF3B6
:10564000108672B60C4B1B68002BFBD0BFF35F8F2C
:105650002000FFF7E9FF094B984201D0A84205D18D
:10566000320029002000FFF76DFF70BD044B054A92
:105670006E210548FFF7A6FD240100D0CD010010E2
:1056800038980010109A0010EC970010F0B5CE4634
:10569000474680B583B006000D00EFF3108872B660
:1056A000574B1B68002BFBD0BFF35F8F554B9A689D
:1056B00034001034A300D758534B9F4207D0AF4259
:1056C00000D19BE00197514BFB1A2F2B09D9424681
:1056D00039003000FFF736FF03B0C0BCB946B04612
:1056E000F0BD3000FFF77CFF814600213000FFF75E
:1056F00093FFBFF35F8FFAF7B6FD002801D0844215
:1057000019D10123019C9C43414923003F4A9B1A24
:105710005B415943090D49B20022A368AB4212D044
:105720000622A256002A0DDB53009B189B00220084
:10573000364CE418F1E71E21364B374AFF31374823
:10574000FFF740FD2200AB4251D106256557002DE1
:1057500039DB6B005B199A002C4B9B189A68A2608E
:10576000DA79E27106229A56A2719B795BB2002B1C
:1057700010DABD200002A0806B005B199B00234A59
:10578000D318274A11789971157049463000FFF7F0
:1057900043FF9CE7201D6B005B199B001B4A9B1875
:1057A0001A1D9B88D90A1C2907D15B055B1502339A
:1057B00059005118FFF7DAFEDDE71A4B1A4A992112
:1057C0001648FFF7FFFC00280CD1002A08D0FF2361
:1057D0009371164B9380124B1A78A2711970D4E70B
:1057E000094FF8E7201D1249FFF7DAFECDE7A9219E
:1057F000104B094A49000948FFF7E4FC024F66E7ED
:10580000240100D000ED00E0CD010010FC010020DB
:10581000AAAA00004C990010E0990010EC97001023
:10582000810A022034990010009A001000BDFFFF89
:10583000360200207099001010B5032304009C4329
:10584000064A9446644422681840C000FC338340F2
:105850009A43130081400B43236010BD00E400E035
:1058600070B50400012606432D4BF31A2F2B28D8C0
:10587000FAF7F9FC00282BD0EFF3108C72B6294B05
:105880001B68002BFBD0BFF35F8F274D22002449FC
:10589000521A524155432D0D6DB2244B9B68800026
:1058A0001B58B3421BD00022032A32D853009B1846
:1058B0009B001B49CB189B795BB2AB421FD00132D6
:1058C000F2E778211A4B1B4AFF311B48FFF77AFC9D
:1058D000BD211A4B174A49001748FFF773FC134BB9
:1058E0009B68174A1A50174B1A78A2711D70BFF3A4
:1058F0005F8F0C4B00221A608CF3108870BD08007B
:105900005300991889004118FF268E710E4A8A802B
:10591000E9E78C210D4B074AFF310748FFF752FC9E
:10592000FC010020240100D0AAAA000000ED00E044
:1059300078990010AC990010EC970010A099001015
:10594000CD010010810A022000BDFFFF109600105B
:105950000022044B02E0044902C30132072AFAD9AB
:105960007047C04600E400E080808080F0B5CE46FD
:1059700000B504000E0091461F000C2001F09AF9BA
:10598000050043011B1A9901C91AC90009188901A8
:10599000484601F08FF90200103A98235B009A42C2
:1059A00033D87B1E062B36D8069B013B062B32D8FC
:1059B000069B9F4235D34B461A09AA4237D33F0470
:1059C000069B1D032F432368002B36DB234B9C4291
:1059D00041D080225201224B1A60224B1A60224B86
:1059E0009B6811009943FAD12660A060231DC02254
:1059F00092011A43212313602368002BFCDAE7602D
:105A00000823136080BCB946F0BD184B184A162114
:105A10001848FFF7D7FB184B154A19211548FFF70F
:105A2000D1FB164B124A1F211248FFF7CBFB144B38
:105A30000F4A22210F48FFF7C5FB22683F2313407E
:105A4000B342C3D1A3681B051B0D8342BED1E368DB
:105A5000002FBBD1D6E780229201BCE700C00240F4
:105A600000E0004000F0004000C000402C9A001010
:105A7000149B0010489A0010949A0010E09A0010AD
:105A8000F89A001080239B000343014AD3627047B9
:105A900000800540064BAA2212011A602F22DA600C
:105AA000044B054A1A60024B5B68002BFBDA704717
:105AB000004002400060024000B0FA00704710B59C
:105AC000002802D00B684968984710BD01000020EB
:105AD00007E083001B185B00501C08601078C0189A
