:020000041000EA
:1000000000B5324B212058609868022188439860DF
:10001000D860186158612E4B002199600221596106
:100020000121F02299502B49196001219960352056
:1000300000F044F80222904214D00621196600F024
:1000400034F8196E01211966002018661A6600F04E
:100050002CF8196E196E196E052000F02FF8012189
:100060000842F9D1002199601B49196000215960AB
:100070001A491B48016001219960EB211966A021F2
:10008000196600F012F800219960164914480160C1
:100090000121996001BC002800D000471248134993
:1000A000086003C880F30888084703B5996A0420EC
:1000B0000142FBD001200142F8D103BD02B5186610
:1000C0001866FFF7F2FF186E186E02BD00000240BE
:1000D000000000180000070000035F00212200005C
:1000E000F4000018222000A00001001008ED00E03C
:1000F00000000000000000000000000074B24E7A12
:1001000000200420F7010010C3010010C5010010F9
:10011000C1010010C1010010C1010010C101001097
:10012000C1010010C1010010C1010010C701001081
:10013000C1010010C1010010C9010010CB01001065
:10014000CD010010CD010010CD010010CD01001037
:10015000CD010010CD010010CD010010CD01001027
:10016000CD010010CD010010CD010010CD01001017
:10017000CD010010CD010010CD010010CD01001007
:10018000CD010010CD010010CD010010CD010010F7
:10019000CD010010CD010010CD010010CD010010E7
:1001A000CD010010CD010010CD010010CD010010D7
:1001B000CD010010CD010010CD010010CD010010C7
:1001C00000BE00BE00BE00BE00BE00BE00F04BF888
:1001D000103800BEF2EB8871887D0010A47D0010FD
:1001E0003402001090A31AE700202149086006C8D5
:1001F00081F3088810471F48006800282FD10DA4FC
:100200000ECC002902D000F012F8F9E71A491B4A77
:10021000002000E001C19142FCD1194988471949E9
:1002200088471949884700BEFDE701C901C29A42C3
:10023000FBD37047A47D0010C0000020980200206E
:100240007C7F001000000420000004207C7F001050
:1002500000100420001004200000000070470B482C
:1002600004F01AFF0047EFF30580C0B270470000AA
:1002700008ED00E0000000D098020020340A0220BF
:100280008D360010890300104936001057560000C3
:1002900006005250ABB360538C7C001006005250E5
:1002A000861C03029C7C0010060052505422A29D22
:1002B000A87C001005005250DE65F4687C7F0010B9
:1002C000F8B5C04610B5064C2378002B07D1054B76
:1002D000002B02D0044800E000BF0123237010BDB2
:1002E000980300200000000050630010044B10B57C
:1002F000002B03D00349044800E000BF10BDC046F6
:10030000000000009C03002050630010D0231B0657
:100310005B689B0105D4D0231B06802292045A619E
:100320007047D0231B06802292049A61F8E7D023FD
:100330001B065B681B0505D4D0231B068022120117
:100340005A617047D0231B06802212019A61F8E798
:1003500010B5D0231B061968014805F007FF10BD32
:100360005063001010B5D0231B061968034805F030
:10037000FDFE01F0EBF903F01DFAC04674630010B6
:1003800010B5FFF7EFFF000010B582B0FA21124B55
:100390000093002301224900104802F06FF8040086
:1003A00096210F4B00930023012249000D4802F0D3
:1003B00065F8002C08D001F015FA02000023009324
:1003C0000121200002F074F8074805F057FFFFF7FD
:1003D000BFFF002002B010BD0D0300109C63001091
:1003E0002F030010A4630010810300107047000069
:1003F00010B5014803F0C6F9B0630010FEE770477E
:10040000084A13681868203080F30988022080F3B6
:100410001488BFF36F8F3FBCAE4608BC04BC62B605
:100420001847000048040020EFF30980154B1A68B4
:1004300020381060F0C044464D4656465F46F0C036
:100440000D221207146E556E566F176F3038F0C0BC
:1004500008B572B601F046FB62B60CBC11680868BC
:100460001030F0C8A046A946B246BB4680F30988C2
:100470000D2212073038F0C81466556656671767A4
:10048000F0C818474804002010B503F093F90000A5
:1004900000B583B002E0D0231B069B6DD0231B0662
:1004A0001B6DDB07F7D4D0231B06FF221A65002340
:1004B0000193114B1A68EFF3108072B61368002B8A
:1004C000FCD0BFF35F8F0D4A1168002313600A4A06
:1004D0001268BFF35F8F136080F31088084B1868B1
:1004E00001AA00F005FB019B002B03D0054B8022E5
:1004F00052051A6003B000BD440400200409022024
:100500007009022004ED00E010B5031F802464048C
:100510001C60043B1960043B02491960143B1A60DB
:10052000403810BD8904001010B50A4B1B68002B21
:1005300008D1094B802252051A60BFF34F8FBFF3D9
:100540006F8F10BD3421054B054AFF31054803F07C
:100550007FF8C046E006002004ED00E0C063001014
:10056000F8640010E063001072B6044A13680133A7
:100570001360BFF34F8FBFF36F8F704700090220E6
:10058000074B1B68002B09D0064A1168BFF35F8F29
:1005900000221A6081F31088014B1A6062B670471E
:1005A000E0060020FC08022010B50A4B1B68002B57
:1005B00005D0013B074A1360002B07D010BDA621D0
:1005C000054B064A4900064803F042F8FFF7D8FFFA
:1005D000F4E7C0460009022038640010E46400100B
:1005E000E0630010EFF3108072B6704780F310885C
:1005F0007047000010B5FFF7F5FF040001F0F8F8B0
:10060000002803D0034B802252051A602000FFF718
:10061000EDFF10BD04ED00E010B5094C0023236090
:10062000084A1360052003F0CDF9FA21890004F08F
:1006300087FD0138044B18600723236010BDC046B6
:1006400010E000E018E000E014E000E010B5224BFC
:100650001968FF2212040A431A601968FF22120661
:100660000A431A6002201D49404201F095FF012013
:100670001B49404201F090FF05201A49404201F019
:100680008BFFFFF7C9FF184B00221A60D0231B060F
:10069000164A19681170FF221A6502E0D0231B0662
:1006A0009B6DD0231B061B6DDB07F7D4D0231B06E5
:1006B0001C680F34FF21200003F004FB0C492000CC
:1006C00003F000FA0121200003F0ECF9FFF798FE97
:1006D00001F008FAFFF7D8FE20ED00E02904001031
:1006E000F5050010FF03001000090220C8010020DA
:1006F0009104001010B50A4B1B78D0221206106826
:10070000834200D010BDFFF7AEFD002805D0D023F6
:100710001B061B684000C018F4E701F041FCF1E73C
:10072000C801002010B582B0EFF30583DBB2002BC7
:1007300010D1254B1A78D0231B061B689A420FD084
:100740000368BFF35F8F00221A6081F3108820BF17
:1007500002B010BD1D4B1E4A1E491F4802F078FF13
:100760001E4B1B68002B21D10368002B24D01B4C8F
:1007700023601B4A11601B4A944663449B1001216D
:1007800099400B021943090A174B186801235B4271
:1007900000930023012200F0C9F82368002BD7D072
:1007A000124B0B4A12490C4802F052FF0F4B084AF9
:1007B0001049094802F04CFFB9210F4B044A890047
:1007C000054802F045FFC046C80100204C640010F7
:1007D000C0640010D7020000E0630010E0060020B3
:1007E000FC08022000FFFF2F70090220C0630010E8
:1007F000EB020000DF020000AC64001010B582B014
:100800000C0003682B498C4663449A1001239340E3
:1008100019021943090A284B1A78D0231B061B68B2
:100820009A4220D040BF254B1B6802689A423BD0B9
:100830001A68002AFCD0BFF35F8F214B1A6811435E
:1008400019601E4B1B68BFF35F8F00221A600023E4
:10085000D022120653650268BFF35F8F136084F3E2
:10086000108802B010BD40BF0368BFF35F8F002245
:100870001A6084F31088EFF30583DBB2002B04D1F8
:10088000104B186800F0E4F8EBE7002301930D4BE0
:10089000186801AA00F02CF9019B002BE1D00A4B4B
:1008A000802252051A60DCE7054B1A681143196073
:1008B000CDE7C04600FFFF2FC80100204404002000
:1008C000040902207009022004ED00E010B501F0D7
:1008D000CFFE054B9C4660448000044B186000F03E
:1008E00018F8034B186010BD400000344404002089
:1008F00070090220002A03D1014206D1100003E052
:100900000840884203D0002070470120FCE7012006
:10091000FAE710B51C2001F015FF041E03D00023D8
:1009200008C000F0EFF8200010BD0000F8B5CE467A
:10093000474680B506000D009046994600282ED007
:100940000B0E1F06002B31D1002936D001F02EFBF3
:10095000002802D1089B002B36D100F03BFF346801
:100960004A4629002000FFF7C5FF002833D0434640
:10097000002B02D02300AB43336001F005F8002FB9
:1009800008D0002841D001F083FB040083013FD54B
:100990002402240A2000C0BCB946B046F8BDA521F7
:1009A000254B264A4900264802F052FE4C21254B91
:1009B000224AFF31224802F04BFEA621224B1F4A59
:1009C00049001F4802F044FE5021204B1B4AFF31D2
:1009D0001B4802F03DFE089B002B14D04346002B21
:1009E0000ED139004B46002B02D08023DB04194383
:1009F0002943301D089A01F0FDF83C00089FBCE730
:100A000080214904EEE7089FB7E7FFF78DFDBAE7BD
:100A1000FFF7AAFD34684A4629002000FFF76AFF65
:100A2000002805D04346002B02D02300AB4333609F
:100A3000FFF7BAFDACE7C046046500101C66001065
:100A4000106500105065001078650010906500106A
:100A5000F8B504000D0000280CD00B0E1F06002B6B
:100A60000ED106000C3600F0B5FE206923681D4348
:100A7000256017E0164B174A1749184802F0E8FDA1
:100A8000174B144A1749154802F0E2FD2168194036
:100A9000994206D111E0802189042368194301F0AD
:100AA00099F92800B0420CD04568026813021B0A6D
:100AB0005101EBD421680B42F3D0D201EBD51F4397
:100AC000E9E72368BB43236000F05EFF2068F8BDC0
:100AD0000465001008660010210200001065001077
:100AE000E46500102202000010B5FFF7B1FF10BD51
:100AF00010B513000A000100014801F015FD10BDFA
:100B0000E90A001003000833436001225242826068
:100B1000C3600361002303607047002303617047D3
:100B200030B50C68631C10D0030008331A005B68F2
:100B30001D68A542FAD953684B6099608A6051607C
:100B4000086103680133036030BD0269F3E703699C
:100B5000416882688A60416851605A68824206D062
:100B6000002202611A68013A1A60186870478268A8
:100B70005A60F5E710B50400FFF7F6FCA26BE36BD3
:100B80009A4204D00024FFF70FFD200010BD01247D
:100B9000F9E710B50400FFF7E7FCA36B002B04D1C5
:100BA0000124FFF701FD200010BD0024F9E770B516
:100BB00004001500866B026C002A0CD10368002B20
:100BC00003D000200136A66370BD806801F000FAF2
:100BD0000023A360F6E7002D0ED1406805F09AF9D6
:100BE0006368226C944663446360A26893421BD39B
:100BF000236863602800E5E7C06805F08BF9236C83
:100C00005A42E168CB1AE36021688B4203D2A368A1
:100C10009C466244E260022D01D00020D2E7002E03
:100C200004D0013E0020CDE72800CBE70020C9E733
:100C300070B582B00190846C002C0AD0A26BE36B7B
:100C40009A420CD2A26B93420FD80025280002B022
:100C500070BD174B174A1849184802F0F9FC184B99
:100C6000144A1849154802F0F3FC4523E65C76B2B5
:100C7000002201A92000FFF79AFF0500731C06D08F
:100C80007F2E0FD0013676B24523E654DEE7636A45
:100C9000002BDBD02000243001F01CF80028D5D038
:100CA0000125D3E7084B034A0849044802F0D0FC69
:100CB0003066001060680010D40B0000446600101D
:100CC0007C660010D50B0000C4660010F50B000018
:100CD00010B5030008001A6C002A0AD0D9688918D8
:100CE000D9609C68A14201D31968D960D96805F020
:100CF00011F910BD70B50500FFF736FC4523EC5C1B
:100D000064B20AE06B6A002B17D02800243000F090
:100D1000E1FF00280ED1013C64B2002C0DDDAB6C6C
:100D2000002BEFD02800FFF783FF0028F3D001F05D
:100D300031F9F0E701F02EF9EDE74523FF22EA54FF
:100D4000FFF732FCFFF710FC4423EC5C64B201E0D7
:100D5000013C64B2002C0BDD2B69002B08D028006D
:100D6000103000F0B7FF0028F2D001F013F9EFE7E0
:100D70004423FF22EA54FFF717FC70BDF8B50400C6
:100D80000D0000282BD0C36B002B54D0016C002623
:100D90000F0C1A0C002F36D190B2002826D1002E4D
:100DA00049D1FFF7E1FB2268E36B206C0100594356
:100DB0005118A1600021A1636260013B4343D31835
:100DC000E360FF234422A3540132A354002D29D110
:100DD0002369002B1DD1FFF7E7FB0120F8BD882117
:100DE000184B194A4900194802F032FC081C89B214
:100DF0009BB24B4380B292B242431B0CD3181B0CE4
:100E0000CDD00126CBE792B2002AFAD13A1C181CA9
:100E1000EDE72000103000F05DFF0028DBD0FFF789
:100E200083FBD8E720001030FFF76CFE2000243051
:100E3000FFF768FECFE74621054B034AFF31034821
:100E400002F006FCE4660010B8680010446600106A
:100E5000EC66001070B51D00049C00290BD12460C5
:100E6000E063216401212000FFF788FF5023E5544F
:100E70000023A36470BD2260F2E70000F0B583B0E8
:100E800004000D001700002831D000200A0C230CAC
:100E9000002A27D19AB2002A16D1002827D128008B
:100EA00060430300553322D8543001F04BFC061E3A
:100EB00007D00200543200903B0029002000FFF7C9
:100EC000C9FF300003B0F0BD1A1C2E1CABB2A1B29A
:100ED0005943B6B293B27343090C5B181B0CDCD0B8
:100EE0000120DAE79BB2002BFAD1261CEEE7E321C2
:100EF000024B034A4900034802F0AAFB10670010A6
:100F0000A468001044660010F0B585B004000F001E
:100F100001921E00002813D0002917D0022E02D102
:100F2000E36B012B1BD101F041F8051E1ED1019B83
:100F3000002B5ED04F4B504A5049514802F088FB7D
:100F4000504B4D4A50494E4802F082FB036C002B37
:100F5000E4D04E4B484A4E49494802F079FBCC2137
:100F60004C4B454A8900464802F072FB002540E0A0
:100F7000A56B320039002000FFF719FEA36C002B8F
:100F800010D0022E01D1002D04D12000FFF750FE19
:100F9000002804D1FFF708FB012005B0F0BDFFF7E2
:100FA000C3FAF7E7636A002B04D10028F2D0FFF7F9
:100FB000BBFAEFE72000243000F08CFE0028E9D0D7
:100FC000FFF7B2FAE6E7FFF7EFFA0020E5E702A83D
:100FD00000F07CFF013519E044230022E25420E0B8
:100FE00045230022E25421E02000FFF783FE00F0B9
:100FF000CBFCFFF7B9FAA36BE26B9342B8D3022E96
:10100000B6D0019B002BDED0002DE0D0FFF7CCFA4C
:1010100000F0E0FBFFF7A8FA4423E25C52B2531C55
:10102000DAD04523E25C52B2531CD9D0FFF7BCFAA8
:1010300001A902A800F056FF002813D12000FFF7F5
:1010400099FD0028D0D020001030019900F0B4FDA7
:101050002000FFF74FFE00F097FC0028C9D1FFF7F2
:1010600063FAC6E72000FFF745FE00F08DFC002084
:1010700093E7C046906500107C68001033030000C1
:1010800044660010E46600102E0300001C67001088
:101090002F03000074670010F0B5D646474680B5B0
:1010A00083B004000F0001921D00002819D0002910
:1010B0001DD0022D02D1E36B012B21D1FFF792FA53
:1010C0008046A36BE26B934220D3022D1ED00024F6
:1010D0004046FFF78BFA200003B0C0BCBA46B046CA
:1010E000F0BD2F4B2F4A3049304802F0B1FA036C63
:1010F000002BDED02E4B2B4A2E492C4802F0A8FAAA
:101100002D4B284A2D49294802F0A2FA4523E65CD6
:1011100076B2A36B9A462A0039002000FFF747FDFC
:10112000731C07D07F2E2BD0013676B24523E654B0
:101130000124CDE7A36C002B10D0022D02D1534621
:10114000002B23D12000FFF773FD002820D0019A47
:10115000002A1FD0012313600124B9E7636A002B22
:1011600001D10124B4E72000243000F0B3FD0028B1
:1011700012D0019A002A11D0012313600124A7E79D
:101180000F4B084A0F49094802F062FA01249FE711
:1011900001249DE701249BE7012499E7012497E7B7
:1011A000E466001044680010020400004466001069
:1011B0001C670010030400007467001004040000A2
:1011C000C46600108D040000F0B585B004000F0067
:1011D000019200280ED0002912D000F0E7FE061E72
:1011E00017D1019B002B4ED0434B444A44494548FC
:1011F00002F02EFA444B414A4449424802F028FA90
:10120000036C002BE9D0424B3C4A42493D4802F076
:101210001FFA002637E039002000FFF759FD013D95
:10122000A5632369002B04D1FFF7BEF9012005B0A7
:10123000F0BD2000103000F04DFD0028F4D0FFF785
:1012400073F9F1E7FFF7B0F90020F0E702A800F02A
:101250003DFE013621E044230022E25428E04523EC
:101260000022E25429E02000FFF744FD00F08CFB4F
:1012700009E02000FFF73EFD00F086FB2000FFF7AD
:1012800088FC002835D1FFF76FF9A56B002DC2D17E
:10129000019B002BD6D0002ED8D0FFF785F900F0A7
:1012A00099FAFFF761F94423E35C5BB20133D2D0D2
:1012B0004523E35C5BB20133D1D0FFF775F901A997
:1012C00002A800F00FFE0028D3D12000FFF761FC38
:1012D0000028C8D020002430019900F06DFC2000C7
:1012E000FFF708FD00F050FB0028CCD1FFF71CF9F8
:1012F000C9E700209BE7C0469065001034680010E5
:101300005A05000044660010C46700105105000033
:10131000D06700105505000070B5002804D00029E2
:101320000ED0002500230DE00F4B104A1049114844
:1013300002F08EF9104D2D19002D01D02960686042
:1013400070BD0133072BF7D8DC000B4A1219526825
:101350008242EFD0002DF4D1DA00074C1259002A56
:10136000EFD1DA00A518ECE72C68001090680010A7
:10137000C90A000044660010AC09022070B50400E0
:101380000D001600FFF7F0F84423E35C5BB2013375
:101390000DD04523E35C5BB201330CD0FFF704F9B9
:1013A000A36B002B0BD02000FFF7A4FC70BD4423DF
:1013B0000022E254EDE745230022E254EEE720004C
:1013C00024303200290000F055FCECE7084B1B6884
:1013D0001B68002B04D1074B012252421A60704750
:1013E000034B1B68DB681A68024B1A60F7E7C046BC
:1013F000500400208409022010B50400006B01F0A5
:1014000035FA200001F032FA10BD0000F0B5DE46DA
:1014100057464646C0B582460F0014009B46089EBC
:101420000A9D9200A521286B04F06EFD1F4B9C467F
:101430006444A4002B6B9C46644407239C43A04651
:10144000002F0ED000240F2C08D83A5D2B1934330E
:101450001A703B5D002B01D00134F4E743230022D6
:10146000EA541F2E1CD8EE62EE64281DFFF755FBD0
:1014700028001830FFF751FB2D6120239E1BAE6121
:101480006D625A4651464046FFF73EF82860099B78
:10149000002B00D01D60E0BCBB46B246A846F0BDA4
:1014A000034B044A0449054802F0D2F8FFFFFF3F0E
:1014B0000C690010706B00109F030000D4680010CE
:1014C00070B5002407E0A3001B1998000E4BC0184C
:1014D000FFF718FB01341F2CF5D90C4D2800FFF73E
:1014E00011FB0B4C2000FFF70DFB0A48FFF70AFB2E
:1014F0000948FFF707FB0948FFF704FB084B1D608D
:10150000084B1C6070BDC0466004002048090220E2
:101510005C090220980902200C0A0220F809022026
:10152000500400205804002010B50400FFF71CF8F8
:10153000284A136801331360274B1B68002B0CD01B
:10154000264B1B68002B0DD1234B1B68DB6AE26A1C
:10155000934207D8204B1C6004E01F4B1C601368AB
:10156000012B31D01E4A1368013313606364E26AB1
:101570001C4B1B689A4201D91A4B1A601A499300F6
:101580009B189B00CB185B68A3609868E060221DE5
:1015900042609A60E06A83001A18920052186261F1
:1015A0001A189200525801321B189B005A50FEF72D
:1015B000FBFF0A4B1B68002B05D0074B1B68DA6A40
:1015C000E36A9A4203D310BDFFF77AFFCAE7FEF73A
:1015D000ABFFF8E70809022048040020EC090220CC
:1015E00014090220180902206004002010B514E03C
:1015F000FEF7BAFF0B4BDB68DC68201DFFF7A7FA8C
:10160000094A1368013B1360084A1368013B1360E1
:10161000FEF7CAFF2000FFF7EFFE044B1B68002B0C
:10162000E6D110BD0C0A0220080902200C09022094
:1016300010B5FFF7DBFF034B1B68012BF9D9FEF751
:1016400073FFF6E76004002070B504000D001F4B27
:101650001E681F4B19686D220020885418680430DA
:10166000FFF775FA631C0DD03419194B1B685C60C9
:10167000A6421DD9174B1868154B19680431FFF79E
:101680004FFA70BD002DEFD0134A5168104B186807
:10169000816018688C68C4601868043060601868DD
:1016A000043088601B685A61136801331360E8E7EF
:1016B0000A4B1868064B19680431FFF731FA084BDA
:1016C0001B68A342DDD9064B1C60DAE7200A022022
:1016D0004804002058040020F8090220500400208B
:1016E00084090220F0B587B00490059116001F0010
:1016F000900001F027F8041E21D0702001F022F89C
:10170000051E18D07022002104F0FEFB2C63002D72
:1017100019D00023039302950D9B01930C9B00931A
:101720003B00320005990498FFF770FE2800FFF790
:10173000FBFE012005E0200001F098F8E7E701201A
:10174000404207B0F0BD01204042FAE700B583B047
:101750008022154B01930023009352001349144833
:10176000FFF7C0FF012807D0012808D0431C14D080
:10177000104B1B6803B000BD00F054FEF4E772B6D6
:101780000D4B012252421A600C4B02321A600C4B74
:1017900000221A60FEF75AFFEAE70A4B0A4A0B4991
:1017A0000B4801F055FFC046780902201C69001063
:1017B00031160010CC01002084090220EC0902201F
:1017C000200A0220246900105C6B0010220800002F
:1017D000D4680010024A1368013313607047C04692
:1017E00010090220014B18687047C046200A0220E9
:1017F000F8B5564B1B68002B00D09CE0544B1D687D
:1018000001351D60002D10D1524B1B681B68002B49
:1018100027D1504A1168504B1868106019604F4A20
:10182000136801331360FFF7D1FD4D4B1B68AB42CA
:101830001DD900264B4B1B68DA6A93009B189A004F
:10184000494BD358012B00D90126484B1B68002B6C
:1018500000D16DE0464B1B68002B00D073E03000D8
:10186000F8BD444B444A4549454801F0F1FE002685
:1018700035E03B4B012252421A60DBE7384B1A60DD
:10188000D8E7D968516040E0196A51600021996237
:10189000116801391160DA6A3A4909688A4201D946
:1018A00038490A6030499000801882008A185268CE
:1018B0009A609068D86044609460D86A8200171873
:1018C000BC0064185C61BC0064580134B80044502A
:1018D000DA6A244B1B68DB6A9A4200D301261D4B4F
:1018E0001B681B68002BC4D01A4B1B68DB68DB68C5
:1018F0005A689542C2D35A699868D96881609868D5
:1019000048601C1D5168A142BBD00021596111687B
:10191000013911609A6A002ABDD0D869196A8160BC
:10192000D86948601900183150688842AED1ABE7D9
:10193000FEF75CFD8EE70D4A136801331360FEF776
:1019400055FD00268BE7012689E7C04610090220D5
:10195000200A022050040020580400208809022098
:101960008409022048040020600400209409022019
:101970002C0A022038690010386B0010A90A0000F8
:10198000D46800101809022010B54A4B1B68002BC0
:101990000FD0FEF7E9FD474B1A68013A1A601B6841
:1019A000002B00D080E0444B1B68002B0DD100249D
:1019B0007BE0424B424A4349434801F049FE196AE1
:1019C000516015E0D968516021E000233F4A126858
:1019D000002A4AD03D4BDB68DB689A6AD869196AED
:1019E0008160D86948601900183150688842E6D093
:1019F000002199621168013911605A699868D968A3
:101A00008160986848601C1D5168A142DAD00021AD
:101A10005961116801391160D96A2D4A12689142E1
:101A200001D92B4A11602B488A0052189200821863
:101A300052689A609168D9604C609460DC6AA20038
:101A400011198900091859611119890009580131C2
:101A5000121992001150204A1268D26AD96A914232
:101A6000B4D31E4A01211160B0E7002B01D0FFF76B
:101A7000ADFC1B4B1C68002C0AD1184B1C68002CB9
:101A800013D0FEF751FD01240FE0013C002C07D0DC
:101A9000FFF7AEFE0028F8D0104B01221A60F4E7E1
:101AA0000F4B00221A60E8E70024FEF77DFD2000BE
:101AB00010BDC0461009022008090220B0690010BC
:101AC0004C6B001095080000D468001098090220A3
:101AD0001809022060040020480400202C0A02207B
:101AE0009409022070B52A4B1B68002B03D0294BA8
:101AF00001221A6070BD274B00221A60264B1B681A
:101B00001B6B264A1968914202D15968914212D042
:101B1000214B186819683431FEF770FC204B1B68A4
:101B20009A00D21891001F4A8A58002A11D1002B1E
:101B300009D0013BF4E799689142E9D1DA68174B83
:101B40009A42E5D1EAE7184B184A1949194801F0B9
:101B50007FFD144D9900CA189000281842685468F7
:101B60004460C9188A000832521994420BD09A0076
:101B7000D21891000B4A52185268D168064A116077
:101B8000074A1360B6E7606889006A185060EEE79C
:101B9000100902202C0A022048040020A5A5A5A5B2
:101BA0001809022060040020C8690010246B00108E
:101BB000E40B0000D468001010B50C00002809D018
:101BC000074B19681831FEF7ABFF01212000FFF722
:101BD0003BFD10BD034B044A0449054801F038FDA4
:101BE00048040020D86900100C6B0010FE0B0000A8
:101BF000D468001070B503001000002B1ED0154AE9
:101C00001268002A20D0144C256880221206114345
:101C1000A9615A682168CA61216895680D622168C6
:101C200018316960216818319160226893621A68DE
:101C300001321A600121FFF707FD70BD074B084A0A
:101C40000849094801F004FD084B054A08490648BF
:101C500001F0FEFC1009022048040020D8690010A1
:101C6000EC6A0010180C0000D4680010E469001041
:101C70001C0C000070B5030008001100002B18D0E8
:101C80005A680F4C2568EA61256896682E622568B7
:101C900018357560256818359560226893621A6852
:101CA00001321A60002901D001204042FFF7CCFC2C
:101CB00070BD044B044A0549054801F0C9FCC04603
:101CC00048040020D8690010CC6A0010340C0000D1
:101CD000D468001010B5C368DB68002B4CD09A6A3A
:101CE000D869196A8160D86948601800183051684D
:101CF000814247D0002199621168013911602B4A55
:101D00001268002A44D15A699868D9688160986835
:101D100048601C1D5168A14237D0002159611168EB
:101D200001391160D96A224A1268914201D9204AC8
:101D3000116020488A0052189200821852689A60F6
:101D40009168D9604C609460DC6AA2001119890026
:101D500009185961111989000958013112199200A5
:101D60001150DA6A144B1B68DB6A9A421CD9134B78
:101D700001221A60012018E0114B124A124913483F
:101D800001F066FC196A5160B4E7D9685160C4E794
:101D90000F4A5168D9618C681C62606088609A62E1
:101DA000116801311160DCE7002010BD100902202C
:101DB0001809022060040020480400202C0A022098
:101DC000006A0010B06A0010640C0000D4680010B3
:101DD0009809022010B5324B1B68002B4DD0802390
:101DE0001B0619430160C368002B4CD0026941688F
:101DF00084688C60816844684C605168814248D036
:101E0000002101611168013911605A699868D96827
:101E10008160986848601C1D5168A1423CD0002137
:101E20005961116801391160D96A1E4A12689142DC
:101E300001D91C4A11601C488A005218920082186D
:101E400052689A609168D9604C609460DC6AA20024
:101E500011198900091859611119890009580131AE
:101E6000121992001150DA6A104B1B68DB6A9A4211
:101E700002D90F4B01221A6010BD0E4B0E4A0F49BA
:101E80000F4801F0E5FB0F4B0B4A0F490C4801F0DE
:101E9000DFFB81685160B3E7D9685160BFE7C04696
:101EA00010090220180902206004002048040020C4
:101EB0002C0A0220106A00108C6A00109C0C000092
:101EC000D4680010006A0010A40C0000034B1B68CB
:101ED0000360034B1B6843607047C04688090220BB
:101EE000200A0220F8B504000D00002817D00029B0
:101EF0001BD0FEF739FB1F4B1A686368D61A1E49C0
:101F000008686D21415C002916D01B4B1A686D23AF
:101F10000021D1540124FEF747FB2000F8BD174BE8
:101F2000174A1849184801F093FBCE21174B144A61
:101F30000901154801F08CFB2968481C18D0144889
:101F400000682768874205D0934203D800232B609E
:101F50000124E0E7B14203D800232B600124DAE733
:101F60009B1A5B182B602000FFF7B0FF0024D2E71C
:101F70000024D0E7200A022048040020406A001014
:101F8000A06B0010DF0C0000D46800104C6A001039
:101F900088090220014B01221A6070472C0A022096
:101FA000014B18687047C04648040020064B1B6868
:101FB000002B07D0054B1B68002B01D0002002E04E
:101FC000022000E001207047EC09022010090220E5
:101FD00070B5041E45D0254B1B6883420CD1036DA0
:101FE000002B0FD0013B0365C26AC16C8A423AD014
:101FF000002B0DD0002070BD1D4B1E4A1E491F48EE
:1020000001F026FB1E4B1B4A1E491C4801F020FB19
:10201000051D2800FEF79BFDE26CE26220239B1A5F
:10202000A361194B1B689A4201D9174B1A601749D3
:1020300093009B189B00CB185B68A3609A68E260D2
:1020400055609D60E06A83001A1892005218626120
:102050001A189200525801321B189B005A50012046
:10206000C9E70020C7E70020C5E7C04648040020B4
:102070005C6A0010886B001034100000D4680010F7
:10208000746A001035100000180902206004002056
:10209000044A136898691368D96A126820235B1A86
:1020A0009361704748040020074B1A681368002B9F
:1020B00006D101330360002B04D1D3681868704740
:1020C0000023F7E70020FAE74C04002010B5416038
:1020D000006191420CD8D21A83699A4201D301203F
:1020E00010BD011D094B1868FEF71AFD0020F7E727
:1020F0009A4201D2994206D2011D054B1868FEF79B
:102100000FFD0020ECE70120EAE7C0465C04002058
:102110004C04002070B504000D00160005E0A36912
:102120009C4665442000236A9847A36959192B00EF
:1021300032002000FFF7CAFF0028F0D170BD000078
:1021400070B505000E000C4B1B68DB68DC68201DB9
:10215000FEF7FDFC2823E35C5A0707D401229343D2
:102160002732A354236A2000984770BD320029000B
:102170002000FFF7CFFFF5E74C04002010B505E085
:10218000DB68186801214942FFF7DAFF054B1B683D
:102190001A68002AF4D1044A0249106808601360E2
:1021A00010BDC0464C0400205C04002070B5050042
:1021B000FFF718FB0400074B1B68834205D8002378
:1021C0002B60044B1C60200070BDFFF7D7FF01237C
:1021D0002B60F6E77C09022070B582B004000D0088
:1021E000FFF7F8FA01A8FFF7E1FF0600019B002BBB
:1021F00023D1002D01D1A04213D2002D05D0104AC9
:1022000012681268002A13D10125A11B0D4B186812
:102210002A00FFF7B3F8FFF7B7FB00280AD002B097
:1022200070BDFFF7B1FB31002000FFF789FFF6E733
:102230001D00EAE7FEF778F9F1E7FFF7A5FBEEE707
:102240005C040020240A022030B587B002E0029B23
:10225000002B0FDA394B1868002202A9FEF7B4FFF1
:10226000002869D0029B002BF1DA039B05990498A2
:102270009847ECE7049C6369002B02D0201DFEF711
:1022800066FC01A8FFF792FF050002990929E1D831
:1022900089002B4B59588F462822A35C01210B4300
:1022A000A354039BA269944663441900039B020054
:1022B0002000FFF70BFF0028CCD02823E35C5A074F
:1022C00007D4012293432732A354236A200098475E
:1022D000C0E7039BA2699446634419002A002000CA
:1022E000FFF718FFF1E72822A35C01218B43A354D9
:1022F000B0E72822A35C01210B43A3540399A161F9
:10230000002906D00918030002002000FFF7DEFEB6
:10231000A0E70C4B0C4A0D490D4801F099F9282310
:10232000E35C9A0704D5012293432732A35491E733
:10233000200000F09BFA8DE707B030BD240A022090
:102340001C6C0010B86B0010B06C0010590300003A
:10235000E06B001000B583B001A8FFF7A5FE01995E
:10236000FFF73AFFFFF770FFF6E7000070B5FEF7E2
:10237000FBF8104B1B68002B02D0FEF715F970BD5F
:102380000D4D2800FEF7BEFB0C4C2000FEF7BAFBFB
:102390000B4B1D600B4B1C60002210210A20FEF726
:1023A0006DFD044B18600028E7D00749FEF7B4FF25
:1023B000E3E7C046240A02201C090220300902205B
:1023C0004C0400205C040020446C0010F0B5C646AC
:1023D00000B580460D0016001F00079C002914D090
:1023E000FFF7C4FF43462360A561E761069B2362B4
:1023F000201DFEF792FB002E04D02822A35C0421AE
:102400000B43A35480BCB846F0BD6C21024B034A79
:10241000FF31034801F01CF94C6C0010986C00105F
:10242000E06B001000B583B0FFF7A0FF0C4B1B68FA
:10243000002B0ED080220B4B01931F23009300230F
:10244000D20009490948FFF74DF9002801D003B02F
:1024500000BD1A21064B074AFF31074801F0F8F882
:10246000240A0220280A0220686C0010552300105C
:10247000706C0010CC6C0010E06B0010F0B585B0F3
:1024800003900D0016001F002C2000F05BF9041EC5
:102490000BD028230022C25401900A9B00933B00DA
:1024A000320029000398FFF791FF200005B0F0BD2E
:1024B00030B585B004001D00002814D0164B1868F4
:1024C000002826D000910192029405291ADCFFF71A
:1024D0006DFD02280ED0104B1868002300226946BB
:1024E000FEF712FD13E08C210C4B0D4AFF310D4815
:1024F00001F0AEF8084B18680023089A6946FEF709
:1025000003FD04E000232A006946FEF7C5FD05B07F
:1025100030BD0020FBE7C046240A0220786C001082
:10252000806C0010E06B001010B584B014001A002D
:1025300002235B420093019002910394034B1868BD
:1025400000236946FEF7A8FD04B010BD240A02204E
:10255000054B984204D3054B984203D3002000E07A
:10256000002070470120FCE7C0010010CC010010E2
:10257000044B9B68103080001950BFF35F8F82F3CB
:102580001088704700ED00E0024B9B68103080001F
:10259000C058704700ED00E0F8B505000E00EFF3FD
:1025A000108772B6FFF7F0FF0400B04203D0FFF7C8
:1025B000CFFF002806D03A0031002800FFF7D8FFEF
:1025C0002000F8BD024B034A3121034801F040F8D6
:1025D000E46C0010806D0010286D0010EFF3108087
:1025E00072B6034B1B68002BFBD0BFF35F8F7047A5
:1025F0002C0100D0BFF35F8F024B00221A6080F3E2
:10260000108870472C0100D0F8B506000C001500AA
:10261000FFF7E4FFE308F718F15C072222400123EB
:1026200093400B4205D1DBB20B433B70FFF7E2FF57
:10263000F8BD2100280001F0A5F80000034B1B683D
:1026400002201840431E9841C0B2704700C00640A7
:10265000002307E0054A9A189200BFF35F8F00211C
:10266000116001331F2BF5D97047C046400000347C
:10267000054A1078431CDBB21370172B02D91300E4
:1026800010221A707047C046D0010020124A53072A
:102690001FD0D11D0723994380239B025B1A9B18EF
:1026A0000A000E48026000214160D318083B072051
:1026B00083430B48036059601960991A5160136095
:1026C000084B1960084B1960084B802212061A60EB
:1026D000704780239B02E4E7FC080020F0090220F9
:1026E00054040020800902207409022044090220B9
:1026F00010B5124B1A001B688342FBD35168541863
:10270000844208D041684418A34209D00360904233
:1027100000D0106010BD4068091851601000F1E74A
:10272000074C2468A34206D05B68C918416013684F
:102730001B680360EBE70460E9E7C046F00902208C
:102740005404002070B50400FFF744F83D4B1B68AB
:10275000002B1DD03C4B1B6823421CD1631E0A3347
:102760000DD822000832630707D0072311009943D0
:102770000B000833934258D91A00002A0FD1FFF7F3
:1027800003F90025FDF734FE6B0754D1280070BD16
:10279000FFF77CFFDEE7FFF7F7F80025F2E72B4BAA
:1027A0001B68934202D32A490C6805E0FFF7ECF856
:1027B0000025E7E721001C006368934202D22368EA
:1027C000002BF7D11F4B1B68A34224D00D6808359E
:1027D00023680B6063689B1A102B06D9A018410769
:1027E0001DD143606260FFF783FF626817490B6881
:1027F0009B1A0B60174909688B4201D215490B607F
:10280000114B1B681343636000232360124A136853
:10281000013313600AE0FFF7B7F80025B2E70F4B6A
:102820000F4ACF210F4800F013FF0025FFF7ACF847
:10283000002DA9D1A6E788210B4B094A4900094878
:1028400000F006FF5404002044090220740902200D
:10285000F0090220800902208C090220A06D0010DE
:10286000C46E0010D46D0010206E001070B50028EA
:1028700020D00500083D6B68164A12681A421AD02B
:1028800001000839096800291CD108380400934365
:102890004360FEF79FFF63680F4A11688C466344EC
:1028A00013602800FFF724FF0C4A136801331360FC
:1028B000FFF76AF870BD9221094B0A4A49000A489D
:1028C00000F0C6FE2621094B064AFF31064800F0FB
:1028D000BFFEC0464409022074090220900902206C
:1028E0005C6E0010B86E0010D46D0010906E001079
:1028F00070B505000C00080000F07AFB200000F025
:102900004BFC0849200000F08BFBFFF7B1FE064BA3
:102910009C466044800068602C75A400034BE55021
:1029200070BDC046052C0010400000343404002067
:1029300010B5002922D003681B7B99421ED8174B83
:102940009C466144090183689C4661440C6849685F
:10295000002A19D003681B7B9A4215D883680F4858
:102960008446624412019A181068536802000120DC
:102970008B4201D80ED00020C0B210BD084B094ACE
:102980003B21094800F064FE054B064A3B210648FE
:1029900000F05EFEA242EFD8EDE7C046FFFFFF0F5A
:1029A0002C6F001054710010E86E001010B5002953
:1029B0001ED0037B99421BD84B005B18033B046875
:1029C000A4466344002919D0002A1DD0914221D089
:1029D000002A25D0047BA24222D804685000801827
:1029E000033820188170197800291FD11A7010BD82
:1029F000104B114A6921114800F02AFE104B114A70
:102A000070310E4800F024FE0F4B0E4A71210B4826
:102A100000F01EFE0D4B0B4A7221084800F018FE14
:102A2000044B054A6921054800F012FE41701A70F6
:102A3000DDE7C046606F0010A87100107C6F0010C9
:102A4000D46F001084710010E06F0010EC6F001064
:102A500070B506000D001400002914D0002A14D00F
:102A6000806873689847002806D02200290030004B
:102A7000FFF79CFF280007E02A0021003000FFF745
:102A800095FF200000E0100070BD0800FCE700008A
:102A9000F0B583B00500009201930AAB1C780BAB34
:102AA0001F78002C26D003685A7B944207D101235B
:102AB000002B19D1002C3BD1200003B0F0BD002C1D
:102AC0000CD01A7B944209D81A6863001B19033B87
:102AD000D3189B78002BEBD00123E9E73E4B3F4A0C
:102AE00069213F4800F0B4FD3E4B3F4A65213F4815
:102AF00000F0AEFD03689C7B002CDBD012D01A7B6B
:102B000094420FD862001219033A19688C46624445
:102B100051789973002900D1D973002393705370B1
:102B20001370C7E72C4B2D4A69212D4800F090FD0A
:102B3000002C3AD02B681B7B9C4236D82C4BE318D8
:102B40001B01AA6894466344009A1A60019A5A606D
:102B5000089A9A60099ADA602E68002C2BD030D03F
:102B6000337B9C422DD863001B19033B326894468B
:102B7000634400229A705A701A70717B22003000F0
:102B8000FFF766FF7073844200D095E7287D009AB6
:102B9000019B00F08DFA061E01D0002F17D00C9B70
:102BA000002B00D188E71E7086E7124B124A3B21AA
:102BB0000E4800F04DFD114B114AA621084800F0C7
:102BC00047FD054B054A6921054800F041FD28688D
:102BD000210000F0BBFCE2E7606F0010A87100105C
:102BE0007C6F001004700010B4710010E86E0010CB
:102BF000FFFFFF0F2C6F001054710010E46E0010E7
:102C000098710010F0B5DE4657464E464546E0B591
:102C10008BB00990002308938200B24BD65837003E
:102C200032E0B14BB14A3F21B14800F011FDB14B48
:102C3000B14A3B21B14800F00BFDB14BB14A8C21A8
:102C4000AE4800F005FDB04BAE4A9021AB4800F015
:102C5000FFFCA84BAD4A4021A84800F0F9FC2A68C7
:102C60006B68099800F024FA00239A4698467B681E
:102C7000BFF35F8F00221A6086F310884346002B53
:102C800051D1002800D126E100F0BEF902000B1E50
:102C9000C7DB00200021069007917868EFF31086CB
:102CA00072B601680029FCD0BFF35F8F396888468F
:102CB0004C7B002C32D0BAD0097B8C42B7D89449D7
:102CC00065182D01B9688C46654428686968801AC2
:102CD00099410029C3DC01D10028C0D10021404620
:102CE00000F02AFCA042A8D12A686B6806920793DC
:102CF000AB689846EB689A464346002BA3D0002C5D
:102D0000A7D03B681B7B9C42A3D8631EFA68D35CA8
:102D100008931B02184338610020A8E700239A4655
:102D200098460020A3E7089B1B022343994651467F
:102D30001800C04705000E007A68EFF3108B72B6DA
:102D4000136859424B41D9B2002BF9D1BFF35F8FC1
:102D5000002E26DB002E52DD3B69002B53D04B4565
:102D600072D100F051F902000B1E73DB0100180054
:102D700052197341984202D804D1914202D90122DA
:102D80005242D317002B6BDB0021049101310391D8
:102D9000029451460191414600913800FFF778FEB8
:102DA00049E03B69002BD5D04B451CD1069A079BC7
:102DB00010001900521BB341994202D804D190422D
:102DC00002D901225242D317002B12DB00210491B9
:102DD000013103910294514601914146009138001E
:102DE000FFF756FE27E04B4B464A9F21434800F031
:102DF0002FFC3D4B3D4A3F213D4800F029FC002E71
:102E000001D1002DA8D13A68002C45D0537B9C42BB
:102E10002CD1012100293FD1D37B002B42D1D47387
:102E2000002C52D03B681B7B9C424ED8FA68013C78
:102E3000135D0133135500233B617A68BFF35F8F45
:102E400013608BF310881FE7324B2E4AA2212B48C8
:102E500000F0FEFB244B254A3F21254800F0F8FBFB
:102E6000214B224A3F21224800F0F2FB002C0DD0DA
:102E7000137B9C420AD863001B19033B10688446ED
:102E800063449B78002BC5D00121C3E7224B234A22
:102E90006921234800F0DCFB224B234AF72120481C
:102EA00000F0D6FB002B0AD0117B8B4207D85900CB
:102EB000CB18033B11688C4663445C70AFE7164B3C
:102EC000164A6921164800F0C3FB0A4B0F4A4021FD
:102ED0000A4800F0BDFB0BB0F0BCBB46B246A946A9
:102EE000A046F0BD340400202C70001020710010AA
:102EF000487000102C6F001054710010E86E001024
:102F00009C70001038710010B470001060710010D7
:102F1000FFFFFF0FC0700010606F0010A87100105D
:102F20007C6F0010FC7000107471001010B50A4B1B
:102F30005B68002B04D00A21084800F04DF910BD51
:102F4000054C2300064A1021206800F015FA0321E1
:102F50002000FFF7CDFCEEE7D4010020E8080020B8
:102F60003129001070B5EFF305833F201840103869
:102F7000EFF3108C72B6194B1B68002BFBD0BFF31C
:102F80005F8F012319008140154A5163154A127859
:102F90001400C440234214D0114B5C6A8300124DCC
:102FA0005B599C4206D38300104C1B598A430D4940
:102FB0000A7007E00A4A031D9B00995899500023A4
:102FC00000E00023BFF35F8F044A002111608CF3FF
:102FD0001088002B00D0984770BDC046280100D053
:102FE00000400540320A0220EC080020B403002013
:102FF00010B50100024A0348FFF706FB10BDC046AA
:10300000CC710010300A0220044B5B6A034A906ABC
:103010001900536A9942F9D17047C04600400540F3
:1030200070B504000D00EFF3108672B61B4B1B68E1
:10303000002BFBD0BFF35F8F002D1CD0200000F0D1
:1030400039FD174B83420BD01900200000F03AFDE8
:103050000121200000F026FD0123A340114A136046
:10306000A400114BE550BFF35F8F0C4B00221A6098
:1030700086F3108870BDA2000B4B0021D1500122B5
:10308000A2400A490B7893430B700549200000F0D9
:1030900043FD0021200000F005FDE4E7280100D0F9
:1030A000652F001038600540B4030020320A02206A
:1030B000F0B5DE4600B584B00400150001921E0094
:1030C0000293FFF7A1FF03958E4202D84ED18542AD
:1030D0004CD9EFF3108B72B6274B1B68002BFBD03B
:1030E000BFF35F8F254A17780125A540EBB23B431C
:1030F0001370234B5D63221D92000199D150A200F1
:103100002049029850501B6A2B4212D11C4B1B6C59
:103110002B4208D00020BFF35F8F174B00221A60AC
:103120008BF3108823E0184B184AC121184800F08F
:103130008FFAFFF769FF8E4214D802D1039B8342B6
:1031400010D80E4B1B78BB420ED00D4B1D625D6339
:103150001F2004400123A3400E4A1360074B1F7039
:103160001E38D8E70020D6E70120D4E7012004B0BC
:1031700080BCBB46F0BDC046280100D0320A022008
:1031800000400540EC080020F0710010647200104F
:103190001472001080E200E0EFF3108C72B60B4B5B
:1031A0001B68002BFBD0BFF35F8F01238340084ACD
:1031B000136208490A789A430A70BFF35F8F034B82
:1031C00000221A608CF310887047C046280100D096
:1031D00000400540320A0220024B9C4661448900AF
:1031E000016070474000003410B50400FFF740FA5A
:1031F00001002000FFF7F0FF01235B426360BFF393
:103200005F8F10BD10B50400FFF732FA01002000F7
:10321000FFF7E2FF01235B42636000232372BFF3E9
:103220005F8F10BD10B500291ED0037B99421BD8BB
:103230004B005B18033B0468A4466344002919D083
:10324000002A1DD0914221D0002A25D0047BA24221
:1032500022D804685000801803382018817019782B
:1032600000291FD11A7010BD104B114A6921114855
:1032700000F0EEF9104B114A70310E4800F0E8F9F9
:103280000F4B0E4A71210B4800F0E2F90D4B0B4A2F
:103290007221084800F0DCF9044B054A6921054811
:1032A00000F0D6F941701A70DDE7C046606F00107B
:1032B000247400107C6F0010D46F00101074001084
:1032C000E06F0010EC6F001070B506000D001400E8
:1032D000002914D0002A14D0806873689847002809
:1032E00006D0220029003000FFF79CFF280007E0ED
:1032F0002A0021003000FFF795FF200000E01000B9
:1033000070BD0800FCE7000010B5002343730133D3
:103310008373037BC3730123027B9A4214D9002B6E
:103320000CD0027B934209D85A00D218033A0168A4
:103330008C4662440133DBB25370EDE70B4B0C4A11
:1033400069210C4800F084F9002A09D0924207D87C
:10335000016853009A18033A8A180023537010BD6D
:10336000024B034A6921034800F072F9606F0010B4
:10337000247400107C6F001010B5017342608360EC
:10338000FFF7C2FF10BD000070B50400081E00D199
:1033900070BD002934D0237B994231D84B005B1893
:1033A000033B2268944663445A78002AF0D02DD01B
:1033B000237B9A422AD853009B18033B21688C46F2
:1033C00063445D7800215970002825D0237B984202
:1033D00022D843001B18033B21688C46634400211C
:1033E000597001002000FFF76FFF06002900200040
:1033F000FFF7CAFF020031002000FFF765FFC7E7B3
:10340000084B094A6921094800F022F9054B064A90
:103410006921064800F01CF9024B034A6921034860
:1034200000F016F9606F0010247400107C6F00101B
:1034300070B505000C001600002928D02DD0037BA4
:1034400099422AD84B005B18033B026894466344B8
:103450005A78002A27D19A78002A2AD11978FFF7BA
:1034600093FF0300002E03D0EA7B002A27D1EC73E0
:10347000002B37D1002C49D02B7B9C4246D82B689F
:1034800061000C19033C1C190023637070BD224BB2
:10349000224A3821224800F0DBF8224B224A6921D7
:1034A000224800F0D5F8224B1C4A3A211C4800F073
:1034B000CFF8204B194A3B21194800F0C9F8002ADF
:1034C0000AD0297B8A4207D851008A18033A296812
:1034D0008C4662445470CAE7124B134A6921134860
:1034E00000F0B6F8002B0BD02A7B934208D843009B
:1034F0001B18033B2A689446634400229A70B9E77C
:10350000084B094A6921094800F0A2F8054B064A10
:103510006921064800F09CF824730010FC73001029
:103520002C730010606F0010247400107C6F00106A
:10353000707300109873001070B504000A00457B8A
:103540002900FFF775FF6073280070BD70B5040097
:10355000002967D0437B8B420ED0002911D0037B1A
:1035600099420ED84B005B18033B0268D018837851
:10357000002B0CD1002056E00121FFF7DDFF0120D8
:1035800051E0294B294A6921294800F061F8002BB4
:1035900020D0227B93421DD85A00D318033B2268C7
:1035A000D2182568EB5C8B421AD0002B1BD0227BF3
:1035B000934218D85A00D318033B2268D218537884
:1035C0008B4216D0002BF0D11A4B1B4A67211B48A7
:1035D00000F03EF8144B154A6921154800F038F800
:1035E0004378137007E0104B104A6921104800F02F
:1035F0002FF843785370002383704370012220001A
:10360000FFF716FF0200617B814205D02000FFF723
:103610005BFE6073012006E0094B074A6D210748F5
:1036200000F016F8002070BD606F001024740010C8
:103630007C6F0010BC730010E47300102C7300103A
:10364000C473001000BEFDE710B5FFF7FBFF0000DC
:1036500010B582B00C001900002A0CD0084B002ACB
:103660000BD00192009323000200064802F07EFD79
:103670000120FFF7E7FF044BF1E7034AF1E7C046FB
:1036800030740010407400103C74001070B52B4B67
:103690002B4A1A602B4B2C4A1A602C4B9A682A4BE7
:1036A0009343FAD12A4C01E008CC9847294B9C421D
:1036B000FAD300F007F9234B274A1A60234B9B6883
:1036C000DB43DB01FAD1254B40229A675A671A6720
:1036D000DA66234C09E0234B234A83212348FFF772
:1036E000B7FF2000FFF780FD0834214B9C4209D230
:1036F0002368002BF5D0012BEDD12000FFF782FDD0
:103700000C34F2E71B4CA1681B4DC022280002F0CC
:1037100001FCA560FCF7A7FD002800D000BEFEF765
:1037200097FF00F05BFBFFF701FC144C01E008CCB5
:103730009847134B9C42FAD370BDC04600E000404E
:10374000BFCDFBFE00F00040FE7F3C0000C000400B
:103750008002002090020020FFFFFF0100F00140E6
:10376000700200207074001000750010907400103A
:103770008002002000ED00E0000000209002002008
:10378000980200200FB400B583B0084802F0BCFCDA
:10379000049B002B07D005A90191180002F0C4FC7E
:1037A000034802F0B1FC0120FFF74CFFE074001069
:1037B0007063001010B50148FFF7E4FFF0740010CB
:1037C000F8B5DE4657464E464546E0B505000F00C3
:1037D00092460A9A93424ED31A0E91461E020A9AB4
:1037E00000233000494601F0EDFC80466C0064196E
:1037F000A4002F4B9C4664446368834200D26060FF
:103800002B1FDBB29B46012B3BD9C0239B012343DB
:10381000802212011A60AB00264A9958002905D06F
:10382000506901F08DFC01300138FDD153465A0139
:1038300023685A40E0231A4080235B0123431A6027
:103840005A46012A28D980239B0123438022120152
:103850001A6043466360424600233000494601F047
:10386000B1FCAD00134B58510120F0BCBB46B24631
:10387000A946A046F8BD104B104A2D211048FFF76D
:10388000E7FE012FC1D1C0239B01234303221A600D
:10389000A368DB07FCD5C9E72168794003220A4009
:1038A0001A60A2680123BB401342FAD0CBE7C0469E
:1038B00000800040C40300201075001074750010D3
:1038C0002475001030B583B00C2000F021FBFEF70A
:1038D000B5FE00280DD0002304E099002D4A2E48A3
:1038E00088500133092BF8D92A4B2C4A5A6203B06D
:1038F00030BD2B4B00229A6700F012FB294B0122AE
:103900001A60274B5B6C012BFBD1274B03221A60FB
:10391000234B9B6B012BFBD1022400940533234ADC
:103920000121234800F068FA00940523214A01216F
:10393000214800F061FA214B00930022022104206B
:10394000FFF73EFF1E4D00952B00002201210520B0
:10395000FFF736FF104C00942300002200210720BF
:10396000FFF72EFF00942300002200210820FFF71C
:1039700027FF0A4B00932300002200210920FFF7B4
:103980001FFF00952B00002200210620FFF718FFE3
:10399000ADE7C046C4030020006CDC021BB700008A
:1039A000008000403CB0004030B00040002F68591B
:1039B0000080024000389C1C00C00240001BB70081
:1039C000405973078000014BC0587047C403002062
:1039D000074B9B68103080001950BFF35F8FBFF317
:1039E0005F8F044B0021196082F310887047C04636
:1039F00000ED00E0240100D010B5091A0439480890
:103A0000090B05D14005400D044B184380B210BD91
:103A1000034B044A8B210448FFF71AFE00E0FFFF26
:103A2000847500109C7700109475001010B5091A69
:103A300004394C08090B08D14905490D064A1143C0
:103A40000180064B2343438010BD054B054A93215B
:103A50000548FFF7FDFDC04600F0FFFF00F8FFFF3F
:103A60008475001070770010947500100123834056
:103A7000034A10681840431E9841C0B27047C046C0
:103A800000E100E0002904D0034B1860034B1860EC
:103A90007047034B1860FBE780E200E000E100E0C4
:103AA00080E100E010B5012383401800FFF7EAFF32
:103AB00010BD0000024B9B6810308000C05870475A
:103AC00000ED00E070B504000D00EFF3108672B653
:103AD0000C4B1B68002BFBD0BFF35F8F2000FFF760
:103AE000E9FF094B984201D0A84205D132002900D4
:103AF0002000FFF76DFF70BD044B054A6E2105489D
:103B0000FFF7A6FD240100D0CD010010E0750010E4
:103B1000B877001094750010F0B5CE46474680B5D2
:103B200083B006000D00EFF3108872B6574B1B6888
:103B3000002BFBD0BFF35F8F554B9A6834001034D5
:103B4000A300D758534B9F4207D0AF4200D19BE010
:103B50000197514BFB1A2F2B09D9424639003000EF
:103B6000FFF736FF03B0C0BCB946B046F0BD300029
:103B7000FFF77CFF814600213000FFF793FFBFF382
:103B80005F8FFCF770FB002801D0844219D101231C
:103B9000019C9C43414923003F4A9B1A5B41594386
:103BA000090D49B20022A368AB4212D00622A256E8
:103BB000002A0DDB53009B189B002200364CE418B2
:103BC000F1E71E21364B374AFF313748FFF740FDFA
:103BD0002200AB4251D106256557002D39DB6B0021
:103BE0005B199A002C4B9B189A68A260DA79E271F3
:103BF00006229A56A2719B795BB2002B10DABD2087
:103C00000002A0806B005B199B00234AD318274A4F
:103C100011789971157049463000FFF743FF9CE712
:103C2000201D6B005B199B001B4A9B181A1D9B886B
:103C3000D90A1C2907D15B055B15023359005118BD
:103C4000FFF7DAFEDDE71A4B1A4A99211648FFF70B
:103C5000FFFC00280CD1002A08D0FF239371164BDB
:103C60009380124B1A78A2711970D4E7094FF8E7C4
:103C7000201D1249FFF7DAFECDE7A921104B094AB2
:103C800049000948FFF7E4FC024F66E7240100D031
:103C900000ED00E0CD010010FC010020AAAA000008
:103CA000F47600108877001094750010310A022015
:103CB000DC760010A877001000BDFFFF3602002060
:103CC0001877001010B5032304009C43064A94465D
:103CD000644422681840C000FC3383409A431300B8
:103CE00081400B43236010BD00E400E070B5040088
:103CF000012606432D4BF31A2F2B28D8FCF7B3FAD5
:103D000000282BD0EFF3108C72B6294B1B68002BC8
:103D1000FBD0BFF35F8F274D22002449521A524136
:103D200055432D0D6DB2244B9B6880001B58B34248
:103D30001BD00022032A32D853009B189B001B493A
:103D4000CB189B795BB2AB421FD00132F2E77821EE
:103D50001A4B1B4AFF311B48FFF77AFCBD211A4B57
:103D6000174A49001748FFF773FC134B9B68174A23
:103D70001A50174B1A78A2711D70BFF35F8F0C4B4E
:103D800000221A608CF3108870BD08005300991847
:103D900089004118FF268E710E4A8A80E9E78C213E
:103DA0000D4B074AFF310748FFF752FCFC0100208A
:103DB000240100D0AAAA000000ED00E02077001046
:103DC000547700109475001048770010CD01001052
:103DD000310A022000BDFFFFBC7300100022044B1B
:103DE00002E0044902C30132072AFAD97047C046EB
:103DF00000E400E080808080F0B5CE4600B504008D
:103E00000E0091461F000C2001F09AF905004301B5
:103E10001B1A9901C91AC90009188901484601F0FD
:103E20008FF90200103A98235B009A4233D87B1E28
:103E3000062B36D8069B013B062B32D8069B9F42A9
:103E400035D34B461A09AA4237D33F04069B1D03BC
:103E50002F432368002B36DB234B9C4241D080222A
:103E60005201224B1A60224B1A60224B9B681100B0
:103E70009943FAD12660A060231DC02292011A4303
:103E8000212313602368002BFCDAE760082313600A
:103E900080BCB946F0BD184B184A16211848FFF7E8
:103EA000D7FB184B154A19211548FFF7D1FB164BC4
:103EB000124A1F211248FFF7CBFB144B0F4A222155
:103EC0000F48FFF7C5FB22683F231340B342C3D11D
:103ED000A3681B051B0D8342BED1E368002FBBD135
:103EE000D6E780229201BCE700C0024000E000401B
:103EF00000F0004000C00040D4770010BC780010F3
:103F0000F07700103C78001088780010A07800103E
:103F100080239B000343014AD36270470080054021
:103F2000064BAA2212011A602F22DA60044B054ABE
:103F30001A60024B5B68002BFBDA704700400240BE
:103F40000060024000B0FA00704710B5002802D0AF
:103F50000B684968984710BD0100002007E0830006
:103F60001B185B00501C08601078C01830380A68B5
:103F70001378303BDBB2092BF1D97047F0B5DE4640
:103F800057464E464546E0B583B093461F000C9B0E
:103F90009A460D9C0E9B99460F9B9B0703D0B846F3
:103FA0000F00060022E00192A34688464E46B9461D
:103FB0000700B44207D2551C4B4641462020B84763
:103FC00001342A00F5E73D004F465C46019B9B46C5
:103FD000B1464646B84637002E0007E0013C551C66
:103FE0005346185D43463900B0472A00002CF5D1EE
:103FF00035003E0047460F9B9B0707D4100003B0D7
:10400000F0BCBB46B246A946A046F0BDB0464E46FF
:10401000B9462F005D46531BB342EFD2541C4B46AA
:1040200041462020B8472200F5E7F0B5CE46474686
:1040300080B585B0944698460C9D0D9C0EAB1B78C0
:104040009946109A119B129EB7071CD4002B0CD0D6
:10405000F7070AD54F46002F02D10C37374204D05C
:10406000013B02E030272F550134944201D21F2C2E
:10407000F8D9F70707D59C4205D21F2C03D8302763
:104080002F550134F5E7F70615D5770505D4002C33
:1040900003D0944224D09C4222D00F9A102A2BD0D5
:1040A0000F9A102A30D00F9A022A35D01F2C02D82E
:1040B00030222A5501341F2C05D84A46002A31D017
:1040C0002D222A550134039602930194009543460C
:1040D0006246FFF753FF05B0C0BCB946B046F0BD1D
:1040E000621E012C06D00F9F102F01D01400D4E7C0
:1040F000023CD2E71400D0E7B206D1D41F2CCFD8AF
:1041000078222A550134D1E7B206CCD51F2CCAD863
:1041100058222A550134C9E71F2CC7D860322A55C6
:104120000134C3E7720703D52B222A550134CAE7AD
:104130003207C8D520222A550134C4E7F0B5DE463F
:1041400057464E464546E0B593B081468A460892AA
:1041500009931CAB10CB1B789B461E9D219B984658
:10416000002C03D1102342469A4390468023DB0063
:1041700046461E4042461A4212D0002C22D000264B
:104180000EE03033D9B2771C0AAB995529002000D4
:1041900000F0D6FFAC4216D31F2F14D83E00040007
:1041A0002900200000F0CCFFCBB2092BE9D9424610
:1041B000920605D54121C918C9B20A39C9B2E2E748
:1041C0006121F8E7270043460693209B05931F9B38
:1041D000049303955B46029301970AAB0093099BF6
:1041E000089A51464846FFF720FF13B0F0BCBB4683
:1041F000B246A946A046F0BDF0B5DE4657464E464B
:104200004546E0B595B0089009910A920B931E9E21
:104210001F9C20AB1B789B46229B9946239D269B87
:104220009A463300234303D1103352469A439246B1
:104230008023DB0057461F4052461A4219D03300F4
:1042400023432DD0002714E03033DAB27B1C98468C
:104250000CABDA554A462B003000210000F0B2FFCB
:10426000A5421FD819D043461F2B1BD8474606002E
:104270000C004A462B003000210000F0A3FFD3B20F
:10428000092BE1D95246920605D54122D218D2B265
:104290000A3AD2B2DAE76122F8E7B145E3D901E0A0
:1042A0000023984653460693259B0593249B04932D
:1042B0004B4603935B460293434601930CAB00933A
:1042C0000B9B0A9A09990898FFF7AFFE15B0F0BC4E
:1042D000BB46B246A946A046F0BD0000F0B5DE469A
:1042E00057464E464546E0B591B083468A460C9205
:1042F00098461A9C08941B9D099522002B002000CB
:10430000290001F0EEF9002800D0E5E00122524238
:10431000D74B2000290001F0DFF9002800D0DBE0B6
:1043200001225242D34B2000290001F0BFF900289E
:1043300000D0D1E000220023089D2800099E310012
:1043400001F0B4F9002800D0DDE008980999069042
:1043500007918023DB001E9A1A400D921E9A1A4282
:1043600001D106231C930698079904000D000A004A
:104370000600024300D1D1E0080D4005400DBE4CBF
:10438000A44660440A03120BBC4B13431F0001F008
:10439000BBF9BB4ABB4B01F046F9BB4ABB4B01F032
:1043A0001BF904000D000022B94B3000390001F068
:1043B0000AF9B84AB84B01F036F902000B002000A8
:1043C000290001F009F901F0B7F9814601F09CF9E3
:1043D00004000D00B14AB24B01F025F90022B14BA7
:1043E00001F0FAF801F0A8F90600AF4AAF4B20003F
:1043F000290001F018F904000D00300001F084F9E3
:10440000AB4AAC4B01F00FF902000B002000290071
:1044100001F0D9F804000D0002000B0001F003F9CF
:104420000A900B91A44BF31800261F0522002B00C5
:104430002000290001F0D0F80E900F9122002B00EF
:1044400000208021C90501F0BEF804000D00002203
:104450009A4B0A980B9901F0C8F80022984B01F08A
:10446000BBF802000B000A980B9901F0BEF800227D
:10447000944B01F0B1F802000B000A980B9901F07F
:10448000B4F802000B002000290001F0A5F802009A
:104490000B000E980F9901F0A8F80022774B01F05D
:1044A0009BF832003B0001F0BEF806000F0004004C
:1044B0000D00069A079B01F00FF9002830D0012368
:1044C0005B429C46E14400227D4B3000390001F004
:1044D0008CF804000D0023E01E9B04931D9B0393A6
:1044E0001C9B0293089A099B0092019343460C9AE5
:1044F0005146584600F0FCF811B0F0BCBB46B2463D
:10450000A946A046F0BD0023002406930794069513
:1045100080231B069C46664407961AE700239946AB
:104520004B466333C62B1ED804261E9B1B0526D57F
:104530002B0023430FD0644A644B0698079901F07F
:10454000C3F8002879D00022614B0698079901F042
:10455000ADF8002871D01C9B4B4506DD4A46981AE1
:10456000431E1C9303E00526DFE700231C938023F2
:10457000DB001E9A1A431E920026002399461D9BBB
:104580009E4264D29F1B02231E9A1A400A921E9AD0
:10459000134202D0002E00D000274B46002B07D03C
:1045A00022002B000698079901F01FF8069007914A
:1045B000002200230898099901F078F8002848D1D2
:1045C000444B1E9A1340049303971C9B0293069B33
:1045D000079C0093019443460C9A5146584600F0BC
:1045E00087F8002E00D187E71E9B9B063DD5452509
:1045F000441C4346020051462800D8474B46DA1770
:104600009B18534005220592013E04960022039216
:104610000A3202924A46D00F01900093434622008C
:1046200051465846FFF78AFD0A9B002B00D163E7ED
:1046300002005F460C9E1D9D54E01C9B002B9ED0EB
:104640000D9B002B9BD01C9B013B1C9397E70027E5
:1046500099E7069C079D22002900802000068446D9
:1046600061440B0006920793AAE76525C0E7C046A0
:10467000FFFFEF7FFFFFEFFF01FCFFFF0000F03FB8
:10468000FB799F501344D33FB3C8608B288AC63F41
:104690000000F83F61436F63A787D23F71A3790998
:1046A0004F930A400000E03F1655B5BBB16B024086
:1046B000EF39FAFE422EE63FFF03000000002C40D7
:1046C00000002440000018402D431CEBE2361A3F46
:1046D00080842E41FFF7FFFF541C434651462020A3
:1046E000B8472200931BAB42F6D3100004E7C04644
:1046F000F0B5DE4657464E464546E0B595B00690C5
:10470000079193469946209F1E9A1F9B10001900FF
:1047100000F0E7FF002831D101225242BF4B1E9822
:104720001F9900F0C3FF002837D101225242BC4B31
:104730001E981F9900F0D0FF00283DD10022B94BF0
:104740001E981F9900F0C8FF002850D10022B64BD8
:104750001E981F9900F0AAFF002848D100220023CC
:104760001E981F9900F0A2FF002850D10023984600
:10477000229B5B0500D4B6E0002458E0229B039303
:10478000219B029303230193A84B00934B465A4667
:1047900007990698FFF7F2FB0EE1229B0393219BFA
:1047A000029304230193A24B00934B465A46079968
:1047B0000698FFF7E3FBFFE00423229A1A402299B0
:1047C0000B4210D09B4B002A0FD004222299039158
:1047D00021990291019200934B465A4607990698F7
:1047E000FFF7CCFBE8E0944BEDE70322EEE7229BDA
:1047F0000493219B039302971E9B1F9C009301949B
:104800004B465A4607990698FFF768FDD4E01E9A72
:104810001F9B0020002100F0D6FE1E901F91012357
:104820009846A5E70CAB30221A55013F01341F2CE6
:1048300001D8092FF6D81E981F9900F07DFF0500BA
:1048400000F062FF02000B001E981F9900F0BBFEF3
:10485000FA007A4B9B181A685B680A920B9300F077
:10486000E2FE0890099100F08BFF060000F048FF7F
:1048700002000B000898099900F0A5FE0890099124
:1048800000226F4B00F028FF00282ED001363000A8
:1048900000F036FF02000B000A980B9900F00CFFA5
:1048A000002801D001350026002F2CD1280000F06F
:1048B0002BFF02000B001E981F9900F084FE0600DB
:1048C0000F0000225E4B00F0F1FE002846D10022CE
:1048D0005B4B3000390000F0FFFE00283ED1EB07B3
:1048E0003CD501353AE0062746E70022544B0898AC
:1048F000099900F0DBFE0028D6D1002E01D0F30785
:10490000D2D50136D0E7AA461F2C11D8013F0A2183
:10491000300000F015FC651C30310CAB19550A2134
:10492000300000F00DFC092E0ED906002C00EBE73C
:1049300055461F2C0CD87B1E002F09D00CAA302105
:1049400011551F000134F4E72B0055461C00F0E719
:104950001F2C03D80CAB2E221A5501341F2C10D853
:104960000A21280000F0C4FB661C30310CAB19553D
:104970000A21280000F0BCFB051E01D03400EDE741
:1049800034000323229A1340012B1CD01F2C06D87D
:104990004346002B32D00CAB2D221A550134229BFA
:1049A0000393219B029301940CAB00934B465A4610
:1049B00007990698FFF7E2FA15B0F0BCBB46B2467D
:1049C000A946A046F0BD219B002B13D04346002BE7
:1049D00002D10C3313420FD0219B013B21931900CC
:1049E00003E00CAB30221A5501348C42CED21F2C7E
:1049F000F7D9CBE72199F8E72199F6E7229B5B07E6
:104A000004D50CAB2B221A550134C8E7229B1B0797
:104A1000C5D50CAB20221A550134C0E7FFFFEFFFCC
:104A2000FFFFEF7F65CDCD4165CDCDC1D4780010BE
:104A3000D8780010CC780010C8780010C07A001028
:104A40000000E03FF0B5DE4657464E464546E0B52D
:104A500093B082468B4690461193002900D1EBE239
:104A600000275546119B1878002800D1E7E2252839
:104A700009D07C1C43463A005946A847119B013394
:104A800011932700EEE7013311930024119A117856
:104A90000B00203BD8B2102803D88300D048C3585D
:104AA0009F460B00303BDBB2092B2CD92A292FD093
:104AB00000230A93119B1A782E2A39D000239A4694
:104AC000119A1378683BD9B2122976D88B00C54960
:104AD000CB589F4601231C4301321192D6E7022393
:104AE0001C4301321192D1E704231C43013211927D
:104AF000CCE708231C4301321192C7E710231C4363
:104B000001321192C2E711A8FFF726FA0A90D1E705
:104B10001C9B1A1D1C921868002804DB0A90119B2C
:104B200001331193C6E702231C4343420A93F6E77D
:104B30008022D20014435A1C11925A781300303B41
:104B4000DBB2092B04D92A2A07D000239A46B7E7FB
:104B500011A8FFF701FA8246B2E71C9B1A1D1C92AE
:104B60001868002804DB8246119B01331193A7E7E4
:104B70000020F8E780235B002343511C11915278F9
:104B80006C2A01D01C0018E0C0239B001C4301319B
:104B9000119112E080232343511C11915278682A0D
:104BA00001D01C0009E0C0231C430131119104E035
:104BB00080235B001C4301321192119B1878030083
:104BC000253BDAB2532A00D92CE29300864AD35807
:104BD0009F4680239B001C4301321192EDE7802306
:104BE0005B001C4301321192E7E7782809D058286E
:104BF00038D06F2838D0622838D010239C430A263A
:104C000000E01026582833D0692803D0642801D04A
:104C10000C229443630501D50122944369282AD0CC
:104C2000642828D0A30500D59FE0E30500D5B8E0AF
:104C3000630600D4CAE01C9A111D1C911168FF2262
:104C40000A4005940A9B049353460393029600235B
:104C50000193009243463A0059462800FFF76EFA46
:104C6000070027E01026CDE70826CBE70226C9E794
:104C700020221443C8E7A30520D4E30550D46306DB
:104C800066D51C9A111D1C911168FF220A40D3178A
:104C9000D118594005940A9B0493534603930296F6
:104CA000D20F0192009143463A0059462800FFF77F
:104CB00045FA0700119B01331193D3E61C9BDA1DC3
:104CC00007218A43110008311C91116853689C46E2
:104CD000DB170C930D930C9A0D9B100048400E901F
:104CE000624653400F930E980F990C9A0D9B801AB1
:104CF00099410E900F9108940A9B0793534606938F
:104D00000496002305936346DA0F02920090019106
:104D100043463A0059462800FFF76EFA0700C9E7F4
:104D20001C9A111D1C911268D317D1185940059473
:104D30000A9B0493534603930296D20F019200916B
:104D400043463A0059462800FFF7F8F90700B1E753
:104D5000230605D51C9A111D1C910023D25E96E7EF
:104D60001C9A111D1C91126891E71C9BDA1D0721EA
:104D70008A43110008311C9108940A9B07935346FB
:104D800006930496002305930293136854680093D6
:104D9000019443463A0059462800FFF72DFA0700D0
:104DA00088E71C9A111D1C9105940A9B0493534695
:104DB00003930296002301931368009343463A003D
:104DC00059462800FFF7BAF9070073E723060DD507
:104DD0001C9A111D1C9112681204120C31E7C04676
:104DE000E078001024790010707900101C9A111DD1
:104DF0001C91126825E746281AD01C9B073307220E
:104E000093431A0008321C9204940A9A0392524661
:104E100002925C681B680093019443463A0059462D
:104E20002800FFF765FC0700119B0133119319E679
:104E300020231C43E1E7672801D0472802D18023C3
:104E40001B011C43452801D0472801D120231C43C6
:104E50001C9B0733072293431A0008321C920494C8
:104E60000A9A0392524602925C681B68009301946E
:104E700043463A0059462800FFF730FA0700119BD5
:104E800001331193EEE502231A0022409246234299
:104E90001FD001241C9B1A1D1C927A1C9146187865
:104EA00043463A005946A8475346002B16D1119B5A
:104EB000013311934F46D5E5561C434659462020F1
:104EC000B847230032005C1C9D42F5D83D00170016
:104ED000E0E701233A002F000A9DF4E74A46A9467D
:104EE0000A9D06E0571C434659462020C847340017
:104EF0003A00661CA542F5D84D469146D7E71C9B63
:104F00001A1D1C921B6899465346002B00D1013B89
:104F10004E4601E0013613003278002A02D05A1EB4
:104F2000002BF7D14B46F21A10928023DB002600AB
:104F30001E401C4203D0524501D953461093022310
:104F40001A0022400B92234205D03A0037004C460B
:104F5000A946554620E03A00109B5F46B3462E0016
:104F600006E0551C434639002020B04723002A00A4
:104F70005C1C0A999942F4D835005E46BB461094F1
:104F800037004C46A946554606E01D000134561C24
:104F900043465946C84732002078002804D0002FE5
:104FA000F4D06B1E002DF0D117004D460B9B002B4B
:104FB00003D1119B0133119354E50A9F109B06E026
:104FC000561C434659462020A847230032005C1C4B
:104FD0009F42F5D81700ECE721231C431C9B1A1DA8
:104FE0001C921B6800930594082304935346039373
:104FF000102302930023019343463A0059462800A8
:10500000FFF79CF80700119B013311932AE57C1CE4
:1050100043463A0059462520A847119B0133119376
:1050200027001FE57C1C43463A005946A847119BC0
:1050300001331193270015E50A4B9A4610E5AA465D
:10504000474502D343465A1E00E03A0043465946BC
:105050000020D047380013B0F0BCBB46B246A9468A
:10506000A046F0BD493F001000B585B00290039105
:105070000121009313004A4202A90248FFF7E2FC13
:1050800005B000BD4B3F001001480421014B1847FB
:1050900050020020B950001010B5010018231B88E1
:1050A00014221088984710BD10B5010018231B88E2
:1050B00016221088984710BDF0B5C64600B5070007
:1050C0000E0000250123984600E00135B5420AD2C2
:1050D000AC003C192068FFF7DFFF20600028F4D106
:1050E00000239846F1E7404680BCB846F0BD00007A
:1050F000124A936F9B0815D29066D166002905D09D
:10510000FFE7FFE7FFE7516F106F704704B580219D
:105110000906C2175140002800D0C84301F000F929
:10512000002104BDF0B5146E556E576F166FFFF772
:10513000E3FF1466556657671667F0BD000000D0A0
:10514000114A936F9B0813D210665166002905D04F
:10515000FFE7FFE7FFE7516F106F704704B50028C6
:1051600001D00020C04301F0DBF8002104BDC0469F
:10517000F0B5146E556E576F166FFFF7E5FF1466A6
:10518000556657671667F0BD000000D094464E4A3A
:10519000926F9208624601D230E0C046F0B54A4EA6
:1051A000B56F6D08FCD3346E756E776F366F00F097
:1051B00025F89446444A1466556657671667624652
:1051C000F0BDC0469446404A926F9208624601D2B2
:1051D00058E0C046F0B53C4EB56F6D08FCD3346E58
:1051E000756E776F366F00F04DF89446364A146648
:1051F0005566576716676246F0BDC046002B24DB34
:1052000011D000293EDA00B5C943404200D1013136
:1052100000F038F8C943404200D10131DB4352422B
:1052200000D1013300BD002AEBD1002801D10029B3
:1052300005D00020C90FC90701D1C043410800B5FE
:1052400001F066F80022002300BD00B500290ADB4A
:10525000DB43524200D1013300F014F8C94340420D
:1052600000D1013100BDC943404200D10131DB43CF
:10527000524200D1013300F005F8DB43524200D125
:10528000013300BD002923D1002B18D1002A0CD0F6
:10529000BC460D4F38667A6600210023FFE7FFE722
:1052A000FFE77A6F386F67467047002801D00748DC
:1052B000010000B501F02CF80022002300BD02001F
:1052C0000B00002000217047000000D0FFFFFFFF0F
:1052D000002B00D0BFE0130C28D1002AE7D080B407
:1052E000114F39667A66FFE7FFE730B4040C7B6F35
:1052F000396F1B0423433B667A66FFE7FFE7FFE74E
:10530000C04684B27B6F3D6F1B0423433B667A66C5
:10531000FFE7FFE7C04600232C042D0C7A6F386F9F
:1053200000196941B0BC7047000000D0F0B5944648
:105330000025140E01D112020835140F01D11201FB
:105340000435940F01D192000235D40F01D15200DF
:105350000135D40B0134254F7C66254C3C660E0C80
:1053600093B2FFE7FFE7FFE73C6F6643360C770336
:10537000BE467343DF0B5B04C01AB941130C734381
:10538000DB18C91ACE086643360CB64493B2734391
:105390001F0F1B01C01AB941130C73431F0B1B05D0
:1053A000C01AB941860D8F023E436643360C092D63
:1053B00024DB520A7243801A7703460A6643360C8E
:1053C00016235B1BDE40DF40BF1964466643821B29
:1053D0007046043506330100D940A840C01900D3F7
:1053E0000131A24206D20023F0BD0000000000D02F
:1053F000FFFFFFFF121B0130F3D3F1E709277F1BEB
:10540000FE406446A2B27243801A00D20139220CD7
:105410007243130C1204821A99410B007046043532
:1054200013370100F940A840801900D30131002B47
:1054300002D1A2420AD2F0BD013000D30131121BC9
:10544000FAD2013BF8D1A24200D2F0BD013000D324
:105450000131121BF7E7F0B51C0C00D080E00CB452
:1054600000251C0A04D11B02160E33431202083514
:105470001C0B04D11B01160F3343120104359C0B86
:1054800004D19B00960F334392000235DC0B02D10E
:1054900092185B4101351C00971864410134464F56
:1054A0007C66464C3C660E0CFFE7FFE7FFE7C04614
:1054B0003C6F6643360C7703BE4697B27743C01BFA
:1054C00000D20139C01B00D201399FB27743C91BFA
:1054D000C91B170C77437E04FF0B801BB941CE0814
:1054E0006643360C0C2D33DBB644120B1F053A43D2
:1054F0001B0B97B27743C01B00D201399FB2774391
:10550000C91B170C77433E043F0C801BB941860D25
:105510008F023E43664329277F1BFE400C3D7746A2
:10552000AF40BF1930BCA2B2ABB272437343801A12
:105530009941220C7243130C1204801A9941020003
:105540000B000137001BA941F9D2781E0021F0BDE4
:105550000C277F1BFE4077467F0BAF40FF19E0E72B
:1055600000245D1C07D0144F7D663966FFE7FFE716
:10557000FFE7FFE73C6F95B29EB265436643401B71
:10558000B141150C1E0C6543664336042F0C3E4397
:105590002D04401BB141994204D202000B002000AF
:1055A0000021F0BD01D19042F7D3801A9941013416
:1055B0009942F2D3F6E70000000000D0FFFFFFFFA2
:1055C00048404140484018B41B4B5B68FC4601937F
:1055D00008BD04DF9B58001018B4174B1B68FC462D
:1055E000019308BD00DFA55800109446134A926F3E
:1055F000920809D2624618B40F4BDB68FC4601934F
:1056000008BD0CDF5D5B00100C4AF0B5146E556EE2
:10561000576F166F6246FFF7EEFF084A146655662D
:1056200057671667F0BD18B4034B9B68FC4601939F
:1056300008BD08DF015A0010E4060020000000D079
:10564000FFB550404240504059404B40594000E067
:10565000FFB5154F4C00640D03D0BC4204D10C03C0
:1056600014D80020090D09055C00640D03D0BC426C
:1056700004D11C030AD800221B0D1B0501264B4038
:1056800009D44B4003D58B4200D18242FFBD9942E1
:10569000FCD19042FFBD0B43DB1803431343F5D00D
:1056A000C9434918FFBD0000FF07000000B5FFF720
:1056B000CFFF804100BDC04600B5FFF7C9FF01D94B
:1056C000002000BD012000BD00B5FFF7B9FF01D9E2
:1056D000002000BD012000BD00B5FFF7B1FF8041F3
:1056E00000BD012040054A00121804D85A001218C3
:1056F00001D800207047012070470020704700004B
:105700000021002805D17047C1174840401AFAD03F
:10571000C90713B5064B1B6898470CBC441CA24034
:105720001005120B0349091B09051943114310BD4C
:10573000E40700201F04000010B54C00620D802318
:10574000D218DB00D21A5B057E2A10DD9E3A13DAEE
:10575000CC170903490819435242D140640001346F
:105760001532202A05DAD0400843604310BD0020DE
:1057700010BD0846604310BDC80FC018013810BDE9
:1057800018B4044B5B6AFC46019308BD24DF0D5D31
:1057900000100000E406002070B513231C78012CD3
:1057A00014D0012C14DC022C02DC1F4A1F4B9A641B
:1057B0001F48FFF771FC1F4B186070BD99001A4815
:1057C0001A4A885001331F2BF8D9EAE70023FAE779
:1057D0001948FFF769FC05001848FFF765FC023817
:1057E00003789B007F2B19DD802229000F4800F0F1
:1057F00091FB022CD7D1124B1A88B5231B029A4277
:1058000009D1104B1A88104B9A4204D10F4B1A88B9
:105810000F4B9A42C7D00020FDF7B4FF0D4B0E4A44
:1058200032210E48FDF714FF61580010E4060020F5
:105830004C330000E40700205344000053460000AE
:1058400054380000D8380000494600009C38000059
:1058500059460000107B0010C47B0010707B0010C4
:1058600007B56046002800D100BE01880A0A023050
:10587000DF2AFAD1C9B2820804D302884088000422
:10588000104300E00068024A5050039007BD00003A
:10589000E40600200FB403BC0CBCF0B50124E407FF
:1058A000634000E0F0B50C0DCF0F661E3605891B76
:1058B000640503D3C943404200D30131640D03D0D2
:1058C000661CF60A07D0E41B00207F00791C8907BC
:1058D0008912803C24031D0DDF0F6E1E36059B1BB5
:1058E0006D0503D3DB43524200D301336D0D03D06A
:1058F0006E1CF60A07D0ED1B00227F007B1C9B0765
:105900009B12803D2D032F1B661B58D4A446202ECE
:1059100046DA20371400BC401D00BD40F240334140
:105920002A4380185941CB0F05D0C943C0430022F8
:1059300064425041514162464D0D28D10D0D07D1B1
:1059400000281FD0241940414941013A0D0DF9D0DA
:10595000640006D3013000D30131002C01D140088E
:105960004000013A0BD4941CE40A04D112051144FE
:10597000DB071944F0BDD907204B194300E0D907D4
:105980000020F0BD0029DDD1002CDBD1F0BD0132BB
:10599000C6074008CD0728434908002EE1D0D9E7C3
:1059A0003C2E29DA203E40371400BC4000D00124B0
:1059B000F24014431A00BB401C43D317ACE7AC467B
:1059C000202F08DA20360400B4400D00B540F8401E
:1059D00039412843A5E73C2F0CDA203F403604002C
:1059E000B44000D00124F84004430800B1400C4307
:1059F000C117EAE710001900002494E70000F07FC7
:105A0000F0B50C0D661E3605891BE60A6405640DAB
:105A100002D0651CED0A04D0002001210905803C5C
:105A20002403A4461C0D671E3F05DB1BE70A640523
:105A3000640D02D0651CED0A04D0002201231B0571
:105A4000803C24037740644497B484B296B2744394
:105A5000070C7E43150C6F4380B26843361802D39F
:105A6000012000043F183004350C00197D418446A4
:105A700088B29AB250430C0C62431F0C7C438EB226
:105A80007E43921902D301263604A4191604170C7A
:105A90003618674101BC81B29AB25143040C62438B
:105AA0001B0C5C4380B25843121802D3012000043F
:105AB00024181004130C401863412D185E41002077
:105AC000474106BC88B293B258430C0C6343120C96
:105AD000544389B251435B1802D30121090464186D
