:020000041000EA
:1000000000B5324B212058609868022188439860DF
:10001000D860186158612E4B002199600221596106
:100020000121F02299502B49196001219960352056
:1000300000F044F80222904214D00621196600F024
:1000400034F8196E01211966002018661A6600F04E
:100050002CF8196E196E196E052000F02FF8012189
:100060000842F9D1002199601B49196000215960AB
:100070001A491B48016001219960EB211966A021F2
:10008000196600F012F800219960164914480160C1
:100090000121996001BC002800D000471248134993
:1000A000086003C880F30888084703B5996A0420EC
:1000B0000142FBD001200142F8D103BD02B5186610
:1000C0001866FFF7F2FF186E186E02BD00000240BE
:1000D000000000180000070000035F00212200005C
:1000E000F4000018222000A00001001008ED00E03C
:1000F00000000000000000000000000074B24E7A12
:1001000000200420F7010010C3010010C5010010F9
:10011000C1010010C1010010C1010010C101001097
:10012000C1010010C1010010C1010010C701001081
:10013000C1010010C1010010C9010010CB01001065
:10014000CD010010CD010010CD010010CD01001037
:10015000CD010010CD010010CD010010CD01001027
:10016000CD010010CD010010CD010010CD01001017
:10017000CD010010CD010010CD010010CD01001007
:10018000CD010010CD010010CD010010CD010010F7
:10019000CD010010CD010010CD010010CD010010E7
:1001A000CD010010CD010010CD010010CD010010D7
:1001B000CD010010CD010010CD010010CD010010C7
:1001C00000BE00BE00BE00BE00BE00BE00F04BF888
:1001D000103800BEF2EB8871CC920010F49200103F
:1001E0003402001090A31AE700202149086006C8D5
:1001F00081F3088810471F48006800282FD10DA4FC
:100200000ECC002902D000F012F8F9E71A491B4A77
:10021000002000E001C19142FCD1194988471949E9
:1002200088471949884700BEFDE701C901C29A42C3
:10023000FBD37047F4920010C00000208002002021
:10024000B49400100000042000000420B4940010B6
:1002500000100420001004200000000070470B482C
:1002600002F0F2FE0047EFF30580C0B270470000D5
:1002700008ED00E0000000D08002002050060020C1
:10028000591600100D0300101516001057560000E7
:1002900006005250ABB36053349200100600525027
:1002A000861C030244920010060052505422A29D64
:1002B0004C92001005005250DE65F468B4940010B2
:1002C000F8B5C04610B5064C2378002B07D1054B76
:1002D000002B02D0044800E000BF0123237010BDB2
:1002E000800300200000000050430010044B10B5B4
:1002F000002B03D00349044800E000BF10BDC046F6
:1003000000000000840300205043001010B503F0EB
:1003100029FF114C200000F046F8D0231B065C6238
:1003200000221A61196909328A43DA6112E0A200D7
:100330000A4BD358D022120611694B401B051B0DE6
:10034000D3613220002100F0B5FD013480235B0130
:100350009C42ECDB0024F9E7FF0F00005043001043
:1003600010B58300084A944663441C6840226240EA
:10037000C02414408022520113431C60C000034B70
:100380009C466044416010BD04C0014000400140F3
:1003900010B501238340D022120693629361052198
:1003A000FFF7DEFF10BD70B50500002401E06D0809
:1003B00001341F2C05D8EB07F9D52000FFF7E8FF23
:1003C000F5E770BDEFF3108072B6034B1B68002B8E
:1003D000FBD0BFF35F8F70472C0100D0BFF35F8F5E
:1003E000024B00221A6080F3108870472C0100D065
:1003F000F8B506000C001500FFF7E4FFE308F71856
:10040000F15C07222240012393400B4205D1DBB26D
:100410000B433B70FFF7E2FFF8BD2100280001F01D
:1004200097F90000034B1B6802201840431E9841B7
:10043000C0B2704700C00640002307E0054A9A1882
:100440009200BFF35F8F0021116001331F2BF5D99C
:100450007047C04640000034054A1078431CDBB2A8
:100460001370172B02D9130010221A707047C04660
:10047000B001002070B504000D00062001F082FAE2
:10048000C000290002F034FEC60908D00E4B9E427F
:1004900017D87F23184001303500460800E00125B9
:1004A0006562A6622C34802080010443002323600F
:1004B000062001F067FA8000A901891902F018FEF0
:1004C00070BD0026014DEBE7FEFF0000FFFF0000BE
:1004D000002909D00A22064B9C46604443425841F9
:1004E0004000044BC252704780225200F3E7C046DE
:1004F0000080FCBF4406002070B505000C000620FB
:1005000001F040FA002829D0164B9D4227D08022C6
:10051000D203154B1A60154B1A60154B9B681100DE
:100520009943FAD100212800FFF7D2FF21002800CB
:10053000FFF7A0FF2C002C34E96A60224A406E21AC
:10054000114080225201224311600A4B2B63802309
:100550009B01234310221A600323AB6470BD8022E9
:100560001204D6E70080034000E0004000F00040A5
:1005700000C000400103000070B505000C00080039
:1005800000F00AFD200000F0EFFD0849200000F017
:100590002FFDFFF761FF064B9C46604480006860BA
:1005A0002C75A400034BE55070BDC046BD0800107B
:1005B000400000341C0400200A4B1A68EFF310813D
:1005C00072B61368002BFCD0BFF35F8F054B1B681E
:1005D000BFF35F8F00221A6081F3108840BF0020B4
:1005E000002170473006002010B5002922D0036892
:1005F0001B7B99421ED8174B9C46614409018368B6
:100600009C4661440C684968002A19D003681B7B2A
:100610009A4215D883680F488446624412019A189A
:1006200010685368020001208B4201D80ED00020D0
:10063000C0B210BD084B094A3B21094800F0EEFF4B
:10064000054B064A3B21064800F0E8FFA242EFD8DE
:10065000EDE7C046FFFFFF0FB48300106086001077
:100660006483001010B500291ED0037B99421BD86B
:100670004B005B18033B0468A4466344002919D06F
:10068000002A1DD0914221D0002A25D0047BA2420D
:1006900022D8046850008018033820188170197817
:1006A00000291FD11A7010BD104B114A6821114842
:1006B00000F0B4FF104B114A6F310E4800F0AEFF4E
:1006C0000F4B0E4A70210B4800F0A8FF0D4B0B4A50
:1006D0007121084800F0A2FF044B054A6821054833
:1006E00000F09CFF41701A70DDE7C046E8830010FF
:1006F000CC8600100484001064840010A8860010CA
:10070000708400107C84001070B506000D00140089
:10071000002914D0002A14D08068736898470028F4
:1007200006D0220029003000FFF79CFF280007E0D8
:100730002A0021003000FFF795FF200000E01000A4
:1007400070BD0800FCE70000F0B583B00500009222
:1007500001930AAB1C780BAB1F78002C26D00368E2
:100760005A7B944207D10123002B19D1002C3BD195
:10077000200003B0F0BD002C0CD01A7B944209D8A5
:100780001A6863001B19033BD3189B78002BEBD02E
:100790000123E9E73E4B3F4A68213F4800F03EFF16
:1007A0003E4B3F4A65213F4800F038FF03689C7B81
:1007B000002CDBD012D01A7B94420FD862001219A1
:1007C000033A19688C46624451789973002900D124
:1007D000D9730023937053701370C7E72C4B2D4AC5
:1007E00068212D4800F01AFF002C3AD02B681B7BA3
:1007F0009C4236D82C4BE3181B01AA6894466344EC
:10080000009A1A60019A5A60089A9A60099ADA6006
:100810002E68002C2BD030D0337B9C422DD8630027
:100820001B19033B32689446634400229A705A7045
:100830001A70717B22003000FFF766FF70738442EC
:1008400000D095E7287D009A019B00F019FC061E58
:1008500001D0002F17D00C9B002B00D188E71E7011
:1008600086E7124B124A3B210E4800F0D7FE114B8F
:10087000114AA521084800F0D1FE054B054A682120
:10088000054800F0CBFE2868210000F045FEE2E7B5
:10089000E8830010CC8600100484001094840010BB
:1008A000D886001064830010FFFFFF0FB483001090
:1008B0006086001060830010BC860010F0B5DE4634
:1008C00057464E464546E0B58BB009900023089345
:1008D0008200B24BD658370032E0B14BB14A3F21CB
:1008E000B14800F09BFEB14BB14A3B21B14800F04A
:1008F00095FEB14BB14A8C21AE4800F08FFEB04B53
:10090000AE4A9021AB4800F089FEA84BAD4A402189
:10091000A84800F083FE2A686B68099800F0B0FBD5
:1009200000239A4698467B68BFF35F8F00221A60C7
:1009300086F310884346002B51D1002800D126E1D0
:1009400000F036FB02000B1EC7DB002000210690E2
:1009500007917868EFF3108672B601680029FCD021
:10096000BFF35F8F396888464C7B002C32D0BAD0F9
:10097000097B8C42B7D8944965182D01B9688C461B
:10098000654428686968801A99410029C3DC01D14F
:100990000028C0D10021404600F0B4FDA042A8D1FB
:1009A0002A686B6806920793AB689846EB689A468C
:1009B0004346002BA3D0002CA7D03B681B7B9C4256
:1009C000A3D8631EFA68D35C08931B0218433861EE
:1009D0000020A8E700239A4698460020A3E7089B3A
:1009E0001B022343994651461800C04705000E00DC
:1009F0007A68EFF3108B72B6136859424B41D9B243
:100A0000002BF9D1BFF35F8F002E26DB002E52DDC5
:100A10003B69002B53D04B4572D100F0C9FA02005C
:100A20000B1E73DB0100180052197341984202D863
:100A300004D1914202D901225242D317002B6BDB21
:100A400000210491013103910294514601914146E4
:100A500000913800FFF778FE49E03B69002BD5D0C4
:100A60004B451CD1069A079B10001900521BB3413D
:100A7000994202D804D1904202D901225242D3179E
:100A8000002B12DB002104910131039102945146A5
:100A90000191414600913800FFF756FE27E04B4B8D
:100AA000464A9F21434800F0B9FD3D4B3D4A3F2156
:100AB0003D4800F0B3FD002E01D1002DA8D13A68C9
:100AC000002C45D0537B9C422CD1012100293FD1E1
:100AD000D37B002B42D1D473002C52D03B681B7BBC
:100AE0009C424ED8FA68013C135D01331355002334
:100AF0003B617A68BFF35F8F13608BF310881FE749
:100B0000324B2E4AA2212B4800F088FD244B254A67
:100B10003F21254800F082FD214B224A3F212248F7
:100B200000F07CFD002C0DD0137B9C420AD86300A2
:100B30001B19033B1068844663449B78002BC5D087
:100B40000121C3E7224B234A6821234800F066FDB8
:100B5000224B234AF621204800F060FD002B0AD0EA
:100B6000117B8B4207D85900CB18033B11688C4688
:100B700063445C70AFE7164B164A6821164800F0D4
:100B80004DFD0A4B0F4A40210A4800F047FD0BB0CB
:100B9000F0BCBB46B246A946A046F0BD1C040020EE
:100BA000BC8400102C860010D8840010B483001080
:100BB00060860010648300103485001044860010A5
:100BC0004C85001084860010FFFFFF0F5885001031
:100BD000E8830010CC860010048400109485001077
:100BE0009886001010B50A4B5B68002B04D00A21D0
:100BF000084800F0D9FA10BD054C2300064A102120
:100C0000206800F09FFB03212000FFF7B5FCEEE712
:100C1000B401002030060020E905001010B5064B95
:100C20005B68002B01D0044810BD044B044A5C21D2
:100C3000044800F0F3FCC046B4010020B885001061
:100C40006C86001064830010F0B5DE4657464E46B1
:100C50004546E0B58BB0804616001F00149B9A46AF
:100C6000159B994616AB1B789B461F2302AA9446F8
:100C7000634400221A7032E0002809D0424612680C
:100C8000127B904204D8421E4146C9688A5C48E003
:100C9000434B444A4021444800F0C0FC0798002BD5
:100CA00075D05B46002B72D04946D04704000D003A
:100CB00003000B4300D171E0002946DB00F078F916
:100CC00006000F1E55DB36196F41B94202D804D118
:100CD000B04202D901267642F717002F4FDB434678
:100CE0005A68EFF3108472B6136859424B41D9B277
:100CF0000791002BF8D1BFF35F8F1F3302AA9446F0
:100D0000634404930023039302934B460193534699
:100D1000009332003B004046FFF716FD031EABD1A7
:100D2000020041464968BFF35F8F00250D6084F3E0
:100D30001088002B29D01F2302A98C4663441B78FE
:100D4000002BABD112021043A9E732003B00361B47
:100D5000AF41BB4202D804D1B24202D90126764249
:100D6000F717002FBBDA114B114A3F21114800F051
:100D700055FC0E4B0E4A3F210E4800F04FFC0B4B2A
:100D80000B4A3F210B4800F049FC012040420BB0C8
:100D9000F0BCBB46B246A946A046F0BD0798F6E7B0
:100DA000B48300108486001064830010BC8400109B
:100DB0002C860010D8840010F0B587B006000F0014
:100DC000FFF751FA00281FD106246442E517A41941
:100DD0007D41BD4202D803D1B44201D9002400258F
:100DE000002D14DB0494059500F0E2F802000B1EC0
:100DF00013DBA41A9D41002D17DC14D030003900FC
:100E000000F0E2F807B0F0BD234800F0A1FC234B4E
:100E1000234A3F21234800F001FC204B204A3F2178
:100E2000204800F0FBFB002CE8D0FFF7F7FE002382
:100E3000029301931C4B0093049A059BFFF704FF58
:100E4000002818DADAE7002300E00023002BD5D1D0
:100E5000164B1A68EFF3108172B61368002BFCD0A2
:100E6000BFF35F8F114B1B68BFF35F8F00221A60C7
:100E700081F3108820BF0499059A0D4B5B6A9A4252
:100E8000E3D80B48806A884203D29A42DBD0012320
:100E9000DCE70123DAE7C046DC850010BC840010E3
:100EA0002C860010D8840010B905001030060020F0
:100EB00000400540F8B504000D0000F079F802008C
:100EC0000B1E10DB20002900801859418B4202D8EC
:100ED00004D1824202D901204042C117002908DB17
:100EE000FFF76AFFF8BD064B064A3F21064800F0AF
:100EF00095FB034B034A3F21034800F08FFBC0469C
:100F0000BC8400102C860010D884001070B5EFF35C
:100F100005833F2018401038EFF3108C72B6194B40
:100F20001B68002BFBD0BFF35F8F012319008140AA
:100F3000154A5163154A12781400C440234214D054
:100F4000114B5C6A8300124D5B599C4206D38300AF
:100F5000104C1B598A430D490A7007E00A4A031DC9
:100F60009B0099589950002300E00023BFF35F8F46
:100F7000044A002111608CF31088002B00D09847A0
:100F800070BDC046280100D0004005404E0600203C
:100F9000340600209C03002010B50100024A0348DB
:100FA000FFF726FA10BDC046F08600104C06002060
:100FB000044B5B6A034A906A1900536A9942F9D15B
:100FC0007047C04600400540084B5B6A01E0074B94
:100FD0005B6A8B42FBD301E0044B5B6A8B4203D11B
:100FE000024B9B6A8342F7D37047C04600400540DE
:100FF00070B504000D00EFF3108672B61B4B1B6832
:10100000002BFBD0BFF35F8F002D1CD0200000F021
:101010003BFD174B83420BD01900200000F03CFD34
:101020000121200000F028FD0123A340114A136094
:10103000A400114BE550BFF35F8F0C4B00221A60E8
:1010400086F3108870BDA2000B4B0021D150012205
:10105000A2400A490B7893430B700549200000F029
:1010600045FD0021200000F007FDE4E7280100D045
:101070000D0F0010386005409C0300204E06002034
:10108000F0B5DE4600B584B00400150001921E00E4
:101090000293FFF78DFF03958E4202D84ED1854211
:1010A0004CD9EFF3108B72B6274B1B68002BFBD08B
:1010B000BFF35F8F254A17780125A540EBB23B436C
:1010C0001370234B5D63221D92000199D150A20041
:1010D0002049029850501B6A2B4212D11C4B1B6CAA
:1010E0002B4208D00020BFF35F8F174B00221A60FD
:1010F0008BF3108823E0184B184AC121184800F0E0
:101100008DFAFFF755FF8E4214D802D1039B83421C
:1011100010D80E4B1B78BB420ED00D4B1D625D6389
:101120001F2004400123A3400E4A1360074B1F7089
:101130001E38D8E70020D6E70120D4E7012004B00C
:1011400080BCBB46F0BDC046280100D04E06002042
:1011500000400540340600201487001090870010DE
:101160003887001080E200E0EFF3108C72B60B4B72
:101170001B68002BFBD0BFF35F8F01238340084A1D
:10118000136208490A789A430A70BFF35F8F034BD2
:1011900000221A608CF310887047C046280100D0E6
:1011A000004005404E060020024B9C4661448900E9
:1011B000016070474000003410B50400FFF74CF99F
:1011C00001002000FFF7F0FFFF232371BFF35F8FC3
:1011D00010BD10B50400FFF73FF901002000FFF734
:1011E000E3FFFF23237100236371BFF35F8F10BD03
:1011F00010B500291ED0037B99421BD84B005B1809
:10120000033B0468A4466344002919D0002A1DD07A
:10121000914221D0002A25D0047BA24222D8046822
:1012200050008018033820188170197800291FD1C8
:101230001A7010BD104B114A6821114800F0EEF9E8
:10124000104B114A6F310E4800F0E8F90F4B0E4A6F
:1012500070210B4800F0E2F90D4B0B4A7121084850
:1012600000F0DCF9044B054A6821054800F0D6F986
:1012700041701A70DDE7C046E883001068890010ED
:1012800004840010648400105489001070840010DD
:101290007C84001070B506000D001400002914D0E5
:1012A000002A14D0806873689847002806D022006E
:1012B00029003000FFF79CFF280007E02A002100EA
:1012C0003000FFF795FF200000E0100070BD08001F
:1012D000FCE7000010B50023437301338373037BE5
:1012E000C3730123027B9A4214D9002B0CD0027BDA
:1012F000934209D85A00D218033A01688C466244D6
:101300000133DBB25370EDE70B4B0C4A68210C48FC
:1013100000F084F9002A09D0924207D801685300EE
:101320009A18033A8A180023537010BD024B034ADF
:101330006821034800F072F9E88300106889001002
:101340000484001010B5017342608360FFF7C2FF90
:1013500010BD000070B50400081E00D170BD00294A
:1013600034D0237B994231D84B005B18033B226871
:10137000944663445A78002AF0D02DD0237B9A42B9
:101380002AD853009B18033B21688C4663445D7840
:1013900000215970002825D0237B984222D8430091
:1013A0001B18033B21688C466344002159700100DF
:1013B0002000FFF76FFF060029002000FFF7CAFF9B
:1013C000020031002000FFF765FFC7E7084B094A1C
:1013D0006821094800F022F9054B064A68210648B1
:1013E00000F01CF9024B034A6821034800F016F98B
:1013F000E8830010688900100484001070B50500AF
:101400000C001600002928D02DD0037B99422AD841
:101410004B005B18033B0268944663445A78002AE9
:1014200027D19A78002A2AD11978FFF793FF030071
:10143000002E03D0EA7B002A27D1EC73002B37D192
:10144000002C49D02B7B9C4246D82B6861000C199C
:10145000033C1C190023637070BD224B224A3821C3
:10146000224800F0DBF8224B224A6821224800F093
:10147000D5F8224B1C4A3A211C4800F0CFF8204BEB
:10148000194A3B21194800F0C9F8002A0AD0297BE3
:101490008A4207D851008A18033A29688C46624468
:1014A0005470CAE7124B134A6821134800F0B6F88B
:1014B000002B0BD02A7B934208D843001B18033B18
:1014C0002A689446634400229A70B9E7084B094A97
:1014D0006821094800F0A2F8054B064A6821064831
:1014E00000F09CF85C8800104089001064880010AF
:1014F000E88300106889001004840010B48800108C
:10150000DC88001070B504000A00457B2900FFF755
:1015100075FF6073280070BD70B50400002967D0A6
:10152000437B8B420ED0002911D0037B99420ED809
:101530004B005B18033B0268D0188378002B0CD15A
:10154000002056E00121FFF7DDFF012051E0294B8B
:10155000294A6821294800F061F8002B20D0227B1D
:1015600093421DD85A00D318033B2268D21825682D
:10157000EB5C8B421AD0002B1BD0227B934218D8F5
:101580005A00D318033B2268D21853788B4216D0E6
:10159000002BF0D11A4B1B4A67211B4800F03EF884
:1015A000144B154A6821154800F038F84378137039
:1015B00007E0104B104A6821104800F02FF84378DC
:1015C000537000238370437001222000FFF716FF41
:1015D0000200617B814205D02000FFF75BFE607353
:1015E000012006E0094B074A6D21074800F016F874
:1015F000002070BDE883001068890010048400108A
:1016000000890010288900106488001008890010E3
:1016100000BEFDE710B5FFF7FBFF000010B582B07C
:101620000C001900002A0CD0084B002A0BD00192A4
:10163000009323000200064802F088FD0120FFF716
:10164000E7FF044BF1E7034AF1E7C0467489001055
:10165000848900108089001070B52B4B2B4A1A60CA
:101660002B4B2C4A1A602C4B9A682A4B9343FAD185
:101670002A4C01E008CC9847294B9C42FAD300F051
:1016800001F9234B274A1A60234B9B68DB43DB019C
:10169000FAD1254B40229A675A671A67DA66234CBB
:1016A00009E0234B234A83212348FFF7B7FF20009B
:1016B000FFF782FD0834214B9C4209D22368002B9E
:1016C000F5D0012BEDD12000FFF783FD0834F2E7C0
:1016D0001B4CA1681B4DC022280002F0F3FBA56043
:1016E000FEF7C1FD002800D000BEFEF7A5FE00F009
:1016F00049FBFFF777FA144C01E008CC9847134BED
:101700009C42FAD370BDC04600E00040BFCDFBFE56
:1017100000F00040FE7F3C0000C000406C02002052
:101720007C020020FFFFFF0100F001406402002066
:10173000B4890010408A0010D48900106C02002087
:1017400000ED00E0000000207C020020800200206C
:101750000FB400B583B0084802F0C6FC049B002B10
:1017600007D005A90191180002F0CEFC034802F051
:10177000BBFC0120FFF74CFF2C8A00103C8A0010B4
:10178000F8B5DE4657464E464546E0B505000F0023
:1017900092460A9A93424ED31A0E91461E020A9A14
:1017A00000233000494601F0E5FC80466C006419D6
:1017B000A4002F4B9C4664446368834200D260605F
:1017C0002B1FDBB29B46012B3BD9C0239B0123433C
:1017D000802212011A60AB00264A9958002905D0D0
:1017E000506901F085FC01300138FDD153465A01A2
:1017F00023685A40E0231A4080235B0123431A6088
:101800005A46012A28D980239B01234380221201B2
:101810001A6043466360424600233000494601F0A7
:10182000A9FCAD00134B58510120F0BCBB46B24699
:10183000A946A046F8BD104B104A2D211048FFF7CD
:10184000EDFE012FC1D1C0239B01234303221A6067
:10185000A368DB07FCD5C9E72168794003220A4069
:101860001A60A2680123BB401342FAD0CBE7C046FE
:1018700000800040AC030020508A0010C08A001095
:10188000648A001030B583B00C2000F019FBFEF71D
:10189000C9FD00280DD0002304E099002D4A2E48F0
:1018A00088500133092BF8D92A4B2C4A5A6203B0CD
:1018B00030BD2B4B00229A6700F00AFB294B012216
:1018C0001A60274B5B6C012BFBD1274B03221A605C
:1018D000234B9B6B012BFBD1022400940533234A3D
:1018E0000121234800F05CFA00940523214A0121DC
:1018F000214800F055FA214B0093002202210420D8
:10190000FFF73EFF1E4D00952B0000220121052010
:10191000FFF736FF104C009423000022002107201F
:10192000FFF72EFF00942300002200210820FFF77C
:1019300027FF0A4B00932300002200210920FFF714
:101940001FFF00952B00002200210620FFF718FF43
:10195000ADE7C046AC030020006CDC021BB7000002
:10196000008000403CB0004030B00040002F68597B
:101970000080024000389C1C00C00240001BB700E1
:10198000405973078000014BC0587047AC030020DA
:10199000074B9B68103080001950BFF35F8FBFF377
:1019A0005F8F044B0021196082F310887047C04696
:1019B00000ED00E0240100D010B5091A081F0A4B01
:1019C0009C466144094A914208D8C30706D4401096
:1019D0004005400D064B184380B210BD054B064A2A
:1019E0008B210648FFF71AFEFC070000FE0F0000DF
:1019F00000E0FFFFD08A0010208D0010008B001047
:101A000010B5091A04394C08090B08D14905490DCC
:101A1000064A11430180064B2343438010BD054B0A
:101A2000054A93210548FFF7F9FDC04600F0FFFF86
:101A300000F8FFFF548B0010F48C0010008B001096
:101A400001238340034A10681840431E9841C0B2E6
:101A50007047C04600E100E0002904D0034B186045
:101A6000034B18607047034B1860FBE780E200E00F
:101A700000E100E080E100E010B5012383401800A0
:101A8000FFF7EAFF10BD0000024B9B68103080009A
:101A9000C058704700ED00E070B504000D00EFF392
:101AA000108672B60C4B1B68002BFBD0BFF35F8F08
:101AB0002000FFF7E9FF094B984201D0A84205D169
:101AC000320029002000FFF763FF70BD044B054A78
:101AD0006E210548FFF7A2FD240100D0CD010010C2
:101AE000648B00103C8D0010008B0010F0B5CE46CA
:101AF000474680B583B006000D00EFF3108872B63C
:101B0000564B1B68002BFBD0BFF35F8F544B9A687A
:101B100034001034A300D758524B9F4207D0AF4235
:101B200000D199E00197504BFB1A2F2B09D942465F
:101B300039003000FFF72CFF03B0C0BCB946B046F7
:101B4000F0BD3000FFF77CFF814600213000FFF739
:101B500093FFBFF35F8FFEF786FB002801D084421E
:101B600011D10123019C9C430022A368AB4212D0F7
:101B70000622A256002A0DDB53009B189B00220070
:101B8000394CE418F1E71E21384B394AFF31394806
:101B9000FFF744FD2200AB4257D106256557002DC3
:101BA00039DB6B005B199A002F4B9B189A68A26077
:101BB000DA79E27106229A56A2719B795BB2002B08
:101BC00010DABD200002A0806B005B199B00264A42
:101BD000D318294A11789971157049463000FFF7DA
:101BE0004BFFA4E7201D6B005B199B001E4A9B184E
:101BF0001A1D9B88D90A1C2907D15B055B15023386
:101C000059005118FFF7D8FEDDE71C4B1C4A9921FB
:101C10001848FFF703FD002812D1002A0ED0FF2339
:101C20009371184B9380144A1378A371164B0E4985
:101C3000641A644163431B0D1370CEE7094FF2E74A
:101C4000201D1249FFF7DCFEC7E75221104B084A5E
:101C5000FF310848FFF7E2FC024F68E7240100D09B
:101C600000ED00E0CD010010DC010020788C0010B8
:101C70000C8D0010008B00104D060020608C0010B1
:101C80002C8D001000BDFFFFAAAA00001602002044
:101C90009C8C001070B50400012606432D4BF31AEE
:101CA0002F2B28D8FEF7DFFA00282BD0EFF3108C6B
:101CB00072B6294B1B68002BFBD0BFF35F8F274DFB
:101CC00022002449521A524155432D0D6DB2244B26
:101CD0009B6880001B58B3421BD00022032A32D8D5
:101CE00053009B189B001B49CB189B795BB2AB42FE
:101CF0001FD00132F2E7BB211A4B1B4A49001B4897
:101D0000FFF78CFC7A211A4B174AFF311748FFF76F
:101D100085FC134B9B68174A1A50174B1A78A2710F
:101D20001D70BFF35F8F0C4B00221A608CF310887C
:101D300070BD08005300991889004118FF268E7164
:101D40000E4A8A80E9E7C5210D4B074A490007483A
:101D5000FFF764FCDC010020240100D0AAAA0000E7
:101D600000ED00E0A48C0010D88C0010008B001057
:101D7000CC8C0010CD0100104D06002000BDFFFFEF
:101D8000008900100022044B02E0044902C3013222
:101D9000072AFAD97047C04600E400E080808080BE
:101DA000F0B5CE4600B504000F0091461D000C2092
:101DB00001F09EF9060043011B1A9901C91AC900D6
:101DC00009188901484601F093F90200103A982356
:101DD0005B009A4233D86B1E062B36D8069B013B1C
:101DE000062B32D8069B9D4235D34B461A09B24288
:101DF00037D32D04069B1E0335432368002B36DBA7
:101E0000254B9C4244D080225201244B1A60244B23
:101E10001A60244B9B6811009943FAD12760A06097
:101E2000231DC02292011A43212313602368002B33
:101E3000FCDAE5600823136080BCB946F0BD1A4B9C
:101E40001A4A16211A48FFF7E9FB1A4B174A1921BB
:101E50001748FFF7E3FB184B144A1F211448FFF7FC
:101E6000DDFB164B114A22211148FFF7D7FB2268F0
:101E70003F231340BB42C3D1A3681B051B0D834204
:101E8000BED1E368EE22D2021340AB42B8D1D3E711
:101E900080229201B9E7C04600C0024000E0004045
:101EA00000F0004000C00040588D0010488E001027
:101EB000748D0010C88D0010148E00102C8E001030
:101EC00080239B000343014AD36270470080054092
:101ED000064BAA2212011A602F22DA60044B054A2F
:101EE0001A60024B5B68002BFBDA7047004002402F
:101EF0000060024000B0FA00704710B5002802D020
:101F00000B684968984710BD0100002007E0830076
:101F10001B185B00501C08601078C01830380A6825
:101F20001378303BDBB2092BF1D97047F0B5DE46B0
:101F300057464E464546E0B583B093461F000C9B7E
:101F40009A460D9C0E9B99460F9B9B0703D0B84663
:101F50000F00060022E00192A34688464E46B9468D
:101F60000700B44207D2551C4B4641462020B847D3
:101F700001342A00F5E73D004F465C46019B9B4635
:101F8000B1464646B84637002E0007E0013C551CD6
:101F90005346185D43463900B0472A00002CF5D15E
:101FA00035003E0047460F9B9B0707D4100003B047
:101FB000F0BCBB46B246A946A046F0BDB0464E4670
:101FC000B9462F005D46531BB342EFD2541C4B461B
:101FD00041462020B8472200F5E7F0B5CE464746F7
:101FE00080B585B0944698460C9D0D9C0EAB1B7831
:101FF0009946109A119B129EB7071CD4002B0CD047
:10200000F7070AD54F46002F02D10C37374204D0CC
:10201000013B02E030272F550134944201D21F2C9E
:10202000F8D9F70707D59C4205D21F2C03D83027D3
:102030002F550134F5E7F70615D5770505D4002CA3
:1020400003D0944224D09C4222D00F9A102A2BD045
:102050000F9A102A30D00F9A022A35D01F2C02D89E
:1020600030222A5501341F2C05D84A46002A31D087
:102070002D222A550134039602930194009543467C
:102080006246FFF753FF05B0C0BCB946B046F0BD8D
:10209000621E012C06D00F9F102F01D01400D4E730
:1020A000023CD2E71400D0E7B206D1D41F2CCFD81F
:1020B00078222A550134D1E7B206CCD51F2CCAD8D4
:1020C00058222A550134C9E71F2CC7D860322A5537
:1020D0000134C3E7720703D52B222A550134CAE71E
:1020E0003207C8D520222A550134C4E7F0B5DE46B0
:1020F00057464E464546E0B593B081468A4608921B
:1021000009931CAB10CB1B789B461E9D219B9846C8
:10211000002C03D1102342469A4390468023DB00D3
:1021200046461E4042461A4212D0002C22D00026BB
:102130000EE03033D9B2771C0AAB99552900200044
:1021400000F0D6FFAC4216D31F2F14D83E00040077
:102150002900200000F0CCFFCBB2092BE9D9424680
:10216000920605D54121C918C9B20A39C9B2E2E7B8
:102170006121F8E7270043460693209B05931F9BA8
:10218000049303955B46029301970AAB0093099B66
:10219000089A51464846FFF720FF13B0F0BCBB46F3
:1021A000B246A946A046F0BDF0B5DE4657464E46BB
:1021B0004546E0B595B0089009910A920B931E9E92
:1021C0001F9C20AB1B789B46229B9946239D269BF8
:1021D0009A463300234303D1103352469A43924622
:1021E0008023DB0057461F4052461A4219D0330065
:1021F00023432DD0002714E03033DAB27B1C9846FD
:102200000CABDA554A462B003000210000F0B2FF3B
:10221000A5421FD819D043461F2B1BD8474606009E
:102220000C004A462B003000210000F0A3FFD3B27F
:10223000092BE1D95246920605D54122D218D2B2D5
:102240000A3AD2B2DAE76122F8E7B145E3D901E010
:102250000023984653460693259B0593249B04939D
:102260004B4603935B460293434601930CAB0093AA
:102270000B9B0A9A09990898FFF7AFFE15B0F0BCBE
:10228000BB46B246A946A046F0BD0000F0B5DE460A
:1022900057464E464546E0B591B083468A460C9275
:1022A00098461A9C08941B9D099522002B0020003B
:1022B000290001F0EEF9002800D0E5E001225242A9
:1022C000D74B2000290001F0DFF9002800D0DBE027
:1022D00001225242D34B2000290001F0BFF900280F
:1022E00000D0D1E000220023089E3000099D290083
:1022F00001F0B4F9002800D0DDE0089809990690B3
:1023000007918023DB001E9A1A400D921E9A1A42F2
:1023100001D106231C930698079904000D000A00BA
:102320000600024300D1D1E0080D4005400DBE4C2F
:10233000A44660440A03120BBC4B13431F0001F078
:10234000BBF9BB4ABB4B01F046F9BB4ABB4B01F0A2
:102350001BF904000D000022B94B3000390001F0D8
:102360000AF9B84AB84B01F036F902000B00200018
:10237000290001F009F901F0B7F9814601F09CF953
:1023800004000D00B14AB24B01F025F90022B14B17
:1023900001F0FAF801F0A8F90600AF4AAF4B2000AF
:1023A000290001F018F904000D00300001F084F953
:1023B000AB4AAC4B01F00FF902000B0020002900E2
:1023C00001F0D9F804000D0002000B0001F003F940
:1023D0000A900B91A44BF31800261F0522002B0036
:1023E0002000290001F0D0F80E900F9122002B0060
:1023F00000208021C90501F0BEF804000D00002274
:102400009A4B0A980B9901F0C8F80022984B01F0FA
:10241000BBF802000B000A980B9901F0BEF80022ED
:10242000944B01F0B1F802000B000A980B9901F0EF
:10243000B4F802000B002000290001F0A5F802000A
:102440000B000E980F9901F0A8F80022774B01F0CD
:102450009BF832003B0001F0BEF806000F000400BC
:102460000D00069A079B01F00FF9002830D00123D8
:102470005B429C46E14400227D4B3000390001F074
:102480008CF804000D0023E01E9B04931D9B039316
:102490001C9B0293089A099B0092019343460C9A55
:1024A0005146584600F0FCF811B0F0BCBB46B246AD
:1024B000A946A046F0BD0023002406930794069683
:1024C00080231B069C46654407951AE7002399461E
:1024D0004B466333C62B1ED804261E9B1B0526D5F0
:1024E0002B0023430FD0644A644B0698079901F0F0
:1024F000C3F8002879D00022614B0698079901F0B3
:10250000ADF8002871D01C9B4B4506DD4A46981A51
:10251000431E1C9303E00526DFE700231C93802362
:10252000DB001E9A1A431E920026002399461D9B2B
:102530009E4264D29F1B02231E9A1A400A921E9A40
:10254000134202D0002E00D000274B46002B07D0AC
:1025500022002B000698079901F01FF806900791BA
:10256000002200230898099901F078F8002848D142
:10257000444B1E9A1340049303971C9B0293069BA3
:10258000079C0093019443460C9A5146584600F02C
:1025900087F8002E00D187E71E9B9B063DD5452579
:1025A000441C4346020051462800D8474B46DA17E0
:1025B0009B18534005220592013E04960022039287
:1025C0000A3202924A46D00F0190009343462200FD
:1025D00051465846FFF78AFD0A9B002B00D163E75E
:1025E00002005F460C9E1D9D54E01C9B002B9ED05C
:1025F0000D9B002B9BD01C9B013B1C9397E7002756
:1026000099E7069C079D2200290080200006844649
:1026100061440B0006920793AAE76525C0E7C04610
:10262000FFFFEF7FFFFFEFFF01FCFFFF0000F03F28
:10263000FB799F501344D33FB3C8608B288AC63FB1
:102640000000F83F61436F63A787D23F71A3790908
:102650004F930A400000E03F1655B5BBB16B0240F6
:10266000EF39FAFE422EE63FFF03000000002C4047
:1026700000002440000018402D431CEBE2361A3FB6
:1026800080842E41FFF7FFFF541C43465146202013
:10269000B8472200931BAB42F6D3100004E7C046B4
:1026A000F0B5DE4657464E464546E0B595B0069035
:1026B000079193469946209F1E9A1F9B1000190070
:1026C00000F0E7FF002831D101225242BF4B1E9893
:1026D0001F9900F0C3FF002837D101225242BC4BA2
:1026E0001E981F9900F0D0FF00283DD10022B94B61
:1026F0001E981F9900F0C8FF002850D10022B64B49
:102700001E981F9900F0AAFF002848D1002200233C
:102710001E981F9900F0A2FF002850D10023984670
:10272000229B5B0500D4B6E0002458E0229B039373
:10273000219B029303230193A84B00934B465A46D7
:1027400007990698FFF7F2FB0EE1229B0393219B6A
:10275000029304230193A24B00934B465A460799D8
:102760000698FFF7E3FBFFE00423229A1A40229920
:102770000B4210D09B4B002A0FD0042222990391C8
:1027800021990291019200934B465A460799069867
:10279000FFF7CCFBE8E0944BEDE70322EEE7229B4A
:1027A0000493219B039302971E9B1F9C009301940B
:1027B0004B465A4607990698FFF768FDD4E01E9AE3
:1027C0001F9B0020002100F0D6FE1E901F910123C8
:1027D0009846A5E70CAB30221A55013F01341F2C57
:1027E00001D8092FF6D81E981F9900F07DFF05002B
:1027F00000F062FF02000B001E981F9900F0BBFE64
:10280000FA007A4B9B181A685B680A920B9300F0E7
:10281000E2FE0890099100F08BFF060000F048FFEF
:1028200002000B000898099900F0A5FE0890099194
:1028300000226F4B00F028FF00282ED00136300018
:1028400000F036FF02000B000A980B9900F00CFF15
:10285000002801D001350026002F2CD1280000F0DF
:102860002BFF02000B001E981F9900F084FE06004B
:102870000F0000225E4B00F0F1FE002846D100223E
:102880005B4B3000390000F0FFFE00283ED1EB0723
:102890003CD501353AE0062746E70022544B08981C
:1028A000099900F0DBFE0028D6D1002E01D0F307F5
:1028B000D2D50136D0E7AA461F2C11D8013F0A21F4
:1028C000300000F015FC651C30310CAB19550A21A5
:1028D000300000F00DFC092E0ED906002C00EBE7AD
:1028E00055461F2C0CD87B1E002F09D00CAA302176
:1028F00011551F000134F4E72B0055461C00F0E78A
:102900001F2C03D80CAB2E221A5501341F2C10D8C3
:102910000A21280000F0C4FB661C30310CAB1955AD
:102920000A21280000F0BCFB051E01D03400EDE7B1
:1029300034000323229A1340012B1CD01F2C06D8ED
:102940004346002B32D00CAB2D221A550134229B6A
:102950000393219B029301940CAB00934B465A4680
:1029600007990698FFF7E2FA15B0F0BCBB46B246ED
:10297000A946A046F0BD219B002B13D04346002B57
:1029800002D10C3313420FD0219B013B219319003C
:1029900003E00CAB30221A5501348C42CED21F2CEE
:1029A000F7D9CBE72199F8E72199F6E7229B5B0756
:1029B00004D50CAB2B221A550134C8E7229B1B0708
:1029C000C5D50CAB20221A550134C0E7FFFFEFFF3D
:1029D000FFFFEF7F65CDCD4165CDCDC1608E00108D
:1029E000648E0010588E0010548E0010509000100D
:1029F0000000E03FF0B5DE4657464E464546E0B59E
:102A000093B082468B4690461193002900D1EBE2A9
:102A100000275546119B1878002800D1E7E22528A9
:102A200009D07C1C43463A005946A847119B013304
:102A300011932700EEE7013311930024119A1178C6
:102A40000B00203BD8B2102803D88300D048C358CD
:102A50009F460B00303BDBB2092B2CD92A292FD003
:102A600000230A93119B1A782E2A39D000239A4604
:102A7000119A1378683BD9B2122976D88B00C549D0
:102A8000CB589F4601231C4301321192D6E7022303
:102A90001C4301321192D1E704231C4301321192ED
:102AA000CCE708231C4301321192C7E710231C43D3
:102AB00001321192C2E711A8FFF726FA0A90D1E776
:102AC0001C9B1A1D1C921868002804DB0A90119B9D
:102AD00001331193C6E702231C4343420A93F6E7EE
:102AE0008022D20014435A1C11925A781300303BB2
:102AF000DBB2092B04D92A2A07D000239A46B7E76C
:102B000011A8FFF701FA8246B2E71C9B1A1D1C921E
:102B10001868002804DB8246119B01331193A7E754
:102B20000020F8E780235B002343511C1191527869
:102B30006C2A01D01C0018E0C0239B001C4301310B
:102B4000119112E080232343511C11915278682A7D
:102B500001D01C0009E0C0231C430131119104E0A5
:102B600080235B001C4301321192119B18780300F3
:102B7000253BDAB2532A00D92CE29300864AD35877
:102B80009F4680239B001C4301321192EDE7802376
:102B90005B001C4301321192E7E7782809D05828DE
:102BA00038D06F2838D0622838D010239C430A26AA
:102BB00000E01026582833D0692803D0642801D0BB
:102BC0000C229443630501D50122944369282AD03D
:102BD000642828D0A30500D59FE0E30500D5B8E020
:102BE000630600D4CAE01C9A111D1C911168FF22D3
:102BF0000A4005940A9B04935346039302960023CC
:102C00000193009243463A0059462800FFF76EFAB6
:102C1000070027E01026CDE70826CBE70226C9E704
:102C200020221443C8E7A30520D4E30550D463064B
:102C300066D51C9A111D1C911168FF220A40D317FA
:102C4000D118594005940A9B049353460393029666
:102C5000D20F0192009143463A0059462800FFF7EF
:102C600045FA0700119B01331193D3E61C9BDA1D33
:102C700007218A43110008311C91116853689C4652
:102C8000DB170C930D930C9A0D9B100048400E908F
:102C9000624653400F930E980F990C9A0D9B801A21
:102CA00099410E900F9108940A9B079353460693FF
:102CB0000496002305936346DA0F02920090019177
:102CC00043463A0059462800FFF76EFA0700C9E765
:102CD0001C9A111D1C911268D317D11859400594E4
:102CE0000A9B0493534603930296D20F01920091DC
:102CF00043463A0059462800FFF7F8F90700B1E7C4
:102D0000230605D51C9A111D1C910023D25E96E75F
:102D10001C9A111D1C91126891E71C9BDA1D07215A
:102D20008A43110008311C9108940A9B079353466B
:102D30000693049600230593029313685468009346
:102D4000019443463A0059462800FFF72DFA070040
:102D500088E71C9A111D1C9105940A9B0493534605
:102D600003930296002301931368009343463A00AD
:102D700059462800FFF7BAF9070073E723060DD577
:102D80001C9A111D1C9112681204120C31E7C046E6
:102D90006C8E0010B08E0010FC8E00101C9A111D5D
:102DA0001C91126825E746281AD01C9B073307227E
:102DB00093431A0008321C9204940A9A03925246D2
:102DC00002925C681B680093019443463A0059469E
:102DD0002800FFF765FC0700119B0133119319E6EA
:102DE00020231C43E1E7672801D0472802D1802334
:102DF0001B011C43452801D0472801D120231C4337
:102E00001C9B0733072293431A0008321C92049438
:102E10000A9A0392524602925C681B6800930194DE
:102E200043463A0059462800FFF730FA0700119B45
:102E300001331193EEE502231A0022409246234209
:102E40001FD001241C9B1A1D1C927A1C91461878D5
:102E500043463A005946A8475346002B16D1119BCA
:102E6000013311934F46D5E5561C43465946202061
:102E7000B847230032005C1C9D42F5D83D00170086
:102E8000E0E701233A002F000A9DF4E74A46A946ED
:102E90000A9D06E0571C434659462020C847340087
:102EA0003A00661CA542F5D84D469146D7E71C9BD3
:102EB0001A1D1C921B6899465346002B00D1013BFA
:102EC0004E4601E0013613003278002A02D05A1E25
:102ED000002BF7D14B46F21A10928023DB0026001C
:102EE0001E401C4203D0524501D953461093022381
:102EF0001A0022400B92234205D03A0037004C467C
:102F0000A946554620E03A00109B5F46B3462E0086
:102F100006E0551C434639002020B04723002A0014
:102F20005C1C0A999942F4D835005E46BB46109461
:102F300037004C46A946554606E01D000134561C94
:102F400043465946C84732002078002804D0002F55
:102F5000F4D06B1E002DF0D117004D460B9B002BBB
:102F600003D1119B0133119354E50A9F109B06E096
:102F7000561C434659462020A847230032005C1CBB
:102F80009F42F5D81700ECE721231C431C9B1A1D18
:102F90001C921B68009305940823049353460393E3
:102FA000102302930023019343463A005946280018
:102FB000FFF79CF80700119B013311932AE57C1C55
:102FC00043463A0059462520A847119B01331193E7
:102FD00027001FE57C1C43463A005946A847119B31
:102FE00001331193270015E50A4B9A4610E5AA46CE
:102FF000474502D343465A1E00E03A00434659462D
:103000000020D047380013B0F0BCBB46B246A946FA
:10301000A046F0BDF91E001000B585B002900391E6
:103020000121009313004A4202A90248FFF7E2FC83
:1030300005B000BDFB1E001001480421014B1847DC
:10304000300200206930001010B5010018231B88E1
:1030500014221088984710BD10B5010018231B8852
:1030600016221088984710BDF0B5C64600B5070077
:103070000E0000250123984600E00135B5420AD232
:10308000AC003C192068FFF7DFFF20600028F4D176
:1030900000239846F1E7404680BCB846F0BD0000EA
:1030A000124A936F9B0815D29066D166002905D00D
:1030B000FFE7FFE7FFE7516F106F704704B580210E
:1030C0000906C2175140002800D0C84301F028F972
:1030D000002104BDF0B5146E556E576F166FFFF7E3
:1030E000E3FF1466556657671667F0BD000000D011
:1030F000114A936F9B0813D210665166002905D0C0
:10310000FFE7FFE7FFE7516F106F704704B5002836
:1031100001D00020C04301F003F9002104BDC046E6
:10312000F0B5146E556E576F166FFFF7E5FF146616
:10313000556657671667F0BD000000D094464E4AAA
:10314000926F9208624601D230E0C046F0B54A4E16
:10315000B56F6D08FCD3346E756E776F366F00F007
:1031600025F89446444A14665566576716676246C2
:10317000F0BDC0469446404A926F9208624601D222
:1031800058E0C046F0B53C4EB56F6D08FCD3346EC8
:10319000756E776F366F00F04DF89446364A1466B8
:1031A0005566576716676246F0BDC046002B24DBA4
:1031B00011D000293EDA00B5C943404200D10131A7
:1031C00000F038F8C943404200D10131DB4352429C
:1031D00000D1013300BD002AEBD1002801D1002924
:1031E00005D00020C90FC90701D1C043410800B56F
:1031F00001F08EF80022002300BD00B500290ADB93
:10320000DB43524200D1013300F014F8C94340427D
:1032100000D1013100BDC943404200D10131DB433F
:10322000524200D1013300F005F8DB43524200D195
:10323000013300BD002923D1002B18D1002A0CD066
:10324000BC460D4F38667A6600210023FFE7FFE792
:10325000FFE77A6F386F67467047002801D007484C
:10326000010000B501F054F80022002300BD020067
:103270000B00002000217047000000D0FFFFFFFF7F
:10328000002B00D0BFE0130C28D1002AE7D080B477
:10329000114F39667A66FFE7FFE730B4040C7B6FA5
:1032A000396F1B0423433B667A66FFE7FFE7FFE7BE
:1032B000C04684B27B6F3D6F1B0423433B667A6636
:1032C000FFE7FFE7C04600232C042D0C7A6F386F10
:1032D00000196941B0BC7047000000D0F0B59446B9
:1032E0000025140E01D112020835140F01D112016C
:1032F0000435940F01D192000235D40F01D1520050
:103300000135D40B0134254F7C66254C3C660E0CF0
:1033100093B2FFE7FFE7FFE73C6F6643360C7703A6
:10332000BE467343DF0B5B04C01AB941130C7343F1
:10333000DB18C91ACE086643360CB64493B2734301
:103340001F0F1B01C01AB941130C73431F0B1B0540
:10335000C01AB941860D8F023E436643360C092DD3
:1033600024DB520A7243801A7703460A6643360CFE
:1033700016235B1BDE40DF40BF1964466643821B99
:103380007046043506330100D940A840C01900D367
:103390000131A24206D20023F0BD0000000000D09F
:1033A000FFFFFFFF121B0130F3D3F1E709277F1B5B
:1033B000FE406446A2B27243801A00D20139220C48
:1033C0007243130C1204821A99410B0070460435A3
:1033D00013370100F940A840801900D30131002BB8
:1033E00002D1A2420AD2F0BD013000D30131121B3A
:1033F000FAD2013BF8D1A24200D2F0BD013000D395
:103400000131121BF7E7F0B51C0C00D080E00CB4C2
:1034100000251C0A04D11B02160E33431202083584
:103420001C0B04D11B01160F3343120104359C0BF6
:1034300004D19B00960F334392000235DC0B02D17E
:1034400092185B4101351C00971864410134464FC6
:103450007C66464C3C660E0CFFE7FFE7FFE7C04684
:103460003C6F6643360C7703BE4697B27743C01B6A
:1034700000D20139C01B00D201399FB27743C91B6A
:10348000C91B170C77437E04FF0B801BB941CE0884
:103490006643360C0C2D33DBB644120B1F053A4342
:1034A0001B0B97B27743C01B00D201399FB2774301
:1034B000C91B170C77433E043F0C801BB941860D96
:1034C0008F023E43664329277F1BFE400C3D774613
:1034D000AF40BF1930BCA2B2ABB272437343801A83
:1034E0009941220C7243130C1204801A9941020074
:1034F0000B000137001BA941F9D2781E0021F0BD55
:103500000C277F1BFE4077467F0BAF40FF19E0E79B
:1035100000245D1C07D0144F7D663966FFE7FFE786
:10352000FFE7FFE73C6F95B29EB265436643401BE1
:10353000B141150C1E0C6543664336042F0C3E4307
:103540002D04401BB141994204D202000B0020001F
:103550000021F0BD01D19042F7D3801A9941013486
:103560009942F2D3F6E70000000000D0FFFFFFFF12
:1035700048404140484018B41B4B5B68FC460193EF
:1035800008BD04DF4B38001018B4174B1B68FC460D
:10359000019308BD00DF553800109446134A926F1E
:1035A000920809D2624618B40F4BDB68FC460193BF
:1035B00008BD0CDF0D3B00100C4AF0B5146E556EC3
:1035C000576F166F6246FFF7EEFF084A146655669E
:1035D00057671667F0BD18B4034B9B68FC46019310
:1035E00008BD08DFB13900102C040020000000D015
:1035F000FFB550404240504059404B40594000E0D8
:10360000FFB5154F4C00640D03D0BC4204D10C0330
:1036100014D80020090D09055C00640D03D0BC42DC
:1036200004D11C030AD800221B0D1B0501264B40A8
:1036300009D44B4003D58B4200D18242FFBD994251
:10364000FCD19042FFBD0B43DB1803431343F5D07D
:10365000C9434918FFBD0000FF07000000B5FFF790
:10366000CFFF804100BDC04600B5FFF7C9FF01D9BB
:10367000002000BD012000BD00B5FFF7B9FF01D952
:10368000002000BD012000BD00B5FFF7B1FF804163
:1036900000BD012040054A00121804D85A00121833
:1036A00001D80020704701207047002070470000BB
:1036B0000021002805D17047C1174840401AFAD0B0
:1036C000C90713B5064B1B6898470CBC441CA240A5
:1036D0001005120B0349091B09051943114310BDBD
:1036E0002C0500201F04000010B54C00620D802343
:1036F000D218DB00D21A5B057E2A10DD9E3A13DA5F
:10370000CC170903490819435242D14064000134DF
:103710001532202A05DAD0400843604310BD00204E
:1037200010BD0846604310BDC80FC018013810BD59
:1037300018B4044B5B6AFC46019308BD24DFBD3C12
:10374000001000002C04002070B513231C78012CFD
:1037500014D0012C14DC022C02DC1F4A1F4B9A648B
:103760001F48FFF771FC1F4B186070BD99001A4885
:103770001A4A885001331F2BF8D9EAE70023FAE7E9
:103780001948FFF769FC05001848FFF765FC023887
:1037900003789B007F2B19DD802229000F4800F061
:1037A00091FB022CD7D1124B1A88B5231B029A42E7
:1037B00009D1104B1A88104B9A4204D10F4B1A882A
:1037C0000F4B9A42C7D00020FDF7C2FF0D4B0E4AA7
:1037D00032210E48FDF722FF113800102C04002082
:1037E0004C3300002C0500205344000053460000D9
:1037F00054380000D8380000494600009C380000CA
:1038000059460000A0900010609100100091001037
:1038100007B56046002800D100BE01880A0A0230C0
:10382000DF2AFAD1C9B2820804D302884088000492
:10383000104300E00068024A5050039007BD0000AA
:103840002C0400200FB403BC0CBCF0B50124E40729
:10385000634000E0F0B50C0DCF0F661E3605891BE6
:10386000640503D3C943404200D30131640D03D042
:10387000661CF60A07D0E41B00207F00791C89072C
:103880008912803C24031D0DDF0F6E1E36059B1B25
:103890006D0503D3DB43524200D301336D0D03D0DA
:1038A0006E1CF60A07D0ED1B00227F007B1C9B07D5
:1038B0009B12803D2D032F1B661B58D4A446202E3F
:1038C00046DA20371400BC401D00BD40F2403341B1
:1038D0002A4380185941CB0F05D0C943C043002269
:1038E00064425041514162464D0D28D10D0D07D122
:1038F00000281FD0241940414941013A0D0DF9D04B
:10390000640006D3013000D30131002C01D14008FE
:103910004000013A0BD4941CE40A04D1120511446E
:10392000DB071944F0BDD907204B194300E0D90744
:103930000020F0BD0029DDD1002CDBD1F0BD01322B
:10394000C6074008CD0728434908002EE1D0D9E733
:103950003C2E29DA203E40371400BC4000D0012420
:10396000F24014431A00BB401C43D317ACE7AC46EB
:10397000202F08DA20360400B4400D00B540F8408E
:1039800039412843A5E73C2F0CDA203F403604009C
:10399000B44000D00124F84004430800B1400C4377
:1039A000C117EAE710001900002494E70000F07F37
:1039B000F0B50C0D661E3605891BE60A6405640D1C
:1039C00002D0651CED0A04D0002001210905803CCD
:1039D0002403A4461C0D671E3F05DB1BE70A640594
:1039E000640D02D0651CED0A04D0002201231B05E2
:1039F000803C24037740644497B484B296B2744305
:103A0000070C7E43150C6F4380B26843361802D30F
:103A1000012000043F183004350C00197D41844614
:103A200088B29AB250430C0C62431F0C7C438EB296
:103A30007E43921902D301263604A4191604170CEA
:103A40003618674101BC81B29AB25143040C6243FB
:103A50001B0C5C4380B25843121802D301200004AF
:103A600024181004130C401863412D185E410020E7
:103A7000474106BC88B293B258430C0C6343120C06
:103A8000544389B251435B1802D3012109046418DD
:103A900019041A0C091862416D185641002047415B
:103AA00018BCF902720D1143F0026A0D1043ED02C9
:103AB0000A0D03D16D1940414941013B124E9B1B38
:103AC0007600B3420ED26D0007D30130002671415B
:103AD0006646354301D1400840001B05C918E4077C
:103AE0002144F0BD0BDA013306D1013004D101319C
:103AF0004F0D01D04908F2E7E1070020F0BD013683
:103B000031050020EBE70000FF030000F0B51C0DBD
:103B1000671E3F05DB1BE70A6405640D02D0661CC7
:103B2000F60A04D0002201231B05803C2403D02583
:103B30002D060026F6432E661E096E66CE0FF61978
:103B4000B44649004F0D02D07E1CF60A03D0002077
:103B50000021403F3F033E1BB600B444013F7F05B8
:103B6000C91B49082E6F013676089C02950D254326
:103B70007543ED137543AD1301356D10F603761BD8
:103B80000CB4CC02450D2C43A2B2B3B25A43270C5D
:103B90007B43350C6F43A4B26C431B1902D3012441
:103BA00024043F191C041D0CA4187D4124196D41E7
:103BB000009A91B2ACB26143170C7C432B0C5F436B
:103BC00092B25A43A41802D301221204BF1822044D
:103BD000230C52187B41019C6C431B19520ED901D6
:103BE0000A434401A01A81B2B2B2514303145A43AA
:103BF000360C734387B27743D617D21900277E411C
:103C000036049B191704160C7F185E417316ED18C5
:103C1000F301002680337541A90F06D16400690ABB
:103C2000E8055B0A184309D22FE00422944480334C
:103C30007541A90AA8059B0A184326D3404149416A
:103C40002404009A019B0D005543641B4343E41A6E
:103C500095B286B27543170C7E43030C5F4392B254
:103C60005A43B61802D301221204BF183204330C8F
:103C700052197B4152429C41002C02D40022013057
:103C800051414008CA071043490802B06246D707AD
:103C90009210084BD218084B9A4203D21205891889
:103CA000C919F0BD0020002A01DC3900F0BD013344
:103CB0001905F5E7FD030000FE070000002200B52E
:103CC000203200F004F8080000BD000000220B15AF
:103CD0000AD410B5944600F031F81414013400DA17
:103CE0000021CB17144C204700200021704762446C
:103CF000343A0CD40C2A07DA040091409040524226
:103D00002032D440214310BDD843D94310BD2032C6
:103D100007D40C469440524220321141D0402043F7
:103D200010BD0800C917203203D45242203210417E
:103D300010BD1800190010BDEF3C00100A0DCC0F8B
:103D4000531E1B05C91A520503D3C943404200D371
:103D50000131520D03D0531CDB0A07D0121B002087
:103D60006400611C89078912803A1203014BD21A40
:103D700070470000FF03000070B513231D782A4828
:103D8000FFF76AF90400012D11D0012D09DDA31EF2
:103D90001B789B007F2B40DD80222100234800F010
:103DA00091F82348FFF750F9224B186070BD542258
:103DB00001001E4800F086F81F4B1A881F4B9A42DC
:103DC0001CD1A7239B011A881D4B9A4216D11D4B6B
:103DD0001A881D4B9A4211D11C4B1A8894239B01BF
:103DE0009A420BD11A4B1A881A4B9A4206D11A4B97
:103DF0001A681A4B9A4201D1152307E01848FDF7BB
:103E0000A7FC99001748094A885001331F2BF8D99D
:103E1000144A064B1A62DA61B7E7134B134A422180
:103E20001348FDF7FBFBC046534600003005002059
:103E30004C3300002C050020EE290000C40F0000C8
:103E4000C20D0000962B0000C0B50000182B00002A
:103E5000CC2A000010B50000FC2C000051ED876456
:103E600080890010753E00107491001004920010BB
:103E7000A891001007B56046002800D100BE018857
:103E80000A0A0230DF2AFAD1C9B2820804D30288B2
:103E900040880004104300E00068024A505003903C
:103EA00007BD00003005002001480421014B1847E0
:103EB0004002002069300010014B1B6818470000C9
:103EC00040020020014B5B681847000040020020C0
:103ED00010B50300080011001B68984710BD0000D2
:103EE000F8B507000D001600437C002B02D000241B
:103EF00000200CE003681100280098472DE03B7C6F
:103F000010E0022115483B689847601C0134B44218
:103F100014DA002CF3DD2B19013B1B780D3B5A42C0
:103F20005341DBB22A5D0A2AF0D1002BEED1A04228
:103F3000E7DA211A28183B689847E2E7B04203DA2B
:103F4000311A28183B689847002E06DDAD19013D4F
:103F50002B780D3B5A4253413B74F8BD88920010B8
:103F600070B505000368002B16D00C4B1C6805E0EB
:103F7000290004C92000FFF7B3FFE468002C09D032
:103F80002368002BF9D0064B1B68002BF0D0A3420E
:103F9000F3D1EDE700232B6070BDC0461404002070
:103FA0001804002070B505000C000B68802B05D0AC
:103FB00021684B1C23606418257170BD0800FFF751
:103FC000CFFFF5E710B582B0D0231B0600241C57A5
:103FD00001A9074800F0ACF9002806D1019B9C42DA
:103FE00003D0034800F0ACF9012002B010BDC04678
:103FF0006402002010B5024800F082F910BDC046EE
:1040000064020020F0B5CE46474680B583B0060076
:104010000D0090461C00FFF7D5FF81466B1C05D0B4
:10402000002C08D0194F1A4B1C6807E0300000F034
:1040300035F90500F4E7174FF5E7E468002C17D0D1
:104040002368002BF9D0144B1B68002B01D0A3422E
:10405000F3D12A0031002000B8474346002BECD0B2
:104060006B46D91D0A230B7001222000B847E4E7F4
:104070004B46002B07D16B1E9D41E8B203B0C0BC7C
:10408000B946B046F0BDFFF7B5FFF4E7D13E0010EA
:1040900014040020E13E001018040020094A01E049
:1040A0000C331A001368002B08D08342F8D1002982
:1040B00007D1C36813600023C36002E0002900D069
:1040C000106070471404002010B5064B1C6801E016
:1040D0009847E468002C03D06368002BF8D1F8E718
:1040E00010BDC0461404002070B5050000F0D6F8DD
:1040F00004000023012201002800FFF783FFFFF7DF
:10410000E3FF200070BD000070B5A2B004000E00F7
:10411000FFF758FF05008422002101A8FFF7CCFE1D
:104120003300220001A90848FEF776FF040001A829
:10413000FFF716FFFFF7C8FF002D02D1200022B0C5
:1041400070BDFFF757FFF9E7A53F00100FB400B5AA
:1041500083B004A901C90191FFF7D6FF03B008BCE1
:1041600004B0184710B500F085F810BDF0B583B065
:1041700005000E0000240FE06B46D91D0D230B70C7
:104180000020002816D193699B06FCD40B7813609D
:1041900001300131F5E70134B44219DA0D4B1A68E8
:1041A0002F5D0D4BD31859424B415B000B495B5EB1
:1041B000BB42E1D06B46D91D0F7000200028EAD128
:1041C00093699B06FCD40B78136001300131F5E74D
:1041D00003B0F0BD480600200080FCBF440600206C
:1041E000F0B583B006000F00002004E06B460733F3
:1041F0001B7823702800B84215DA0E4B1A689369B1
:104200001024210019401C420DD1451C34186B4666
:10421000D81D0029EAD19369DB06FCD4136803702A
:1042200001310130F5E7002801D003B0F0BD0338BB
:10423000FBE7C0464806002070B515001C000B4B7C
:104240001860FCF759F9002D06DA002C09DA012173
:104250000748FFF723FF70BD02212800FCF780F814
:10426000F3E702212000FCF77BF8F0E74806002086
:104270005002002010B5064B1B78064B1B78E1213D
:104280000123002249020448FFF7D6FF10BDC046B3
:10429000EC920010F09200100040034010B583072C
:1042A0000AD00300032102E001330B4205D01A7843
:1042B000002AF9D1181A10BD030019680C4A0D4CD8
:1042C0008A188A4322420FD15968094A04338A184E
:1042D0008A43224208D15968054A04338A188A431E
:1042E0002242F1D000E001331A78002AFBD1E1E745
:1042F000FFFEFEFE80808080F8B5C0460000000012
:1043000001B40248844601BC604700BF510100204F
:1043100001B40248844601BC604700BF9D010020F3
:1043200001B40248844601BC604700BF9D010020E3
:1043300001B40248844601BC604700BF0901002067
:1043400001B40248844601BC604700BFC1000020A0
:10435000000800000308000006080000090800002B
:104360000C0800000F0800001208000015080000EB
:10437000190800001C0800001F08000022080000A7
:1043800025080000280800002B0800002F08000066
:104390003208000035080000380800003B08000023
:1043A0003E080000410800004508000048080000E1
:1043B0004B0800004E08000051080000540800009F
:1043C000570800005B0800005E080000610800005C
:1043D00064080000670800006A0800006D0800001B
:1043E0007108000074080000770800007A080000D7
:1043F0007D08000080080000830800008608000097
:104400008A0800008D080000900800009308000052
:1044100096080000990800009C080000A008000011
:10442000A3080000A6080000A9080000AC080000CE
:10443000AF080000B2080000B5080000B90800008D
:10444000BC080000BF080000C2080000C50800004A
:10445000C8080000CB080000CE080000D208000009
:10446000D5080000D8080000DB080000DE080000C6
:10447000E1080000E4080000E7080000EB08000085
:10448000EE080000F1080000F4080000F708000042
:10449000FA080000FD0800000009000004090000FF
:1044A000070900000A0900000D09000010090000BA
:1044B0001309000016090000190900001C0900007A
:1044C0002009000023090000260900002909000036
:1044D0002C0900002F0900003209000035090000F6
:1044E000380900003C0900003F09000042090000B3
:1044F00045090000480900004B0900004E09000072
:104500005109000054090000570900005B09000030
:104510005E090000610900006409000067090000ED
:104520006A0900006D0900007009000073090000AD
:1045300076090000790900007D090000800900006B
:104540008309000086090000890900008C09000029
:104550008F090000920900009509000098090000E9
:104560009B0900009E090000A2090000A5090000A7
:10457000A8090000AB090000AE090000B109000065
:10458000B4090000B7090000BA090000BD09000025
:10459000C0090000C3090000C6090000C9090000E5
:1045A000CC090000D0090000D3090000D6090000A2
:1045B000D9090000DC090000DF090000E209000061
:1045C000E5090000E8090000EB090000EE09000021
:1045D000F1090000F4090000F7090000FA090000E1
:1045E000FD090000000A0000030A0000060A00009E
:1045F000090A00000C0A0000100A0000130A00005B
:10460000160A0000190A00001C0A00001F0A000018
:10461000220A0000250A0000280A00002B0A0000D8
:104620002E0A0000310A0000340A0000370A000098
:104630003A0A00003D0A0000400A0000430A000058
:10464000460A0000490A00004C0A00004F0A000018
:10465000520A0000550A0000580A00005B0A0000D8
:104660005E0A0000610A0000640A0000670A000098
:104670006A0A00006D0A0000700A0000730A000058
:10468000760A0000790A00007C0A00007F0A000018
:10469000820A0000850A0000880A00008B0A0000D8
:1046A0008E0A0000910A0000940A0000970A000098
:1046B0009A0A00009D0A0000A00A0000A30A000058
:1046C000A60A0000A90A0000AC0A0000AE0A000019
:1046D000B10A0000B40A0000B70A0000BA0A0000DC
:1046E000BD0A0000C00A0000C30A0000C60A00009C
:1046F000C90A0000CC0A0000CF0A0000D20A00005C
:10470000D50A0000D80A0000DB0A0000DE0A00001B
:10471000E10A0000E30A0000E60A0000E90A0000DE
:10472000EC0A0000EF0A0000F20A0000F50A00009F
:10473000F80A0000FB0A0000FE0A0000010B00005E
:10474000040B0000070B0000090B00000C0B00001D
:104750000F0B0000120B0000150B0000180B0000DF
:104760001B0B00001E0B0000210B0000230B0000A0
:10477000260B0000290B00002C0B00002F0B000063
:10478000320B0000350B0000380B00003B0B000023
:104790003D0B0000400B0000430B0000460B0000E7
:1047A000490B00004C0B00004F0B0000510B0000A8
:1047B000540B0000570B00005A0B00005D0B00006B
:1047C000600B0000630B0000650B0000680B00002D
:1047D0006B0B00006E0B0000710B0000740B0000EF
:1047E000760B0000790B00007C0B00007F0B0000B3
:1047F000820B0000850B0000870B00008A0B000075
:104800008D0B0000900B0000930B0000950B000037
:10481000980B00009B0B00009E0B0000A10B0000FA
:10482000A30B0000A60B0000A90B0000AC0B0000BE
:10483000AF0B0000B10B0000B40B0000B70B000081
:10484000BA0B0000BD0B0000BF0B0000C20B000044
:10485000C50B0000C80B0000CA0B0000CD0B000008
:10486000D00B0000D30B0000D50B0000D80B0000CC
:10487000DB0B0000DE0B0000E00B0000E30B000090
:10488000E60B0000E90B0000EB0B0000EE0B000054
:10489000F10B0000F40B0000F60B0000F90B000018
:1048A000FC0B0000FF0B0000010C0000040C0000DA
:1048B000070C0000090C00000C0C00000F0C00009D
:1048C000120C0000140C0000170C00001A0C000061
:1048D0001C0C00001F0C0000220C0000240C000027
:1048E000270C00002A0C00002C0C00002F0C0000EC
:1048F000320C0000350C0000370C00003A0C0000B0
:104900003D0C00003F0C0000420C0000440C000075
:10491000470C00004A0C00004C0C00004F0C00003B
:10492000520C0000540C0000570C00005A0C000000
:104930005C0C00005F0C0000620C0000640C0000C6
:10494000670C0000690C00006C0C00006F0C00008C
:10495000710C0000740C0000760C0000790C000053
:104960007C0C00007E0C0000810C0000830C000019
:10497000860C0000890C00008B0C00008E0C0000DF
:10498000900C0000930C0000960C0000980C0000A6
:104990009B0C00009D0C0000A00C0000A20C00006D
:1049A000A50C0000A80C0000AA0C0000AD0C000033
:1049B000AF0C0000B20C0000B40C0000B70C0000FB
:1049C000B90C0000BC0C0000BE0C0000C10C0000C3
:1049D000C30C0000C60C0000C80C0000CB0C00008B
:1049E000CE0C0000D00C0000D30C0000D50C000051
:1049F000D80C0000DA0C0000DD0C0000DF0C000019
:104A0000E20C0000E40C0000E60C0000E90C0000E1
:104A1000EB0C0000EE0C0000F00C0000F30C0000AA
:104A2000F50C0000F80C0000FA0C0000FD0C000072
:104A3000FF0C0000020D0000040D0000070D000037
:104A4000090D00000B0D00000E0D0000100D000000
:104A5000130D0000150D0000180D00001A0D0000C8
:104A60001C0D00001F0D0000210D0000240D000092
:104A7000260D0000280D00002B0D00002D0D00005C
:104A8000300D0000320D0000340D0000370D000025
:104A9000390D00003C0D00003E0D0000400D0000EF
:104AA000430D0000450D0000470D00004A0D0000B9
:104AB0004C0D00004E0D0000510D0000530D000084
:104AC000550D0000580D00005A0D00005C0D00004F
:104AD0005F0D0000610D0000630D0000660D000019
:104AE000680D00006A0D00006D0D00006F0D0000E4
:104AF000710D0000740D0000760D0000780D0000AF
:104B00007A0D00007D0D00007F0D0000810D00007A
:104B1000840D0000860D0000880D00008A0D000045
:104B20008D0D00008F0D0000910D0000930D000011
:104B3000960D0000980D00009A0D00009C0D0000DD
:104B40009F0D0000A10D0000A30D0000A50D0000A9
:104B5000A80D0000AA0D0000AC0D0000AE0D000075
:104B6000B00D0000B30D0000B50D0000B70D000042
:104B7000B90D0000BB0D0000BE0D0000C00D00000F
:104B8000C20D0000C40D0000C60D0000C90D0000DC
:104B9000CB0D0000CD0D0000CF0D0000D10D0000A9
:104BA000D30D0000D50D0000D80D0000DA0D000077
:104BB000DC0D0000DE0D0000E00D0000E20D000045
:104BC000E40D0000E70D0000E90D0000EB0D000012
:104BD000ED0D0000EF0D0000F10D0000F30D0000E1
:104BE000F50D0000F70D0000F90D0000FC0D0000B0
:104BF000FE0D0000000E0000020E0000040E00007A
:104C0000060E0000080E00000A0E00000C0E000048
:104C10000E0E0000100E0000120E0000140E000018
:104C2000160E0000180E00001A0E00001C0E0000E8
:104C30001E0E0000200E0000220E0000250E0000B7
:104C4000270E0000290E00002B0E00002D0E000084
:104C50002F0E0000310E0000320E0000340E000056
:104C6000360E0000380E00003A0E00003C0E000028
:104C70003E0E0000400E0000420E0000440E0000F8
:104C8000460E0000480E00004A0E00004C0E0000C8
:104C90004E0E0000500E0000520E0000540E000098
:104CA000560E0000580E0000590E00005B0E00006A
:104CB0005D0E00005F0E0000610E0000630E00003C
:104CC000650E0000670E0000690E00006A0E00000D
:104CD0006C0E00006E0E0000700E0000720E0000E0
:104CE000740E0000760E0000780E0000790E0000B1
:104CF0007B0E00007D0E00007F0E0000810E000084
:104D0000830E0000840E0000860E0000880E000056
:104D10008A0E00008C0E00008D0E00008F0E000029
:104D2000910E0000930E0000950E0000960E0000FC
:104D3000980E00009A0E00009C0E00009D0E0000D0
:104D40009F0E0000A10E0000A30E0000A40E0000A4
:104D5000A60E0000A80E0000AA0E0000AB0E000078
:104D6000AD0E0000AF0E0000B10E0000B20E00004C
:104D7000B40E0000B60E0000B70E0000B90E000021
:104D8000BB0E0000BD0E0000BE0E0000C00E0000F5
:104D9000C20E0000C30E0000C50E0000C70E0000CA
:104DA000C80E0000CA0E0000CC0E0000CD0E0000A0
:104DB000CF0E0000D10E0000D20E0000D40E000075
:104DC000D50E0000D70E0000D90E0000DA0E00004C
:104DD000DC0E0000DE0E0000DF0E0000E10E000021
:104DE000E20E0000E40E0000E60E0000E70E0000F8
:104DF000E90E0000EA0E0000EC0E0000ED0E0000CF
:104E0000EF0E0000F10E0000F20E0000F40E0000A4
:104E1000F50E0000F70E0000F80E0000FA0E00007C
:104E2000FB0E0000FD0E0000FE0E0000000F000053
:104E3000020F0000030F0000050F0000060F000026
:104E4000080F0000090F00000B0F00000C0F0000FE
:104E50000D0F00000F0F0000100F0000120F0000D8
:104E6000130F0000150F0000160F0000180F0000B0
:104E7000190F00001B0F00001C0F00001E0F000088
:104E80001F0F0000200F0000220F0000230F000062
:104E9000250F0000260F0000270F0000290F00003B
:104EA0002A0F00002C0F00002D0F00002E0F000015
:104EB000300F0000310F0000330F0000340F0000EE
:104EC000350F0000370F0000380F0000390F0000C9
:104ED0003B0F00003C0F00003D0F00003F0F0000A3
:104EE000400F0000410F0000430F0000440F00007E
:104EF000450F0000470F0000480F0000490F000059
:104F00004A0F00004C0F00004D0F00004E0F000034
:104F1000500F0000510F0000520F0000530F00000F
:104F2000550F0000560F0000570F0000580F0000EB
:104F30005A0F00005B0F00005C0F00005D0F0000C7
:104F40005F0F0000600F0000610F0000620F0000A3
:104F5000630F0000650F0000660F0000670F000080
:104F6000680F0000690F00006A0F00006C0F00005E
:104F70006D0F00006E0F00006F0F0000700F00003B
:104F8000710F0000730F0000740F0000750F000018
:104F9000760F0000770F0000780F0000790F0000F7
:104FA0007B0F00007C0F00007D0F00007E0F0000D3
:104FB0007F0F0000800F0000810F0000820F0000B3
:104FC000830F0000840F0000850F0000860F000093
:104FD000880F0000890F00008A0F00008B0F00006F
:104FE0008C0F00008D0F00008E0F00008F0F00004F
:104FF000900F0000910F0000920F0000930F00002F
:10500000940F0000950F0000960F0000970F00000E
:10501000980F0000990F00009A0F00009B0F0000EE
:105020009C0F00009D0F00009E0F00009F0F0000CE
:10503000A00F0000A10F0000A10F0000A20F0000B0
:10504000A30F0000A40F0000A50F0000A60F000092
:10505000A70F0000A80F0000A90F0000AA0F000072
:10506000AB0F0000AC0F0000AC0F0000AD0F000054
:10507000AE0F0000AF0F0000B00F0000B10F000036
:10508000B20F0000B20F0000B30F0000B40F000019
:10509000B50F0000B60F0000B70F0000B70F0000FB
:1050A000B80F0000B90F0000BA0F0000BB0F0000DE
:1050B000BC0F0000BC0F0000BD0F0000BE0F0000C1
:1050C000BF0F0000BF0F0000C00F0000C10F0000A5
:1050D000C20F0000C30F0000C30F0000C40F000088
:1050E000C50F0000C60F0000C60F0000C70F00006C
:1050F000C80F0000C80F0000C90F0000CA0F000051
:10510000CB0F0000CB0F0000CC0F0000CD0F000034
:10511000CD0F0000CE0F0000CF0F0000CF0F00001A
:10512000D00F0000D10F0000D10F0000D20F0000FF
:10513000D30F0000D30F0000D40F0000D50F0000E4
:10514000D50F0000D60F0000D70F0000D70F0000CA
:10515000D80F0000D80F0000D90F0000DA0F0000B0
:10516000DA0F0000DB0F0000DB0F0000DC0F000097
:10517000DD0F0000DD0F0000DE0F0000DE0F00007D
:10518000DF0F0000DF0F0000E00F0000E00F000065
:10519000E10F0000E20F0000E20F0000E30F00004B
:1051A000E30F0000E40F0000E40F0000E50F000033
:1051B000E50F0000E60F0000E60F0000E70F00001B
:1051C000E70F0000E80F0000E80F0000E80F000004
:1051D000E90F0000E90F0000EA0F0000EA0F0000ED
:1051E000EB0F0000EB0F0000EC0F0000EC0F0000D5
:1051F000EC0F0000ED0F0000ED0F0000EE0F0000BF
:10520000EE0F0000EF0F0000EF0F0000EF0F0000A7
:10521000F00F0000F00F0000F00F0000F10F000091
:10522000F10F0000F20F0000F20F0000F20F00007B
:10523000F30F0000F30F0000F30F0000F40F000065
:10524000F40F0000F40F0000F50F0000F50F000050
:10525000F50F0000F60F0000F60F0000F60F00003B
:10526000F60F0000F70F0000F70F0000F70F000027
:10527000F80F0000F80F0000F80F0000F80F000012
:10528000F90F0000F90F0000F90F0000F90F0000FE
:10529000FA0F0000FA0F0000FA0F0000FA0F0000EA
:1052A000FA0F0000FB0F0000FB0F0000FB0F0000D7
:1052B000FB0F0000FB0F0000FC0F0000FC0F0000C4
:1052C000FC0F0000FC0F0000FC0F0000FC0F0000B2
:1052D000FD0F0000FD0F0000FD0F0000FD0F00009E
:1052E000FD0F0000FD0F0000FD0F0000FE0F00008D
:1052F000FE0F0000FE0F0000FE0F0000FE0F00007A
:10530000FE0F0000FE0F0000FE0F0000FE0F000069
:10531000FE0F0000FE0F0000FF0F0000FF0F000057
:10532000FF0F0000FF0F0000FF0F0000FF0F000045
:10533000FF0F0000FF0F0000FF0F0000FF0F000035
:10534000FF0F0000FF0F0000FF0F0000FF0F000025
:10535000FF0F0000FF0F0000FF0F0000FF0F000015
:10536000FF0F0000FF0F0000FF0F0000FF0F000005
:10537000FF0F0000FF0F0000FF0F0000FF0F0000F5
:10538000FF0F0000FF0F0000FF0F0000FE0F0000E6
:10539000FE0F0000FE0F0000FE0F0000FE0F0000D9
:1053A000FE0F0000FE0F0000FE0F0000FE0F0000C9
:1053B000FE0F0000FD0F0000FD0F0000FD0F0000BC
:1053C000FD0F0000FD0F0000FD0F0000FD0F0000AD
:1053D000FC0F0000FC0F0000FC0F0000FC0F0000A1
:1053E000FC0F0000FC0F0000FB0F0000FB0F000093
:1053F000FB0F0000FB0F0000FB0F0000FA0F000086
:10540000FA0F0000FA0F0000FA0F0000FA0F000078
:10541000F90F0000F90F0000F90F0000F90F00006C
:10542000F80F0000F80F0000F80F0000F80F000060
:10543000F70F0000F70F0000F70F0000F70F000054
:10544000F60F0000F60F0000F60F0000F50F000049
:10545000F50F0000F50F0000F40F0000F40F00003E
:10546000F40F0000F30F0000F30F0000F30F000033
:10547000F20F0000F20F0000F20F0000F10F000029
:10548000F10F0000F10F0000F00F0000F00F00001E
:10549000EF0F0000EF0F0000EF0F0000EE0F000015
:1054A000EE0F0000EE0F0000ED0F0000ED0F00000A
:1054B000EC0F0000EC0F0000EB0F0000EB0F000002
:1054C000EB0F0000EA0F0000EA0F0000E90F0000F8
:1054D000E90F0000E80F0000E80F0000E70F0000F0
:1054E000E70F0000E60F0000E60F0000E50F0000E8
:1054F000E50F0000E40F0000E40F0000E30F0000E0
:10550000E30F0000E20F0000E20F0000E10F0000D7
:10551000E10F0000E00F0000E00F0000DF0F0000CF
:10552000DF0F0000DE0F0000DD0F0000DD0F0000C8
:10553000DC0F0000DC0F0000DB0F0000DA0F0000C2
:10554000DA0F0000D90F0000D90F0000D80F0000BB
:10555000D70F0000D70F0000D60F0000D60F0000B5
:10556000D50F0000D40F0000D40F0000D30F0000AF
:10557000D20F0000D20F0000D10F0000D00F0000AA
:10558000D00F0000CF0F0000CE0F0000CE0F0000A4
:10559000CD0F0000CC0F0000CC0F0000CB0F00009F
:1055A000CA0F0000CA0F0000C90F0000C80F00009A
:1055B000C70F0000C70F0000C60F0000C50F000096
:1055C000C40F0000C40F0000C30F0000C20F000092
:1055D000C10F0000C10F0000C00F0000BF0F00008E
:1055E000BE0F0000BE0F0000BD0F0000BC0F00008A
:1055F000BB0F0000BA0F0000BA0F0000B90F000087
:10560000B80F0000B70F0000B60F0000B50F000084
:10561000B50F0000B40F0000B30F0000B20F000080
:10562000B10F0000B00F0000AF0F0000AF0F00007F
:10563000AE0F0000AD0F0000AC0F0000AB0F00007C
:10564000AA0F0000A90F0000A80F0000A70F00007C
:10565000A70F0000A60F0000A50F0000A40F000078
:10566000A30F0000A20F0000A10F0000A00F000078
:105670009F0F00009E0F00009D0F00009C0F000078
:105680009B0F00009A0F0000990F0000980F000078
:10569000970F0000960F0000950F0000940F000078
:1056A000930F0000920F0000910F0000900F000078
:1056B0008F0F00008E0F00008D0F00008C0F000078
:1056C0008B0F00008A0F0000890F0000880F000078
:1056D000870F0000860F0000850F0000840F000078
:1056E000830F0000820F0000810F00007F0F000079
:1056F0007E0F00007D0F00007C0F00007B0F00007C
:105700007A0F0000790F0000780F0000770F00007B
:10571000750F0000740F0000730F0000720F00007F
:10572000710F0000700F00006F0F00006D0F000080
:105730006C0F00006B0F00006A0F0000690F000083
:10574000680F0000660F0000650F0000640F000086
:10575000630F0000620F0000600F00005F0F000089
:105760005E0F00005D0F00005B0F00005A0F00008D
:10577000590F0000580F0000570F0000550F000090
:10578000540F0000530F0000510F0000500F000095
:105790004F0F00004E0F00004C0F00004B0F000099
:1057A0004A0F0000490F0000470F0000460F00009D
:1057B000450F0000430F0000420F0000410F0000A2
:1057C0003F0F00003E0F00003D0F00003B0F0000A8
:1057D0003A0F0000390F0000370F0000360F0000AD
:1057E000350F0000330F0000320F0000300F0000B3
:1057F0002F0F00002E0F00002C0F00002B0F0000B9
:105800002A0F0000280F0000270F0000250F0000BE
:10581000240F0000230F0000210F0000200F0000C4
:105820001E0F00001D0F00001B0F00001A0F0000CC
:10583000180F0000170F0000160F0000140F0000D3
:10584000130F0000110F0000100F00000E0F0000DA
:105850000D0F00000B0F00000A0F0000080F0000E2
:10586000070F0000050F0000040F0000020F0000EA
:10587000010F0000FF0E0000FE0E0000FC0E0000F5
:10588000FB0E0000F90E0000F80E0000F60E0000FE
:10589000F40E0000F30E0000F10E0000F00E000008
:1058A000EE0E0000ED0E0000EB0E0000EA0E000010
:1058B000E80E0000E60E0000E50E0000E30E00001A
:1058C000E20E0000E00E0000DE0E0000DD0E000023
:1058D000DB0E0000DA0E0000D80E0000D60E00002D
:1058E000D50E0000D30E0000D10E0000D00E000037
:1058F000CE0E0000CC0E0000CB0E0000C90E000042
:10590000C70E0000C60E0000C40E0000C20E00004C
:10591000C10E0000BF0E0000BD0E0000BC0E000056
:10592000BA0E0000B80E0000B70E0000B50E000061
:10593000B30E0000B10E0000B00E0000AE0E00006D
:10594000AC0E0000AB0E0000A90E0000A70E000078
:10595000A50E0000A40E0000A20E0000A00E000084
:105960009E0E00009D0E00009B0E0000990E000090
:10597000970E0000950E0000940E0000920E00009D
:10598000900E00008E0E00008C0E00008B0E0000AA
:10599000890E0000870E0000850E0000830E0000B7
:1059A000820E0000800E00007E0E00007C0E0000C3
:1059B0007A0E0000780E0000770E0000750E0000D1
:1059C000730E0000710E00006F0E00006D0E0000DF
:1059D0006B0E00006A0E0000680E0000660E0000EC
:1059E000640E0000620E0000600E00005E0E0000FB
:1059F0005C0E00005A0E0000580E0000570E00000A
:105A0000550E0000530E0000510E00004F0E000016
:105A10004D0E00004B0E0000490E0000470E000026
:105A2000450E0000430E0000410E00003F0E000036
:105A30003D0E00003B0E0000390E0000370E000046
:105A4000350E0000330E0000320E0000300E000054
:105A50002E0E00002C0E00002A0E0000280E000062
:105A6000260E0000240E0000210E00001F0E000074
:105A70001D0E00001B0E0000190E0000170E000086
:105A8000150E0000130E0000110E00000F0E000096
:105A90000D0E00000B0E0000090E0000070E0000A6
:105AA000050E0000030E0000010E0000FF0D0000B7
:105AB000FD0D0000FB0D0000F80D0000F60D0000CC
:105AC000F40D0000F20D0000F00D0000EE0D0000DE
:105AD000EC0D0000EA0D0000E80D0000E50D0000EF
