:020000041000EA
:1000000000B5324B212058609868022188439860DF
:10001000D860186158612E4B002199600221596106
:100020000121F02299502B49196001219960352056
:1000300000F044F80222904214D00621196600F024
:1000400034F8196E01211966002018661A6600F04E
:100050002CF8196E196E196E052000F02FF8012189
:100060000842F9D1002199601B49196000215960AB
:100070001A491B48016001219960EB211966A021F2
:10008000196600F012F800219960164914480160C1
:100090000121996001BC002800D000471248134993
:1000A000086003C880F30888084703B5996A0420EC
:1000B0000142FBD001200142F8D103BD02B5186610
:1000C0001866FFF7F2FF186E186E02BD00000240BE
:1000D000000000180000070000035F00212200005C
:1000E000F4000018222000A00001001008ED00E03C
:1000F00000000000000000000000000074B24E7A12
:1001000000200420F7010010C3010010C5010010F9
:10011000C1010010C1010010C1010010C101001097
:10012000C1010010C1010010C1010010C701001081
:10013000C1010010C1010010C9010010CB01001065
:10014000CD010010CD010010CD010010CD01001037
:10015000CD010010CD010010CD010010CD01001027
:10016000CD010010CD010010CD010010CD01001017
:10017000CD010010CD010010CD010010CD01001007
:10018000CD010010CD010010CD010010CD010010F7
:10019000CD010010CD010010CD010010CD010010E7
:1001A000CD010010CD010010CD010010CD010010D7
:1001B000CD010010CD010010CD010010CD010010C7
:1001C00000BE00BE00BE00BE00BE00BE00F04BF888
:1001D000103800BEF2EB8871947B0010B87B0010E1
:1001E0003402001090A31AE700202149086006C8D5
:1001F00081F3088810471F48006800282FD10DA4FC
:100200000ECC002902D000F012F8F9E71A491B4A77
:10021000002000E001C19142FCD1194988471949E9
:1002200088471949884700BEFDE701C901C29A42C3
:10023000FBD37047B87B0010C0000020A402002050
:100240009C7D001000000420000004209C7D001014
:1002500000100420001004200000000070470B482C
:1002600002F0B0FD0047EFF30580C0B27047000018
:1002700008ED00E0000000D0A8020020300A0220B3
:10028000E1130010310300109D13001057560000B9
:1002900006005250ABB36053B470001006005250C9
:1002A000861C0302C4700010060052505422A29D06
:1002B000D070001005005250DE65F4689C7D00107F
:1002C000F8B5C04610B5064C2378002B07D1054B76
:1002D000002B02D0044800E000BF0123237010BDB2
:1002E000A80300200000000000620010044B10B5BD
:1002F000002B03D00349044800E000BF10BDC046F6
:1003000000000000AC0300200062001010B503F0F4
:10031000EBFD192000F0B0F8D0231B0680229204D8
:100320005A625A6110BD10B500F05CF810BD0000B3
:1003300010B5FFF7EBFF0449044803F0C9FDFFF7D0
:10034000F2FF002010BDC046006200100C620010D9
:1003500010B5034B034A9621034801F023F8C04629
:100360001C620010B86200103C62001010B5034B14
:10037000034AA421034801F015F8C0461C6200108E
:10038000986200103C6200107047000000B583B016
:100390006423009304F0B0FF0190FA21890001A8C2
:1003A00005F02AF9034B186800230022694604F07F
:1003B00035FBF2E7AC09022000B583B00122084BFF
:1003C0001868524201A904F089FC019B642BF5D105
:1003D000D0231B0680229204DA6100230193EDE70B
:1003E000AC09022030B583B0114803F03FFD002274
:1003F0000421012004F0CCFA0E4B1860002816D01E
:1004000080256D00002401940223009323002A001C
:1004100009490A4804F0F0FE0194012300932300E7
:100420002A000749074804F0E7FE04F019FFFEE739
:10043000D8620010AC090220F0620010B90300106D
:10044000F46200108D03001010B58300084A944632
:1004500063441C6840226240C02414408022520140
:1004600013431C60C000034B9C466044416010BDB8
:1004700004C001400040014010B501238340D02258
:100480001206936293610521FFF7DEFF10BD0000A5
:10049000EFF3108072B6034B1B68002BFBD0BFF349
:1004A0005F8F70472C0100D0BFF35F8F024B00229B
:1004B0001A6080F3108870472C0100D0F8B5060050
:1004C0000C001500FFF7E4FFE308F718F15C0722C2
:1004D0002240012393400B4205D1DBB20B433B701A
:1004E000FFF7E2FFF8BD2100280000F0F5FF000053
:1004F000034B1B6802201840431E9841C0B270474E
:1005000000C00640002307E0054A9A189200BFF396
:100510005F8F0021116001331F2BF5D97047C04652
:1005200040000034054A1078431CDBB21370172BCF
:1005300002D9130010221A707047C046C80100206B
:1005400070B504000D00062001F0E6F8C000290097
:1005500002F08CFCC60908D00E4B9E4217D87F23B0
:10056000184001303500460800E001256562A662AA
:100570002C3480208001044300232360062001F0F6
:10058000CBF88000A901891902F070FC70BD00262B
:10059000014DEBE7FEFF0000FFFF0000002909D03E
:1005A0000A22064B9C466044434258414000044B9B
:1005B000C252704780225200F3E7C0460080FCBF61
:1005C0000809002070B505000C00062001F0A4F811
:1005D000002829D0164B9D4227D08022D203154BEC
:1005E0001A60154B1A60154B9B6811009943FAD19C
:1005F00000212800FFF7D2FF21002800FFF7A0FF0D
:100600002C002C34E96A60224A406E21114080227D
:100610005201224311600A4B2B6380239B01234329
:1006200010221A600323AB6470BD80221204D6E747
:100630000080034000E0004000F0004000C00040A7
:100640000103000070B505000C00080000F07AFB03
:10065000200000F04BFC0849200000F08BFBFFF766
:1006600061FF064B9C466044800068602C75A400C6
:10067000034BE55070BDC0465909001040000034DE
:100680004404002010B5002922D003681B7B994246
:100690001ED8174B9C466144090183689C466144FF
:1006A0000C684968002A19D003681B7B9A4215D848
:1006B00083680F488446624412019A181068536890
:1006C000020001208B4201D80ED00020C0B210BD24
:1006D000084B094A3B21094800F064FE054B064AD5
:1006E0003B21064800F05EFEA242EFD8EDE7C0468F
:1006F000FFFFFF0F50630010786500100C630010BF
:1007000010B500291ED0037B99421BD84B005B1803
:10071000033B0468A4466344002919D0002A1DD075
:10072000914221D0002A25D0047BA24222D804681D
:1007300050008018033820188170197800291FD1C3
:100740001A7010BD104B114A6921114800F02AFEA1
:10075000104B114A70310E4800F024FE0F4B0E4A28
:1007600071210B4800F01EFE0D4B0B4A7221084808
:1007700000F018FE044B054A6921054800F012FEFE
:1007800041701A70DDE7C04684630010CC6500102C
:10079000A0630010F8630010A86500100464001046
:1007A0001064001070B506000D001400002914D06C
:1007B000002A14D0806873689847002806D0220069
:1007C00029003000FFF79CFF280007E02A002100E5
:1007D0003000FFF795FF200000E0100070BD08001A
:1007E000FCE70000F0B583B00500009201930AAB6E
:1007F0001C780BAB1F78002C26D003685A7B9442E0
:1008000007D10123002B19D1002C3BD1200003B0CC
:10081000F0BD002C0CD01A7B944209D81A686300F2
:100820001B19033BD3189B78002BEBD00123E9E77E
:100830003E4B3F4A69213F4800F0B4FD3E4B3F4AE2
:1008400065213F4800F0AEFD03689C7B002CDBD0A7
:1008500012D01A7B94420FD862001219033A196819
:100860008C46624451789973002900D1D9730023D2
:10087000937053701370C7E72C4B2D4A69212D4894
:1008800000F090FD002C3AD02B681B7B9C4236D8A0
:100890002C4BE3181B01AA6894466344009A1A6023
:1008A000019A5A60089A9A60099ADA602E68002CB8
:1008B0002BD030D0337B9C422DD863001B19033BD7
:1008C00032689446634400229A705A701A70717BA1
:1008D00022003000FFF766FF7073844200D095E776
:1008E000287D009A019B00F08DFA061E01D0002F92
:1008F00017D00C9B002B00D188E71E7086E7124BA7
:10090000124A3B210E4800F04DFD114B114AA62121
:10091000084800F047FD054B054A6921054800F0ED
:1009200041FD2868210000F0BBFCE2E78463001071
:10093000CC650010A063001028640010D86500107A
:100940000C630010FFFFFF0F50630010786500106C
:1009500008630010BC650010F0B5DE4657464E46F1
:100960004546E0B58BB00990002308938200B24B56
:10097000D658370032E0B14BB14A3F21B14800F0C0
:1009800011FDB14BB14A3B21B14800F00BFDB14B19
:10099000B14A8C21AE4800F005FDB04BAE4A902123
:1009A000AB4800F0FFFCA84BAD4A4021A84800F03E
:1009B000F9FC2A686B68099800F024FA00239A462B
:1009C00098467B68BFF35F8F00221A6086F3108819
:1009D0004346002B51D1002800D126E100F0BEF99A
:1009E00002000B1EC7DB00200021069007917868EB
:1009F000EFF3108672B601680029FCD0BFF35F8F59
:100A0000396888464C7B002C32D0BAD0097B8C42A6
:100A1000B7D8944965182D01B9688C466544286893
:100A20006968801A99410029C3DC01D10028C0D12E
:100A30000021404600F02AFCA042A8D12A686B6839
:100A400006920793AB689846EB689A464346002B9C
:100A5000A3D0002CA7D03B681B7B9C42A3D8631E6D
:100A6000FA68D35C08931B02184338610020A8E79A
:100A700000239A4698460020A3E7089B1B022343C5
:100A8000994651461800C04705000E007A68EFF3FA
:100A9000108B72B6136859424B41D9B2002BF9D171
:100AA000BFF35F8F002E26DB002E52DD3B69002B4B
:100AB00053D04B4572D100F051F902000B1E73DB8D
:100AC0000100180052197341984202D804D1914292
:100AD00002D901225242D317002B6BDB0021049173
:100AE0000131039102945146019141460091380031
:100AF000FFF778FE49E03B69002BD5D04B451CD170
:100B0000069A079B10001900521BB341994202D864
:100B100004D1904202D901225242D317002B12DB9A
:100B20000021049101310391029451460191414603
:100B300000913800FFF756FE27E04B4B464A9F21B5
:100B4000434800F02FFC3D4B3D4A3F213D4800F01B
:100B500029FC002E01D1002DA8D13A68002C45D0E7
:100B6000537B9C422CD1012100293FD1D37B002B08
:100B700042D1D473002C52D03B681B7B9C424ED890
:100B8000FA68013C135D0133135500233B617A6819
:100B9000BFF35F8F13608BF310881FE7324B2E4A31
:100BA000A2212B4800F0FEFB244B254A3F2125487B
:100BB00000F0F8FB214B224A3F21224800F0F2FBD3
:100BC000002C0DD0137B9C420AD863001B19033BF9
:100BD0001068844663449B78002BC5D00121C3E78D
:100BE000224B234A6921234800F0DCFB224B234A95
:100BF000F721204800F0D6FB002B0AD0117B8B4256
:100C000007D85900CB18033B11688C4663445C70CD
:100C1000AFE7164B164A6921164800F0C3FB0A4B92
:100C20000F4A40210A4800F0BDFB0BB0F0BCBB46A8
:100C3000B246A946A046F0BD44040020506400100E
:100C4000446500106C64001050630010786500105B
:100C50000C630010C06400105C650010D8640010C4
:100C600084650010FFFFFF0FE46400108463001030
:100C7000CC650010A063001020650010986500107E
:100C800010B50A4B5B68002B04D00A21084800F01D
:100C90004DF910BD054C2300064A1021206800F0D4
:100CA00015FA03212000FFF7CDFCEEE7CC01002070
:100CB000F40800208506001070B5EFF305833F208F
:100CC00018401038EFF3108C72B6194B1B68002BCC
:100CD000FBD0BFF35F8F012319008140154A516398
:100CE000154A12781400C440234214D0114B5C6A98
:100CF0008300124D5B599C4206D38300104C1B5954
:100D00008A430D490A7007E00A4A031D9B0099585F
:100D10009950002300E00023BFF35F8F044A0021B5
:100D200011608CF31088002B00D0984770BDC0462E
:100D3000280100D0004005402E0A0220F8080020BB
:100D4000C403002010B50100024A0348FFF7B6FBB8
:100D500010BDC046F06500102C0A0220044B5B6AEF
:100D6000034A906A1900536A9942F9D17047C04604
:100D70000040054070B504000D00EFF3108672B618
:100D80001B4B1B68002BFBD0BFF35F8F002D1CD0CB
:100D9000200000F039FD174B83420BD019002000D2
:100DA00000F03AFD0121200000F026FD0123A340C0
:100DB000114A1360A400114BE550BFF35F8F0C4B39
:100DC00000221A6086F3108870BDA2000B4B002130
:100DD000D1500122A2400A490B7893430B70054978
:100DE000200000F043FD0021200000F005FDE4E7B5
:100DF000280100D0B90C001038600540C403002061
:100E00002E0A0220F0B5DE4600B584B004001500BD
:100E100001921E000293FFF7A1FF03958E4202D8B4
:100E20004ED185424CD9EFF3108B72B6274B1B681D
:100E3000002BFBD0BFF35F8F254A17780125A54013
:100E4000EBB23B431370234B5D63221D920001996B
:100E5000D150A2002049029850501B6A2B4212D157
:100E60001C4B1B6C2B4208D00020BFF35F8F174B2D
:100E700000221A608BF3108823E0184B184AC12116
:100E8000184800F08FFAFFF769FF8E4214D802D19C
:100E9000039B834210D80E4B1B78BB420ED00D4BE8
:100EA0001D625D631F2004400123A3400E4A1360AE
:100EB000074B1F701E38D8E70020D6E70120D4E783
:100EC000012004B080BCBB46F0BDC046280100D064
:100ED0002E0A022000400540F80800201466001089
:100EE000886600103866001080E200E0EFF3108C96
:100EF00072B60B4B1B68002BFBD0BFF35F8F012337
:100F00008340084A136208490A789A430A70BFF37B
:100F10005F8F034B00221A608CF310887047C04625
:100F2000280100D0004005402E0A0220024B9C46BA
:100F300061448900016070474000003410B504002E
:100F4000FFF7F0FA01002000FFF7F0FF01235B42FA
:100F50006360BFF35F8F10BD10B50400FFF7E2FAC6
:100F600001002000FFF7E2FF01235B4263600023E2
:100F70002372BFF35F8F10BD10B500291ED0037B15
:100F800099421BD84B005B18033B0468A44663449A
:100F9000002919D0002A1DD0914221D0002A25D045
:100FA000047BA24222D8046850008018033820181D
:100FB0008170197800291FD11A7010BD104B114A89
:100FC0006921114800F0EEF9104B114A70310E48BA
:100FD00000F0E8F90F4B0E4A71210B4800F0E2F9DE
:100FE0000D4B0B4A7221084800F0DCF9044B054A0E
:100FF0006921054800F0D6F941701A70DDE7C04656
:101000008463001048680010A0630010F8630010AB
:1010100034680010046400101064001070B50600FD
:101020000D001400002914D0002A14D080687368C1
:101030009847002806D0220029003000FFF79CFFC7
:10104000280007E02A0021003000FFF795FF20006C
:1010500000E0100070BD0800FCE7000010B50023A0
:10106000437301338373037BC3730123027B9A426F
:1010700014D9002B0CD0027B934209D85A00D21805
:10108000033A01688C4662440133DBB25370EDE7EA
:101090000B4B0C4A69210C4800F084F9002A09D056
:1010A000924207D8016853009A18033A8A1800231D
:1010B000537010BD024B034A6921034800F072F9D6
:1010C0008463001048680010A063001010B501731D
:1010D00042608360FFF7C2FF10BD000070B50400DE
:1010E000081E00D170BD002934D0237B994231D82D
:1010F0004B005B18033B2268944663445A78002AED
:10110000F0D02DD0237B9A422AD853009B18033B62
:1011100021688C4663445D7800215970002825D0F1
:10112000237B984222D843001B18033B21688C463E
:1011300063440021597001002000FFF76FFF060093
:1011400029002000FFF7CAFF020031002000FFF74E
:1011500065FFC7E7084B094A6921094800F022F9F1
:10116000054B064A6921064800F01CF9024B034A68
:101170006921034800F016F98463001048680010E4
:10118000A063001070B505000C001600002928D0DF
:101190002DD0037B99422AD84B005B18033B026891
:1011A000944663445A78002A27D19A78002A2AD193
:1011B0001978FFF793FF0300002E03D0EA7B002A83
:1011C00027D1EC73002B37D1002C49D02B7B9C42CC
:1011D00046D82B6861000C19033C1C19002363706E
:1011E00070BD224B224A3821224800F0DBF8224B06
:1011F000224A6921224800F0D5F8224B1C4A3A21A4
:101200001C4800F0CFF8204B194A3B21194800F048
:10121000C9F8002A0AD0297B8A4207D851008A18C7
:10122000033A29688C4662445470CAE7124B134A49
:101230006921134800F0B6F8002B0BD02A7B9342AB
:1012400008D843001B18033B2A68944663440022D5
:101250009A70B9E7084B094A6921094800F0A2F8D9
:10126000054B064A6921064800F09CF848670010C3
:101270002068001050670010846300104868001058
:10128000A063001094670010BC67001070B50400E4
:101290000A00457B2900FFF775FF6073280070BDC9
:1012A00070B50400002967D0437B8B420ED0002923
:1012B00011D0037B99420ED84B005B18033B0268A8
:1012C000D0188378002B0CD1002056E00121FFF7C5
:1012D000DDFF012051E0294B294A6921294800F00E
:1012E00061F8002B20D0227B93421DD85A00D318DE
:1012F000033B2268D2182568EB5C8B421AD0002B86
:101300001BD0227B934218D85A00D318033B226883
:10131000D21853788B4216D0002BF0D11A4B1B4AAF
:1013200067211B4800F03EF8144B154A6921154807
:1013300000F038F84378137007E0104B104A692129
:10134000104800F02FF843785370002383704370E7
:1013500001222000FFF716FF0200617B814205D0C9
:101360002000FFF75BFE6073012006E0094B074A8F
:101370006D21074800F016F8002070BD846300104E
:1013800048680010A0630010E067001008680010B3
:1013900050670010E867001000BEFDE710B5FFF7CA
:1013A000FBFF000010B582B00C001900002A0CD021
:1013B000084B002A0BD0019200932300020006483C
:1013C00002F086FD0120FFF7E7FF044BF1E7034A37
:1013D000F1E7C046546800106468001060680010AF
:1013E00070B52B4B2B4A1A602B4B2C4A1A602C4B96
:1013F0009A682A4B9343FAD12A4C01E008CC9847CB
:10140000294B9C42FAD300F007F9234B274A1A6074
:10141000234B9B68DB43DB01FAD1254B40229A67C3
:101420005A671A67DA66234C09E0234B234A832163
:101430002348FFF7B7FF2000FFF780FD0834214B5A
:101440009C4209D22368002BF5D0012BEDD120005E
:10145000FFF782FD0C34F2E71B4CA1681B4DC02244
:10146000280002F0EDFBA560FEF7FDFE002800D08D
:1014700000BEFFF747F800F047FBFFF701FC144CF4
:1014800001E008CC9847134B9C42FAD370BDC0468C
:1014900000E00040BFCDFBFE00F00040FE7F3C00BE
:1014A00000C000408C0200209C020020FFFFFF01D2
:1014B00000F001407C0200209468001028690010B0
:1014C000B46800108C02002000ED00E00000002055
:1014D0009C020020A40200200FB400B583B008488D
:1014E00002F0C4FC049B002B07D005A90191180051
:1014F00002F0CCFC034802F0B9FC0120FFF74CFFDE
:10150000046900101469001010B50148FFF7E4FFEA
:1015100018690010F8B5DE4657464E464546E0B518
:1015200005000F0092460A9A93424ED31A0E914636
:101530001E020A9A00233000494601F0D9FC804679
:101540006C006419A4002F4B9C466444636883427A
:1015500000D260602B1FDBB29B46012B3BD9C0231E
:101560009B012343802212011A60AB00264A99583E
:10157000002905D0506901F079FC01300138FDD116
:1015800053465A0123685A40E0231A4080235B01E6
:1015900023431A605A46012A28D980239B012343FA
:1015A000802212011A6043466360424600233000E5
:1015B000494601F09DFCAD00134B58510120F0BC91
:1015C000BB46B246A946A046F8BD104B104A2D2195
:1015D0001048FFF7E7FE012FC1D1C0239B01234331
:1015E00003221A60A368DB07FCD5C9E721687940AC
:1015F00003220A401A60A2680123BB401342FAD0BA
:10160000CBE7C04600800040D403002038690010BA
:101610009C6900104C69001030B583B00C2000F0BC
:101620000DFBFEF765FF00280DD0002304E09900B4
:101630002D4A2E4888500133092BF8D92A4B2C4AC1
:101640005A6203B030BD2B4B00229A6700F0FEFABD
:10165000294B01221A60274B5B6C012BFBD1274BD6
:1016600003221A60234B9B6B012BFBD102240094B5
:101670000533234A0121234800F054FA009405233E
:10168000214A0121214800F04DFA214B009300220C
:1016900002210420FFF73EFF1E4D00952B00002283
:1016A00001210520FFF736FF104C00942300002293
:1016B00000210720FFF72EFF0094230000220021C5
:1016C0000820FFF727FF0A4B009323000022002188
:1016D0000920FFF71FFF00952B00002200210620A4
:1016E000FFF718FFADE7C046D4030020006CDC0212
:1016F0001BB70000008000403CB0004030B000400C
:10170000002F68590080024000389C1C00C0024035
:10171000001BB700405973078000014BC058704749
:10172000D4030020074B9B68103080001950BFF392
:101730005F8FBFF35F8F044B0021196082F3108825
:101740007047C04600ED00E0240100D010B5091A32
:1017500004394808090B05D14005400D044B1843D6
:1017600080B210BD034B044A8B210448FFF71AFED8
:1017700000E0FFFFAC690010C46B0010BC690010F2
:1017800010B5091A04394C08090B08D14905490D4F
:10179000064A11430180064B2343438010BD054B8D
:1017A000054A93210548FFF7FDFDC04600F0FFFF05
:1017B00000F8FFFFAC690010986B0010BC690010C6
:1017C00001238340034A10681840431E9841C0B269
:1017D0007047C04600E100E0002904D0034B1860C8
:1017E000034B18607047034B1860FBE780E200E092
:1017F00000E100E080E100E010B501238340180023
:10180000FFF7EAFF10BD0000024B9B68103080001C
:10181000C058704700ED00E070B504000D00EFF314
:10182000108672B60C4B1B68002BFBD0BFF35F8F8A
:101830002000FFF7E9FF094B984201D0A84205D1EB
:10184000320029002000FFF76DFF70BD044B054AF0
:101850006E210548FFF7A6FD240100D0CD01001040
:10186000086A0010E06B0010BC690010F0B5CE46AD
:10187000474680B583B006000D00EFF3108872B6BE
:10188000574B1B68002BFBD0BFF35F8F554B9A68FB
:1018900034001034A300D758534B9F4207D0AF42B7
:1018A00000D19BE00197514BFB1A2F2B09D94246DF
:1018B00039003000FFF736FF03B0C0BCB946B04670
:1018C000F0BD3000FFF77CFF814600213000FFF7BC
:1018D00093FFBFF35F8FFEF7C6FC002801D0844260
:1018E00019D10123019C9C43414923003F4A9B1A83
:1018F0005B415943090D49B20022A368AB4212D0A3
:101900000622A256002A0DDB53009B189B002200E2
:10191000364CE418F1E71E21364B374AFF31374881
:10192000FFF740FD2200AB4251D106256557002D3F
:1019300039DB6B005B199A002C4B9B189A68A260EC
:10194000DA79E27106229A56A2719B795BB2002B7A
:1019500010DABD200002A0806B005B199B00234AB7
:10196000D318274A11789971157049463000FFF74E
:1019700043FF9CE7201D6B005B199B001B4A9B18D3
:101980001A1D9B88D90A1C2907D15B055B150233F8
:1019900059005118FFF7DAFEDDE71A4B1A4A992170
:1019A0001648FFF7FFFC00280CD1002A08D0FF23BF
:1019B0009371164B9380124B1A78A2711970D4E769
:1019C000094FF8E7201D1249FFF7DAFECDE7A921FC
:1019D000104B094A49000948FFF7E4FC024F66E74B
:1019E000240100D000ED00E0CD010010F401002042
:1019F000AAAA00001C6B0010B06B0010BC6900109C
:101A00002D0A0220046B0010D06B001000BDFFFFF8
:101A10002E020020406B001070B504000126064322
:101A20002D4BF31A2F2B28D8FEF71DFC00282BD0A6
:101A3000EFF3108C72B6294B1B68002BFBD0BFF361
:101A40005F8F274D22002449521A524155432D0DD4
:101A50006DB2244B9B6880001B58B3421BD0002200
:101A6000032A32D853009B189B001B49CB189B7943
:101A70005BB2AB421FD00132F2E778211A4B1B4A0E
:101A8000FF311B48FFF78EFCBD211A4B174A490056
:101A90001748FFF787FC134B9B68174A1A50174BE0
:101AA0001A78A2711D70BFF35F8F0C4B00221A6071
:101AB0008CF3108870BD08005300991889004118F4
:101AC000FF268E710E4A8A80E9E78C210D4B074A6A
:101AD000FF310748FFF766FCF4010020240100D025
:101AE000AAAA000000ED00E0486B00107C6B00101B
:101AF000BC690010706B0010CD0100102D0A02208F
:101B000000BDFFFFE06700100022044B02E0044923
:101B100002C30132072AFAD97047C04600E400E048
:101B200080808080F0B5CE4600B504000E0091465E
:101B30001F000C2001F09AF9050043011B1A9901BE
:101B4000C91AC90009188901484601F08FF9020035
:101B5000103A98235B009A4233D87B1E062B36D866
:101B6000069B013B062B32D8069B9F4235D34B4642
:101B70001A09AA4237D33F04069B1D032F4323684B
:101B8000002B36DB234B9C4241D080225201224B5A
:101B90001A60224B1A60224B9B6811009943FAD1BC
:101BA0002660A060231DC02292011A4321231360E6
:101BB0002368002BFCDAE7600823136080BCB94679
:101BC000F0BD184B184A16211848FFF7EBFB184BCD
:101BD000154A19211548FFF7E5FB164B124A1F213C
:101BE0001248FFF7DFFB144B0F4A22210F48FFF783
:101BF000D9FB22683F231340B342C3D1A3681B051E
:101C00001B0D8342BED1E368002FBBD1D6E78022F3
:101C10009201BCE700C0024000E0004000F000403C
:101C200000C00040FC6B0010E46C0010186C001049
:101C3000646C0010B06C0010C86C001080239B0016
:101C40000343014AD362704700800540064BAA2235
:101C500012011A602F22DA60044B054A1A60024B07
:101C60005B68002BFBDA70470040024000600240D6
:101C700000B0FA00704710B5002802D00B68496820
:101C8000984710BD0100002007E083001B185B008F
:101C9000501C08601078C01830380A681378303B40
:101CA000DBB2092BF1D97047F0B5DE4657464E46F8
:101CB0004546E0B583B093461F000C9B9A460D9CA9
:101CC0000E9B99460F9B9B0703D0B8460F0006005A
:101CD00022E00192A34688464E46B9460700B44228
:101CE00007D2551C4B4641462020B84701342A00F4
:101CF000F5E73D004F465C46019B9B46B146464694
:101D0000B84637002E0007E0013C551C5346185DCD
:101D100043463900B0472A00002CF5D135003E007B
:101D200047460F9B9B0707D4100003B0F0BCBB468F
:101D3000B246A946A046F0BDB0464E46B9462F0071
:101D40005D46531BB342EFD2541C4B464146202004
:101D5000B8472200F5E7F0B5CE46474680B585B0D6
:101D6000944698460C9D0D9C0EAB1B789946109A94
:101D7000119B129EB7071CD4002B0CD0F7070AD575
:101D80004F46002F02D10C37374204D0013B02E00E
:101D900030272F550134944201D21F2CF8D9F70770
:101DA00007D59C4205D21F2C03D830272F5501346C
:101DB000F5E7F70615D5770505D4002C03D0944236
:101DC00024D09C4222D00F9A102A2BD00F9A102A8E
:101DD00030D00F9A022A35D01F2C02D830222A5533
:101DE00001341F2C05D84A46002A31D02D222A550D
:101DF0000134039602930194009543466246FFF72F
:101E000053FF05B0C0BCB946B046F0BD621E012C00
:101E100006D00F9F102F01D01400D4E7023CD2E768
:101E20001400D0E7B206D1D41F2CCFD878222A557F
:101E30000134D1E7B206CCD51F2CCAD858222A5576
:101E40000134C9E71F2CC7D860322A550134C3E7D3
:101E5000720703D52B222A550134CAE73207C8D5A9
:101E600020222A550134C4E7F0B5DE4657464E46D7
:101E70004546E0B593B081468A46089209931CAB6B
:101E800010CB1B789B461E9D219B9846002C03D1AE
:101E9000102342469A4390468023DB0046461E406C
:101EA00042461A4212D0002C22D000260EE03033D7
:101EB000D9B2771C0AAB99552900200000F0D6FF53
:101EC000AC4216D31F2F14D83E0004002900200076
:101ED00000F0CCFFCBB2092BE9D94246920605D5DA
:101EE0004121C918C9B20A39C9B2E2E76121F8E74C
:101EF000270043460693209B05931F9B049303955D
:101F00005B46029301970AAB0093099B089A5146DE
:101F10004846FFF720FF13B0F0BCBB46B246A946C7
:101F2000A046F0BDF0B5DE4657464E464546E0B504
:101F300095B0089009910A920B931E9E1F9C20ABAE
:101F40001B789B46229B9946239D269B9A463300ED
:101F5000234303D1103352469A4392468023DB0039
:101F600057461F4052461A4219D0330023432DD002
:101F7000002714E03033DAB27B1C98460CABDA55FC
:101F80004A462B003000210000F0B2FFA5421FD8C6
:101F900019D043461F2B1BD8474606000C004A4663
:101FA0002B003000210000F0A3FFD3B2092BE1D9B0
:101FB0005246920605D54122D218D2B20A3AD2B27E
:101FC000DAE76122F8E7B145E3D901E0002398465A
:101FD00053460693259B0593249B04934B460393FA
:101FE0005B460293434601930CAB00930B9B0A9A0A
:101FF00009990898FFF7AFFE15B0F0BCBB46B24692
:10200000A946A046F0BD0000F0B5DE4657464E4654
:102010004546E0B591B083468A460C9298461A9C94
:1020200008941B9D099522002B002000290001F037
:10203000EEF9002800D0E5E001225242D74B200003
:10204000290001F0DFF9002800D0DBE00122524234
:10205000D34B2000290001F0BFF9002800D0D1E0C7
:1020600000220023089D2800099E310001F0B4F9E8
:10207000002800D0DDE00898099906900791802398
:10208000DB001E9A1A400D921E9A1A4201D10623B5
:102090001C930698079904000D000A0006000243ED
:1020A00000D1D1E0080D4005400DBE4CA44660446F
:1020B0000A03120BBC4B13431F0001F0BBF9BB4AD0
:1020C000BB4B01F046F9BB4ABB4B01F01BF90400C6
:1020D0000D000022B94B3000390001F00AF9B84A6E
:1020E000B84B01F036F902000B002000290001F086
:1020F00009F901F0B7F9814601F09CF904000D00DF
:10210000B14AB24B01F025F90022B14B01F0FAF8C7
:1021100001F0A8F90600AF4AAF4B2000290001F0FA
:1021200018F904000D00300001F084F9AB4AAC4B03
:1021300001F00FF902000B002000290001F0D9F88E
:1021400004000D0002000B0001F003F90A900B914E
:10215000A44BF31800261F0522002B0020002900A5
:1021600001F0D0F80E900F9122002B00002080216A
:10217000C90501F0BEF804000D0000229A4B0A9830
:102180000B9901F0C8F80022984B01F0BBF802004F
:102190000B000A980B9901F0BEF80022944B01F055
:1021A000B1F802000B000A980B9901F0B4F8020094
:1021B0000B002000290001F0A5F802000B000E988A
:1021C0000F9901F0A8F80022774B01F09BF832003C
:1021D0003B0001F0BEF806000F0004000D00069A57
:1021E000079B01F00FF9002830D001235B429C4689
:1021F000E14400227D4B3000390001F08CF80400EE
:102200000D0023E01E9B04931D9B03931C9B0293D4
:10221000089A099B0092019343460C9A51465846EE
:1022200000F0FCF811B0F0BCBB46B246A946A0468F
:10223000F0BD0023002406930794069580231B0617
:102240009C46664407961AE7002399464B4663333B
:10225000C62B1ED804261E9B1B0526D52B00234308
:102260000FD0644A644B0698079901F0C3F8002820
:1022700079D00022614B0698079901F0ADF800284B
:1022800071D01C9B4B4506DD4A46981A431E1C9391
:1022900003E00526DFE700231C938023DB001E9A62
:1022A0001A431E920026002399461D9B9E4264D22B
:1022B0009F1B02231E9A1A400A921E9A134202D0B2
:1022C000002E00D000274B46002B07D022002B0009
:1022D0000698079901F01FF8069007910022002345
:1022E0000898099901F078F8002848D1444B1E9AC3
:1022F0001340049303971C9B0293069B079C009337
:10230000019443460C9A5146584600F087F8002E37
:1023100000D187E71E9B9B063DD54525441C4346BF
:10232000020051462800D8474B46DA179B18534005
:1023300005220592013E0496002203920A3202927F
:102340004A46D00F0190009343462200514658461A
:10235000FFF78AFD0A9B002B00D163E702005F466E
:102360000C9E1D9D54E01C9B002B9ED00D9B002BB2
:102370009BD01C9B013B1C9397E7002799E7069C89
:10238000079D2200290080200006844661440B003E
:1023900006920793AAE76525C0E7C046FFFFEF7FD7
:1023A000FFFFEFFF01FCFFFF0000F03FFB799F50B4
:1023B0001344D33FB3C8608B288AC63F0000F83F60
:1023C00061436F63A787D23F71A379094F930A4096
:1023D0000000E03F1655B5BBB16B0240EF39FAFE85
:1023E000422EE63FFF03000000002C400000244086
:1023F000000018402D431CEBE2361A3F80842E412A
:10240000FFF7FFFF541C434651462020B8472200E7
:10241000931BAB42F6D3100004E7C046F0B5DE468E
:1024200057464E464546E0B595B00690079193460F
:102430009946209F1E9A1F9B1000190000F0E7FF8D
:10244000002831D101225242BF4B1E981F9900F043
:10245000C3FF002837D101225242BC4B1E981F995E
:1024600000F0D0FF00283DD10022B94B1E981F99E3
:1024700000F0C8FF002850D10022B64B1E981F99CB
:1024800000F0AAFF002848D1002200231E981F99BF
:1024900000F0A2FF002850D100239846229B5B0544
:1024A00000D4B6E0002458E0229B0393219B0293C2
:1024B00003230193A84B00934B465A46079906986D
:1024C000FFF7F2FB0EE1229B0393219B029304236F
:1024D0000193A24B00934B465A4607990698FFF783
:1024E000E3FBFFE00423229A1A4022990B4210D00A
:1024F0009B4B002A0FD0042222990391219902912B
:10250000019200934B465A4607990698FFF7CCFB79
:10251000E8E0944BEDE70322EEE7229B0493219B36
:10252000039302971E9B1F9C009301944B465A46AF
:1025300007990698FFF768FDD4E01E9A1F9B0020BC
:10254000002100F0D6FE1E901F9101239846A5E7BA
:102550000CAB30221A55013F01341F2C01D8092F32
:10256000F6D81E981F9900F07DFF050000F062FF6D
:1025700002000B001E981F9900F0BBFEFA007A4B78
:102580009B181A685B680A920B9300F0E2FE0890B1
:10259000099100F08BFF060000F048FF02000B00DD
:1025A0000898099900F0A5FE0890099100226F4B48
:1025B00000F028FF00282ED00136300000F036FF52
:1025C00002000B000A980B9900F00CFF002801D0C4
:1025D00001350026002F2CD1280000F02BFF02002F
:1025E0000B001E981F9900F084FE06000F000022C9
:1025F0005E4B00F0F1FE002846D100225B4B30001C
:10260000390000F0FFFE00283ED1EB073CD5013534
:102610003AE0062746E70022544B0898099900F053
:10262000DBFE0028D6D1002E01D0F307D2D501362B
:10263000D0E7AA461F2C11D8013F0A21300000F034
:1026400015FC651C30310CAB19550A21300000F027
:102650000DFC092E0ED906002C00EBE755461F2C69
:102660000CD87B1E002F09D00CAA302111551F0059
:102670000134F4E72B0055461C00F0E71F2C03D86B
:102680000CAB2E221A5501341F2C10D80A21280019
:1026900000F0C4FB661C30310CAB19550A21280030
:1026A00000F0BCFB051E01D03400EDE7340003232D
:1026B000229A1340012B1CD01F2C06D84346002B16
:1026C00032D00CAB2D221A550134229B0393219B4F
:1026D000029301940CAB00934B465A460799069817
:1026E000FFF7E2FA15B0F0BCBB46B246A946A046D9
:1026F000F0BD219B002B13D04346002B02D10C339D
:1027000013420FD0219B013B2193190003E00CAB36
:1027100030221A5501348C42CED21F2CF7D9CBE788
:102720002199F8E72199F6E7229B5B0704D50CABCA
:102730002B221A550134C8E7229B1B07C5D50CABC9
:1027400020221A550134C0E7FFFFEFFFFFFFEF7FA4
:1027500065CDCD4165CDCDC1FC6C0010006D001084
:10276000F46C0010F06C0010E86E00100000E03F08
:10277000F0B5DE4657464E464546E0B593B0824634
:102780008B4690461193002900D1EBE20027554675
:10279000119B1878002800D1E7E2252809D07C1C7D
:1027A00043463A005946A847119B0133119327002D
:1027B000EEE7013311930024119A11780B00203BAE
:1027C000D8B2102803D88300D048C3589F460B00C6
:1027D000303BDBB2092B2CD92A292FD000230A93B6
:1027E000119B1A782E2A39D000239A46119A137811
:1027F000683BD9B2122976D88B00C549CB589F4681
:1028000001231C4301321192D6E702231C430132FB
:102810001192D1E704231C4301321192CCE7082323
:102820001C4301321192C7E710231C43013211925D
:10283000C2E711A8FFF726FA0A90D1E71C9B1A1DE0
:102840001C921868002804DB0A90119B0133119335
:10285000C6E702231C4343420A93F6E78022D200D4
:1028600014435A1C11925A781300303BDBB2092BE7
:1028700004D92A2A07D000239A46B7E711A8FFF700
:1028800001FA8246B2E71C9B1A1D1C9218680028A8
:1028900004DB8246119B01331193A7E70020F8E780
:1028A00080235B002343511C119152786C2A01D084
:1028B0001C0018E0C0239B001C430131119112E061
:1028C00080232343511C11915278682A01D01C00A7
:1028D00009E0C0231C430131119104E080235B0017
:1028E0001C4301321192119B18780300253BDAB288
:1028F000532A00D92CE29300864AD3589F4680235E
:102900009B001C4301321192EDE780235B001C43C6
:1029100001321192E7E7782809D0582838D06F287B
:1029200038D0622838D010239C430A2600E01026B5
:10293000582833D0692803D0642801D00C2294434E
:10294000630501D50122944369282AD0642828D040
:10295000A30500D59FE0E30500D5B8E0630600D4E9
:10296000CAE01C9A111D1C911168FF220A400594AF
:102970000A9B04935346039302960023019300920B
:1029800043463A0059462800FFF76EFA070027E051
:102990001026CDE70826CBE70226C9E720221443FC
:1029A000C8E7A30520D4E30550D4630666D51C9A76
:1029B000111D1C911168FF220A40D317D1185940EC
:1029C00005940A9B0493534603930296D20F0192F7
:1029D000009143463A0059462800FFF745FA0700A0
:1029E000119B01331193D3E61C9BDA1D07218A4307
:1029F000110008311C91116853689C46DB170C9339
:102A00000D930C9A0D9B100048400E906246534067
:102A10000F930E980F990C9A0D9B801A99410E9066
:102A20000F9108940A9B079353460693049600233C
:102A300005936346DA0F02920090019143463A00F3
:102A400059462800FFF76EFA0700C9E71C9A111DC6
:102A50001C911268D317D118594005940A9B04930E
:102A6000534603930296D20F0192009143463A00D7
:102A700059462800FFF7F8F90700B1E7230605D506
:102A80001C9A111D1C910023D25E96E71C9A111D01
:102A90001C91126891E71C9BDA1D07218A431100E3
:102AA00008311C9108940A9B079353460693049699
:102AB00000230593029313685468009301944346DE
:102AC0003A0059462800FFF72DFA070088E71C9ABC
:102AD000111D1C9105940A9B04935346039302967F
:102AE000002301931368009343463A005946280097
:102AF000FFF7BAF9070073E723060DD51C9A111DDD
:102B00001C9112681204120C31E7C046086D0010C7
:102B10004C6D0010986D00101C9A111D1C911268CC
:102B200025E746281AD01C9B0733072293431A0037
:102B300008321C9204940A9A0392524602925C68EC
:102B40001B680093019443463A0059462800FFF75A
:102B500065FC0700119B0133119319E620231C43E8
:102B6000E1E7672801D0472802D180231B011C43DD
:102B7000452801D0472801D120231C431C9B073343
:102B8000072293431A0008321C9204940A9A039273
:102B9000524602925C681B680093019443463A00D7
:102BA00059462800FFF730FA0700119B01331193B3
:102BB000EEE502231A002240924623421FD0012450
:102BC0001C9B1A1D1C927A1C9146187843463A00A9
:102BD0005946A8475346002B16D1119B0133119338
:102BE0004F46D5E5561C434659462020B84723009A
:102BF00032005C1C9D42F5D83D001700E0E7012340
:102C00003A002F000A9DF4E74A46A9460A9D06E0CD
:102C1000571C434659462020C84734003A00661CDA
:102C2000A542F5D84D469146D7E71C9B1A1D1C922C
:102C30001B6899465346002B00D1013B4E4601E0EC
:102C4000013613003278002A02D05A1E002BF7D129
:102C50004B46F21A10928023DB0026001E401C42D5
:102C600003D0524501D95346109302231A00224043
:102C70000B92234205D03A0037004C46A9465546F0
:102C800020E03A00109B5F46B3462E0006E0551C3C
:102C9000434639002020B04723002A005C1C0A99D3
:102CA0009942F4D835005E46BB46109437004C4636
:102CB000A946554606E01D000134561C43465946B8
:102CC000C84732002078002804D0002FF4D06B1EB3
:102CD000002DF0D117004D460B9B002B03D1119B0B
:102CE0000133119354E50A9F109B06E0561C43469E
:102CF00059462020A847230032005C1C9F42F5D88B
:102D00001700ECE721231C431C9B1A1D1C921B6817
:102D100000930594082304935346039310230293CE
:102D20000023019343463A0059462800FFF79CF8D8
:102D30000700119B013311932AE57C1C43463A009E
:102D400059462520A847119B0133119327001FE501
:102D50007C1C43463A005946A847119B0133119306
:102D6000270015E50A4B9A4610E5AA46474502D3C7
:102D700043465A1E00E03A00434659460020D047D9
:102D8000380013B0F0BCBB46B246A946A046F0BD21
:102D9000751C001000B585B00290039101210093CD
:102DA00013004A4202A90248FFF7E2FC05B000BD49
:102DB000771C001001480421014B184740020020F5
:102DC000E52D001010B5010018231B88142210886F
:102DD000984710BD10B5010018231B8816221088D3
:102DE000984710BDF0B5C64600B507000E00002597
:102DF0000123984600E00135B5420AD2AC003C19E7
:102E00002068FFF7DFFF20600028F4D100239846F8
:102E1000F1E7404680BCB846F0BD0000124A936F0F
:102E20009B0815D29066D166002905D0FFE7FFE721
:102E3000FFE7516F106F704704B580210906C21774
:102E40005140002800D0C84303F0C2F9002104BD5E
:102E5000F0B5146E556E576F166FFFF7E3FF1466EB
:102E6000556657671667F0BD000000D0114A936F92
:102E70009B0813D210665166002905D0FFE7FFE7D3
:102E8000FFE7516F106F704704B5002801D0002094
:102E9000C04303F09DF9002104BDC046F0B5146E97
:102EA000556E576F166FFFF7E5FF14665566576747
:102EB0001667F0BD000000D094464E4A926F92080B
:102EC000624601D230E0C046F0B54A4EB56F6D089B
:102ED000FCD3346E756E776F366F00F025F894462C
:102EE000444A14665566576716676246F0BDC04689
:102EF0009446404A926F9208624601D258E0C0461A
:102F0000F0B53C4EB56F6D08FCD3346E756E776FBF
:102F1000366F00F04DF89446364A1466556657678A
:102F200016676246F0BDC046002B24DB11D0002995
:102F30003EDA00B5C943404200D1013100F038F813
:102F4000C943404200D10131DB43524200D1013339
:102F500000BD002AEBD1002801D1002905D00020B6
:102F6000C90FC90701D1C043410800B503F028F9D2
:102F70000022002300BD00B500290ADBDB435242DA
:102F800000D1013300F014F8C943404200D10131AF
:102F900000BDC943404200D10131DB43524200D160
:102FA000013300F005F8DB43524200D1013300BD8C
:102FB000002923D1002B18D1002A0CD0BC460D4F7C
:102FC00038667A6600210023FFE7FFE7FFE77A6FA4
:102FD000386F67467047002801D00748010000B5E8
:102FE00003F0EEF80022002300BD02000B000020D9
:102FF00000217047000000D0FFFFFFFF002B00D032
:10300000BFE0130C28D1002AE7D080B4114F3966F5
:103010007A66FFE7FFE730B4040C7B6F396F1B045F
:1030200023433B667A66FFE7FFE7FFE7C04684B2CB
:103030007B6F3D6F1B0423433B667A66FFE7FFE728
:10304000C04600232C042D0C7A6F386F001969419B
:10305000B0BC7047000000D0F0B594460025140EB7
:1030600001D112020835140F01D112010435940F59
:1030700001D192000235D40F01D152000135D40B99
:103080000134254F7C66254C3C660E0C93B2FFE75D
:10309000FFE7FFE73C6F6643360C7703BE4673439A
:1030A000DF0B5B04C01AB941130C7343DB18C91A58
:1030B000CE086643360CB64493B273431F0F1B0110
:1030C000C01AB941130C73431F0B1B05C01AB94139
:1030D000860D8F023E436643360C092D24DB520ACF
:1030E0007243801A7703460A6643360C16235B1B2D
:1030F000DE40DF40BF1964466643821B70460435DC
:1031000006330100D940A840C01900D30131A242C2
:1031100006D20023F0BD0000000000D0FFFFFFFF3B
:10312000121B0130F3D3F1E709277F1BFE406446F1
:10313000A2B27243801A00D20139220C7243130CDE
:103140001204821A99410B007046043513370100AE
:10315000F940A840801900D30131002B02D1A242CE
:103160000AD2F0BD013000D30131121BFAD2013B6B
:10317000F8D1A24200D2F0BD013000D30131121BC0
:10318000F7E7F0B51C0C00D080E00CB400251C0A59
:1031900004D11B02160E3343120208351C0B04D156
:1031A0001B01160F3343120104359C0B04D19B0005
:1031B000960F334392000235DC0B02D192185B412B
:1031C00001351C00971864410134464F7C66464C1B
:1031D0003C660E0CFFE7FFE7FFE7C0463C6F664327
:1031E000360C7703BE4697B27743C01B00D2013935
:1031F000C01B00D201399FB27743C91BC91B170CF2
:1032000077437E04FF0B801BB941CE086643360C22
:103210000C2D33DBB644120B1F053A431B0B97B240
:103220007743C01B00D201399FB27743C91B170CEB
:1032300077433E043F0C801BB941860D8F023E430D
:10324000664329277F1BFE400C3D7746AF40BF19E0
:1032500030BCA2B2ABB272437343801A9941220CC4
:103260007243130C1204801A994102000B000137BB
:10327000001BA941F9D2781E0021F0BD0C277F1B4D
:10328000FE4077467F0BAF40FF19E0E700245D1C4E
:1032900007D0144F7D663966FFE7FFE7FFE7FFE7DA
:1032A0003C6F95B29EB265436643401BB141150C1D
:1032B0001E0C6543664336042F0C3E432D04401B11
:1032C000B141994204D202000B0020000021F0BD60
:1032D00001D19042F7D3801A994101349942F2D337
:1032E000F6E70000000000D0FFFFFFFF484041402C
:1032F000484018B41B4B5B68FC46019308BD04DFD3
:10330000C735001018B4174B1B68FC46019308BD65
:1033100000DFD13500109446134A926F920809D20B
:10332000624618B40F4BDB68FC46019308BD0CDF06
:10333000893800100C4AF0B5146E556E576F166F31
:103340006246FFF7EEFF084A146655665767166730
:10335000F0BD18B4034B9B68FC46019308BD08DF21
:103360002D370010F0060020000000D0FFB55040BF
:103370004240504059404B40594000E0FFB5154F86
:103380004C00640D03D0BC4204D10C0314D80020BF
:10339000090D09055C00640D03D0BC4204D11C0377
:1033A0000AD800221B0D1B0501264B4009D44B40B7
:1033B00003D58B4200D18242FFBD9942FCD190429D
:1033C000FFBD0B43DB1803431343F5D0C943491832
:1033D000FFBD0000FF07000000B5FFF7CFFF8041F1
:1033E00000BDC04600B5FFF7C9FF01D9002000BDF0
:1033F000012000BD00B5FFF7B9FF01D9002000BDD5
:10340000012000BD00B5FFF7B1FF804100BD0120E4
:1034100040054A00121804D85A00121801D800209A
:1034200070470120704700207047000000210028ED
:1034300005D17047C1174840401AFAD0C90713B5E3
:10344000064B1B6898470CBC441CA2401005120B8D
:103450000349091B09051943114310BDF00700205A
:103460001F04000010B54C00620D8023D218DB0051
:10347000D21A5B057E2A10DD9E3A13DACC170903B7
:10348000490819435242D140640001341532202AC0
:1034900005DAD0400843604310BD002010BD084647
:1034A000604310BDC80FC018013810BD18B4044BDC
:1034B0005B6AFC46019308BD24DF393A0010000026
:1034C000F006002070B513231C78012C14D0012CB9
:1034D00014DC022C02DC1F4A1F4B9A641F48FFF7C2
:1034E00071FC1F4B186070BD99001A481A4A885029
:1034F00001331F2BF8D9EAE70023FAE71948FFF751
:1035000069FC05001848FFF765FC023803789B004A
:103510007F2B19DD802229000F4800F091FB022C3F
:10352000D7D1124B1A88B5231B029A4209D1104BEE
:103530001A88104B9A4204D10F4B1A880F4B9A42AB
:10354000C7D00020FDF7C8FF0D4B0E4A32210E48B0
:10355000FDF728FF8D350010F00600204C330000E9
:10356000F007002053440000534600005438000088
:10357000D8380000494600009C3800005946000039
:10358000386F0010EC6F0010986F001007B56046A0
:10359000002800D100BE01880A0A0230DF2AFAD1D1
:1035A000C9B2820804D3028840880004104300E0B6
:1035B0000068024A5050039007BD0000F00600204A
:1035C0000FB403BC0CBCF0B50124E407634000E079
:1035D000F0B50C0DCF0F661E3605891B640503D3AD
:1035E000C943404200D30131640D03D0661CF60A82
:1035F00007D0E41B00207F00791C89078912803CDA
:1036000024031D0DDF0F6E1E36059B1B6D0503D3B6
:10361000DB43524200D301336D0D03D06E1CF60A1A
:1036200007D0ED1B00227F007B1C9B079B12803D77
:103630002D032F1B661B58D4A446202E46DA2037B4
:103640001400BC401D00BD40F24033412A438018A5
:103650005941CB0F05D0C943C043002264425041B9
:10366000514162464D0D28D10D0D07D100281FD0C4
:10367000241940414941013A0D0DF9D0640006D3A7
:10368000013000D30131002C01D140084000013A43
:103690000BD4941CE40A04D112051144DB0719442D
:1036A000F0BDD907204B194300E0D9070020F0BD39
:1036B0000029DDD1002CDBD1F0BD0132C607400866
:1036C000CD0728434908002EE1D0D9E73C2E29DA5E
:1036D000203E40371400BC4000D00124F240144387
:1036E0001A00BB401C43D317ACE7AC46202F08DAC6
:1036F00020360400B4400D00B540F840394128435D
:10370000A5E73C2F0CDA203F40360400B44000D03F
:103710000124F84004430800B1400C43C117EAE714
:1037200010001900002494E70000F07FF0B50C0DA4
:10373000661E3605891BE60A6405640D02D0651C09
:10374000ED0A04D0002001210905803C2403A44691
:103750001C0D671E3F05DB1BE70A6405640D02D0E4
:10376000651CED0A04D0002201231B05803C2403C4
:103770007740644497B484B296B27443070C7E4396
:10378000150C6F4380B26843361802D30120000441
:103790003F183004350C00197D41844688B29AB236
:1037A00050430C0C62431F0C7C438EB27E43921933
:1037B00002D301263604A4191604170C36186741E3
:1037C00001BC81B29AB25143040C62431B0C5C43AE
:1037D00080B25843121802D30120000424181004A8
:1037E000130C401863412D185E410020474106BC70
:1037F00088B293B258430C0C6343120C544389B201
:1038000051435B1802D301210904641819041A0CEE
:10381000091862416D1856410020474118BCF90251
:10382000720D1143F0026A0D1043ED020A0D03D12F
:103830006D1940414941013B124E9B1B7600B3423A
:103840000ED26D0007D30130002671416646354324
:1038500001D1400840001B05C918E4072144F0BD10
:103860000BDA013306D1013004D101314F0D01D003
:103870004908F2E7E1070020F0BD013631050020DC
:10388000EBE70000FF030000F0B51C0D671E3F05CD
:10389000DB1BE70A6405640D02D0661CF60A04D03F
:1038A000002201231B05803C2403D0252D06002681
:1038B000F6432E661E096E66CE0FF619B446490011
:1038C0004F0D02D07E1CF60A03D000200021403F9D
:1038D0003F033E1BB600B444013F7F05C91B4908A6
:1038E0002E6F013676089C02950D25437543ED1326
:1038F0007543AD1301356D10F603761B0CB4CC0285
:10390000450D2C43A2B2B3B25A43270C7B43350C6E
:103910006F43A4B26C431B1902D3012424043F1942
:103920001C041D0CA4187D4124196D41009A91B20C
:10393000ACB26143170C7C432B0C5F4392B25A43E9
:10394000A41802D301221204BF182204230C521817
:103950007B41019C6C431B19520ED9010A4344015F
:10396000A01A81B2B2B2514303145A43360C7343C6
:1039700087B27743D617D21900277E4136049B19A8
:103980001704160C7F185E417316ED18F30100261C
:1039900080337541A90F06D16400690AE8055B0A06
:1039A000184309D22FE00422944480337541A90AB8
:1039B000A8059B0A184326D3404149412404009A94
:1039C000019B0D005543641B4343E41A95B286B234
:1039D0007543170C7E43030C5F4392B25A43B618EB
:1039E00002D301221204BF183204330C52197B4156
:1039F00052429C41002C02D4002201305141400827
:103A0000CA071043490802B06246D7079210084B14
:103A1000D218084B9A4203D212058918C919F0BD71
:103A20000020002A01DC3900F0BD01331905F5E75B
:103A3000FD030000FE070000002200B5203200F068
:103A400004F8080000BD000000220B150AD410B5D0
:103A5000944600F031F81414013400DA0021CB1739
:103A6000144C20470020002170476244343A0CD4A3
:103A70000C2A07DA04009140904052422032D44090
:103A8000214310BDD843D94310BD203207D40C4682
:103A90009440524220321141D040204310BD0800D2
:103AA000C917203203D452422032104110BD1800F1
:103AB000190010BD6B3A00100A0DCC0F531E1B05E8
:103AC000C91A520503D3C943404200D30131520DF4
:103AD00003D0531CDB0A07D0121B00206400611CBA
:103AE00089078912803A1203014BD21A70470000ED
:103AF000FF03000070B513231D782A48FFF76AF909
:103B00000400012D11D0012D09DDA31E1B789B009F
:103B10007F2B40DD80222100234800F091F82348CC
:103B2000FFF750F9224B186070BD542201001E4867
:103B300000F086F81F4B1A881F4B9A421CD1A7230E
:103B40009B011A881D4B9A4216D11D4B1A881D4B9A
:103B50009A4211D11C4B1A8894239B019A420BD193
:103B60001A4B1A881A4B9A4206D11A4B1A681A4BEA
:103B70009A4201D1152307E01848FDF7ADFC9900E2
:103B80001748094A885001331F2BF8D9144A064BAD
:103B90001A62DA61B7E7134B134A42211348FDF763
:103BA00001FCC04653460000F40700204C330000DF
:103BB000F0070020EE290000C40F0000C20D000035
:103BC000962B0000C0B50000182B0000CC2A000086
:103BD00010B50000FC2C000051ED876460680010F7
:103BE000F13B00100070001088700010347000105D
:103BF00007B56046002800D100BE01880A0A0230DD
:103C0000DF2AFAD1C9B2820804D3028840880004AE
:103C1000104300E00068024A5050039007BD0000C6
:103C2000F407002001480421014B184750020020EE
:103C3000E52D0010014B1B681847000050020020C2
:103C4000014B5B68184700005002002010B50300CC
:103C5000080011001B68984710BD0000F8B5070068
:103C60000D001600437C002B02D0002400200CE045
:103C700003681100280098472DE03B7C10E00221EA
:103C800015483B689847601C0134B44214DA002C94
:103C9000F3DD2B19013B1B780D3B5A425341DBB23C
:103CA0002A5D0A2AF0D1002BEED1A042E7DA211AD0
:103CB00028183B689847E2E7B04203DA311A28181F
:103CC0003B689847002E06DDAD19013D2B780D3B72
:103CD0005A4253413B74F8BD0071001070B50500A5
:103CE0000368002B16D00C4B1C6805E0290004C9A2
:103CF0002000FFF7B3FFE468002C09D02368002BF5
:103D0000F9D0064B1B68002BF0D0A342F3D1EDE7AE
:103D100000232B6070BDC0463C04002040040020FE
:103D200070B505000C000B68802B05D021684B1C7A
:103D300023606418257170BD0800FFF7CFFFF5E719
:103D400010B582B000F090FA040001A9064802F014
:103D500047FA002806D1019BA34203D0024802F093
:103D600047FA012002B010BD8402002010B50248BD
:103D700002F01EFA10BDC04684020020F0B5CE4607
:103D8000474680B583B006000D0090461C00FFF743
:103D9000D7FF81466B1C05D0002C08D0194F1A4B59
:103DA0001C6807E0300002F0D3F90500F4E7174F74
:103DB000F5E7E468002C17D02368002BF9D0144BEA
:103DC0001B68002B01D0A342F3D12A003100200050
:103DD000B8474346002BECD06B46D91D0A230B7025
:103DE00001222000B847E4E74B46002B07D16B1EA9
:103DF0009D41E8B203B0C0BCB946B046F0BDFFF784
:103E0000B5FFF4E74D3C00103C0400205D3C001081
:103E1000400400200C4B1A68130001E01A00DB6814
:103E2000002B08D08342F9D1002903D1DB68D3608D
:103E30000023C36070470029FCD0002A01D0D06065
:103E4000F8E7014B1860F5E73C04002010B5064B7D
:103E50001C6801E09847E468002C03D06368002BDD
:103E6000F8D1F8E710BDC0463C04002070B505004D
:103E700002F06EF904000023012201002800FFF780
:103E80007DFFFFF7E3FF200070BD000070B5A2B01A
:103E900004000E00FFF754FF05008422002101A852
:103EA000FFF7C8FE3300220001A90848FEF772FFA1
:103EB000040001A8FFF712FFFFF7C8FF002D02D191
:103EC000200022B070BDFFF751FFF9E7213D00103F
:103ED0000FB400B583B004A901C90191FFF7D6FF63
:103EE00003B008BC04B0184710B500F085F810BD49
:103EF000F0B583B005000E0000240FE06B46D91D1D
:103F00000D230B700020002816D193699B06FCD46A
:103F10000B78136001300131F5E70134B44219DA4E
:103F20000D4B1A682F5D0D4BD31859424B415B0066
:103F30000B495B5EBB42E1D06B46D91D0F70002080
:103F40000028EAD193699B06FCD40B7813600130FA
:103F50000131F5E703B0F0BD0C0900200080FCBF83
:103F600008090020F0B583B006000F00002004E02F
:103F70006B4607331B7823702800B84215DA0E4BC6
:103F80001A6893691024210019401C420DD1451C68
:103F900034186B46D81D0029EAD19369DB06FCD49E
:103FA0001368037001310130F5E7002801D003B038
:103FB000F0BD0338FBE7C0460C09002070B51500C2
:103FC0001C000B4B1860FCF7FDFA002D06DA002CE4
:103FD00009DA01210748FFF71DFF70BD0221280003
:103FE000FCF732FAF3E702212000FCF72DFAF0E7A4
:103FF0000C0900206002002010B5064B1B78064B10
:104000001B78E1210123002249020448FFF7D6FF73
:1040100010BDC046B07B0010B47B001000400340D0
:1040200070470000084A13681868203080F3098838
:10403000022080F31488BFF36F8F3FBCAE4608BCEC
:1040400004BC62B61847000058040020EFF3098052
:10405000154B1A6820381060F0C044464D4656464D
:104060005F46F0C00D221207146E556E566F176F23
:104070003038F0C008B572B601F01AFB62B60CBC5D
:10408000116808681030F0C8A046A946B246BB4681
:1040900080F309880D2212073038F0C8146655667F
:1040A00056671767F0C818475804002010B5FDF789
:1040B0002BFA000010B5031F802464041C60043B2D
:1040C0001960043B02491960143B1A60403810BD66
:1040D000AD40001010B50A4B1B68002B08D1094BEE
:1040E000802252051A60BFF34F8FBFF36F8F10BD50
:1040F0003421054B054AFF310548FDF753F9C04609
:10410000EC06002004ED00E0447100107C72001009
:104110006471001072B6044A136801331360BFF370
:104120004F8FBFF36F8F704714090220074B1B6836
:10413000002B09D0064A1168BFF35F8F00221A6076
:1041400081F31088014B1A6062B67047EC060020BC
:104150001009022010B50A4B1B68002B05D0013B4B
:10416000074A1360002B07D010BDA621054B064A55
:1041700049000648FDF716F9FFF7D8FFF4E7C046F7
:1041800014090220BC7100106872001064710010E4
:10419000EFF3108072B6704780F31088704700000C
:1041A00010B5FFF7F5FF040001F0ACF8002803D0CC
:1041B000034B802252051A602000FFF7EDFF10BD6F
:1041C00004ED00E010B5094C00232360084A136099
:1041D0000520FDF7A1FAFA218900FEF747FE013814
:1041E000044B18600723236010BDC04610E000E0B8
:1041F00018E000E014E000E010B5154B1968FF224C
:1042000012040A431A601968FF2212060A431A6050
:1042100002201049404201F023FF01200E49404294
:1042200001F01EFF05200D49404201F019FFFFF784
:10423000C9FF0B4B00221A60D0231B061A68094BDA
:104240001A70FFF7EFFE01F033FAFFF72FFFC046B9
:1042500020ED00E04D400010A14100102140001071
:10426000140902207402002010B50A4B1B78D022DA
:1042700012061068834200D010BDFBF7F4FF00283F
:1042800005D0D0231B061B684000C018F4E701F0DE
:104290006DFCF1E77402002010B582B0EFF30583E6
:1042A000DBB2002B10D1254B1A78D0231B061B68DC
:1042B0009A420FD00368BFF35F8F00221A6081F328
:1042C000108820BF02B010BD1D4B1E4A1E491F485A
:1042D000FDF768F81E4B1B68002B21D10368002BEB
:1042E00024D01B4C23601B4A11601B4A9446634434
:1042F0009B10012199400B021943090A174B1868BA
:1043000001235B4200930023012200F099F8236807
:10431000002BD7D0124B0B4A12490C48FDF742F83C
:104320000F4B084A10490948FDF73CF8B9210F4BDB
:10433000044A89000548FDF735F8C046740200209C
:10434000D071001044720010D70200006471001098
:10435000EC0600201009022000FFFF2F7C0902203C
:1043600044710010EB020000DF0200003072001008
:1043700030B583B00A0004681B4BE1188910012393
:104380008B4019021943090A184B1D78D0231B06CC
:104390001B689D4209D040BF0368BFF35F8F0021B7
:1043A000196082F3108803B030BDBFF35F8F002324
:1043B000236082F31088EFF30583DBB2002B04D176
:1043C0000B4B186800F0CEF8EDE700230193084B83
:1043D000186801AA00F016F9019B002BE3D0054BE9
:1043E000802252051A60DEE700FFFF2F74020020D2
:1043F0007C09022004ED00E010B500F014F8014B38
:10440000186010BD7C090220002A03D1014206D1A8
:10441000100003E00840884203D0002070470120CC
:10442000FCE70120FAE710B51C2001F03BFE041E5A
:1044300003D0002308C000F0EFF8200010BD0000FA
:10444000F8B5CE46474680B506000D009046994621
:1044500000282ED00B0E1F06002B31D1002936D09C
:1044600001F08AFB002802D1089B002B36D100F016
:104470003BFF34684A4629002000FFF7C5FF0028AB
:1044800033D04346002B02D02300AB43336001F00E
:1044900005F8002F08D0002841D001F0DFFB040010
:1044A00083013FD52402240A2000C0BCB946B0468F
:1044B000F8BDA521254B264A49002648FCF772FF86
:1044C0004C21254B224AFF312248FCF76BFFA621E5
:1044D000224B1F4A49001F48FCF764FF5021204B24
:1044E0001B4AFF311B48FCF75DFF089B002B14D0D3
:1044F0004346002B0ED139004B46002B02D08023BF
:10450000DB0419432943301D089A01F059F93C0096
:10451000089FBCE780214904EEE7089FB7E7FFF753
:10452000D9FDBAE7FFF7F6FD34684A4629002000B6
:10453000FFF76AFF002805D04346002B02D0230076
:10454000AB433360FFF706FEACE7C046887200104D
:10455000A073001094720010D4720010FC7200104E
:1045600014730010F8B504000D0000280CD00B0ED9
:104570001F06002B0ED106000C3600F0B5FE206998
:1045800023681D43256017E0164B174A1749184842
:10459000FCF708FF174B144A17491548FCF702FFB0
:1045A00021681940994206D111E0802189042368CD
:1045B000194301F0F5F92800B0420CD045680268B3
:1045C00013021B0A5101EBD421680B42F3D0D20134
:1045D000EBD51F43E9E72368BB43236000F05EFF90
:1045E0002068F8BD887200108C7300102102000052
:1045F00094720010687300102202000010B5FFF7DB
:10460000B1FF10BD10B513000A000100014801F010
:10461000EFFC10BDFD45001003000833436001228C
:1046200052428260C360036100230360704700232D
:104630000361704730B50C68631C10D00300083369
:104640001A005B681D68A542FAD953684B609960EF
:104650008A605160086103680133036030BD0269FC
:10466000F3E70369416882688A60416851605A686B
:10467000824206D0002202611A68013A1A60186864
:10468000704782685A60F5E710B50400FFF742FDF5
:10469000A26BE36B9A4204D00024FFF75BFD20007D
:1046A00010BD0124F9E710B50400FFF733FDA36B3B
:1046B000002B04D10124FFF74DFD200010BD002484
:1046C000F9E770B504001500866B026C002A0CD166
:1046D0000368002B03D000200136A66370BD8068FC
:1046E00001F05CFA0023A360F6E7002D0ED14068CC
:1046F000FFF7A6FA6368226C944663446360A2687D
:1047000093421BD3236863602800E5E7C068FFF786
:1047100097FA236C5A42E168CB1AE36021688B4216
:1047200003D2A3689C466244E260022D01D00020BF
:10473000D2E7002E04D0013E0020CDE72800CBE7D1
:104740000020C9E770B582B00190846C002C0AD0BB
:10475000A26BE36B9A420CD2A26B93420FD8002556
:10476000280002B070BD174B174A18491848FCF7CB
:1047700019FE184B144A18491548FCF713FE452337
:10478000E65C76B2002201A92000FFF79AFF05003F
:10479000731C06D07F2E0FD0013676B24523E65427
:1047A000DEE7636A002BDBD02000243001F078F8CC
:1047B0000028D5D00125D3E7084B034A084904480F
:1047C000FCF7F0FDB4730010E4750010D40B00008A
:1047D000C873001000740010D50B0000487400105E
:1047E000F50B000010B5030008001A6C002A0AD06F
:1047F000D9688918D9609C68A14201D31968D96029
:10480000D968FFF71DFA10BD70B50500FFF782FCEF
:104810004523EC5C64B20AE06B6A002B17D02800D9
:10482000243001F03DF800280ED1013C64B2002C88
:104830000DDDAB6C002BEFD02800FFF783FF0028C5
:10484000F3D001F08DF9F0E701F08AF9EDE74523A7
:10485000FF22EA54FFF77EFCFFF75CFC4423EC5C8C
:1048600064B201E0013C64B2002C0BDD2B69002B2B
:1048700008D02800103001F013F80028F2D001F021
:104880006FF9EFE74423FF22EA54FFF763FC70BDA2
:10489000F8B504000D0000282BD0C36B002B54D0BA
:1048A000016C00260F0C1A0C002F36D190B2002894
:1048B00026D1002E49D1FFF72DFC2268E36B206C36
:1048C000010059435118A1600021A1636260013BBE
:1048D0004343D318E360FF234422A3540132A3547B
:1048E000002D29D12369002B1DD1FFF733FC0120B6
:1048F000F8BD8821184B194A49001948FCF752FDA8
:10490000081C89B29BB24B4380B292B242431B0C4B
:10491000D3181B0CCDD00126CBE792B2002AFAD1D6
:104920003A1C181CEDE72000103000F0B9FF0028F9
:10493000DBD0FFF7CFFBD8E720001030FFF76CFE8D
:1049400020002430FFF768FECFE74621054B034ADD
:10495000FF310348FCF726FD687400103C76001018
:10496000C87300107074001070B51D00049C0029FD
:104970000BD12460E063216401212000FFF788FF50
:104980005023E5540023A36470BD2260F2E70000C9
:10499000F0B583B004000D001700002831D00020CE
:1049A0000A0C230C002A27D19AB2002A16D100281B
:1049B00027D1280060430300553322D8543001F03A
:1049C00071FB061E07D00200543200903B00290004
:1049D0002000FFF7C9FF300003B0F0BD1A1C2E1CE9
:1049E000ABB2A1B25943B6B293B27343090C5B1890
:1049F0001B0CDCD00120DAE79BB2002BFAD1261C7D
:104A0000EEE7E321024B034A49000348FCF7CAFCE6
:104A10009474001028760010C8730010F0B585B0AB
:104A200004000F0001921E00002813D0002917D0A7
:104A3000022E02D1E36B012B1BD101F09DF8051E64
:104A40001ED1019B002B5ED04F4B504A504951481C
:104A5000FCF7A8FC504B4D4A50494E48FCF7A2FCCD
:104A6000036C002BE4D04E4B484A4E494948FCF7B2
:104A700099FCCC214C4B454A89004648FCF792FCF6
:104A8000002540E0A56B320039002000FFF719FE39
:104A9000A36C002B10D0022E01D1002D04D12000D8
:104AA000FFF750FE002804D1FFF754FB012005B0AA
:104AB000F0BDFFF70FFBF7E7636A002B04D1002876
:104AC000F2D0FFF707FBEFE72000243000F0E8FE0C
:104AD0000028E9D0FFF7FEFAE6E7FFF73BFB0020EE
:104AE000E5E702A800F0D8FF013519E044230022D1
:104AF000E25420E045230022E25421E02000FFF7A9
:104B000083FE00F0CBFCFFF705FBA36BE26B934247
:104B1000B8D3022EB6D0019B002BDED0002DE0D002
:104B2000FFF718FB00F0E0FBFFF7F4FA4423E25C28
:104B300052B2531CDAD04523E25C52B2531CD9D096
:104B4000FFF708FB01A902A800F0B2FF002813D16B
:104B50002000FFF799FD0028D0D0200010300199E7
:104B600000F010FE2000FFF74FFE00F097FC002839
:104B7000C9D1FFF7AFFAC6E72000FFF745FE00F006
:104B80008DFC002093E7C0461473001000760010DF
:104B900033030000C8730010687400102E03000077
:104BA000A07400102F030000F8740010F0B5D64672
:104BB000474680B583B004000F0001921D00002815
:104BC00019D000291DD0022D02D1E36B012B21D178
:104BD000FFF7DEFA8046A36BE26B934220D3022DEF
:104BE0001ED000244046FFF7D7FA200003B0C0BC17
:104BF000BA46B046F0BD2F4B2F4A30493048FCF73B
:104C0000D1FB036C002BDED02E4B2B4A2E492C48B7
:104C1000FCF7C8FB2D4B284A2D492948FCF7C2FB5D
:104C20004523E65C76B2A36B9A462A003900200041
:104C3000FFF747FD731C07D07F2E2BD0013676B2CD
:104C40004523E6540124CDE7A36C002B10D0022DA0
:104C500002D15346002B23D12000FFF773FD00281B
:104C600020D0019A002A1FD0012313600124B9E744
:104C7000636A002B01D10124B4E72000243000F046
:104C80000FFE002812D0019A002A11D001231360D0
:104C90000124A7E70F4B084A0F490948FCF782FB9C
:104CA00001249FE701249DE701249BE7012499E764
:104CB000012497E768740010C87500100204000012
:104CC000C8730010A074001003040000F8740010F2
:104CD00004040000487400108D040000F0B585B095
:104CE00004000F00019200280ED0002912D000F01D
:104CF00043FF061E17D1019B002B4ED0434B444A65
:104D000044494548FCF74EFB444B414A444942481C
:104D1000FCF748FB036C002BE9D0424B3C4A42496C
:104D20003D48FCF73FFB002637E039002000FFF745
:104D300059FD013DA5632369002B04D1FFF70AFA51
:104D4000012005B0F0BD2000103000F0A9FD0028C2
:104D5000F4D0FFF7BFF9F1E7FFF7FCF90020F0E727
:104D600002A800F099FE013621E044230022E2541B
:104D700028E045230022E25429E02000FFF744FD0B
:104D800000F08CFB09E02000FFF73EFD00F086FB01
:104D90002000FFF788FC002835D1FFF7BBF9A56B91
:104DA000002DC2D1019B002BD6D0002ED8D0FFF70A
:104DB000D1F900F099FAFFF7ADF94423E35C5BB257
:104DC0000133D2D04523E35C5BB20133D1D0FFF78E
:104DD000C1F901A902A800F06BFE0028D3D1200080
:104DE000FFF761FC0028C8D020002430019900F0B2
:104DF000C9FC2000FFF708FD00F050FB0028CCD1D3
:104E0000FFF768F9C9E700209BE7C046147300105C
:104E1000B87500105A050000C873001048750010DE
:104E200051050000547500105505000070B50028AC
:104E300004D000290ED0002500230DE00F4B104AAE
:104E400010491148FCF7AEFA104D2D19002D01D074
:104E50002960686070BD0133072BF7D8DC000B4A6E
:104E6000121952688242EFD0002DF4D1DA00074CBB
:104E70001259002AEFD1DA00A518ECE7B07500103E
:104E800014760010C90A0000C8730010B00902208F
:104E900070B504000D001600FFF73CF94423E35CF5
:104EA0005BB201330DD04523E35C5BB201330CD020
:104EB000FFF750F9A36B002B0BD02000FFF7A4FCE9
:104EC00070BD44230022E254EDE745230022E25462
:104ED000EEE7200024303200290000F0B1FCECE7BE
:104EE000084B1B681B68002B04D1074B0122524260
:104EF0001A607047034B1B68DB681A68024B1A6024
:104F0000F7E7C046600400208C09022010B50400B9
:104F1000006B01F00DF9200001F00AF910BD00004E
:104F2000F0B5DE4657464646C0B582460F0014002F
:104F30009B46089E0A9D9200A521286BFEF77AFEEB
:104F40001F4B9C466444A4002B6B9C46644407237F
:104F50009C43A046002F0ED000240F2C08D83A5DA9
:104F60002B1934331A703B5D002B01D00134F4E768
:104F700043230022EA541F2E1CD8EE62EE64281D43
:104F8000FFF755FB28001830FFF751FB2D61202358
:104F90009E1BAE616D625A4651464046FFF78AF845
:104FA0002860099B002B00D01D60E0BCBB46B246C8
:104FB000A846F0BD034B044A04490548FCF7F2F942
:104FC000FFFFFF3F907600104C7900109F03000018
:104FD0005876001070B5002407E0A3001B19980054
:104FE0000E4BC018FFF718FB01341F2CF5D90C4DE0
:104FF0002800FFF711FB0B4C2000FFF70DFB0A48C0
:10500000FFF70AFB0948FFF707FB0948FFF704FB16
:10501000084B1D60084B1C6070BDC0466C0400202E
:10502000540902206809022098090220080A022077
:10503000F4090220600400206404002010B504007C
:10504000FFF768F8284A136801331360274B1B6881
:10505000002B0CD0264B1B68002B0DD1234B1B685B
:10506000DB6AE26A934207D8204B1C6004E01F4BC6
:105070001C601368012B31D01E4A13680133136082
:105080006364E26A1C4B1B689A4201D91A4B1A608E
:105090001A4993009B189B00CB185B68A360986823
:1050A000E060221D42609A60E06A83001A18920054
:1050B000521862611A189200525801321B189B0054
:1050C0005A50FFF747F80A4B1B68002B05D0074BD7
:1050D0001B68DA6AE36A9A4203D310BDFFF77AFFCE
:1050E000CAE7FEF7F7FFF8E7180902205804002086
:1050F000F009022024090220280902206C04002063
:1051000010B514E0FFF706F80B4BDB68DC68201DD8
:10511000FFF7A7FA094A1368013B1360084A1368AE
:10512000013B1360FFF716F82000FFF7EFFE044B7A
:105130001B68002BE6D110BD080A022018090220C6
:105140001C09022010B5FFF7DBFF034B1B68012B86
:10515000F9D9FEF7BFFFF6E76C04002070B5040034
:105160000D001F4B1E681F4B19686D2200208854CC
:1051700018680430FFF775FA631C0DD03419194B09
:105180001B685C60A6421DD9174B1868154B19683F
:105190000431FFF74FFA70BD002DEFD0134A51686C
:1051A000104B1868816018688C68C46018680430F7
:1051B00060601868043088601B685A6113680133A6
:1051C0001360E8E70A4B1868064B19680431FFF7CB
:1051D00031FA084B1B68A342DDD9064B1C60DAE7A5
:1051E0001C0A02205804002064040020F409022054
:1051F000600400208C090220F0B587B0049005916E
:1052000016001F00900000F04DFF041E21D07020FA
:1052100000F048FF051E18D070220021FEF70AFD9D
:105220002C63002D19D00023039302950D9B01934D
:105230000C9B00933B00320005990498FFF770FE29
:105240002800FFF7FBFE012005E0200000F070FFC2
:10525000E7E70120404207B0F0BD01204042FAE7F5
:1052600000B583B08022154B0193002300935200B8
:1052700013491448FFF7C0FF012807D0012808D0C0
:10528000431C14D0104B1B6803B000BD00F084FE1B
:10529000F4E772B60D4B012252421A600C4B0232F7
:1052A0001A600C4B00221A60FEF7A6FFEAE70A4BD1
:1052B0000A4A0B490B48FCF775F8C04680090220E2
:1052C000BC76001045510010780200208C090220A5
:1052D000F00902201C0A0220C47600102879001070
:1052E0002208000058760010024A13680133136048
:1052F0007047C04620090220014B18687047C0461D
:105300001C0A0220F8B5564B1B68002B00D09CE00D
:10531000544B1D6801351D60002D10D1524B1B6888
:105320001B68002B27D1504A1168504B1868106039
:1053300019604F4A136801331360FFF7D1FD4D4BDD
:105340001B68AB421DD900264B4B1B68DA6A9300E1
:105350009B189A00494BD358012B00D90126484B82
:105360001B68002B00D16DE0464B1B68002B00D062
:1053700073E03000F8BD444B444A45494548FCF7CA
:1053800011F8002635E03B4B012252421A60DBE760
:10539000384B1A60D8E7D968516040E0196A51600B
:1053A00000219962116801391160DA6A3A49096885
:1053B0008A4201D938490A60304990008018820039
:1053C0008A1852689A609068D86044609460D86A7D
:1053D00082001718BC0064185C61BC00645801347A
:1053E000B8004450DA6A244B1B68DB6A9A4200D347
:1053F00001261D4B1B681B68002BC4D01A4B1B6871
:10540000DB68DB685A689542C2D35A699868D968E4
:105410008160986848601C1D5168A142BBD0002182
:1054200059611168013911609A6A002ABDD0D869A2
:10543000196A8160D869486019001831506888423B
:10544000AED1ABE7FAF7A0FF8EE70D4A1368013340
:105450001360FAF799FF00268BE7012689E7C0461B
:10546000200902201C0A022060040020640400209D
:10547000900902208C090220580400206C040020AE
:1054800094090220280A0220D8760010047900101E
:10549000A90A0000587600102809022010B54A4BCE
:1054A0001B68002B0FD0FEF735FE474B1A68013AF8
:1054B0001A601B68002B00D080E0444B1B68002B57
:1054C0000DD100247BE0424B424A43494348FBF75D
:1054D00069FF196A516015E0D968516021E0002325
:1054E0003F4A1268002A4AD03D4BDB68DB689A6A63
:1054F000D869196A8160D869486019001831506804
:105500008842E6D0002199621168013911605A6918
:105510009868D9688160986848601C1D5168A142EC
:10552000DAD000215961116801391160D96A2D4A18
:105530001268914201D92B4A11602B488A005218F7
:105540009200821852689A609168D9604C609460A9
:10555000DC6AA20011198900091859611119890022
:1055600009580131121992001150204A1268D26A6A
:10557000D96A9142B4D31E4A01211160B0E7002BD1
:1055800001D0FFF7ADFC1B4B1C68002C0AD1184B57
:105590001C68002C13D0FEF79DFD01240FE0013C98
:1055A000002C07D0FFF7AEFE0028F8D0104B0122E8
:1055B0001A60F4E70F4B00221A60E8E70024FEF7B8
:1055C000C9FD200010BDC046200902201809022094
:1055D00050770010187900109508000058760010D8
:1055E00098090220280902206C0400205804002099
:1055F000280A02209409022070B505000C0000283A
:1056000012D0002916D0204B1B68002B18D1FFF7B1
:105610006BFE1E4B18682B681C1983421DD9A342D0
:1056200014D82C60002422E0194B1A4A1A491B484E
:10563000FBF7B8FE1A4B174A1A491848FBF7B2FE97
:10564000194B144A19491548FBF7ACFEA04202D386
:105650002C6000240BE02C6004E0A34201D8A0429F
:105660000BD22C60201A0021FFF778FD0124FFF7F0
:1056700015FF002804D0200070BD2C600024F6E740
:10568000FEF728FDF7E7C046200902201C0A022089
:10569000687700103C790010D304000058760010A1
:1056A0007C770010D4040000A0760010D504000020
:1056B00070B52A4B1B68002B03D0294B01221A60BE
:1056C00070BD274B00221A60264B1B681B6B264AB5
:1056D0001968914202D15968914212D0214B186841
:1056E00019683431FAF742FE204B1B689A00D21831
:1056F00091001F4A8A58002A11D1002B09D0013B82
:10570000F4E799689142E9D1DA68174B9A42E5D1FA
:10571000EAE7184B184A19491948FBF743FE144D9C
:105720009900CA1890002818426854684460C91843
:105730008A000832521994420BD09A00D218910074
:105740000B4A52185268D168064A1160074A136022
:10575000B6E7606889006A185060EEE72009022009
:10576000280A022058040020A5A5A5A52809022082
:105770006C04002094770010F0780010E40B000017
:105780005876001010B50C00002809D0074B196896
:105790001831FEF74FFF01212000FFF7DFFC10BD9D
:1057A000034B044A04490548FBF7FCFD580400205C
:1057B000A4770010D8780010FE0B00005876001077
:1057C00070B503001000002B1ED0154A1268002A85
:1057D00020D0144C2568802212061143A9615A6812
:1057E0002168CA61216895680D6221681831696075
:1057F000216818319160226893621A6801321A6038
:105800000121FFF7ABFC70BD074B084A0849094866
:10581000FBF7C8FD084B054A08490648FBF7C2FDDF
:105820002009022058040020A4770010B878001046
:10583000180C000058760010B07700101C0C000007
:1058400070B5030008001100002B18D05A680F4CE7
:105850002568EA61256896682E62256818357560A6
:10586000256818359560226893621A6801321A60BB
:10587000002901D001204042FFF770FC70BD044BAD
:10588000044A05490548FBF78DFDC0465804002031
:10589000A477001098780010340C0000587600109F
:1058A00010B5C368DB68002B4CD09A6AD869196AB6
:1058B0008160D8694860180018305168814247D02B
:1058C000002199621168013911602B4A1268002A7F
:1058D00044D15A699868D9688160986848601C1DED
:1058E0005168A14237D00021596111680139116016
:1058F000D96A224A1268914201D9204A116020488F
:105900008A0052189200821852689A609168D96091
:105910004C609460DC6AA200111989000918596171
:105920001119890009580131121992001150DA6ACF
:10593000144B1B68DB6A9A421CD9134B01221A6074
:10594000012018E0114B124A12491348FBF72AFDB7
:10595000196A5160B4E7D9685160C4E70F4A5168C9
:10596000D9618C681C62606088609A62116801313C
:105970001160DCE7002010BD200902202809022068
:105980006C04002058040020280A0220CC77001064
:105990007C780010640C00005876001098090220F2
:1059A00010B5324B1B68002B4DD080231B061943CA
:1059B0000160C368002B4CD00269416884688C6028
:1059C000816844684C605168814248D0002101617F
:1059D0001168013911605A699868D96881609868BE
:1059E00048601C1D5168A1423CD0002159611168DA
:1059F00001391160D96A1E4A1268914201D91C4AC4
:105A000011601C488A0052189200821852689A60ED
:105A10009168D9604C609460DC6AA2001119890019
:105A20000918596111198900095801311219920098
:105A30001150DA6A104B1B68DB6A9A4202D90F4B8D
:105A400001221A6010BD0E4B0E4A0F490F48FBF79A
:105A5000A9FC0F4B0B4A0F490C48FBF7A3FC8168CC
:105A60005160B3E7D9685160BFE7C0462009022002
:105A7000280902206C04002058040020280A022073
:105A8000DC770010587800109C0C0000587600104D
:105A9000CC770010A40C0000034B1B680360034B81
:105AA0001B6843607047C046900902201C0A022010
:105AB000F8B504000D00002817D000291BD0FEF710
:105AC00029FB1F4B1A686368D61A1E4908686D21A6
:105AD000415C002916D01B4B1A686D230021D1545C
