:020000041000EA
:1000000000B5324B212058609868022188439860DF
:10001000D860186158612E4B002199600221596106
:100020000121F02299502B49196001219960352056
:1000300000F044F80222904214D00621196600F024
:1000400034F8196E01211966002018661A6600F04E
:100050002CF8196E196E196E052000F02FF8012189
:100060000842F9D1002199601B49196000215960AB
:100070001A491B48016001219960EB211966A021F2
:10008000196600F012F800219960164914480160C1
:100090000121996001BC002800D000471248134993
:1000A000086003C880F30888084703B5996A0420EC
:1000B0000142FBD001200142F8D103BD02B5186610
:1000C0001866FFF7F2FF186E186E02BD00000240BE
:1000D000000000180000070000035F00212200005C
:1000E000F4000018222000A00001001008ED00E03C
:1000F00000000000000000000000000074B24E7A12
:1001000000200420F7010010C3010010C5010010F9
:10011000C1010010C1010010C1010010C101001097
:10012000C1010010C1010010C1010010C701001081
:10013000C1010010C1010010C9010010CB01001065
:10014000CD010010CD010010CD010010CD01001037
:10015000CD010010CD010010CD010010CD01001027
:10016000CD010010CD010010CD010010CD01001017
:10017000CD010010CD010010CD010010CD01001007
:10018000CD010010CD010010CD010010CD010010F7
:10019000CD010010CD010010CD010010CD010010E7
:1001A000CD010010CD010010CD010010CD010010D7
:1001B000CD010010CD010010CD010010CD010010C7
:1001C00000BE00BE00BE00BE00BE00BE00F04BF888
:1001D000103800BEF2EB88711CAC001044AC00106B
:1001E0003402001090A31AE700202149086006C8D5
:1001F00081F3088810471F48006800282FD10DA4FC
:100200000ECC002902D000F012F8F9E71A491B4A77
:10021000002000E001C19142FCD1194988471949E9
:1002200088471949884700BEFDE701C901C29A42C3
:10023000FBD3704744AC0010C0000020AC0200208B
:1002400030AE0010000004200000042030AE00108A
:1002500000100420001004200000000070470B482C
:1002600004F0ECFC0047EFF30580C0B270470000DB
:1002700008ED00E0000000D0B0020020880A022053
:1002800031360010F5040010ED350010575600000F
:1002900006005250ABB36053449E0010060052500B
:1002A000861C0302549E0010060052505422A29D48
:1002B000689E001005005250DE65F46830AE0010F4
:1002C000F8B5C04610B5064C2378002B07D1054B76
:1002D000002B02D0044800E000BF0123237010BDB2
:1002E000B003002000000000F08C0010044B10B59B
:1002F000002B03D00349044800E000BF10BDC046F6
:1003000000000000B4030020F08C0010FEE710B5E0
:10031000FFF7FCFF10B507F07DF903F01DFA0000B0
:1003200070B584B000230393194B1B78002B09D1BF
:10033000082926D0174B186803A906F055FD144B61
:1003400001221A70144D2E6807F0B6F9020000243D
:10035000009403AB0721300008F00CF92D6807F07A
:10036000ABF90200009403AB0621280008F002F963
:10037000039B002B03D0094B802252051A6004B066
:1003800070BD074B186803A906F02EFDD7E7C046DD
:10039000820A0220C00902209009022004ED00E038
:1003A000C4090220002907D170470139C9B243436B
:1003B0000129FAD81800F7E70300F9E710B50100A2
:1003C0000220FFF7EFFF10BD70B505F065FD0220BC
:1003D000FFF7F4FF04000320FFF7F0FF04430620BB
:1003E000FFF7ECFF04430A20FFF7E8FF04430B206C
:1003F000FFF7E4FF04430D20FFF7E0FF04430C2068
:10040000FFF7DCFF04431920FFF7D8FF044309205E
:10041000FFF7D4FF05001520FFF7D0FF05430720A5
:10042000FFF7CCFF05432543280001F072FCD026DE
:100430003606306A60400540F5623461274802F0B4
:10044000CBFC30690440F4610421022001F06EFB12
:10045000E121234C4902200003F086F8022100200C
:1004600001F064FB0221012001F060FBE26A6023DD
:1004700053406E221A401B4980235B010B431A60D4
:10048000E16A10220A401A6000220121072001F0CF
:1004900065FB00220121082001F060FB124B0122C4
:1004A0000C21072001F0CEFB1049114808F068FB31
:1004B0000321042001F03AFB0321052001F036FB63
:1004C00000220121042001F049FB00220121052026
:1004D00001F044FB08F098FB70BDC046DC0500004D
:1004E000004003402C40034021030010A08601007F
:1004F0007C02002010B5FFF767FF01F035FA0248D3
:1005000008F0A0F9FFF706FF0F0300107047000086
:1005100010B5014803F008F9F08C0010FEE7000068
:10052000034B00221A70034B03321A707047C04607
:10053000800A02207F0A022010B500F08FFE00F032
:10054000A3FE10BD10B500F0B9FE10BD10B500F04F
:1005500083FF002802D0024B00221A7010BDC04653
:10056000800A022010B500F0A9FF002802D0024B3B
:1005700000221A7010BDC046800A022010B5114B2F
:100580001B78012B0CD0022B12D0002B00D010BDF9
:1005900000F0BAFF0028FAD00A4B01221A70F6E7E1
:1005A00000F0D6FF0028F2D0064B02221A70EEE7C8
:1005B00000F0F2FF0028EAD00023024A1370024A3A
:1005C0001370E4E7810A0220800A022010B50C4B68
:1005D0001A78052A06D893000A4AD3589F46084835
:1005E00000F0FAFE10BDFFF7B1FFFBE7FFF7BAFF1F
:1005F000F8E7FFF7C3FFF5E7FFF792FFF2E7C04622
:10060000800A0220008D001010B500F067FE10BDBA
:1006100010B5124B1B78022B02D0032B03D010BD58
:10062000FFF7D4FFFBE7FFF7EFFF00F089FE00289C
:1006300003D10A4B00221A70F1E700F081FE012875
:1006400003D1064B01221A70E9E700F079FE022877
:10065000E5D1024B02221A70E1E7C0467F0A022070
:1006600030B583B000232A4815E06B46DA1D1470BC
:10067000002108E0274B9B699B06FBD41478254B8F
:100680001C60013101320029F4D003780D3B5A423D
:100690005341DBB201300478002C27D0002BE4D189
:1006A0001D4B00229B5EA3420FD06B46DA1D1470D7
:1006B00000210029E9D1174B9B699B06FBD41478D4
:1006C000144B1C6001310132F3E76B46DA1D0D2338
:1006D000137000210029E8D10E4B9B699B06FBD4C7
:1006E00015780C4B1D6001310132F3E700F042F840
:1006F0000F2007F067F90023084A1370084A032106
:100700001170084A1370084A137003B030BDC04618
:10071000188D0010004003403C0900207E0A022092
:100720007F0A0220800A0220810A022010B5104BA5
:100730001B78022B16D009D8002B0FD0012B10D11B
:10074000FFF7FAFE0A4B02221A700AE0042B08D1C6
:10075000FFF75EFF064B01221A7002E0044B0122F4
:100760001A7010BDFFF7EEFE014B04221A70F8E775
:100770007E0A022010B5034805F082FB1E2007F018
:1007800021F910BD2C8D001030B583B0A94B1B880A
:100790009BB2002B50D0A74B1B889BB2012B00D1E2
:1007A000D8E0A44B1B889BB2022B00D16EE103B0B2
:1007B00030BD6B46DA1D1470002104E014789E4BA6
:1007C0001C6001310132002916D19B4B9B699B06AD
:1007D000FBD4F3E76B46DA1D0D231370002108E00C
:1007E000954B9B699B06FBD41578934B1D6001319B
:1007F00001320029F4D00FE003780D3B5A425341F7
:10080000DBB201300478002C19D0002BD1D18B4BF6
:1008100000229B5EA342DDD06B46DA1D14700021DE
:100820000029E9D1844B9B699B06FBD41478824B49
:100830001C6001310132F3E700238148E2E7FFF752
:1008400099FF00237F4826E06B46DA1D14700021D3
:1008500000291AD1784B9B699B06FBD41478764B00
:100860001C6001310132F3E76B46DA1D0D23137072
:100870000021002919D1704B9B699B06FBD4157888
:100880006D4B1D6001310132F3E703780D3B5A4295
:100890005341DBB201300478002C16D0002BD3D1A9
:1008A000664B00229B5EA342DED06B46DA1D1470BD
:1008B00000210029E9D1604B9B699B06FBD4147889
:1008C0005D4B1C6001310132F3E7FFF753FF6EE728
:1008D0006B46DA1D14700021002926D1564B9B6906
:1008E0009B06FBD41478544B1C6001310132F3E7B2
:1008F0006B46DA1D0D231370002108E04E4B9B69F7
:100900009B06FBD415784C4B1D6001310132002948
:10091000F4D01AE0484B9B699B06FBD41478464BF5
:100920001C60013101320029F4D003780D3B5A429A
:100930005341DBB201300478002C0ED0002BC7D11C
:100940003E4B00229B5EA342D2D06B46DA1D147050
:100950000021E8E700233A48EDE7FFF70BFF00230B
:10096000394832E06B46DA1D14700021002926D187
:10097000314B9B699B06FBD414782F4B1C600131D3
:100980000132F3E76B46DA1D0D231370002108E0F6
:10099000294B9B699B06FBD41578274B1D600131C1
:1009A00001320029F4D01AE0234B9B699B06FBD44B
:1009B0001478214B1C60013101320029F4D00378F6
:1009C0000D3B5A425341DBB201300478002C0BD06E
:1009D000002BC7D1194B00229B5EA342D2D06B469D
:1009E000DA1D14700021E8E7FFF7C4FEDFE66B466E
:1009F000DA1D1470002104E014780F4B1C600131E3
:100A0000013200292DD10C4B9B699B06FBD4F3E7E7
:100A10006B46DA1D0D231370002104E01578064B98
:100A20001D600131013200292BD1034B9B699B06CC
:100A3000FBD4F3E77C0A0220004003403C0900207D
:100A4000308D0010388D0010508D0010364B9B6992
:100A50009B06FBD41478344B1C6001310132002911
:100A6000F4D003780D3B5A425341DBB20130047895
:100A7000002C0ED0002BBAD12C4B00229B5EA3423F
:100A8000C6D06B46DA1D14700021E8E70023284821
:100A9000EDE7FFF76FFE0023264832E06B46DA1DD4
:100AA00014700021002926D11F4B9B699B06FBD4A3
:100AB00014781D4B1C6001310132F3E76B46DA1DDF
:100AC0000D2313700021002925D1174B9B699B062C
:100AD000FBD41578144B1D6001310132F3E7147813
:100AE000114B1C6001310132002904D10E4B9B696E
:100AF0009B06FBD4F3E703780D3B5A425341DBB22C
:100B000001300478002C0BD0002BC7D1074B0022FA
:100B10009B5EA342D2D06B46DA1D14700021E3E73E
:100B2000FFF728FE43E6C046004003403C09002092
:100B3000308D00106C8D001030B583B04F4B1B888A
:100B40009BB2002B4FD04D4B1B889BB2002B4DD13D
:100B50004A4B1B889BB2022B00D18BE0FFF70AFEA9
:100B600003B030BD6B46DA1D1470002100291AD184
:100B7000434B9B699B06FBD41478414B1C600131AD
:100B80000132F3E76B46DA1D0D23137000210029B3
:100B900019D13B4B9B699B06FBD41578384B1D60E4
:100BA00001310132F3E703780D3B5A425341DBB286
:100BB00001300478002CD1D0002BD3D1314B00224E
:100BC0009B5EA342DED06B46DA1D14700021002923
:100BD000E9D12B4B9B699B06FBD41478284B1C60F6
:100BE00001310132F3E700232748E2E700232648DA
:100BF000DFE76B46DA1D1470002108E0204B9B698B
:100C00009B06FBD414781E4B1C6001310132002975
:100C1000F4D003780D3B5A425341DBB201300478E3
:100C2000002C9BD0002BE4D1164B00229B5EA342EC
:100C30000FD06B46DA1D147000210029E9D1104B4A
:100C40009B699B06FBD414780D4B1C60013101326B
:100C5000F3E76B46DA1D0D23137000210029E8D15C
:100C6000074B9B699B06FBD41578054B1D60013132
:100C70000132F3E700230548D1E7C0467C0A022091
:100C8000004003403C090020888D0010988D001022
:100C900070B584B004000023564833E00F226A4444
:100CA0001570002104E01578534B1D6001310132AD
:100CB000002921D1504B9B699B06FBD4F3E70F22FF
:100CC0006A440D231370002108E04B4B9B699B067F
:100CD000FBD41678484B1E60013101320029F4D054
:100CE0001AE0454B9B699B06FBD41578424B1D606F
:100CF000013101320029F4D003780D3B5A425341AF
:100D0000DBB201300578002D0BD0002BC6D13B4B58
:100D100000229B5EAB42D2D00F226A4415700021A4
:100D2000E8E7FFF727FD0023354826E00F226A4455
:100D30001570002100291AD12F4B9B699B06FBD40B
:100D400015782D4B1D6001310132F3E70F226A4403
:100D50000D2313700021002919D1274B9B699B0695
:100D6000FBD41678244B1E6001310132F3E703787F
:100D70000D3B5A425341DBB201300578002D16D0AD
:100D8000002BD3D11D4B00229B5EAB42DED00F2245
:100D90006A44157000210029E9D1174B9B699B0615
:100DA000FBD41578144B1D6001310132F3E7FFF7D6
:100DB000E1FC144B0F221A80023A5A8048329A8082
:100DC000253ADA80002C0BD0302300932533233AC8
:100DD0000F210D4805F054F8FFF7CCFC04B070BDAE
:100DE0003023009325330D220F21084805F048F8E1
:100DF000F2E7C046988D0010004003403C090020F7
:100E0000308D0010CC030020A88D0010C08D001084
:100E100070B584B004000023564833E00F226A44C2
:100E20001570002104E01578534B1D60013101322B
:100E3000002921D1504B9B699B06FBD4F3E70F227D
:100E40006A440D231370002108E04B4B9B699B06FD
:100E5000FBD41678484B1E60013101320029F4D0D2
:100E60001AE0454B9B699B06FBD41578424B1D60ED
:100E7000013101320029F4D003780D3B5A4253412D
:100E8000DBB201300578002D0BD0002BC6D13B4BD7
:100E900000229B5EAB42D2D00F226A441570002123
:100EA000E8E7FFF767FC0023354826E00F226A4495
:100EB0001570002100291AD12F4B9B699B06FBD48A
:100EC00015782D4B1D6001310132F3E70F226A4482
:100ED0000D2313700021002919D1274B9B699B0614
:100EE000FBD41678244B1E6001310132F3E70378FE
:100EF0000D3B5A425341DBB201300578002D16D02C
:100F0000002BD3D11D4B00229B5EAB42DED00F22C3
:100F10006A44157000210029E9D1174B9B699B0693
:100F2000FBD41578144B1D6001310132F3E7FFF754
:100F300021FC144B5E221A80513A5A8097329A80D3
:100F4000743ADA80002C0BD0302300937433233AA8
:100F50005E210D4804F094FFFFF70CFC04B070BD57
:100F60003023009374330D225E21084804F088FF7B
:100F7000F2E7C046D88D0010004003403C09002035
:100F8000308D0010CC030020A88D0010C08D001003
:100F900070B584B004000023564833E00F226A4441
:100FA0001570002104E01578534B1D6001310132AA
:100FB000002921D1504B9B699B06FBD4F3E70F22FC
:100FC0006A440D231370002108E04B4B9B699B067C
:100FD000FBD41678484B1E60013101320029F4D051
:100FE0001AE0454B9B699B06FBD41578424B1D606C
:100FF000013101320029F4D003780D3B5A425341AC
:10100000DBB201300578002D0BD0002BC6D13B4B55
:1010100000229B5EAB42D2D00F226A4415700021A1
:10102000E8E7FFF7A7FB0023354826E00F226A44D4
:101030001570002100291AD12F4B9B699B06FBD408
:1010400015782D4B1D6001310132F3E70F226A4400
:101050000D2313700021002919D1274B9B699B0692
:10106000FBD41678244B1E6001310132F3E703787C
:101070000D3B5A425341DBB201300578002D16D0AA
:10108000002BD3D11D4B00229B5EAB42DED00F2242
:101090006A44157000210029E9D1174B9B699B0612
:1010A000FBD41578144B1D6001310132F3E7FFF7D3
:1010B00061FB144BAD221A80A03A5A80E6329A8026
:1010C000C33ADA80002C0BD030230093C333233A89
:1010D000AD210D4804F0D4FEFFF74CFB04B070BD09
:1010E00030230093C3330D22AD21084804F0C8FE1D
:1010F000F2E7C046888D0010004003403C09002004
:10110000308D0010CC030020A88D0010C08D001081
:1011100010B50100024804F0B3FEFFF72BFB10BD31
:10112000E88D001010B50100024804F0A9FEFFF799
:1011300021FB10BDF48D001010B50100024804F031
:101140009FFEFFF717FB10BD008E001010B50100C9
:10115000024804F095FEFFF70DFB10BD108E001045
:1011600010B50100024804F08BFEFFF703FB10BD31
:101170001C8E001070B514001D0004AB1E780A0010
:101180000100074804F07CFEFFF7F4FA33002A0060
:101190002100044804F074FEFFF7ECFA70BDC0466D
:1011A000288E0010408E001010B50100024804F097
:1011B00067FEFFF7DFFA10BD5C8E001030B583B01C
:1011C0000023234815E06B46DA1D1470002108E067
:1011D000204B9B699B06FBD414781E4B1C6001318D
:1011E00001320029F4D003780D3B5A425341DBB25F
:1011F00001300478002C27D0002BE4D1164B0022BC
:101200009B5EA3420FD06B46DA1D147000210029AB
:10121000E9D1104B9B699B06FBD414780D4B1C60E5
:1012200001310132F3E76B46DA1D0D231370002103
:101230000029E8D1074B9B699B06FBD41578054B29
:101240001D6001310132F3E7FFF794FA03B030BDBE
:10125000188D0010004003403C09002010B5084BD9
:101260001B78002B00D110BD064CE21C211D601D17
:1012700000F082FBA21C601C210000F0C7FBF2E71B
:10128000840A02202409002010B582B0094B1B7883
:10129000002B01D102B010BD074C63782278217970
:1012A0006079A4780094FFF765FF024B00221A7062
:1012B000F0E7C046840A02202409002010B5064B3E
:1012C0001B78002B00D110BD00F0ECFBFFF76CFF8A
:1012D000014B00221A70F6E7830A0220D0231B0676
:1012E0005B681B0504D4D0231B065B68DB0407D5B1
:1012F000D0231B06802212019A61802252019A613A
:10130000D0231B065B689B0404D4D0231B068022D9
:1013100092015A61704770B5D02424068025ED00F3
:1013200065613C2006F04EFBA56102E03C2006F022
:1013300049FBD0231B065B689B05F7D470BD0000FA
:1013400010B582B0224B1B889BB2022B04D9204AD5
:101350001388013B9BB21380FFF716FAD0231B06BC
:101360005B689B0502D4032002B010BDD0231B068E
:10137000802292019A61174B1C6806F097F90200CF
:10138000002300930121200007F0F4F8FFF7D4FBBD
:10139000FFF7C1FF0E4B1B889BB2002B0ED00C4BEE
:1013A0001B889BB2012B0ED0094B1B889BB2022BD2
:1013B000DAD1074B00221A800220D5E7044B002225
:1013C0001A800020D0E7024B00221A800120CBE7D0
:1013D0007C0A02209409022010B504001D4B1B88D2
:1013E0009BB2052B04D91B4A1388013B9BB2138087
:1013F000184B1B889BB2002B14D0164B1B889BB23A
:10140000012B13D0134B1B889BB2022B12D0114B14
:101410001B889BB2042B11D0D0231B065B689B0555
:101420000FD410BD0120FFF733FCF5E70120FFF7D3
:10143000EFFCF1E70120FFF7ABFDEDE7FFF7BEFEA4
:10144000EAE7044B1A88227000221A80FFF763FF34
:10145000E7E7C0467C0A022010B5154B18886423C4
:10146000584380B2FA235B0098420FD2104B0522FA
:101470001A80FA2040000F4B5880FFF749FED02316
:101480001B065B689B0509D4002010BD0A4B9842DF
:10149000F1D9074B64221A800748ECE7044B00227D
:1014A0001A800020FFF7F4FBFFF735FF0120ECE77F
:1014B0007C0A02201C0900201027000010B5104BE8
:1014C0001B889A009B185800C0B2642803D90C4BA3
:1014D0000A221A8064200B4B1870FFF723FED023DA
:1014E0001B065B689B0501D4002010BD044B002245
:1014F0001A800020FFF78CFCFFF70DFF0120F4E7B6
:101500007C0A02201C09002010B50F4B1B889BB2DF
:101510003C2B04D90C4A1388013B9BB213800A4B25
:101520001888C0B2094B9871FFF706FED0231B063E
:101530005B689B0501D4002010BD034B00221A807C
:10154000FFF7E9FE0120F7E77C0A02201C090020D2
:1015500010B50F4B1B889BB23C2B04D90C4A138847
:10156000013B9BB213800A4B1888C0B2094B5871DB
:10157000FFF7ECFDD0231B065B689B0501D4002020
:1015800010BD034B00221A80FFF7C5FE0120F7E7CC
:101590007C0A02201C09002010B50F4B1B889BB24F
:1015A0003C2B04D90C4A1388013B9BB213800A4B95
:1015B0001888C0B2094B1871FFF7D2FDD0231B0663
:1015C0005B689B0501D4002010BD034B00221A80EC
:1015D000FFF7A1FE0120F7E77C0A02201C0900208A
:1015E000D0231B065B689B0105D4D0231B068022F9
:1015F00092045A617047D0231B06802292049A619C
:10160000F8E7D0231B065B681B0505D4D0231B0617
:10161000802212015A617047D0231B0680221201DA
:101620009A61F8E7014B00221A707047820A022083
:10163000D0231B065B689B0404D4D0231B065B6885
:10164000DB0407D5D0231B06802292019A618022F9
:1016500052019A61D0231B065B681B0505D4D02379
:101660001B06802212015A617047D0231B0680227C
:1016700012019A61F8E70000014B01221A707047CD
:10168000840A0220014B01221A707047830A02204B
:1016900010B582B000210A2005F024FA164B18601C
:1016A0000021052005F01EFA144C206000210520C1
:1016B00005F018FA124B18602368002B0AD080221C
:1016C000002301931F330093002352000D490E485D
:1016D00005F06CFF0A4B1B68002B0AD08022002308
:1016E00001931F330093002352000849084805F076
:1016F0005DFF02B010BDC046740A0220C40902207A
:10170000C0090220708E0010ED1700107C8E0010B2
:101710007117001070B582B0802464000025019517
:1017200002230093002322000B490C4805F03EFFE2
:10173000019501260096002322000949094805F079
:1017400035FF01950096002322000749074805F060
:101750002DFF02B070BDC046908E00107D180010A5
:10176000948E0010731800109C8E001069180010E1
:1017700070B51FE0D0231B065B68DB050ED4D023B9
:101780001B065B681B0609D4164B1B889BB2002BFB
:1017900004D0144A1388013B9BB21380D024240642
:1017A0008025ED0065611E2006F00CF9A5610F2073
:1017B00006F008F901210C4B1868494205F040FC7D
:1017C0000128F7D1D0231B065B68DB05D2D5D023D7
:1017D0001B065B681B06CDD4024A138801339BB2FB
:1017E0001380DBE77C0A0220C009022070B51FE0ED
:1017F000D0231B065B68DB050ED5D0231B065B6878
:101800001B0609D5164B1B889BB2002B04D0144A2B
:101810001388013B9BB21380D02424068025ED0061
:1018200065611E2006F0CEF8A5610F2006F0CAF80B
:1018300001210C4B1868494205F002FC0128F7D140
:10184000D0231B065B68DB05D2D4D0231B065B6864
:101850001B06CDD5024A138801339BB21380DBE708
:101860007C0A0220C409022010B50F2006F0AAF855
:10187000FBE710B50F2006F0A5F8FBE710B5FEF763
:10188000EFFEFEF753FF0F2006F09CF8F9E700008B
:1018900010B582B0FA21244B0093002301224900A5
:1018A000224806F04DFE04009621214B00930023B0
:1018B000012249001F4806F043FE1F4B00930023FE
:1018C0000022C8211D4806F03BFE1D4B18601D4B31
:1018D000009300230122C8211B4806F031FE1B4B58
:1018E0001860FA211A4B009300230122890019483D
:1018F00006F026FE184B1860184B009300230122B7
:10190000C821174806F01CFE164B1860002C08D0A2
:1019100005F0CCFE0200002300930121200006F018
:1019200029FE02B010BDC046E1150010A88E0010BF
:1019300003160010B08E001025160010BC8E00108B
:101940009009022031160010C88E00109409022060
:1019500079160010D08E0010380A0220851600106B
:10196000D88E00108C09022010B5FFF791FEFFF70A
:10197000D1FEFFF78DFF10BDF0B5CE46474680B5CE
:1019800083B005000E0014001F4F002398460093FB
:1019900001330022D021380007F01EF901239946B7
:1019A00000932200D121380007F022F94B46009322
:1019B0003200D121380007F01BF943460093013370
:1019C0002A00D121380007F013F922781309980072
:1019D000181840000F210A408018207033781C0925
:1019E000A200A41864000B40E41834702A7813098C
:1019F00098001B185B0011405B182B7003B0C0BC33
:101A0000B946B046F0BDC0467C020020F0B5CE46D7
:101A1000474680B583B006000F001400002204235F
:101A200013701F4D0023984600930133D0212800E6
:101A300007F0D2F80123994600933A00D1212800FB
:101A400007F0D6F84B4600933200D121280007F06A
:101A5000CFF84346009301332200D121280007F03C
:101A6000C7F83A7813099D005D196D000F200240F8
:101A7000AD183D70337819098A0089184900034070
:101A8000C91831702278130999005B185B00104067
:101A90001B18237003B0C0BCB946B046F0BDC046A9
:101AA0007C02002010B5184A02231360174B1968F6
:101AB0008023DB014B40E021C9010B4014490B603E
:101AC00004231360114B1B68DB05FBD50F4B5868D3
:101AD0000004000C03F0EAFB0E4A0F4B03F075FB09
:101AE00000220E4B03F071FB03F028FC0C4903F0BD
:101AF000B4FF03F0BBFF0B4A0B4B03F048FB03F0B2
:101B000011FC80B210BDC04600E0044000C004409B
:101B100000D004406666666666660A400000303F94
:101B20000000D841643BDF4F8D97E63F10B583003E
:101B3000084A944663441C6840226240C024144012
:101B40008022520113431C60C000034B9C4660443A
:101B5000416010BD04C001400040014080000B4BBB
:101B60009C46604400290DD00823002A0CD0042292
:101B70001343026853400C22134080225201104349
:101B8000036070470023F0E70022F1E704C0014042
:101B900070B50400D0231B061D68AA000C4BD35857
:101BA000002B0AD0002803D0AD00094BEC5070BDCB
:101BB00008490D2000F0DAFAF6E70028F7D0AD006A
:101BC000034BE850002203490D2000F0B7F9EEE77F
:101BD000E4030020651C0010072303409B00C0089D
:101BE00099403C308000014BC1507047004001409B
:101BF000F8B507000C0016001D00FFF7EDFFFB080D
:101C00009B00ED180720384080008440002E04D04F
:101C100080239B011D432C60F8BDC0239B011D4305
:101C20002C60F9E710B5D0231B061B68002B03D0EE
:101C3000024BFFF7DDFF10BD014BFAE730410140D9
:101C40000041014070B514001D00FFF7EBFF2800B4
:101C5000FFF79EFF002C00D170BD01210D2000F088
:101C600033F9F9E7F0B5D6464F464646C0B5D0231E
:101C70001B061F68BA001D4BD3589846002F03D08F
:101C80001B4B9946002623E01A4B9946FAE7240994
:101C90000135002C1BD033000833AB4217D90F237A
:101CA0001A00224092462342F1D0BB00124A9A58B1
:101CB0000123AB401342EAD151462800FFF78CFFC5
:101CC0004346002BE3D051462800C047DFE70836E3
:101CD0001D2E06D8F30808339B004A469C58350051
:101CE000D7E7E0BCBA46B146A846F0BDE403002001
:101CF00030410140004101400C07002010B5012394
:101D00008340D0221206936293610521FFF70EFFF4
:101D100010BD70B50500002401E06D0801341D2CD4
:101D200005D8EB07F9D52000FFF7E8FFF5E770BD10
:101D3000EFF3108072B6034B1B68002BFBD0BFF390
:101D40005F8F70472C0100D0BFF35F8F024B0022E2
:101D50001A6080F3108870472C0100D0F8B5060097
:101D60000C001500FFF7E4FFE308F718F15C072209
:101D70002240012393400B4205D1DBB20B433B7061
:101D8000FFF7E2FFF8BD2100280001F0CDFC0000C4
:101D9000034B1B6802201840431E9841C0B2704795
:101DA00000C00640002307E0054A9A189200BFF3DE
:101DB0005F8F0021116001331F2BF5D97047C0469A
:101DC00040000034054A1078431CDBB21370172B17
:101DD00002D9130010221A707047C046C8010020B3
:101DE000074B9B68103080001950BFF35F8FBFF323
:101DF0005F8F044B0021196082F310887047C04642
:101E000000ED00E0240100D010B5091A081F0A4BAC
:101E10009C466144094A914208D8C30706D4401041
:101E20004005400D064B184380B210BD054B064AD5
:101E30009921064801F0DEFBFC070000FE0F0000C0
:101E400000E0FFFFDC8E0010349100100C8F0010BA
:101E500010B5091A04394C08090B08D14905490D78
:101E6000064A11430180064B2343438010BD054BB6
:101E7000054AA121054801F0BDFBC04600F0FFFF67
:101E800000F8FFFF608F0010089100100C8F001009
:101E900001238340034A10681840431E9841C0B292
:101EA0007047C04600E100E0002904D0034B1860F1
:101EB000034B18607047034B1860FBE780E200E0BB
:101EC00000E100E080E100E010B50123834018004C
:101ED000FFF7EAFF10BD0000024B9B681030800046
:101EE000C058704700ED00E070B504000D00EFF33E
:101EF000108672B60C4B1B68002BFBD0BFF35F8FB4
:101F00002000FFF7E9FF094B984201D0A84205D114
:101F1000320029002000FFF763FF70BD044B054A23
:101F20007C21054801F066FB240100D0CD010010A2
:101F3000708F0010689100100C8F0010F0B5DE4615
:101F400057464E464546E0B589B081460191150099
:101F5000EFF3108A72B6744B1B68002BFBD0BFF3F3
:101F60005F8F724B0027DF57002F40DB7C00E419A6
:101F7000A4006F4824180622A2566C4B1A706D4BB1
:101F80009A684B4610339B00D35898461E001B1A84
:101F90002F2B38D9684B98452FD105AE674B33802E
:101FA0007B009B46D8198000614B98464044023024
:101FB0006349FFF729FF7080624BB380FF23B37141
:101FC000F571019B07935F44BF0047440ECE0EC7D7
:101FD00001231C43A046524641464846FFF700FFF6
:101FE00009B0F0BCBB46B246A946A046F0BD564B70
:101FF000564ACD21564801F0FDFA564B534AD4219A
:10200000534801F0F7FAC04340440C2102F06AFE45
:10201000002912D101239E43B34633000026DA790A
:10202000AA4211D90621595600290CDB4A00521840
:1020300092001E003E4B9B18F1E7474B434AE021BC
:10204000434801F0D7FA1E00002E3BD005AB434AAF
:102050001A80813A5A800623F3560293002B18DA2D
:10206000BD20000205AB9B469880029A9A71DD71F3
:10207000019A0792301D2100FFF7C6FEB080B771AC
:102080007B00DB199B002A4FFF185B4607CB07C775
:10209000A1E77800C0198000254BC0180430321D1C
:1020A000B388D90A1C2907D15B05591502314900AB
:1020B0005118FFF7A9FED5E7294B2A4AA721244842
:1020C00001F098FA05AE1D4B33807B000293D819BE
:1020D0008000174A9046020042440392901C18491F
:1020E000FFF792FE7080039A101D5946FFF78CFE91
:1020F000B0801D4B5A464146521A524153431B0D64
:10210000B371F571019A0792029B9C466744BF0028
:1021100047440ECE0EC7114B5A461380813B538065
:1021200001231C43A04656E7240100D0860A022062
:10213000CC01002000ED00E0CD01001000A1FFFF68
:10214000FC01002000BDFFFFA88F0010509100107F
:102150000C8F0010D08F0010F88F00100148000085
:102160006C90001040910010AAAA0000F0B5CE4675
:10217000474680B583B006000D00EFF3108872B6B5
:10218000564B1B68002BFBD0BFF35F8F544B9A68F4
:1021900034001034A300D758524B9F4207D0AF42AF
:1021A00000D199E00197504BFB1A2F2B09D94246D9
:1021B00039003000FFF714FE03B0C0BCB946B0468A
:1021C000F0BD3000FFF764FE814600213000FFF7CC
:1021D0007BFEBFF35F8FFEF746F8002801D08442F4
:1021E00011D10123019C9C430022A368AB4212D071
:1021F0000622A256002A0DDB53009B189B002200EA
:10220000394CE418F1E72C21384B394AFF31394871
:1022100001F0F0F92200AB4257D106256557002D99
:1022200039DB6B005B199A002F4B9B189A68A260F0
:10223000DA79E27106229A56A2719B795BB2002B81
:1022400010DABD200002A0806B005B199B00264ABB
:10225000D318294A11789971157049463000FFF753
:1022600033FEA4E7201D6B005B199B001E4A9B18E0
:102270001A1D9B88D90A1C2907D15B055B150233FF
:1022800059005118FFF7C0FDDDE71C4B1C4AA72180
:10229000184801F0AFF9002812D1002A0ED0FF2310
:1022A0009371184B9380144A1378A371164B0E49FF
:1022B000641A644163431B0D1370CEE7094FF2E7C4
:1022C000201D1249FFF7C4FDC7E76021104B084AE3
:1022D000FF31084801F08EF9024F68E7240100D071
:1022E00000ED00E0CD010010CC0100208490001032
:1022F000209100100C8F0010860A02206C900010B4
:102300004091001000BDFFFFAAAA000006020020B5
:10231000A890001010B5032304009C43064A94467D
:10232000644422681840C000FC3383409A43130081
:1023300081400B43236010BD00E400E070B5040051
:10234000012606432D4BF31A2F2B28D8FDF78BFFC0
:1023500000282BD0EFF3108C72B6294B1B68002B92
:10236000FBD0BFF35F8F274D22002449521A524100
:1023700055432D0D6DB2244B9B6880001B58B34212
:102380001BD00022032A32D853009B189B001B4904
:10239000CB189B795BB2AB421FD00132F2E7C2216E
:1023A0001A4B1B4A49001B4801F024F988211A4B9B
:1023B000174AFF31174801F01DF9134B9B68174A64
:1023C0001A50174B1A78A2711D70BFF35F8F0C4B18
:1023D00000221A608CF3108870BD08005300991811
:1023E00089004118FF268E710E4A8A80E9E7CC21C8
:1023F0000D4B074A4900074801F0FCF8CC010020CA
:10240000240100D0AAAA000000ED00E0B090001066
:10241000EC9000100C8F0010D8900010CD0100102F
:10242000860A022000BDFFFFE49000100022044B4A
:1024300002E0044902C30132072AFAD97047C046B4
:1024400000E400E080808080024B9C46614489006B
:10245000016070474000003470B505000C000800B2
:1024600000F00AFD200000F0EFFD0849200000F018
:102470002FFDFFF7A7FC064B9C4660448000686078
:102480002C75A400034BE55070BDC0469527001085
:10249000400000345C04002010B5084B1A68EFF3CC
:1024A000108172B61368002BFCD0BFF35F8F034816
:1024B00003F084FF0020002110BDC0461809002051
:1024C00010B5002922D003681B7B99421ED8174BF8
:1024D0009C466144090183689C4661440C684968D4
:1024E000002A19D003681B7B9A4215D883680F48CD
:1024F0008446624412019A18106853680200012051
:102500008B4201D80ED00020C0B210BD084B094A42
:102510003B21094801F06EF8054B064A3B2106486D
:1025200001F068F8A242EFD8EDE7C046FFFFFF0FC9
:10253000E8910010949400109891001010B50029B3
:102540001ED0037B99421BD84B005B18033B0468E9
:10255000A4466344002919D0002A1DD0914221D0FD
:10256000002A25D0047BA24222D80468500080189B
:10257000033820188170197800291FD11A7010BDF6
:10258000104B114A6821114801F034F8104B114AE0
:102590006F310E4801F02EF80F4B0E4A70210B4898
:1025A00001F028F80D4B0B4A7121084801F022F880
:1025B000044B054A6821054801F01CF841701A7067
:1025C000DDE7C0461C920010009500103892001004
:1025D00098920010DC940010A4920010B0920010A9
:1025E00070B506000D001400002914D0002A14D084
:1025F000806873689847002806D0220029003000C0
:10260000FFF79CFF280007E02A0021003000FFF7B9
:1026100095FF200000E0100070BD0800FCE70000FE
:10262000F0B583B00500009201930AAB1C780BABA8
:102630001F78002C26D003685A7B944207D10123CF
:10264000002B19D1002C3BD1200003B0F0BD002C91
:102650000CD01A7B944209D81A6863001B19033BFB
:10266000D3189B78002BEBD00123E9E73E4B3F4A80
:1026700068213F4800F0BEFF3E4B3F4A65213F487E
:1026800000F0B8FF03689C7B002CDBD012D01A7BD3
:1026900094420FD862001219033A19688C466244BA
:1026A00051789973002900D1D97300239370537026
:1026B0001370C7E72C4B2D4A68212D4800F09AFF74
:1026C000002C3AD02B681B7B9C4236D82C4BE3184D
:1026D0001B01AA6894466344009A1A60019A5A60E2
:1026E000089A9A60099ADA602E68002C2BD030D0B4
:1026F000337B9C422DD863001B19033B3268944600
:10270000634400229A705A701A70717B2200300064
:10271000FFF766FF7073844200D095E7287D009A2A
:10272000019B00F01DFC061E01D0002F17D00C9B52
:10273000002B00D188E71E7086E7124B124A3B211E
:102740000E4800F057FF114B114AA521084800F030
:1027500051FF054B054A6821054800F04BFF2868EA
:10276000210000F025FEE2E71C9200100095001009
:1027700038920010C89200100C950010989100102B
:10278000FFFFFF0FE8910010949400109491001047
:10279000F0940010F0B5DE4657464E464546E0B58B
:1027A0008BB00990002308938200B24BD6583700B3
:1027B00032E0B14BB14A3F21B14800F01BFFB14BB1
:1027C000B14A3B21B14800F015FFB14BB14A8C2111
:1027D000AE4800F00FFFB04BAE4A9021AB4800F07E
:1027E00009FFA84BAD4A4021A84800F003FF2A6822
:1027F0006B68099800F0B4FB00239A4698467B6802
:10280000BFF35F8F00221A6086F310884346002BC7
:1028100051D1002800D126E100F03AFB02000B1E46
:10282000C7DB00200021069007917868EFF310863F
:1028300072B601680029FCD0BFF35F8F3968884603
:102840004C7B002C32D0BAD0097B8C42B7D894494B
:1028500065182D01B9688C46654428686968801A36
:1028600099410029C3DC01D10028C0D10021404694
:1028700000F094FDA042A8D12A686B6806920793E5
:10288000AB689846EB689A464346002BA3D0002CD1
:10289000A7D03B681B7B9C42A3D8631EFA68D35C1D
:1028A00008931B02184338610020A8E700239A46CA
:1028B00098460020A3E7089B1B02234399465146F4
:1028C0001800C04705000E007A68EFF3108B72B64F
:1028D000136859424B41D9B2002BF9D1BFF35F8F36
:1028E000002E26DB002E52DD3B69002B53D04B45DA
:1028F00072D100F0CDFA02000B1E73DB010018004C
:1029000052197341984202D804D1914202D901224E
:102910005242D317002B6BDB00210491013103914C
:10292000029451460191414600913800FFF778FE2C
:1029300049E03B69002BD5D04B451CD1069A079B3B
:1029400010001900521BB341994202D804D19042A1
:1029500002D901225242D317002B12DB002104912D
:102960000131039102945146019141460091380092
:10297000FFF756FE27E04B4B464A9F21434800F0A5
:1029800039FE3D4B3D4A3F213D4800F033FE002ECD
:1029900001D1002DA8D13A68002C45D0537B9C4230
:1029A0002CD1012100293FD1D37B002B42D1D473FC
:1029B000002C52D03B681B7B9C424ED8FA68013CED
:1029C000135D0133135500233B617A68BFF35F8FBA
:1029D00013608BF310881FE7324B2E4AA2212B483D
:1029E00000F008FE244B254A3F21254800F002FE56
:1029F000214B224A3F21224800F0FCFD002C0DD043
:102A0000137B9C420AD863001B19033B1068844661
:102A100063449B78002BC5D00121C3E7224B234A96
:102A20006821234800F0E6FD224B234AF621204886
:102A300000F0E0FD002B0AD0117B8B4207D8590033
:102A4000CB18033B11688C4663445C70AFE7164BB0
:102A5000164A6821164800F0CDFD0A4B0F4A402166
:102A60000A4800F0C7FD0BB0F0BCBB46B246A94611
:102A7000A046F0BD5C040020F092001060940010AD
:102A80000C930010E891001094940010989100109D
:102A9000689300107894001080930010B894001090
:102AA000FFFFFF0F8C9300101C9200100095001088
:102AB00038920010C8930010CC94001010B50A4B47
:102AC0005B68002B04D00A210848FFF7BDFC10BD4D
:102AD000054C2300064A1021206800F07FFB0321EB
:102AE0002000FFF7B9FCEEE71402002018090020CF
:102AF000C124001010B5064B5B68002B01D00448C0
:102B000010BD044B044A5C21044800F073FDC0462C
:102B100014020020EC930010A09400109891001073
:102B2000F0B5DE4657464E464546E0B58BB080468A
:102B300016001F00149B9A46159B994616AB1B78EE
:102B40009B461F2302AA9446634400221A7032E077
:102B5000002809D042461268127B904204D8421ED7
:102B60004146C9688A5C48E0434B444A4021444896
:102B700000F040FD0798002B75D05B46002B72D00B
:102B80004946D04704000D0003000B4300D171E01B
:102B9000002946DB00F07CF906000F1E55DB3619D4
:102BA0006F41B94202D804D1B04202D9012676421F
:102BB000F717002F4FDB43465A68EFF3108472B6C5
:102BC000136859424B41D9B20791002BF8D1BFF39A
:102BD0005F8F1F3302AA9446634404930023039338
:102BE00002934B4601935346009332003B0040460C
:102BF000FFF716FD031EABD1020041464968BFF343
:102C00005F8F00250D6084F31088002B29D01F23CF
:102C100002A98C4663441B78002BABD112021043EF
:102C2000A9E732003B00361BAF41BB4202D804D1BA
:102C3000B24202D901267642F717002FBBDA114BB8
:102C4000114A3F21114800F0D5FC0E4B0E4A3F219E
:102C50000E4800F0CFFC0B4B0B4A3F210B4800F015
:102C6000C9FC012040420BB0F0BCBB46B246A946AD
:102C7000A046F0BD0798F6E7E8910010B894001060
:102C800098910010F0920010609400100C930010C6
:102C9000F0B587B006000F00FDF7E5FA00281FD158
:102CA00096246442E517A4197D41BD4202D803D1A0
:102CB000B44201D900240025002D14DB04940595AD
:102CC00000F0E6F802000B1E13DBA41A9D41002D54
:102CD00017DC14D03000390000F0E6F807B0F0BD82
:102CE000204800F021FD204B204A3F21204800F0E1
:102CF00081FC1D4B1D4A3F211D4800F07BFC002C30
:102D0000E8D0FFF7F7FE002302930193194B0093DD
:102D1000049A059BFFF704FF002812DADAE7002384
:102D200000E00023002BD5D1134B1A68EFF310817C
:102D300072B61368002BFCD0BFF35F8F0E4803F010
:102D4000DBFA0499059A0D4B5B6A9A42E9D80B4865
:102D5000806A884203D29A42E1D00123E2E701234C
:102D6000E0E7C04610940010F0920010609400104C
:102D70000C93001099240010180900200040054011
:102D8000F8B504000D0000F083F802000B1E10DB04
:102D900020002900801859418B4202D804D1824278
:102DA00002D901204042C117002908DBFFF770FF5C
:102DB000F8BD064B064A3F21064800F01BFC034BBA
:102DC000034A3F21034800F015FCC046F092001072
:102DD000609400100C93001010B5FA2292000023AA
:102DE000002102F0FDFDFFF7CBFF10BD70B5EFF342
:102DF00005833F2018401038EFF3108C72B6194B42
:102E00001B68002BFBD0BFF35F8F012319008140AB
:102E1000154A5163154A12781400C440234214D055
:102E2000114B5C6A8300124D5B599C4206D38300B0
:102E3000104C1B598A430D490A7007E00A4A031DCA
:102E40009B0099589950002300E00023BFF35F8F47
:102E5000044A002111608CF31088002B00D09847A1
:102E600070BDC046280100D000400540870A0220FE
:102E70002C090020D403002010B50100024A0348A9
:102E8000FEF76CFF10BDC04624950010850A022095
:102E9000044B5B6A034A906A1900536A9942F9D15C
:102EA0007047C04600400540084B5B6A01E0074B95
:102EB0005B6A8B42FBD301E0044B5B6A8B4203D11C
:102EC000024B9B6A8342F7D37047C04600400540DF
:102ED00070B504000D00EFF3108672B61B4B1B6833
:102EE000002BFBD0BFF35F8F002D1CD02000FEF71E
:102EF000F3FF174B83420BD019002000FEF7F4FFBD
:102F000001212000FEF7E0FF0123A340114A1360D6
:102F1000A400114BE550BFF35F8F0C4B00221A60E9
:102F200086F3108870BDA2000B4B0021D150012206
:102F3000A2400A490B7893430B7005492000FFF724
:102F400015F900212000FEF7BFFFE4E7280100D0BB
:102F5000ED2D001038600540D4030020870A0220C0
:102F6000F0B5DE4600B584B00400150001921E00E5
:102F70000293FFF78DFF03958E4202D84ED1854212
:102F80004CD9EFF3108B72B6274B1B68002BFBD08C
:102F9000BFF35F8F254A17780125A540EBB23B436D
:102FA0001370234B5D63221D92000199D150A20042
:102FB0002049029850501B6A2B4212D11C4B1B6CAB
:102FC0002B4208D00020BFF35F8F174B00221A60FE
:102FD0008BF3108823E0184B184AC121184800F0E1
:102FE00009FBFFF755FF8E4214D802D1039B8342A1
:102FF00010D80E4B1B78BB420ED00D4B1D625D638B
:103000001F2004400123A3400E4A1360074B1F708A
:103010001E38D8E70020D6E70120D4E7012004B00D
:1030200080BCBB46F0BDC046280100D0870A022004
:10303000004005402C09002048950010C495001060
:103040006C95001080E200E0EFF3108C72B60B4B31
:103050001B68002BFBD0BFF35F8F01238340084A1E
:10306000136208490A789A430A70BFF35F8F034BD3
:1030700000221A608CF310887047C046280100D0E7
:1030800000400540870A022010B500291ED0037BAE
:1030900099421BD84B005B18033B0468A446634469
:1030A000002919D0002A1DD0914221D0002A25D014
:1030B000047BA24222D804685000801803382018EC
:1030C0008170197800291FD11A7010BD104B114A58
:1030D0006821114800F08EFA104B114A6F310E48EA
:1030E00000F088FA0F4B0E4A70210B4800F082FA6C
:1030F0000D4B0B4A7121084800F07CFA044B054A3D
:103100006821054800F076FA41701A70DDE7C04684
:103110001C920010E4960010389200109892001053
:10312000D0960010A4920010B092001070B5060066
:103130000D001400002914D0002A14D08068736890
:103140009847002806D0220029003000FFF79CFF96
:10315000280007E02A0021003000FFF795FF20003B
:1031600000E0100070BD0800FCE7000010B500236F
:10317000437301338373037BC3730123027B9A423E
:1031800014D9002B0CD0027B934209D85A00D218D4
:10319000033A01688C4662440133DBB25370EDE7B9
:1031A0000B4B0C4A68210C4800F024FA002A09D085
:1031B000924207D8016853009A18033A8A180023EC
:1031C000537010BD024B034A6821034800F012FA05
:1031D0001C920010E49600103892001010B5017394
:1031E00042608360FFF7C2FF10BD000070B50400AD
:1031F000081E00D170BD002934D0237B994231D8FC
:103200004B005B18033B2268944663445A78002ABB
:10321000F0D02DD0237B9A422AD853009B18033B31
:1032200021688C4663445D7800215970002825D0C0
:10323000237B984222D843001B18033B21688C460D
:1032400063440021597001002000FFF76FFF060062
:1032500029002000FFF7CAFF020031002000FFF71D
:1032600065FFC7E7084B094A6821094800F0C2F921
:10327000054B064A6821064800F0BCF9024B034A98
:103280006821034800F0B6F91C920010E496001083
:103290003892001070B505000C001600002928D0E7
:1032A0002DD0037B99422AD84B005B18033B026860
:1032B000944663445A78002A27D19A78002A2AD162
:1032C0001978FFF793FF0300002E03D0EA7B002A52
:1032D00027D1EC73002B37D1002C49D02B7B9C429B
:1032E00046D82B6861000C19033C1C19002363703D
:1032F00070BD224B224A3821224800F07BF9224B34
:10330000224A6821224800F075F9224B1C4A3A21D2
:103310001C4800F06FF9204B194A3B21194800F076
:1033200069F9002A0AD0297B8A4207D851008A18F5
:10333000033A29688C4662445470CAE7124B134A18
:103340006821134800F056F9002B0BD02A7B9342DA
:1033500008D843001B18033B2A68944663440022A4
:103360009A70B9E7084B094A6821094800F042F908
:10337000054B064A6821064800F03CF9E09500102C
:10338000BC960010E89500101C920010E496001006
:1033900038920010389600106096001070B5040046
:1033A0000A00457B2900FFF775FF6073280070BD98
:1033B00070B50400002967D0437B8B420ED00029F2
:1033C00011D0037B99420ED84B005B18033B026877
:1033D000D0188378002B0CD1002056E00121FFF794
:1033E000DDFF012051E0294B294A6821294800F0DE
:1033F00001F9002B20D0227B93421DD85A00D3180C
:10340000033B2268D2182568EB5C8B421AD0002B54
:103410001BD0227B934218D85A00D318033B226852
:10342000D21853788B4216D0002BF0D11A4B1B4A7E
:1034300067211B4800F0DEF8144B154A6821154837
:1034400000F0D8F84378137007E0104B104A682159
:10345000104800F0CFF84378537000238370437016
:1034600001222000FFF716FF0200617B814205D098
:103470002000FFF75BFE6073012006E0094B074A5E
:103480006D21074800F0B6F8002070BD1C920010B6
:10349000E496001038920010E4900010A4960010FA
:1034A000E89500108496001010B50400FEF78AFC21
:1034B00001002000FEF7C8FF01235B426360BFF3F9
:1034C0005F8F10BD10B50400FEF77CFC01002000EA
:1034D000FEF7BAFF01235B42636000232372BFF350
:1034E0005F8F10BD70B504000D00062000F03CFA9F
:1034F000C000290001F0F6FBC60908D00E4B9E4221
:1035000017D87F23184001303500460800E0012518
:103510006562A6622C34802080010443002323606E
:10352000062000F021FA8000A901891901F0DAFBD8
:1035300070BD0026014DEBE7FEFF0000FFFF00001D
:10354000002909D00A22064B9C4660444342584158
:103550004000044BC252704780225200F3E7C0463D
:103560000080FCBF3C09002070B505000C0006205F
:1035700000F0FAF9002829D0164B9D4227D080226E
:10358000D203154B1A60154B1A60154B9B6811003E
:103590009943FAD100212800FFF7D2FF210028002B
:1035A000FFF7A0FF2C002C34E96A60224A406E210C
:1035B000114080225201224311600A4B2B63802369
:1035C0009B01234310221A600323AB6470BD802249
:1035D0001204D6E70080034000E0004000F0004005
:1035E00000C000400103000000BEFDE710B5FFF77A
:1035F000FBFF000010B582B00C001900002A0CD0AF
:10360000084B002A0BD001920093230002000648C9
:1036100002F036FC0120FFF7E7FF044BF1E7034A15
:10362000F1E7C046A0970010B0970010AC970010CB
:1036300070B52B4B2B4A1A602B4B2C4A1A602C4B23
:103640009A682A4B9343FAD12A4C01E008CC984758
:10365000294B9C42FAD300F007F9234B274A1A6002
:10366000234B9B68DB43DB01FAD1254B40229A6751
:103670005A671A67DA66234C09E0234B234A8321F1
:103680002348FFF7B7FF2000FFF70EFF0834214B58
:103690009C4209D22368002BF5D0012BEDD12000EC
:1036A000FFF710FF0C34F2E71B4CA1681B4DC02242
:1036B000280002F0A3FAA560FCF7D5FD002800D091
:1036C00000BEFEF76FFBFEF7B1FEFFF7F7F9144CF3
:1036D00001E008CC9847134B9C42FAD370BDC0461A
:1036E00000E00040BFCDFBFE00F00040FE7F3C004C
:1036F00000C0004094020020A4020020FFFFFF0150
:1037000000F0014084020020E09700107C98001037
:10371000009800109402002000ED00E0000000205E
:10372000A4020020AC0200200FB400B583B008480A
:1037300002F074FB049B002B07D005A9019118002F
:1037400002F07CFB034802F069FB0120FFF74CFF0D
:10375000589800106898001010B50148FFF7E4FF72
:103760006C980010F8B5DE4657464E464546E0B523
:1037700005000F0092460A9A93424ED31A0E9146C4
:103780001E020A9A00233000494601F0EDFA8046F5
:103790006C006419A4002F4B9C4664446368834208
:1037A00000D260602B1FDBB29B46012B3BD9C023AC
:1037B0009B012343802212011A60AB00264A9958CC
:1037C000002905D0506901F08DFA01300138FDD192
:1037D00053465A0123685A40E0231A4080235B0174
:1037E00023431A605A46012A28D980239B01234388
:1037F000802212011A604346636042460023300073
:10380000494601F0B1FAAD00134B58510120F0BC0C
:10381000BB46B246A946A046F8BD104B104A2D2122
:103820001048FFF7E7FE012FC1D1C0239B012343BE
:1038300003221A60A368DB07FCD5C9E72168794039
:1038400003220A401A60A2680123BB401342FAD047
:10385000CBE7C04600800040EC0300208C980010AD
:10386000FC980010A098001030B583B00C2000F038
:1038700021F9FEF78DFA00280DD0002304E099000D
:103880002D4A2E4888500133092BF8D92A4B2C4A4F
:103890005A6203B030BD2B4B00229A6700F012F938
:1038A000294B01221A60274B5B6C012BFBD1274B64
:1038B00003221A60234B9B6B012BFBD10133009336
:1038C0000433234A0121234800F054F805230093D0
:1038D000214A0121214800F04DF8214B009300229C
:1038E00002210420FFF73EFF1E4D00952B00002211
:1038F00001210520FFF736FF104C00942300002221
:1039000000210720FFF72EFF009423000022002152
:103910000820FFF727FF0A4B009323000022002115
:103920000920FFF71FFF00952B0000220021062031
:10393000FFF718FFADE7C046EC030020006CDC0287
:103940001BB70000008000403CB0004030B0004099
:10395000002F685900800240008C864700C002405A
:10396000001BB700405973078000014BC0587047D7
:10397000EC030020F0B5C64600B504000F009046E9
:103980001D000C2001F0AEF906003D4A42443D4BBB
:103990009A4243D843011B1A9901C91AC900091850
:1039A0008901404601F09EF90200103A98235B001D
:1039B0009A4239D86B1E062B3CD8069B013B062B3E
:1039C00038D8069B9D423BD343461A09B2423DD3A9
:1039D0002D04069B1E0335432368002B3CDB2A4B3A
:1039E0009C424AD080225201284B1A60284B1A6010
:1039F000284B9B6811009943FAD12760A060231DD2
:103A0000C02292011A43212313602368002BFCDAA1
:103A1000E5600823136080BCB846F0BD1E4B1F4A0A
:103A200011211F48FFF7E6FD1E4B1C4A19211C48B7
:103A3000FFF7E0FD1C4B194A1C211948FFF7DAFD7E
:103A40001A4B164A22211648FFF7D4FD184B134A89
:103A500025211348FFF7CEFD22683F231340BB42C8
:103A6000BDD1A3681B051B0D8342B8D1E368EE22CC
:103A7000D2021340AB42B2D1CDE780229201B3E72C
:103A800080E84BD380F8A93200C0024000E000403B
:103A900000F0004000C000400C9900105C9A00103B
:103AA0006C990010C0990010DC990010289A001041
:103AB000409A001080239B000343014AD362704761
:103AC00000800540064BAA2212011A602F22DA60FC
:103AD000044B054A1A60024B5B68002BFBDA704707
:103AE000004002400060024000B0FA00704710B58C
:103AF000002802D00B684968984710BD01000020DB
:103B000007E083001B185B00501C08601078C01889
:103B100030380A681378303BDBB2092BF1D9704793
:103B2000F0B5DE4657464E464546E0B583B093466F
:103B30001F000C9B9A460D9C0E9B99460F9B9B0762
:103B400003D0B8460F00060022E00192A346884643
:103B50004E46B9460700B44207D2551C4B46414673
:103B60002020B84701342A00F5E73D004F465C4667
:103B7000019B9B46B1464646B84637002E0007E0FB
:103B8000013C551C5346185D43463900B0472A0096
:103B9000002CF5D135003E0047460F9B9B0707D40C
:103BA000100003B0F0BCBB46B246A946A046F0BD2B
:103BB000B0464E46B9462F005D46531BB342EFD286
:103BC000541C4B4641462020B8472200F5E7F0B58B
:103BD000CE46474680B585B0944698460C9D0D9CD0
:103BE0000EAB1B789946109A119B129EB7071CD4F6
:103BF000002B0CD0F7070AD54F46002F02D10C3707
:103C0000374204D0013B02E030272F550134944263
:103C100001D21F2CF8D9F70707D59C4205D21F2CDB
:103C200003D830272F550134F5E7F70615D577056A
:103C300005D4002C03D0944224D09C4222D00F9A69
:103C4000102A2BD00F9A102A30D00F9A022A35D082
:103C50001F2C02D830222A5501341F2C05D84A4681
:103C6000002A31D02D222A55013403960293019463
:103C7000009543466246FFF753FF05B0C0BCB94606
:103C8000B046F0BD621E012C06D00F9F102F01D050
:103C90001400D4E7023CD2E71400D0E7B206D1D436
:103CA0001F2CCFD878222A550134D1E7B206CCD5C3
:103CB0001F2CCAD858222A550134C9E71F2CC7D84F
:103CC00060322A550134C3E7720703D52B222A55E7
:103CD0000134CAE73207C8D520222A550134C4E787
:103CE000F0B5DE4657464E464546E0B593B08146B0
:103CF0008A46089209931CAB10CB1B789B461E9DED
:103D0000219B9846002C03D1102342469A439046AB
:103D10008023DB0046461E4042461A4212D0002C49
:103D200022D000260EE03033D9B2771C0AAB995569
:103D30002900200000F0D6FFAC4216D31F2F14D864
:103D40003E0004002900200000F0CCFFCBB2092B7C
:103D5000E9D94246920605D54121C918C9B20A39A6
:103D6000C9B2E2E76121F8E7270043460693209BAA
:103D700005931F9B049303955B46029301970AAB3F
:103D80000093099B089A51464846FFF720FF13B05D
:103D9000F0BCBB46B246A946A046F0BDF0B5DE4633
:103DA00057464E464546E0B595B0089009910A92AF
:103DB0000B931E9E1F9C20AB1B789B46229B994613
:103DC000239D269B9A463300234303D1103352464A
:103DD0009A4392468023DB0057461F4052461A42C0
:103DE00019D0330023432DD0002714E03033DAB24A
:103DF0007B1C98460CABDA554A462B00300021005C
:103E000000F0B2FFA5421FD819D043461F2B1BD884
:103E1000474606000C004A462B003000210000F007
:103E2000A3FFD3B2092BE1D95246920605D5412210
:103E3000D218D2B20A3AD2B2DAE76122F8E7B14533
:103E4000E3D901E00023984653460693259B05934A
:103E5000249B04934B4603935B4602934346019392
:103E60000CAB00930B9B0A9A09990898FFF7AFFED9
:103E700015B0F0BCBB46B246A946A046F0BD000056
:103E8000F0B5DE4657464E464546E0B591B083460E
:103E90008A460C9298461A9C08941B9D099522000C
:103EA0002B002000290001F0EEF9002800D0E5E009
:103EB00001225242D74B2000290001F0DFF90028EF
:103EC00000D0DBE001225242D34B2000290001F058
:103ED000BFF9002800D0D1E000220023089E300066
:103EE000099D290001F0B4F9002800D0DDE0089810
:103EF0000999069007918023DB001E9A1A400D92C3
:103F00001E9A1A4201D106231C93069807990400B1
:103F10000D000A000600024300D1D1E0080D400563
:103F2000400DBE4CA44660440A03120BBC4B134325
:103F30001F0001F0BBF9BB4ABB4B01F046F9BB4A7D
:103F4000BB4B01F01BF904000D000022B94B3000FF
:103F5000390001F00AF9B84AB84B01F036F902000D
:103F60000B002000290001F009F901F0B7F98146A2
:103F700001F09CF904000D00B14AB24B01F025F9A3
:103F80000022B14B01F0FAF801F0A8F90600AF4A9F
:103F9000AF4B2000290001F018F904000D0030009B
:103FA00001F084F9AB4AAC4B01F00FF902000B00B1
:103FB0002000290001F0D9F804000D0002000B00D8
:103FC00001F003F90A900B91A44BF31800261F058A
:103FD00022002B002000290001F0D0F80E900F9154
:103FE00022002B0000208021C90501F0BEF804004A
:103FF0000D0000229A4B0A980B9901F0C8F8002294
:10400000984B01F0BBF802000B000A980B9901F0E5
:10401000BEF80022944B01F0B1F802000B000A98A0
:104020000B9901F0B4F802000B002000290001F008
:10403000A5F802000B000E980F9901F0A8F80022D5
:10404000774B01F09BF832003B0001F0BEF8060010
:104050000F0004000D00069A079B01F00FF90028DD
:1040600030D001235B429C46E14400227D4B30006E
:10407000390001F08CF804000D0023E01E9B04932E
:104080001D9B03931C9B0293089A099B009201932A
:1040900043460C9A5146584600F0FCF811B0F0BC6B
:1040A000BB46B246A946A046F0BD002300240693B5
:1040B0000794069680231B069C46654407951AE7DD
:1040C000002399464B466333C62B1ED804261E9BFD
:1040D0001B0526D52B0023430FD0644A644B06985A
:1040E000079901F0C3F8002879D00022614B0698A7
:1040F000079901F0ADF8002871D01C9B4B4506DDF7
:104100004A46981A431E1C9303E00526DFE7002366
:104110001C938023DB001E9A1A431E920026002364
:1041200099461D9B9E4264D29F1B02231E9A1A40F1
:104130000A921E9A134202D0002E00D000274B464E
:10414000002B07D022002B000698079901F01FF8DA
:1041500006900791002200230898099901F078F849
:10416000002848D1444B1E9A1340049303971C9B8C
:104170000293069B079C0093019443460C9A514678
:10418000584600F087F8002E00D187E71E9B9B065B
:104190003DD54525441C4346020051462800D847DA
:1041A0004B46DA179B18534005220592013E0496B0
:1041B000002203920A3202924A46D00F01900093E5
:1041C0004346220051465846FFF78AFD0A9B002BC2
:1041D00000D163E702005F460C9E1D9D54E01C9BCE
:1041E000002B9ED00D9B002B9BD01C9B013B1C9356
:1041F00097E7002799E7069C079D22002900802069
:104200000006844661440B0006920793AAE76525E1
:10421000C0E7C046FFFFEF7FFFFFEFFF01FCFFFF9E
:104220000000F03FFB799F501344D33FB3C8608B2D
:10423000288AC63F0000F83F61436F63A787D23FDB
:1042400071A379094F930A400000E03F1655B5BBB2
:10425000B16B0240EF39FAFE422EE63FFF03000049
:1042600000002C4000002440000018402D431CEBAF
:10427000E2361A3F80842E41FFF7FFFF541C43466D
:1042800051462020B8472200931BAB42F6D31000C2
:1042900004E7C046F0B5DE4657464E464546E0B513
:1042A00095B00690079193469946209F1E9A1F9BB2
:1042B0001000190000F0E7FF002831D1012252421E
:1042C000BF4B1E981F9900F0C3FF002837D1012271
:1042D0005242BC4B1E981F9900F0D0FF00283DD1E0
:1042E0000022B94B1E981F9900F0C8FF002850D13A
:1042F0000022B64B1E981F9900F0AAFF002848D153
:10430000002200231E981F9900F0A2FF002850D120
:1043100000239846229B5B0500D4B6E0002458E0B9
:10432000229B0393219B029303230193A84B0093A9
:104330004B465A4607990698FFF7F2FB0EE1229B7F
:104340000393219B029304230193A24B00934B46BA
:104350005A4607990698FFF7E3FBFFE00423229AE9
:104360001A4022990B4210D09B4B002A0FD00422F6
:104370002299039121990291019200934B465A464A
:1043800007990698FFF7CCFBE8E0944BEDE7032292
:10439000EEE7229B0493219B039302971E9B1F9C95
:1043A000009301944B465A4607990698FFF768FD1B
:1043B000D4E01E9A1F9B0020002100F0D6FE1E9024
:1043C0001F9101239846A5E70CAB30221A55013FF7
:1043D00001341F2C01D8092FF6D81E981F9900F020
:1043E0007DFF050000F062FF02000B001E981F9980
:1043F00000F0BBFEFA007A4B9B181A685B680A92C1
:104400000B9300F0E2FE0890099100F08BFF06008C
:1044100000F048FF02000B000898099900F0A5FE83
:104420000890099100226F4B00F028FF00282ED041
:104430000136300000F036FF02000B000A980B999D
:1044400000F00CFF002801D001350026002F2CD1F0
:10445000280000F02BFF02000B001E981F9900F0AF
:1044600084FE06000F0000225E4B00F0F1FE0028E3
:1044700046D100225B4B3000390000F0FFFE0028DF
:104480003ED1EB073CD501353AE0062746E700224E
:10449000544B0898099900F0DBFE0028D6D1002E75
:1044A00001D0F307D2D50136D0E7AA461F2C11D888
:1044B000013F0A21300000F015FC651C30310CABC7
:1044C00019550A21300000F00DFC092E0ED9060006
:1044D0002C00EBE755461F2C0CD87B1E002F09D073
:1044E0000CAA302111551F000134F4E72B0055466A
:1044F0001C00F0E71F2C03D80CAB2E221A550134F8
:104500001F2C10D80A21280000F0C4FB661C303193
:104510000CAB19550A21280000F0BCFB051E01D088
:104520003400EDE734000323229A1340012B1CD002
:104530001F2C06D84346002B32D00CAB2D221A5527
:104540000134229B0393219B029301940CAB0093B3
:104550004B465A4607990698FFF7E2FA15B0F0BCA9
:10456000BB46B246A946A046F0BD219B002B13D006
:104570004346002B02D10C3313420FD0219B013B49
:104580002193190003E00CAB30221A5501348C4200
:10459000CED21F2CF7D9CBE72199F8E72199F6E77E
:1045A000229B5B0704D50CAB2B221A550134C8E7BC
:1045B000229B1B07C5D50CAB20221A550134C0E73E
:1045C000FFFFEFFFFFFFEF7F65CDCD4165CDCDC193
:1045D000749A0010789A00106C9A0010689A001073
:1045E000609C00100000E03FF0B5DE4657464E46A6
:1045F0004546E0B593B082468B469046119300291C
:1046000000D1EBE200275546119B1878002800D115
:10461000E7E2252809D07C1C43463A005946A847C2
:10462000119B013311932700EEE70133119300240E
:10463000119A11780B00203BD8B2102803D88300C0
:10464000D048C3589F460B00303BDBB2092B2CD916
:104650002A292FD000230A93119B1A782E2A39D0A9
:1046600000239A46119A1378683BD9B2122976D85A
:104670008B00C549CB589F4601231C430132119240
:10468000D6E702231C4301321192D1E704231C43D5
:1046900001321192CCE708231C4301321192C7E783
:1046A00010231C4301321192C2E711A8FFF726FA2A
:1046B0000A90D1E71C9B1A1D1C921868002804DB85
:1046C0000A90119B01331193C6E702231C43434216
:1046D0000A93F6E78022D20014435A1C11925A78AA
:1046E0001300303BDBB2092B04D92A2A07D0002360
:1046F0009A46B7E711A8FFF701FA8246B2E71C9B7A
:104700001A1D1C921868002804DB8246119B013395
:104710001193A7E70020F8E780235B002343511C97
:10472000119152786C2A01D01C0018E0C0239B0024
:104730001C430131119112E080232343511C11913C
:104740005278682A01D01C0009E0C0231C430131C3
:10475000119104E080235B001C4301321192119BF4
:1047600018780300253BDAB2532A00D92CE29300D3
:10477000864AD3589F4680239B001C4301321192E6
:10478000EDE780235B001C4301321192E7E77828B4
:1047900009D0582838D06F2838D0622838D0102354
:1047A0009C430A2600E01026582833D0692803D0FD
:1047B000642801D00C229443630501D5012294435F
:1047C00069282AD0642828D0A30500D59FE0E305F6
:1047D00000D5B8E0630600D4CAE01C9A111D1C91F4
:1047E0001168FF220A4005940A9B049353460393E1
:1047F000029600230193009243463A00594628004E
:10480000FFF76EFA070027E01026CDE70826CBE772
:104810000226C9E720221443C8E7A30520D4E305F4
:1048200050D4630666D51C9A111D1C911168FF2295
:104830000A40D317D118594005940A9B0493534654
:1048400003930296D20F0192009143463A005946D3
:104850002800FFF745FA0700119B01331193D3E6B7
:104860001C9BDA1D07218A43110008311C91116835
:1048700053689C46DB170C930D930C9A0D9B10000C
:1048800048400E90624653400F930E980F990C9A31
:104890000D9B801A99410E900F9108940A9B0793E3
:1048A000534606930496002305936346DA0F02925B
:1048B0000090019143463A0059462800FFF76EFAEE
:1048C0000700C9E71C9A111D1C911268D317D11853
:1048D000594005940A9B0493534603930296D20FC2
:1048E0000192009143463A0059462800FFF7F8F933
:1048F0000700B1E7230605D51C9A111D1C91002362
:10490000D25E96E71C9A111D1C91126891E71C9BC0
:10491000DA1D07218A43110008311C9108940A9B73
:104920000793534606930496002305930293136856
:1049300054680093019443463A0059462800FFF713
:104940002DFA070088E71C9A111D1C9105940A9BFB
:104950000493534603930296002301931368009334
:1049600043463A0059462800FFF7BAF9070073E7B3
:1049700023060DD51C9A111D1C9112681204120CED
:1049800031E7C046809A0010C49A0010109B0010B6
:104990001C9A111D1C91126825E746281AD01C9BF1
:1049A0000733072293431A0008321C9204940A9A90
:1049B0000392524602925C681B680093019443463E
:1049C0003A0059462800FFF765FC0700119B0133A8
:1049D000119319E620231C43E1E7672801D04728FB
:1049E00002D180231B011C43452801D0472801D157
:1049F00020231C431C9B0733072293431A000832D1
:104A00001C9204940A9A0392524602925C681B68B4
:104A10000093019443463A0059462800FFF730FAC4
:104A20000700119B01331193EEE502231A00224087
:104A3000924623421FD001241C9B1A1D1C927A1CF3
:104A40009146187843463A005946A8475346002BEA
:104A500016D1119B013311934F46D5E5561C4346A1
:104A600059462020B847230032005C1C9D42F5D8EF
:104A70003D001700E0E701233A002F000A9DF4E70C
:104A80004A46A9460A9D06E0571C4346594620203F
:104A9000C84734003A00661CA542F5D84D469146F9
:104AA000D7E71C9B1A1D1C921B6899465346002B86
:104AB00000D1013B4E4601E0013613003278002A56
:104AC00002D05A1E002BF7D14B46F21A10928023C7
:104AD000DB0026001E401C4203D0524501D953463C
:104AE000109302231A0022400B92234205D03A0071
:104AF00037004C46A946554620E03A00109B5F46D9
:104B0000B3462E0006E0551C434639002020B0472E
:104B100023002A005C1C0A999942F4D835005E46AD
:104B2000BB46109437004C46A946554606E01D008A
:104B30000134561C43465946C847320020780028A5
:104B400004D0002FF4D06B1E002DF0D117004D467D
:104B50000B9B002B03D1119B0133119354E50A9F4A
:104B6000109B06E0561C434659462020A8472300C8
:104B700032005C1C9F42F5D81700ECE721231C4350
:104B80001C9B1A1D1C921B68009305940823049318
:104B900053460393102302930023019343463A00A4
:104BA00059462800FFF79CF80700119B0133119329
:104BB0002AE57C1C43463A0059462520A847119B0C
:104BC0000133119327001FE57C1C43463A005946E8
:104BD000A847119B01331193270015E50A4B9A460C
:104BE00010E5AA46474502D343465A1E00E03A0064
:104BF000434659460020D047380013B0F0BCBB46AE
:104C0000B246A946A046F0BDED3A001000B585B009
:104C1000029003910121009313004A4202A9024825
:104C2000FFF7E2FC05B000BDEF3A00100148042197
:104C3000014B1847400200205D4C001010B50100E8
:104C400018231B8814221088984710BD10B5010046
:104C500018231B8816221088984710BDF0B5C64649
:104C600000B507000E0000250123984600E001353D
:104C7000B5420AD2AC003C192068FFF7DFFF206084
:104C80000028F4D100239846F1E7404680BCB8469E
:104C9000F0BD0000124A936F9B0815D29066D16652
:104CA000002905D0FFE7FFE7FFE7516F106F70475E
:104CB00004B580210906C2175140002800D0C8431E
:104CC00003F0FEFF002104BDF0B5146E556E576F62
:104CD000166FFFF7E3FF1466556657671667F0BD5A
:104CE000000000D0114A936F9B0813D210665166E2
:104CF000002905D0FFE7FFE7FFE7516F106F70470E
:104D000004B5002801D00020C04303F0D9FF0021E2
:104D100004BDC046F0B5146E556E576F166FFFF7A1
:104D2000E5FF1466556657671667F0BD000000D0B2
:104D300094464E4A926F9208624601D230E0C046D5
:104D4000F0B54A4EB56F6D08FCD3346E756E776F53
:104D5000366F00F025F89446444A14665566576746
:104D600016676246F0BDC0469446404A926F92086C
:104D7000624601D258E0C046F0B53C4EB56F6D08B2
:104D8000FCD3346E756E776F366F00F04DF8944635
:104D9000364A14665566576716676246F0BDC046C8
:104DA000002B24DB11D000293EDA00B5C943404274
:104DB00000D1013100F038F8C943404200D101313F
:104DC000DB43524200D1013300BD002AEBD1002861
:104DD00001D1002905D00020C90FC90701D1C04366
:104DE000410800B503F064FF0022002300BD00B5B8
:104DF00000290ADBDB43524200D1013300F014F8F2
:104E0000C943404200D1013100BDC943404200D1F5
:104E10000131DB43524200D1013300F005F8DB439E
:104E2000524200D1013300BD002923D1002B18D1FB
:104E3000002A0CD0BC460D4F38667A66002100234C
:104E4000FFE7FFE7FFE77A6F386F67467047002894
:104E500001D00748010000B503F02AFF002200231B
:104E600000BD02000B00002000217047000000D0B0
:104E7000FFFFFFFF002B00D0BFE0130C28D1002A5A
:104E8000E7D080B4114F39667A66FFE7FFE730B4A8
:104E9000040C7B6F396F1B0423433B667A66FFE784
:104EA000FFE7FFE7C04684B27B6F3D6F1B042343DF
:104EB0003B667A66FFE7FFE7C04600232C042D0C13
:104EC0007A6F386F00196941B0BC7047000000D09C
:104ED000F0B594460025140E01D112020835140FC6
:104EE00001D112010435940F01D192000235D40F83
:104EF00001D152000135D40B0134254F7C66254C7D
:104F00003C660E0C93B2FFE7FFE7FFE73C6F66439A
:104F1000360C7703BE467343DF0B5B04C01AB941FE
:104F2000130C7343DB18C91ACE086643360CB6441B
:104F300093B273431F0F1B01C01AB941130C734383
:104F40001F0B1B05C01AB941860D8F023E436643F5
:104F5000360C092D24DB520A7243801A7703460A65
:104F60006643360C16235B1BDE40DF40BF196446E8
:104F70006643821B7046043506330100D940A840C1
:104F8000C01900D30131A24206D20023F0BD0000B7
:104F9000000000D0FFFFFFFF121B0130F3D3F1E749
:104FA00009277F1BFE406446A2B27243801A00D2DA
:104FB0000139220C7243130C1204821A99410B001E
:104FC0007046043513370100F940A840801900D31A
:104FD0000131002B02D1A2420AD2F0BD013000D330
:104FE0000131121BFAD2013BF8D1A24200D2F0BD2E
:104FF000013000D30131121BF7E7F0B51C0C00D0D3
:1050000080E00CB400251C0A04D11B02160E3343A9
:10501000120208351C0B04D11B01160F3343120179
:1050200004359C0B04D19B00960F3343920002354C
:10503000DC0B02D192185B4101351C0097186441CA
:105040000134464F7C66464C3C660E0CFFE7FFE79A
:10505000FFE7C0463C6F6643360C7703BE4697B207
:105060007743C01B00D20139C01B00D201399FB267
:105070007743C91BC91B170C77437E04FF0B801BAA
:10508000B941CE086643360C0C2D33DBB644120B07
:105090001F053A431B0B97B27743C01B00D201395F
:1050A0009FB27743C91B170C77433E043F0C801B0C
:1050B000B941860D8F023E43664329277F1BFE4080
:1050C0000C3D7746AF40BF1930BCA2B2ABB27243C1
:1050D0007343801A9941220C7243130C1204801AF4
:1050E000994102000B000137001BA941F9D2781E3B
:1050F0000021F0BD0C277F1BFE4077467F0BAF40A1
:10510000FF19E0E700245D1C07D0144F7D66396667
:10511000FFE7FFE7FFE7FFE73C6F95B29EB265430D
:105120006643401BB141150C1E0C654366433604B3
:105130002F0C3E432D04401BB141994204D2020082
:105140000B0020000021F0BD01D19042F7D3801A5E
:10515000994101349942F2D3F6E70000000000D0F3
:10516000FFFFFFFF48404140484018B41B4B5B68BD
:10517000FC46019308BD04DF5754001018B4174BC8
:105180001B68FC46019308BD00DF61540010944683
:10519000134A926F920809D2624618B40F4BDB682B
:1051A000FC46019308BD0CDF195700100C4AF0B5FE
:1051B000146E556E576F166F6246FFF7EEFF084A82
:1051C0001466556657671667F0BD18B4034B9B68A5
:1051D000FC46019308BD08DFBD55001014070020F0
:1051E000000000D0FFB550404240504059404B4075
:1051F000594000E0FFB5154F4C00640D03D0BC4290
:1052000004D10C0314D80020090D09055C00640DBD
:1052100003D0BC4204D11C030AD800221B0D1B057D
:1052200001264B4009D44B4003D58B4200D182422A
:10523000FFBD9942FCD19042FFBD0B43DB180343F5
:105240001343F5D0C9434918FFBD0000FF07000014
:1052500000B5FFF7CFFF804100BDC04600B5FFF7A6
:10526000C9FF01D9002000BD012000BD00B5FFF736
:10527000B9FF01D9002000BD012000BD00B5FFF736
:10528000B1FF804100BD012040054A00121804D83A
:105290005A00121801D800207047012070470020E2
:1052A000704700000021002805D17047C117484011
:1052B000401AFAD0C90713B5064B1B6898470CBCB7
:1052C000441CA2401005120B0349091B0905194390
:1052D000114310BD140800201F04000010B54C003D
:1052E000620D8023D218DB00D21A5B057E2A10DD06
:1052F0009E3A13DACC170903490819435242D140A8
:10530000640001341532202A05DAD0400843604396
:1053100010BD002010BD0846604310BDC80FC01866
:10532000013810BD18B4044B5B6AFC46019308BDFC
:1053300024DFC958001000001407002018B4044BE3
:10534000DB6FFC46019308BD7CDF4959001000006B
:105350001407002070B513231C78012C14D0012CE5
:1053600014DC022C02DC1F4A1F4B9A641F48FFF713
:1053700065FC1F4B186070BD99001A481A4A885086
:1053800001331F2BF8D9EAE70023FAE71948FFF7A2
:105390005DFC05001848FFF759FC023803789B00B4
:1053A0007F2B19DD802229000F4800F027FC022CFA
:1053B000D7D1124B1A88B5231B029A4209D1104B40
:1053C0001A88104B9A4204D10F4B1A880F4B9A42FD
:1053D000C7D00020FEF7A8F90D4B0E4A32210E4827
:1053E000FEF708F91D540010140700204C3300008C
:1053F00014080020534400005346000054380000B5
:10540000D8380000494600009C380000594600008A
:10541000B09C0010709D0010109D001007B56046F4
:10542000002800D100BE01880A0A0230DF2AFAD122
:10543000C9B2820804D3028840880004104300E007
:105440000068024A5050039007BD00001407002076
:105450000FB403BC0CBCF0B50124E407634000E0CA
:10546000F0B50C0DCF0F661E3605891B640503D3FE
:10547000C943404200D30131640D03D0661CF60AD3
:1054800007D0E41B00207F00791C89078912803C2B
:1054900024031D0DDF0F6E1E36059B1B6D0503D308
:1054A000DB43524200D301336D0D03D06E1CF60A6C
:1054B00007D0ED1B00227F007B1C9B079B12803DC9
:1054C0002D032F1B661B58D4A446202E46DA203706
:1054D0001400BC401D00BD40F24033412A438018F7
:1054E0005941CB0F05D0C943C0430022644250410B
:1054F000514162464D0D28D10D0D07D100281FD016
:10550000241940414941013A0D0DF9D0640006D3F8
:10551000013000D30131002C01D140084000013A94
:105520000BD4941CE40A04D112051144DB0719447E
:10553000F0BDD907204B194300E0D9070020F0BD8A
:105540000029DDD1002CDBD1F0BD0132C6074008B7
:10555000CD0728434908002EE1D0D9E73C2E29DAAF
:10556000203E40371400BC4000D00124F2401443D8
:105570001A00BB401C43D317ACE7AC46202F08DA17
:1055800020360400B4400D00B540F84039412843AE
:10559000A5E73C2F0CDA203F40360400B44000D091
:1055A0000124F84004430800B1400C43C117EAE766
:1055B00010001900002494E70000F07FF0B50C0DF6
:1055C000661E3605891BE60A6405640D02D0651C5B
:1055D000ED0A04D0002001210905803C2403A446E3
:1055E0001C0D671E3F05DB1BE70A6405640D02D036
:1055F000651CED0A04D0002201231B05803C240316
:105600007740644497B484B296B27443070C7E43E7
:10561000150C6F4380B26843361802D30120000492
:105620003F183004350C00197D41844688B29AB287
:1056300050430C0C62431F0C7C438EB27E43921984
:1056400002D301263604A4191604170C3618674134
:1056500001BC81B29AB25143040C62431B0C5C43FF
:1056600080B25843121802D30120000424181004F9
:10567000130C401863412D185E410020474106BCC1
:1056800088B293B258430C0C6343120C544389B252
:1056900051435B1802D301210904641819041A0C40
:1056A000091862416D1856410020474118BCF902A3
:1056B000720D1143F0026A0D1043ED020A0D03D181
:1056C0006D1940414941013B124E9B1B7600B3428C
:1056D0000ED26D0007D30130002671416646354376
:1056E00001D1400840001B05C918E4072144F0BD62
:1056F0000BDA013306D1013004D101314F0D01D055
:105700004908F2E7E1070020F0BD0136310500202D
:10571000EBE70000FF030000F0B51C0D671E3F051E
:10572000DB1BE70A6405640D02D0661CF60A04D090
:10573000002201231B05803C2403D0252D060026D2
:10574000F6432E661E096E66CE0FF619B446490062
:105750004F0D02D07E1CF60A03D000200021403FEE
:105760003F033E1BB600B444013F7F05C91B4908F7
:105770002E6F013676089C02950D25437543ED1377
:105780007543AD1301356D10F603761B0CB4CC02D6
:10579000450D2C43A2B2B3B25A43270C7B43350CC0
:1057A0006F43A4B26C431B1902D3012424043F1994
:1057B0001C041D0CA4187D4124196D41009A91B25E
:1057C000ACB26143170C7C432B0C5F4392B25A433B
:1057D000A41802D301221204BF182204230C521869
:1057E0007B41019C6C431B19520ED9010A434401B1
:1057F000A01A81B2B2B2514303145A43360C734318
:1058000087B27743D617D21900277E4136049B19F9
:105810001704160C7F185E417316ED18F30100266D
:1058200080337541A90F06D16400690AE8055B0A57
:10583000184309D22FE00422944480337541A90A09
:10584000A8059B0A184326D3404149412404009AE5
:10585000019B0D005543641B4343E41A95B286B285
:105860007543170C7E43030C5F4392B25A43B6183C
:1058700002D301221204BF183204330C52197B41A7
:1058800052429C41002C02D4002201305141400878
:10589000CA071043490802B06246D7079210084B66
:1058A000D218084B9A4203D212058918C919F0BDC3
:1058B0000020002A01DC3900F0BD01331905F5E7AD
:1058C000FD030000FE070000002200B5203200F0BA
:1058D00004F8080000BD000000220B150AD410B522
:1058E000944600F05FF81414013400DA0021CB175D
:1058F000144C20470020002170476244343A0CD4F5
:105900000C2A07DA04009140904052422032D440E1
:10591000214310BDD843D94310BD203207D40C46D3
:105920009440524220321141D040204310BD080023
:10593000C917203203D452422032104110BD180042
:10594000190010BDFB5800104A00520D144BD21A1A
:1059500013DDFF2A1EDAD205CB0FDB071A43C30083
:10596000400F0903490A084310435B0001D301D0EB
:10597000013070474308FBD2704702D0C80FC00700
:1059800070470A0312130132F8D1420F072AF5D1EA
:10599000012200E0FF22C80F00028018C0057047F6
:1059A000800300000A0DCC0F531E1B05C91A5205B7
:1059B00003D3C943404200D30131520D03D0531CDD
:1059C000DB0A07D0121B00206400611C89078912C2
:1059D000803A1203014BD21A70470000FF03000007
:1059E00051434343C9188C46110C83B24B4310B446
:1059F000040C614392B280B2504362431C041B0CFE
:105A0000001910BC59411304120CC01851416144D3
:105A10007047000048404140484000239C46114BDD
:105A20005B68184700239C460E4B1B6818470E4ABC
:105A3000936F9B0804D200239C460A4BDB681847EF
:105A4000F0B5146E556E576F166FFFF7F4FF064AE8
:105A50001466556657671667F0BD00239C46014BD8
:105A60009B68184718080020000000D0034BDB6F2C
:105A7000FC4618477CDFB15B0010000018080020CE
:105A800070B513231D782A48FFF7E0F80400012DB4
:105A900011D0012D09DDA31E1B789B007F2B40DD5B
:105AA00080222100234800F0A9F82348FFF7C6F818
:105AB000224B186070BD542201001E4800F09EF871
:105AC0001F4B1A881F4B9A421CD1A7239B011A888F
:105AD0001D4B9A4216D11D4B1A881D4B9A4211D16B
