:020000041000EA
:1000000000B5324B212058609868022188439860DF
:10001000D860186158612E4B002199600221596106
:100020000121F02299502B49196001219960352056
:1000300000F044F80222904214D00621196600F024
:1000400034F8196E01211966002018661A6600F04E
:100050002CF8196E196E196E052000F02FF8012189
:100060000842F9D1002199601B49196000215960AB
:100070001A491B48016001219960EB211966A021F2
:10008000196600F012F800219960164914480160C1
:100090000121996001BC002800D000471248134993
:1000A000086003C880F30888084703B5996A0420EC
:1000B0000142FBD001200142F8D103BD02B5186610
:1000C0001866FFF7F2FF186E186E02BD00000240BE
:1000D000000000180000070000035F00212200005C
:1000E000F4000018222000A00001001008ED00E03C
:1000F00000000000000000000000000074B24E7A12
:1001000000200420F7010010C3010010C5010010F9
:10011000C1010010C1010010C1010010C101001097
:10012000C1010010C1010010C1010010C701001081
:10013000C1010010C1010010C9010010CB01001065
:10014000CD010010CD010010CD010010CD01001037
:10015000CD010010CD010010CD010010CD01001027
:10016000CD010010CD010010CD010010CD01001017
:10017000CD010010CD010010CD010010CD01001007
:10018000CD010010CD010010CD010010CD010010F7
:10019000CD010010CD010010CD010010CD010010E7
:1001A000CD010010CD010010CD010010CD010010D7
:1001B000CD010010CD010010CD010010CD010010C7
:1001C00000BE00BE00BE00BE00BE00BE00F04BF888
:1001D000103800BEF2EB8871A4E60010C8E60010EB
:1001E0003402001090A31AE700202149086006C8D5
:1001F00081F3088810471F48006800282FD10DA4FC
:100200000ECC002902D000F012F8F9E71A491B4A77
:10021000002000E001C19142FCD1194988471949E9
:1002200088471949884700BEFDE701C901C29A42C3
:10023000FBD37047C8E60010C00000203C0500203A
:1002400044EB0010000004200000042044EB0010E8
:1002500000100420001004200000000070470B482C
:1002600004F06AFF0047EFF30580C0B2704700005A
:1002700008ED00E0000000D040050020D416022068
:10028000593A0010A1040010153A0010575600000A
:1002900006005250ABB36053C4D000100600525059
:1002A000861C0302D4D00010060052505422A29D96
:1002B000E8D0001005005250DE65F46844EB0010F1
:1002C000F8B5C04610B5064C2378002B07D1054B76
:1002D000002B02D0044800E000BF0123237010BDB2
:1002E000480600200000000088BE0010044B10B536
:1002F000002B03D00349044800E000BF10BDC046F6
:10030000000000004C06002088BE0010FEE710B57B
:10031000FFF7FCFF10B50AF03BFA03F031FC0000D8
:1003200070B584B000230393194B1B78002B09D1BF
:10033000082926D0174B186803A909F013FE144B9F
:1003400001221A70144D2E680AF074FA020000247B
:10035000009403AB072130000BF0CAF92D680AF0B6
:1003600069FA0200009403AB062128000BF0C0F9E3
:10037000039B002B03D0094B802252051A6004B066
:1003800070BD074B186803A909F0ECFDD7E7C0461C
:10039000C516022004160220D415022004ED00E048
:1003A00008160220002907D170470139C9B243431A
:1003B0000129FAD81800F7E70300F9E710B50100A2
:1003C0000220FFF7EFFF10BD70B505F0E3FF02203C
:1003D000FFF7F4FF04000320FFF7F0FF04430620BB
:1003E000FFF7ECFF04430A20FFF7E8FF04430B206C
:1003F000FFF7E4FF04430D20FFF7E0FF04430C2068
:10040000FFF7DCFF04431920FFF7D8FF044309205E
:10041000FFF7D4FF05001520FFF7D0FF05430720A5
:10042000FFF7CCFF05432543280001F0D2FDD0267D
:100430003606306A60400540F5623461144802F0C7
:100440000DFF30690440F4610421022001F0CEFC6C
:10045000104B01220C21072001F054FD0E490F48DA
:100460000BF04CFC0321042001F0C0FC032105200B
:1004700001F0BCFC00220121042001F0CFFC00228D
:100480000121052001F0CAFC0BF07CFC70BDC046C8
:10049000DC05000021030010A086010008050020F3
:1004A00010B5FFF791FF01F0FFFA02480BF088FA50
:1004B000FFF730FF0F0300107047000010B5014830
:1004C00003F046FB88BE0010FEE70000034B00224D
:1004D0001A70034B04321A707047C046C0160220CF
:1004E000BF16022010B500F0B5FE10BD10B500F02B
:1004F000C3FE00F0DDFE10BD10B500F0F9FE10BD2A
:1005000010B501F035F8002802D0024B00221A7015
:1005100010BDC046C016022010B501F05BF80028DF
:1005200002D0024B00221A7010BDC046C016022035
:1005300010B5114B1B78012B0CD0022B12D0002BC5
:1005400000D010BD01F06CF80028FAD00A4B01224F
:100550001A70F6E701F088F80028F2D0064B022264
:100560001A70EEE701F0A4F80028EAD00023024A4E
:100570001370024A1370E4E7C1160220C01602206D
:1005800010B500F0E6FE002805D0034B01221A70DA
:10059000024B02321A7010BDC6160220BF1602208E
:1005A00010B50D4B1A78052A06D893000B4AD3587C
:1005B0009F46094800F09CFF10BDFFF7A1FFFBE735
:1005C000FFF7AAFFF8E7FFF7B3FFF5E7FFF7D8FF5C
:1005D000F2E7FFF77BFFEFE7C016022098BE00109E
:1005E00010B50E4B1B78002B02D0012B06D010BD8E
:1005F00000F0B8FE094B01221A70F8E7D0231B0661
:100600005B689B0206D5054B02221A70034800F076
:1006100009FFECE7014B01221A70F7E7C21602202E
:1006200010B5FFF7DDFF10BD10B500F075FE10BD71
:1006300010B5164B1B78032B07D0042B08D0022BC8
:1006400000D010BDFFF7ACFFFBE7FFF7E9FFF8E7CD
:100650000F4805F093FEFFF7E7FF00F0FDFE0028CE
:1006600003D10A4B00221A70EBE700F0F5FE0128D7
:1006700003D1064B01221A70E3E700F0EDFE0228D9
:10068000DFD1024B02221A70DBE7C046BF16022000
:10069000B0BE001010B50A4805F070FE00F03AF840
:1006A0000F200AF04DFA0023064A1370064A04216F
:1006B0001170064A1370064A1370064A137010BD73
:1006C000C0BE0010BE160220BF160220C0160220B7
:1006D000C1160220C216022010B50D4B1B78022B4A
:1006E00012D006D8002B09D0012B0CD1FFF7FEFE4B
:1006F00009E0042B07D1FFF79BFF04E0FFF7F2FEB0
:10070000034B01221A7010BDFFF7F6FEFBE7C0464F
:10071000BE16022010B5034805F030FE1E200AF078
:100720000FFA10BDD4BE001030B583B0A94B1B88A2
:100730009BB2002B50D0A74B1B889BB2012B00D142
:10074000D8E0A44B1B889BB2022B00D16EE103B012
:1007500030BD6B46DA1D1470002104E014789E4B06
:100760001C6001310132002916D19B4B9B699B060D
:10077000FBD4F3E76B46DA1D0D231370002108E06C
:10078000954B9B699B06FBD41578934B1D600131FB
:1007900001320029F4D00FE003780D3B5A42534157
:1007A000DBB201300478002C19D0002BD1D18B4B57
:1007B00000229B5EA342DDD06B46DA1D147000213F
:1007C0000029E9D1844B9B699B06FBD41478824BAA
:1007D0001C6001310132F3E700238148E2E7FFF7B3
:1007E00099FF00237F4826E06B46DA1D1470002134
:1007F00000291AD1784B9B699B06FBD41478764B61
:100800001C6001310132F3E76B46DA1D0D231370D2
:100810000021002919D1704B9B699B06FBD41578E8
:100820006D4B1D6001310132F3E703780D3B5A42F5
:100830005341DBB201300478002C16D0002BD3D109
:10084000664B00229B5EA342DED06B46DA1D14701D
:1008500000210029E9D1604B9B699B06FBD41478E9
:100860005D4B1C6001310132F3E7FFF753FF6EE788
:100870006B46DA1D14700021002926D1564B9B6966
:100880009B06FBD41478544B1C6001310132F3E712
:100890006B46DA1D0D231370002108E04E4B9B6957
:1008A0009B06FBD415784C4B1D60013101320029A9
:1008B000F4D01AE0484B9B699B06FBD41478464B56
:1008C0001C60013101320029F4D003780D3B5A42FB
:1008D0005341DBB201300478002C0ED0002BC7D17D
:1008E0003E4B00229B5EA342D2D06B46DA1D1470B1
:1008F0000021E8E700233A48EDE7FFF70BFF00236C
:10090000394832E06B46DA1D14700021002926D1E7
:10091000314B9B699B06FBD414782F4B1C60013133
:100920000132F3E76B46DA1D0D231370002108E056
:10093000294B9B699B06FBD41578274B1D60013121
:1009400001320029F4D01AE0234B9B699B06FBD4AB
:100950001478214B1C60013101320029F4D0037856
:100960000D3B5A425341DBB201300478002C0BD0CE
:10097000002BC7D1194B00229B5EA342D2D06B46FD
:10098000DA1D14700021E8E7FFF7C4FEDFE66B46CE
:10099000DA1D1470002104E014780F4B1C60013143
:1009A000013200292DD10C4B9B699B06FBD4F3E748
:1009B0006B46DA1D0D231370002104E01578064BF9
:1009C0001D600131013200292BD1034B9B699B062D
:1009D000FBD4F3E7BC160220004003406C15002056
:1009E000D8BE0010E0BE0010F8BE0010364B9B6968
:1009F0009B06FBD41478344B1C6001310132002972
:100A0000F4D003780D3B5A425341DBB201300478F5
:100A1000002C0ED0002BBAD12C4B00229B5EA3429F
:100A2000C6D06B46DA1D14700021E8E70023284881
:100A3000EDE7FFF76FFE0023264832E06B46DA1D34
:100A400014700021002926D11F4B9B699B06FBD403
:100A500014781D4B1C6001310132F3E76B46DA1D3F
:100A60000D2313700021002925D1174B9B699B068C
:100A7000FBD41578144B1D6001310132F3E7147873
:100A8000114B1C6001310132002904D10E4B9B69CE
:100A90009B06FBD4F3E703780D3B5A425341DBB28C
:100AA00001300478002C0BD0002BC7D1074B00225B
:100AB0009B5EA342D2D06B46DA1D14700021E3E79F
:100AC000FFF728FE43E6C046004003406C150020B7
:100AD000D8BE001014BF001030B583B04F4B1B8838
:100AE0009BB2002B4FD04D4B1B889BB2002B4DD19E
:100AF0004A4B1B889BB2022B00D18BE0FFF70AFE0A
:100B000003B030BD6B46DA1D1470002100291AD1E4
:100B1000434B9B699B06FBD41478414B1C6001310D
:100B20000132F3E76B46DA1D0D2313700021002913
:100B300019D13B4B9B699B06FBD41578384B1D6044
:100B400001310132F3E703780D3B5A425341DBB2E6
:100B500001300478002CD1D0002BD3D1314B0022AE
:100B60009B5EA342DED06B46DA1D14700021002983
:100B7000E9D12B4B9B699B06FBD41478284B1C6056
:100B800001310132F3E700232748E2E7002326483A
:100B9000DFE76B46DA1D1470002108E0204B9B69EB
:100BA0009B06FBD414781E4B1C60013101320029D6
:100BB000F4D003780D3B5A425341DBB20130047844
:100BC000002C9BD0002BE4D1164B00229B5EA3424D
:100BD0000FD06B46DA1D147000210029E9D1104BAB
:100BE0009B699B06FBD414780D4B1C6001310132CC
:100BF000F3E76B46DA1D0D23137000210029E8D1BD
:100C0000074B9B699B06FBD41578054B1D60013192
:100C10000132F3E700230548D1E7C046BC160220A5
:100C2000004003406C15002030BF001040BF001092
:100C300070B584B004000023564833E00F226A44A4
:100C40001570002104E01578534B1D60013101320D
:100C5000002921D1504B9B699B06FBD4F3E70F225F
:100C60006A440D231370002108E04B4B9B699B06DF
:100C7000FBD41678484B1E60013101320029F4D0B4
:100C80001AE0454B9B699B06FBD41578424B1D60CF
:100C9000013101320029F4D003780D3B5A4253410F
:100CA000DBB201300578002D0BD0002BC6D13B4BB9
:100CB00000229B5EAB42D2D00F226A441570002105
:100CC000E8E7FFF727FD0023354826E00F226A44B6
:100CD0001570002100291AD12F4B9B699B06FBD46C
:100CE00015782D4B1D6001310132F3E70F226A4464
:100CF0000D2313700021002919D1274B9B699B06F6
:100D0000FBD41678244B1E6001310132F3E70378DF
:100D10000D3B5A425341DBB201300578002D16D00D
:100D2000002BD3D11D4B00229B5EAB42DED00F22A5
:100D30006A44157000210029E9D1174B9B699B0675
:100D4000FBD41578144B1D6001310132F3E7FFF736
:100D5000E1FC144B0F221A80023A5A8048329A80E2
:100D6000253ADA80002C0BD0302300932533233A28
:100D70000F210D4805F002FBFFF7CCFC04B070BD5D
:100D80003023009325330D220F21084805F0F6FA91
:100D9000F2E7C04640BF0010004003406C15002041
:100DA000D8BE00106406002050BF001068BF0010BD
:100DB00070B584B004000023564833E00F226A4423
:100DC0001570002104E01578534B1D60013101328C
:100DD000002921D1504B9B699B06FBD4F3E70F22DE
:100DE0006A440D231370002108E04B4B9B699B065E
:100DF000FBD41678484B1E60013101320029F4D033
:100E00001AE0454B9B699B06FBD41578424B1D604D
:100E1000013101320029F4D003780D3B5A4253418D
:100E2000DBB201300578002D0BD0002BC6D13B4B37
:100E300000229B5EAB42D2D00F226A441570002183
:100E4000E8E7FFF767FC0023354826E00F226A44F5
:100E50001570002100291AD12F4B9B699B06FBD4EA
:100E600015782D4B1D6001310132F3E70F226A44E2
:100E70000D2313700021002919D1274B9B699B0674
:100E8000FBD41678244B1E6001310132F3E703785E
:100E90000D3B5A425341DBB201300578002D16D08C
:100EA000002BD3D11D4B00229B5EAB42DED00F2224
:100EB0006A44157000210029E9D1174B9B699B06F4
:100EC000FBD41578144B1D6001310132F3E7FFF7B5
:100ED00021FC144B5E221A80513A5A8097329A8034
:100EE000743ADA80002C0BD0302300937433233A09
:100EF0005E210D4805F042FAFFF70CFC04B070BD0E
:100F00003023009374330D225E21084805F036FA31
:100F1000F2E7C04680BF0010004003406C1500207F
:100F2000D8BE00106406002050BF001068BF00103B
:100F300070B584B004000023564833E00F226A44A1
:100F40001570002104E01578534B1D60013101320A
:100F5000002921D1504B9B699B06FBD4F3E70F225C
:100F60006A440D231370002108E04B4B9B699B06DC
:100F7000FBD41678484B1E60013101320029F4D0B1
:100F80001AE0454B9B699B06FBD41578424B1D60CC
:100F9000013101320029F4D003780D3B5A4253410C
:100FA000DBB201300578002D0BD0002BC6D13B4BB6
:100FB00000229B5EAB42D2D00F226A441570002102
:100FC000E8E7FFF7A7FB0023354826E00F226A4435
:100FD0001570002100291AD12F4B9B699B06FBD469
:100FE00015782D4B1D6001310132F3E70F226A4461
:100FF0000D2313700021002919D1274B9B699B06F3
:10100000FBD41678244B1E6001310132F3E70378DC
:101010000D3B5A425341DBB201300578002D16D00A
:10102000002BD3D11D4B00229B5EAB42DED00F22A2
:101030006A44157000210029E9D1174B9B699B0672
:10104000FBD41578144B1D6001310132F3E7FFF733
:1010500061FB144BAD221A80A03A5A80E6329A8086
:10106000C33ADA80002C0BD030230093C333233AE9
:10107000AD210D4805F082F9FFF74CFB04B070BDBF
:1010800030230093C3330D22AD21084805F076F9D3
:10109000F2E7C04630BF0010004003406C1500204E
:1010A000D8BE00106406002050BF001068BF0010BA
:1010B00010B50100024805F061F9FFF72BFB10BDE8
:1010C00090BF001010B50100024805F057F9FFF776
:1010D00021FB10BD9CBF001010B50100024805F0B7
:1010E0004DF9FFF717FB10BDA8BF001010B50100A8
:1010F000024805F043F9FFF70DFB10BDB8BF001023
:1011000010B50100024805F039F9FFF703FB10BDE7
:10111000C4BF001030B583B00023234815E06B46F0
:10112000DA1D1470002108E0204B9B699B06FBD45C
:1011300014781E4B1C60013101320029F4D0037871
:101140000D3B5A425341DBB201300478002C27D0CA
:10115000002BE4D1164B00229B5EA3420FD06B46BE
:10116000DA1D147000210029E9D1104B9B699B0600
:10117000FBD414780D4B1C6001310132F3E76B4650
:10118000DA1D0D23137000210029E8D1074B9B695C
:101190009B06FBD41578054B1D6001310132F3E746
:1011A000FFF7B8FA03B030BDC0BE001000400340E6
:1011B0006C15002030B583B00023234815E06B4642
:1011C000DA1D1470002108E0204B9B699B06FBD4BC
:1011D00014781E4B1C60013101320029F4D00378D1
:1011E0000D3B5A425341DBB201300478002C27D02A
:1011F000002BE4D1164B00229B5EA3420FD06B461E
:10120000DA1D147000210029E9D1104B9B699B065F
:10121000FBD414780D4B1C6001310132F3E76B46AF
:10122000DA1D0D23137000210029E8D1074B9B69BB
:101230009B06FBD41578054B1D6001310132F3E7A5
:10124000FFF768FA03B030BDD0BF00100040034084
:101250006C15002010B5002221210D2000F02CFC7F
:1012600016221121072000F085FC024805F086F8BF
:1012700010BDC046DCBF001010B50A4B1B78002B18
:1012800000D110BD084805F079F8084CE21C211D7A
:10129000601D00F0D1FCA21C601C210000F016FDB6
:1012A000EFE7C046C8160220F4BF00105415002016
:1012B00010B50B4B1B78002B00D110BD094C617988
:1012C0002279E378084805F059F821786278A37804
:1012D000064805F053F8024B00221A70EDE7C046AD
:1012E000C81602205415002004C0001020C00010B1
:1012F00010B5074B1B78002B00D110BD00F032FD5C
:101300000100044805F03AF8014B00221A70F4E796
:10131000C716022038C00010D0231B065B681B05CF
:1013200004D4D0231B065B68DB0407D5D0231B063F
:10133000802212019A61802252019A61D0231B06F9
:101340005B689B0404D4D0231B06802292015A615F
:101350007047D0231B065B689B0501D400207047B3
:101360000120FCE770B5224D688804F01DFA0022C8
:10137000204B04F08AF902000B00802080051E49F2
:1013800004F083F904F058FA04F0EEFD00221B4B40
:1013900004F07BF900221A4B04F065F904F040FADE
:1013A00084B22878604304F0FFF90022154B04F062
:1013B0006CF904F035FA80B2134B144A9A615C62FE
:1013C000134B1B6858400004000C124B1860124B62
:1013D0001A68012319009143104A1160D0221206A5
:1013E000082151610E4A1370FFF7E4FE70BDC0463C
:1013F0004415002000004E405FA0D24100FE6F4027
:101400000000F03F0000594000000540FF0F0000C1
:101410002000054020100540140005401410054030
:10142000C9160220704710B5D0231B068022D200B7
:101430005A613C2009F084FB02E03C2009F080FB6B
:10144000D0231B065B689B05F7D4D0231B068022A4
:10145000D2009A6110BD000010B582B0224B1B88EB
:101460009BB2022B04D9204A1388013B9BB2138004
:10147000FFF75AF9D0231B065B689B0502D40320B3
:1014800002B010BDD0231B06802292019A61174B37
:101490001C6809F0C9F90200002300930121200013
:1014A0000AF026F9FFF718FBFFF7BDFF0E4B1B886C
:1014B0009BB2002B0ED00C4B1B889BB2012B0ED085
:1014C000094B1B889BB2022BDAD1074B00221A80F2
:1014D0000220D5E7044B00221A800020D0E7024BFF
:1014E00000221A800120CBE7BC160220D81502206A
:1014F00010B504001D4B1B889BB2052B04D91B4A59
:101500001388013B9BB21380184B1B889BB2002BA6
:1015100014D0164B1B889BB2012B13D0134B1B8886
:101520009BB2022B12D0114B1B889BB2042B11D003
:10153000D0231B065B689B050FD410BD0120FFF76D
:1015400077FBF5E70120FFF733FCF1E70120FFF718
:10155000EFFCEDE7FFF7DEFDEAE7044B1A882270A7
:1015600000221A80FFF75FFFE7E7C046BC160220A3
:1015700010B5154B18886423584380B2FA235B00DA
:1015800098420FD2104B05221A80FA2040000F4BD0
:101590005880FFF78DFDD0231B065B689B0509D49F
:1015A000002010BD0A4B9842F1D9074B64221A80E3
:1015B0000748ECE7044B00221A800020FFF738FBB5
:1015C000FFF731FF0120ECE7BC1602204415002094
:1015D0001027000010B5104B1B889A009B1858006C
:1015E000C0B2642803D90C4B0A221A8064200B4B2A
:1015F0001870FFF767FDD0231B065B689B0501D4BD
:10160000002010BD044B00221A800020FFF7D0FB01
:10161000FFF709FF0120F4E7BC1602204415002063
:1016200010B50F4B1B889BB23C2B04D90C4A138876
:10163000013B9BB213800A4B1888C0B2094B9871CA
:10164000FFF74AFDD0231B065B689B0501D40020F1
:1016500010BD034B00221A80FFF7E5FE0120F7E7DB
:10166000BC1602204415002010B50F4B1B889BB2FE
:101670003C2B04D90C4A1388013B9BB213800A4BC4
:101680001888C0B2094B5871FFF730FDD0231B06F4
:101690005B689B0501D4002010BD034B00221A801B
:1016A000FFF7C1FE0120F7E7BC1602204415002019
:1016B00010B50F4B1B889BB23C2B04D90C4A1388E6
:1016C000013B9BB213800A4B1888C0B2094B1871BA
:1016D000FFF716FDD0231B065B689B0501D4002095
:1016E00010BD034B00221A80FFF79DFE0120F7E793
:1016F000BC16022044150020D0231B065B689B010A
:1017000005D4D0231B06802292045A617047D0234F
:101710001B06802292049A61F8E7D0231B065B68BF
:101720001B0505D4D0231B06802212015A61704785
:10173000D0231B06802212019A61F8E7014B002298
:101740001A707047C5160220D0231B065B689B04E5
:1017500004D4D0231B065B68DB0407D5D0231B060B
:10176000802292019A61802252019A61D0231B0645
:101770005B681B0505D4D0231B06802212015A6129
:101780007047D0231B06802212019A61F8E70000FF
:10179000014B01221A707047C8160220014B01222A
:1017A0001A707047C716022010B582B000210520BC
:1017B00008F056FA134C20600021052008F050FA7A
:1017C000114B18602368002B0AD08022002301935C
:1017D0001F330093002352000C490D4808F0A4FF6A
:1017E000094B1B68002B0AD08022002301931F3372
:1017F0000093002352000749074808F095FF02B004
:1018000010BDC046081602200416022048C0001071
:10181000F518001054C000107918001070B582B08F
:1018200080246400002501950223009300232200F8
:101830000B490C4808F078FF01950126009600231B
:1018400022000949094808F06FFF0195009600231E
:1018500022000749074808F067FF02B070BDC04684
:1018600068C00010851900106CC000107B190010B2
:1018700074C000107119001070B51FE0D0231B0652
:101880005B68DB050ED4D0231B065B681B0609D4FE
:10189000164B1B889BB2002B04D0144A1388013BC3
:1018A0009BB21380D02424068025ED0065611E20A4
:1018B00009F046F9A5610F2009F042F901210C4B0E
:1018C0001868494208F07AFC0128F7D1D0231B069A
:1018D0005B68DB05D2D5D0231B065B681B06CDD425
:1018E000024A138801339BB21380DBE7BC16022047
:1018F0000416022070B51FE0D0231B065B68DB05D1
:101900000ED5D0231B065B681B0609D5164B1B881A
:101910009BB2002B04D0144A1388013B9BB2138066
:10192000D02424068025ED0065611E2009F008F909
:10193000A5610F2009F004F901210C4B18684942F8
:1019400008F03CFC0128F7D1D0231B065B68DB05BF
:10195000D2D4D0231B065B681B06CDD5024A138860
:1019600001339BB21380DBE7BC160220081602206D
:1019700010B50F2009F0E4F8FBE710B50F2009F0CF
:10198000DFF8FBE710B5FEF785FEFEF7A5FE0520A4
:1019900009F0D6F8F9E7000010B582B0FA21324B11
:1019A0000093002301224900304809F087FE04001B
:1019B00096212F4B00930023012249002D4809F066
:1019C0007DFE2D4B0093002300223C212B4809F083
:1019D00075FE2B4B18602B4B009300230122C8216E
:1019E000294809F06BFE294B1860FA21284B009317
:1019F000002301228900274809F060FE264B186069
:101A0000264B009300230122C821254809F056FEE9
:101A1000244B1860002C08D008F006FF02000023B9
:101A200000930121200009F063FE1B4B1C68002C71
:101A300009D008F0F9FE020064230093002301217D
:101A4000200009F055FE174B1C68002C09D008F047
:101A5000EBFE02006423009300230121200009F023
:101A600047FE02B010BDC046F916001080C000103D
:101A70001B17001088C000103D17001094C0001004
:101A8000D415022049170010A0C00010D81502205C
:101A900091170010A8C000107C1602209D1700109E
:101AA000B0C00010D015022010B5FFF77DFEFFF783
:101AB000B5FEFFF771FF10BDF0B5C64600B582B0A8
:101AC0000600884614002A4D0127009701230022B2
:101AD000D02128000AF03EF90A21200003F080FB03
:101AE000C0B24201121A9200121A5200D2B2121956
:101AF000D2B2000102430024227000970123220089
:101B0000D02128000AF026F90A21404603F068FB9C
:101B1000C0B24101091A8900091A4900C9B24144F9
:101B2000C9B2000101432170009701232200D02196
:101B300028000AF00FF90A21300003F051FBC2B26D
:101B400053019B1A9B009B1A5B00DBB29B19DBB213
:101B50001201134323700023009301332200D0218C
:101B600028000AF0F7F802B080BCB846F0BDC046C5
:101B700008050020F0B5CE46474680B583B08046C4
:101B8000894616000024042323702A4D012700975C
:101B9000033B2200D02128000AF0DCF80A21484645
:101BA00003F01EFBC0B24101091A8900091A49005D
:101BB000C9B24944C9B20001014321700097012311
:101BC0002200D02128000AF0C5F80A21404603F07F
:101BD00007FBC2B253019B1A9B009B1A5B00DBB24E
:101BE0004344DBB212011343237000970123220008
:101BF000D02128000AF0AEF80A21300003F0F0FAF4
:101C0000C0B24201121A9200121A5200D2B29219B4
:101C1000D2B200010243227000230093013322005C
:101C2000D02128000AF096F803B0C0BCB946B046EF
:101C3000F0BDC04608050020F0B5CE46474680B549
:101C400083B005000E0014001F4F00239846009338
:101C500001330022D02138000AF07CF80123994694
:101C600000932200D12138000AF080F84B460093FF
:101C70003200D12138000AF079F84346009301334D
:101C80002A00D12138000AF071F82278130998004F
:101C9000181840000F210A408018207033781C0962
:101CA000A200A41864000B40E41834702A781309C9
:101CB00098001B185B0011405B182B7003B0C0BC70
:101CC000B946B046F0BDC04608050020F0B5CE4686
:101CD000474680B583B006000F001400002204239D
:101CE00013701F4D0023984600930133D021280024
:101CF0000AF030F80123994600933A00D1212800D8
:101D00000AF034F84B4600933200D12128000AF043
:101D10002DF84346009301332200D12128000AF018
:101D200025F83A7813099D005D196D000F200240D7
:101D3000AD183D70337819098A00891849000340AD
:101D4000C91831702278130999005B185B001040A4
:101D50001B18237003B0C0BCB946B046F0BDC046E6
:101D60000805002010B5184A02231360174B1968A4
:101D70008023DB014B40E021C9010B4014490B607B
:101D800004231360114B1B68DB05FBD50F4B586810
:101D90000004000C03F008FD0E4A0F4B03F093FC07
:101DA00000220E4B03F08FFC03F046FD0C4904F0BB
:101DB000D2F804F0D9F80B4A0B4B03F066FC03F0A1
:101DC0002FFD80B210BDC04600E0044000C00440BA
:101DD00000D004406666666666660A400000303FD2
:101DE0000000D841643BDF4F8D97E63F10B583007C
:101DF000084A944663441C6840226240C024144050
:101E00008022520113431C60C000034B9C46604477
:101E1000416010BD04C001400040014080000B4BF8
:101E20009C46604400290DD00823002A0CD00422CF
:101E30001343026853400C22134080225201104386
:101E4000036070470023F0E70022F1E704C001407F
:101E500070B50400D0231B061D68AA000C4BD35894
:101E6000002B0AD0002803D0AD00094BEC5070BD08
:101E700008490D2000F02CFBF6E70028F7D0AD0054
:101E8000034BE850002203490D2000F009FAEEE769
:101E9000D00B0020251F0010072303409B00C00823
:101EA00099403C308000014BC150704700400140D8
:101EB000F8B507000C0016001D00FFF7EDFFFB084A
:101EC0009B00ED180720384080008440002E04D08D
:101ED00080239B011D432C60F8BDC0239B011D4343
:101EE0002C60F9E710B5D0231B061B68002B03D02C
:101EF000024BFFF7DDFF10BD014BFAE73041014017
:101F00000041014070B514001D00FFF7EBFF2800F1
:101F1000FFF79EFF002C00D170BD01210D2000F0C5
:101F20006BF9F9E7F0B5D6464F464646C0B5D02323
:101F30001B061F68BA001D4BD3589846002F03D0CC
:101F40001B4B9946002623E01A4B9946FAE72409D1
:101F50000135002C1BD033000833AB4217D90F23B7
:101F60001A00224092462342F1D0BB00124A9A58EE
:101F70000123AB401342EAD151462800FFF78CFF02
:101F80004346002BE3D051462800C047DFE7083620
:101F90001D2E06D8F30808339B004A469C5835008E
:101FA000D7E7E0BCBA46B146A846F0BDD00B00204A
:101FB00030410140004101402C13002010B50123A5
:101FC0008340D0221206936293610521FFF70EFF32
:101FD00010BD70B50500002401E06D0801341D2C12
:101FE00005D8EB07F9D52000FFF7E8FFF5E770BD4E
:101FF000EFF3108072B6034B1B68002BFBD0BFF3CE
:102000005F8F70472C0100D0BFF35F8F024B00221F
:102010001A6080F3108870472C0100D0F8B50600D4
:102020000C001500FFF7E4FFE308F718F15C072246
:102030002240012393400B4205D1DBB20B433B709E
:10204000FFF7E2FFF8BD2100280001F081FDF0B5A7
:1020500083B00600019114001F00FFF7C9FF00E0E4
:102060000134BC420CD8E308F518F35C0721214089
:1020700001228A401A42F3D1D2B21A432A7001E0F7
:1020800001246442FFF7C0FF002C02DB200003B0F4
:10209000F0BD019B002BF9D0089801F059FD00001C
:1020A000034B1B6802201840431E9841C0B2704782
:1020B00000C00640002307E0054A9A189200BFF3CB
:1020C0005F8F0021116001331F2BF5D97047C04687
:1020D00040000034054A1078431CDBB21370172B04
:1020E00002D9130010221A707047C0462004002045
:1020F00000B583B00100044B00931F23182203484E
:10210000FFF7A5FF03B000BDB4C00010D80B00203E
:10211000074B9B68103080001950BFF35F8FBFF3EF
:102120005F8F044B0021196082F310887047C0460E
:1021300000ED00E0240100D010B5091A081F0A4B79
:102140009C466144094A914208D8C30706D440100E
:102150004005400D064B184380B210BD054B064AA2
:102160009921064801F05AFCFC070000FE0F000010
:1021700000E0FFFFD0C0001044C3001000C10010F9
:1021800010B5091A04394C08090B08D14905490D45
:10219000064A11430180064B2343438010BD054B83
:1021A000054AA121054801F039FCC04600F0FFFFB7
:1021B00000F8FFFF54C1001018C3001000C1001048
:1021C00001238340034A10681840431E9841C0B25F
:1021D0007047C04600E100E0002904D0034B1860BE
:1021E000034B18607047034B1860FBE780E200E088
:1021F00000E100E080E100E010B501238340180019
:10220000FFF7EAFF10BD000001238340014A13607D
:102210007047C04600E200E0024B9B68103080002F
:10222000C058704700ED00E010B5FFF7F5FF00283B
:1022300005D0054BC01A2F2803D8012010BD00205F
:10224000FCE70020FAE7C0462404002070B5040033
:102250000D00EFF3108672B60C4B1B68002BFBD001
:10226000BFF35F8F2000FFF7D7FF094B984201D0E3
:10227000A84205D1320029002000FFF749FF70BDB8
:10228000044B054A7C21054801F0C8FB240100D01D
:10229000CD01001064C1001078C3001000C100100F
:1022A000F0B5DE4657464E464546E0B589B0814614
:1022B00001911500EFF3108A72B6744B1B68002B66
:1022C000FBD0BFF35F8F724B0027DF57002F40DB3F
:1022D0007C00E419A4006F4824180622A2566C4B17
:1022E0001A706D4B9A684B4610339B00D358984632
:1022F0001E001B1A2F2B38D9684B98452FD105AEDD
:10230000674B33807B009B46D8198000614B984611
:10231000404402306349FFF70FFF7080624BB38087
:10232000FF23B371F571019B07935F44BF004744DE
:102330000ECE0EC701231C43A046524641464846D6
:10234000FFF7E6FE09B0F0BCBB46B246A946A04680
:10235000F0BD564B564ACD21564801F05FFB564B17
:10236000534AD421534801F059FBC04340440C2147
:1023700002F036FF002912D101239E43B3463300F9
:102380000026DA79AA4211D90621595600290CDB18
:102390004A00521892001E003E4B9B18F1E7474B33
:1023A000434AE021434801F039FB1E00002E3BD098
:1023B00005AB434A1A80813A5A800623F3560293AA
:1023C000002B18DABD20000205AB9B469880029ACC
:1023D0009A71DD71019A0792301D2100FFF7ACFE62
:1023E000B080B7717B00DB199B002A4FFF185B465A
:1023F00007CB07C7A1E77800C0198000254BC0189C
:102400000430321DB388D90A1C2907D15B05591540
:10241000023149005118FFF78FFED5E7294B2A4AB0
:10242000A721244801F0FAFA05AE1D4B33807B004A
:102430000293D8198000174A904602004244039242
:10244000901C1849FFF778FE7080039A101D5946BA
:10245000FFF772FEB0801D4B5A464146521A524158
:1024600053431B0DB371F571019A0792029B9C4671
:102470006744BF0047440ECE0EC7114B5A46138027
:10248000813B538001231C43A04656E7240100D022
:10249000CC1602202404002000ED00E0CD01001045
:1024A00000A1FFFF5404002000BDFFFF9CC10010ED
:1024B00060C3001000C10010C4C10010ECC10010C6
:1024C0000148000060C2001050C30010AAAA00001A
:1024D000F0B5CE46474680B583B006000D00EFF359
:1024E000108872B6564B1B68002BFBD0BFF35F8F72
:1024F000544B9A6834001034A300D758524B9F4273
:1025000007D0AF4200D199E00197504BFB1A2F2B17
:1025100009D9424639003000FFF7FAFD03B0C0BCCC
:10252000B946B046F0BD3000FFF74AFE81460021B3
:102530003000FFF761FEBFF35F8FFDF794FE0028C8
:1025400001D0844211D10123019C9C430022A36845
:10255000AB4212D00622A256002A0DDB53009B1874
:102560009B002200394CE418F1E72C21384B394A02
:10257000FF31394801F052FA2200AB4257D106250B
:102580006557002D39DB6B005B199A002F4B9B18A8
:102590009A68A260DA79E27106229A56A2719B7952
:1025A0005BB2002B10DABD200002A0806B005B192B
:1025B0009B00264AD318294A11789971157049460B
:1025C0003000FFF719FEA4E7201D6B005B199B008C
:1025D0001E4A9B181A1D9B88D90A1C2907D15B0526
:1025E0005B15023359005118FFF7A6FDDDE71C4BC0
:1025F0001C4AA721184801F011FA002812D1002A1C
:102600000ED0FF239371184B9380144A1378A37153
:10261000164B0E49641A644163431B0D1370CEE7D9
:10262000094FF2E7201D1249FFF7AAFDC7E7602115
:10263000104B084AFF31084801F0F0F9024F68E7F3
:10264000240100D000ED00E0CD01001024040020A2
:1026500078C2001030C3001000C10010CC16022058
:1026600060C2001050C3001000BDFFFFAAAA000006
:102670005E0400209CC2001010B5032304009C439C
:10268000064A9446644422681840C000FC338340E4
:102690009A43130081400B43236010BD00E400E027
:1026A00070B50400012606432D4BF31A2F2B28D8B2
:1026B000FDF7D9FD00282BD0EFF3108C72B6294B13
:1026C0001B68002BFBD0BFF35F8F274D22002449EE
:1026D000521A524155432D0D6DB2244B9B68800018
:1026E0001B58B3421BD00022032A32D853009B1838
:1026F0009B001B49CB189B795BB2AB421FD00132C8
:10270000F2E7C2211A4B1B4A49001B4801F086F927
:1027100088211A4B174AFF31174801F07FF9134BF4
:102720009B68174A1A50174B1A78A2711D70BFF395
:102730005F8F0C4B00221A608CF3108870BD08006C
:102740005300991889004118FF268E710E4A8A801D
:10275000E9E7CC210D4B074A4900074801F05EF933
:1027600024040020240100D0AAAA000000ED00E00B
:10277000A4C20010FCC2001000C10010CCC20010A6
:10278000CD010010CC16022000BDFFFFD8C2001002
:102790000022044B02E0044902C30132072AFAD99D
:1027A0007047C04600E400E08080808000B583B0C0
:1027B0000100D0231B061B680648C018064B009377
:1027C00005230022FFF743FC002801DB1F23181A12
:1027D00003B000BD88150220E0C20010024B9C46E9
:1027E00061448900016070474000003470B5050005
:1027F0000C00080000F0C2FD200000F0A7FE084910
:10280000200000F0E7FDFFF765FC064B9C466044A6
:10281000800068602C75A400034BE55070BDC04675
:10282000292B0010400000347C10002010B5084B0C
:102830001A68EFF3108172B61368002BFCD0BFF357
:102840005F8F034806F0DEFD0020002110BDC0466A
:102850004015002010B5002922D003681B7B994247
:102860001ED8174B9C466144090183689C4661440D
:102870000C684968002A19D003681B7B9A4215D856
:1028800083680F488446624412019A18106853689E
:10289000020001208B4201D80ED00020C0B210BD32
:1028A000084B094A3B21094801F0B8F8054B064A94
:1028B0003B21064801F0B2F8A242EFD8EDE7C0464E
:1028C000FFFFFF0FF8C30010E4C60010A8C30010FC
:1028D00010B500291ED0037B99421BD84B005B1812
:1028E000033B0468A4466344002919D0002A1DD084
:1028F000914221D0002A25D0047BA24222D804682C
:1029000050008018033820188170197800291FD1D1
:102910001A7010BD104B114A6821114801F07EF861
:10292000104B114A6F310E4801F078F80F4B0E4AE8
:1029300070210B4801F072F80D4B0B4A71210848C9
:1029400001F06CF8044B054A6821054801F066F86F
:1029500041701A70DDE7C0462CC4001050C700104B
:1029600048C40010A8C400102CC70010B4C4001044
:10297000C0C4001070B506000D001400002914D06A
:10298000002A14D0806873689847002806D0220077
:1029900029003000FFF79CFF280007E02A002100F3
:1029A0003000FFF795FF200000E0100070BD080028
:1029B000FCE70000F0B583B00500009201930AAB7C
:1029C0001C780BAB1F78002C26D003685A7B9442EE
:1029D00007D10123002B19D1002C3BD1200003B0DB
:1029E000F0BD002C0CD01A7B944209D81A68630001
:1029F0001B19033BD3189B78002BEBD00123E9E78D
:102A00003E4B3F4A68213F4801F008F83E4B3F4AA1
:102A100065213F4801F002F803689C7B002CDBD065
:102A200012D01A7B94420FD862001219033A196827
:102A30008C46624451789973002900D1D9730023E0
:102A4000937053701370C7E72C4B2D4A68212D48A3
:102A500000F0E4FF002C3AD02B681B7B9C4236D858
:102A60002C4BE3181B01AA6894466344009A1A6031
:102A7000019A5A60089A9A60099ADA602E68002CC6
:102A80002BD030D0337B9C422DD863001B19033BE5
:102A900032689446634400229A705A701A70717BAF
:102AA00022003000FFF766FF7073844200D095E784
:102AB000287D009A019B00F0D5FC061E01D0002F56
:102AC00017D00C9B002B00D188E71E7086E7124BB5
:102AD000124A3B210E4800F0A1FF114B114AA521DB
:102AE000084800F09BFF054B054A6821054800F0A7
:102AF00095FF2868210000F0DDFEE2E72CC40010FD
:102B000050C7001048C40010D8C400105CC70010A3
:102B1000A8C30010FFFFFF0FF8C30010E4C60010A9
:102B2000A4C3001040C70010F0B5DE4657464E461D
:102B30004546E0B58BB00990002308938200B24B64
:102B4000D658370032E0B14BB14A3F21B14800F0CE
:102B500065FFB14BB14A3B21B14800F05FFFB14B7B
:102B6000B14A8C21AE4800F059FFB04BAE4A9021DB
:102B7000AB4800F053FFA84BAD4A4021A84800F0F5
:102B80004DFF2A686B68099800F06CFC00239A4698
:102B900098467B68BFF35F8F00221A6086F3108827
:102BA0004346002B51D1002800D126E100F0F2FB72
:102BB00002000B1EC7DB00200021069007917868F9
:102BC000EFF3108672B601680029FCD0BFF35F8F67
:102BD000396888464C7B002C32D0BAD0097B8C42B5
:102BE000B7D8944965182D01B9688C4665442868A2
:102BF0006968801A99410029C3DC01D10028C0D13D
:102C00000021404600F04CFEA042A8D12A686B6823
:102C100006920793AB689846EB689A464346002BAA
:102C2000A3D0002CA7D03B681B7B9C42A3D8631E7B
:102C3000FA68D35C08931B02184338610020A8E7A8
:102C400000239A4698460020A3E7089B1B022343D3
:102C5000994651461800C04705000E007A68EFF308
:102C6000108B72B6136859424B41D9B2002BF9D17F
:102C7000BFF35F8F002E26DB002E52DD3B69002B59
:102C800053D04B4572D100F085FB02000B1E73DB65
:102C90000100180052197341984202D804D19142A0
:102CA00002D901225242D317002B6BDB0021049181
:102CB000013103910294514601914146009138003F
:102CC000FFF778FE49E03B69002BD5D04B451CD17E
:102CD000069A079B10001900521BB341994202D873
:102CE00004D1904202D901225242D317002B12DBA9
:102CF0000021049101310391029451460191414612
:102D000000913800FFF756FE27E04B4B464A9F21C3
:102D1000434800F083FE3D4B3D4A3F213D4800F0D3
:102D20007DFE002E01D1002DA8D13A68002C45D09F
:102D3000537B9C422CD1012100293FD1D37B002B16
:102D400042D1D473002C52D03B681B7B9C424ED89E
:102D5000FA68013C135D0133135500233B617A6827
:102D6000BFF35F8F13608BF310881FE7324B2E4A3F
:102D7000A2212B4800F052FE244B254A3F21254832
:102D800000F04CFE214B224A3F21224800F046FE33
:102D9000002C0DD0137B9C420AD863001B19033B07
:102DA0001068844663449B78002BC5D00121C3E79B
:102DB000224B234A6821234800F030FE224B234A4D
:102DC000F621204800F02AFE002B0AD0117B8B420E
:102DD00007D85900CB18033B11688C4663445C70DC
:102DE000AFE7164B164A6821164800F017FE0A4B4B
:102DF0000F4A40210A4800F011FE0BB0F0BCBB4660
:102E0000B246A946A046F0BD7C10002000C50010C7
:102E1000B0C600101CC50010F8C30010E4C60010B6
:102E2000A8C3001078C50010C8C6001090C50010D7
:102E300008C70010FFFFFF0F9CC500102CC4001036
:102E400050C7001048C40010D8C500101CC700109F
:102E500010B50A4B5B68002B04D00A210848FFF725
:102E6000BDFC10BD054C2300064A1021206800F06F
:102E700037FC03212000FFF7B9FCEEE76C040020CB
:102E8000401500205528001010B5064B5B68002B3C
:102E900001D0044810BD044B044A5C21044800F0F2
:102EA000BDFDC0466C040020FCC50010F0C600103B
:102EB000A8C30010F0B5DE4657464E464546E0B57D
:102EC0008BB0804616001F00149B9A46159B9946AE
:102ED00016AB1B789B461F2302AA9446634400222C
:102EE0001A7032E0002809D042461268127B9042E4
:102EF00004D8421E4146C9688A5C48E0434B444AB4
:102F00004021444800F08AFD0798002B75D05B46AD
:102F1000002B72D04946D04704000D0003000B433C
:102F200000D171E0002946DB00F034FA06000F1EE4
:102F300055DB36196F41B94202D804D1B04202D9EB
:102F400001267642F717002F4FDB43465A68EFF30E
:102F5000108472B6136859424B41D9B20791002BC5
:102F6000F8D1BFF35F8F1F3302AA944663440493E2
:102F70000023039302934B46019353460093320080
:102F80003B004046FFF716FD031EABD10200414651
:102F90004968BFF35F8F00250D6084F31088002B14
:102FA00029D01F2302A98C4663441B78002BABD188
:102FB00012021043A9E732003B00361BAF41BB426F
:102FC00002D804D1B24202D901267642F717002F67
:102FD000BBDA114B114A3F21114800F01FFD0E4B87
:102FE0000E4A3F210E4800F019FD0B4B0B4A3F21C2
:102FF0000B4800F013FD012040420BB0F0BCBB4673
:10300000B246A946A046F0BD0798F6E7F8C30010FF
:1030100008C70010A8C3001000C50010B0C60010FB
:103020001CC50010F8B504004268EFF3108572B6B5
:10303000136858424341D8B2002BF9D1BFF35F8FD8
:10304000CBB22268567BB3421BD10120002848D066
:10305000206988422BD0090AC9B2002B2ED02068E3
:10306000007B83422AD8581EE668305C88422BD009
:1030700000206368BFF35F8F00221A6085F3108819
:10308000F8BD002B0DD0167BB3420AD85E00F618AF
:10309000033E1768BC466644B678002ED6D00120A1
:1030A000D4E7134B134A6821134800F0B7FC85217D
:1030B000124B134A4900134800F0B0FC124B134A5C
:1030C0004021104800F0AAFC1900100000F0F2FBAB
:1030D0000028CED112210E4B094AFF31094800F0D9
:1030E0009DFC23698B42C4D100232361C1E7C04604
:1030F0002CC4001050C7001048C4001020C6001097
:1031000098C60010A8C30010F8C3001008C700102C
:1031100044C60010F0B587B006000F00FDF7A3F815
:1031200000281FD196246442E517A4197D41BD42B1
:1031300002D803D1B44201D900240025002D14DBAC
:103140000494059500F026F902000B1E13DBA41A67
:103150009D41002D17DC14D03000390000F026F915
:1031600007B0F0BD204800F0F3FC204B204A3F217F
:10317000204800F053FC1D4B1D4A3F211D4800F024
:103180004DFC002CE8D0FFF77FFE00230293019353
:10319000194B0093049A059BFFF78CFE002812DA66
:1031A000DAE7002300E00023002BD5D1134B1A6887
:1031B000EFF3108172B61368002BFCD0BFF35F8F62
:1031C0000E4806F0BDF80499059A0D4B5B6A9A42C9
:1031D000E9D80B48806A884203D29A42E1D00123A1
:1031E000E2E70123E0E7C04648C6001000C5001032
:1031F000B0C600101CC500102D280010401500207E
:1032000000400540F8B504000D0000F0C3F80200CE
:103210000B1E10DB20002900801859418B4202D878
:1032200004D1824202D901204042C117002908DBA3
:10323000FFF770FFF8BD064B064A3F21064800F035
:10324000EDFB034B034A3F21034800F0E7FBC04678
:1032500000C50010B0C600101CC5001010B5FA2241
:1032600092000023002102F039FEFFF7CBFF10BDD2
:1032700070B584B006000C00FFF706FE0023029331
:103280000193194B009332002300FFF713FE051E34
:1032900011DD20BFFFF7F8FD2900FFF7C3FE134B38
:1032A0005B6A9C421BD8114A926AB2421AD29C4273
:1032B00013D0012014E00D4B5B6A9C4209D80B4AE5
:1032C000926AB24207D29C4201D0012008E000205D
:1032D00006E0002004E0012002E0002000E00020E1
:1032E00004B070BD0120FBE72D2800100040054010
:1032F00070B5EFF305833F2018401038EFF3108CC2
:1033000072B6194B1B68002BFBD0BFF35F8F0123F4
:1033100019008140154A5163154A12781400C440BF
:10332000234214D0114B5C6A8300124D5B599C42BE
:1033300006D38300104C1B598A430D490A7007E0DD
:103340000A4A031D9B0099589950002300E000236E
:10335000BFF35F8F044A002111608CF31088002BAB
:1033600000D0984770BDC046280100D000400540FD
:10337000D01602205C150020C00A002010B5010004
:10338000024A0348FEF74AFE10BDC04674C700104B
:10339000CB160220044B5B6A034A906A1900536AF9
:1033A0009942F9D17047C04600400540084B5B6A1E
:1033B00001E0074B5B6A8B42FBD301E0044B5B6A85
:1033C0008B4203D1024B9B6A8342F7D37047C046BE
:1033D0000040054070B504000D00EFF3108672B692
:1033E0001B4B1B68002BFBD0BFF35F8F002D1CD045
:1033F0002000FEF711FF174B83420BD0190020006D
:10340000FEF724FF01212000FEF7F6FE0123A34072
:10341000114A1360A400114BE550BFF35F8F0C4BB2
:1034200000221A6086F3108870BDA2000B4B0021A9
:10343000D1500122A2400A490B7893430B700549F1
:103440002000FFF745F800212000FEF7D5FEE4E755
:10345000280100D0F132001038600540C00A002079
:10346000D0160220F0B5DE4600B584B00400150089
:1034700001921E000293FFF78DFF03958E4202D842
:103480004ED185424CD9EFF3108B72B6274B1B6897
:10349000002BFBD0BFF35F8F254A17780125A5408D
:1034A000EBB23B431370234B5D63221D92000199E5
:1034B000D150A2002049029850501B6A2B4212D1D1
:1034C0001C4B1B6C2B4208D00020BFF35F8F174BA7
:1034D00000221A608BF3108823E0184B184AC12190
:1034E000184800F09BFAFFF755FF8E4214D802D11E
:1034F000039B834210D80E4B1B78BB420ED00D4B62
:103500001D625D631F2004400123A3400E4A136027
:10351000074B1F701E38D8E70020D6E70120D4E7FC
:10352000012004B080BCBB46F0BDC046280100D0DD
:10353000D0160220004005405C15002098C70010FE
:1035400014C80010BCC7001080E200E0EFF3108C3C
:1035500072B60B4B1B68002BFBD0BFF35F8F0123B0
:103560008340084A136208490A789A430A70BFF3F5
:103570005F8F034B00221A608CF310887047C0469F
:10358000280100D000400540D016022010B50029C7
:103590001ED0037B99421BD84B005B18033B046889
:1035A000A4466344002919D0002A1DD0914221D09D
:1035B000002A25D0047BA24222D80468500080183B
:1035C000033820188170197800291FD11A7010BD96
:1035D000104B114A6821114800F020FA104B114A93
:1035E0006F310E4800F01AFA0F4B0E4A70210B484B
:1035F00000F014FA0D4B0B4A7121084800F00EFA46
:10360000044B054A6821054800F008FA41701A7019
:10361000DDE7C0462CC4001034C9001048C40010B7
:10362000A8C4001020C90010B4C40010C0C4001009
:1036300070B506000D001400002914D0002A14D023
:10364000806873689847002806D02200290030005F
:10365000FFF79CFF280007E02A0021003000FFF759
:1036600095FF200000E0100070BD0800FCE700009E
:1036700010B50023437301338373037BC3730123AA
:10368000027B9A4214D9002B0CD0027B934209D8BA
:103690005A00D218033A01688C4662440133DBB207
:1036A0005370EDE70B4B0C4A68210C4800F0B6F95B
:1036B000002A09D0924207D8016853009A18033AA9
:1036C0008A180023537010BD024B034A6821034837
:1036D00000F0A4F92CC4001034C9001048C4001034
:1036E00010B5017342608360FFF7C2FF10BD000098
:1036F00070B50400081E00D170BD002934D0237BB2
:10370000994231D84B005B18033B226894466344CE
:103710005A78002AF0D02DD0237B9A422AD8530021
:103720009B18033B21688C4663445D7800215970E7
:10373000002825D0237B984222D843001B18033B46
:1037400021688C4663440021597001002000FFF776
:103750006FFF060029002000FFF7CAFF02003100BA
:103760002000FFF765FFC7E7084B094A68210948B1
:1037700000F054F9054B064A6821064800F04EF95E
:10378000024B034A6821034800F048F92CC400109A
:1037900034C9001048C4001070B505000C001600B4
:1037A000002928D02DD0037B99422AD84B005B18E2
:1037B000033B0268944663445A78002A27D19A78DA
:1037C000002A2AD11978FFF793FF0300002E03D0B7
:1037D000EA7B002A27D1EC73002B37D1002C49D08B
:1037E0002B7B9C4246D82B6861000C19033C1C19AA
:1037F0000023637070BD224B224A3821224800F01A
:103800000DF9224B224A6821224800F007F9224B89
:103810001C4A3A211C4800F001F9204B194A3B216F
:10382000194800F0FBF8002A0AD0297B8A4207D801
:1038300051008A18033A29688C4662445470CAE7DA
:10384000124B134A6821134800F0E8F8002B0BD004
:103850002A7B934208D843001B18033B2A689446EE
:10386000634400229A70B9E7084B094A6821094865
:1038700000F0D4F8054B064A6821064800F0CEF85F
:1038800030C800100CC9001038C800102CC400103B
:1038900034C9001048C4001088C80010B0C8001017
:1038A00070B504000A00457B2900FFF775FF6073BF
:1038B000280070BD70B50400002967D0437B8B429F
:1038C0000ED0002911D0037B99420ED84B005B1813
:1038D000033B0268D0188378002B0CD1002056E0FF
:1038E0000121FFF7DDFF012051E0294B294A682122
:1038F000294800F093F8002B20D0227B93421DD85A
:103900005A00D318033B2268D2182568EB5C8B421F
:103910001AD0002B1BD0227B934218D85A00D31800
:10392000033B2268D21853788B4216D0002BF0D17B
:103930001A4B1B4A67211B4800F070F8144B154ABC
:103940006821154800F06AF84378137007E0104BBF
:10395000104A6821104800F061F843785370002342
:103960008370437001222000FFF716FF0200617B85
:10397000814205D02000FFF75BFE6073012006E066
:10398000094B074A6D21074800F048F8002070BD38
:103990002CC4001034C9001048C40010D8C2001054
:1039A000F4C8001038C80010D4C8001010B50400C6
:1039B000FEF790FB01002000FEF710FF01235B42A1
:1039C0006360BFF35F8F10BD10B50400FEF782FB8C
:1039D00001002000FEF702FF01235B426360002329
:1039E0002372BFF35F8F10BD034B9C466144890077
:1039F0000160BFF35F8F70474000003410B50400D2
:103A00000120FEF775FB01002000FFF7EDFF10BD60
:103A100000BEFDE710B5FFF7FBFF000010B582B058
:103A20000C001900002A0CD0084B002A0BD0019280
:103A3000009323000200064802F0A0FC0120FFF7DB
:103A4000E7FF044BF1E7034AF1E7C04620CA001044
:103A500030CA00102CCA001070B52B4B2B4A1A60CC
:103A60002B4B2C4A1A602C4B9A682A4B9343FAD161
:103A70002A4C01E008CC9847294B9C42FAD300F02D
:103A800007F9234B274A1A60234B9B68DB43DB0172
:103A9000FAD1254B40229A675A671A67DA66234C97
:103AA00009E0234B234A83212348FFF7B7FF200077
:103AB000FFF77CFF0834214B9C4209D22368002B7E
:103AC000F5D0012BEDD12000FFF77EFF0C34F2E79B
:103AD0001B4CA1681B4DC022280002F00DFBA56005
:103AE000FCF7C1FB002800D000BEFEF7E3FAFEF7AA
:103AF0004FFEFFF7ADF9144C01E008CC9847134B8B
:103B00009C42FAD370BDC04600E00040BFCDFBFE32
:103B100000F00040FE7F3C0000C000402005002077
:103B200030050020FFFFFF0100F0014010050020DC
:103B300060CA0010FCCA001080CA001020050020D6
:103B400000ED00E000000020300500203C050020D2
:103B50000FB400B583B0084802F0DEFB049B002BD5
:103B600007D005A90191180002F0E6FB034802F016
:103B7000D3FB0120FFF74CFFD8CA0010E8CA0010A1
:103B800010B50148FFF7E4FFECCA0010F8B5DE46B7
:103B900057464E464546E0B505000F0092460A9A44
:103BA00093424ED31A0E91461E020A9A0023300009
:103BB000494601F057FB80466C006419A4002F4B66
:103BC0009C4664446368834200D260602B1FDBB272
:103BD0009B46012B3BD9C0239B012343802212012A
:103BE0001A60AB00264A9958002905D0506901F0A7
:103BF000F7FA01300138FDD153465A0123685A4083
:103C0000E0231A4080235B0123431A605A46012AAD
:103C100028D980239B012343802212011A60434646
:103C20006360424600233000494601F01BFBAD00B3
:103C3000134B58510120F0BCBB46B246A946A046E2
:103C4000F8BD104B104A2D211048FFF7E7FE012F59
:103C5000C1D1C0239B01234303221A60A368DB0761
:103C6000FCD5C9E72168794003220A401A60A2689E
:103C70000123BB401342FAD0CBE7C046008000408E
:103C8000DC0B00200CCB00107CCB001020CB0010F4
:103C900030B583B00C2000F021F9FEF701FA0028BE
:103CA0000DD0002304E099002D4A2E48885001339E
:103CB000092BF8D92A4B2C4A5A6203B030BD2B4B42
:103CC00000229A6700F07CF9294B01221A60274BE9
:103CD0005B6C012BFBD1274B03221A60234B9B6BA0
:103CE000012BFBD1013300930433234A01212348E4
:103CF00000F054F805230093214A0121214800F0E7
:103D00004DF8214B0093002202210420FFF73EFFD3
:103D10001E4D00952B00002201210520FFF736FFE4
:103D2000104C00942300002200210720FFF72EFFF3
:103D300000942300002200210820FFF727FF0A4BF0
:103D400000932300002200210920FFF71FFF0095A8
:103D50002B00002200210620FFF718FFADE7C04628
:103D6000DC0B0020006CDC021BB700000080004070
:103D70003CB0004030B00040002F68590080024045
:103D8000008C864700C00240001BB70040597307F3
:103D90008000014BC0587047DC0B0020F0B5C646D0
:103DA00000B504000F0090461D000C2001F018FA29
:103DB00006003D4A42443D4B9A4243D843011B1AF8
:103DC0009901C91AC90009188901404601F008FA89
:103DD0000200103A98235B009A4239D86B1E062BDA
:103DE0003CD8069B013B062B38D8069B9D423BD313
:103DF00043461A09B2423DD32D04069B1E033543A8
:103E00002368002B3CDB2A4B9C424AD08022520183
:103E1000284B1A60284B1A60284B9B681100994365
:103E2000FAD12760A060231DC02292011A432123EA
:103E300013602368002BFCDAE5600823136080BC64
:103E4000B846F0BD1E4B1F4A11211F48FFF7E6FD83
:103E50001E4B1C4A19211C48FFF7E0FD1C4B194A58
:103E60001C211948FFF7DAFD1A4B164A2221164881
:103E7000FFF7D4FD184B134A25211348FFF7CEFD59
:103E800022683F231340BB42BDD1A3681B051B0D15
:103E90008342B8D1E368EE22D2021340AB42B2D1E2
:103EA000CDE780229201B3E780E84BD380F8A932B6
:103EB00000C0024000E0004000F0004000C00040B0
:103EC0008CCB0010DCCC0010ECCB001040CC0010F0
:103ED0005CCC0010A8CC0010C0CC001080239B004C
:103EE0000343014AD362704700800540024B1A68C1
:103EF000024B5A607047C046741000200080054095
:103F000010B50200164B8020C0051860154B1648EE
:103F1000186000290AD0154BE021C9041960002A55
:103F200009D1124B802212061A6010BD0C4BE02101
:103F3000C9041960F3E753019B1A98008018000127
:103F40000B4B186080235B04984202D3084B094A4C
:103F50001A60FFF7CBFF054B8022D2051A60E4E719
:103F600000B0054008200140FCFF010000A0054012
:103F700074100020FFFFFF0010B5030010000C4A72
:103F80008024E4051460002B0DD001221343094A5C
:103F9000094CD461094C5C40146251629362002167
:103FA000FFF7AEFF10BD034B0022DA61F7E7C04612
:103FB00000B0054000800540D3C007B02D3FF84F4A
:103FC000064BAA2212011A602F22DA60044B054A1E
:103FD0001A60024B5B68002BFBDA7047004002401E
:103FE0000060024000B0FA00704710B5002802D00F
:103FF0000B684968984710BD0100002007E0830066
:104000001B185B00501C08601078C01830380A6814
:104010001378303BDBB2092BF1D97047F0B5DE469F
:1040200057464E464546E0B583B093461F000C9B6D
:104030009A460D9C0E9B99460F9B9B0703D0B84652
:104040000F00060022E00192A34688464E46B9467C
:104050000700B44207D2551C4B4641462020B847C2
:1040600001342A00F5E73D004F465C46019B9B4624
:10407000B1464646B84637002E0007E0013C551CC5
:104080005346185D43463900B0472A00002CF5D14D
:1040900035003E0047460F9B9B0707D4100003B036
:1040A000F0BCBB46B246A946A046F0BDB0464E465F
:1040B000B9462F005D46531BB342EFD2541C4B460A
:1040C00041462020B8472200F5E7F0B5CE464746E6
:1040D00080B585B0944698460C9D0D9C0EAB1B7820
:1040E0009946109A119B129EB7071CD4002B0CD036
:1040F000F7070AD54F46002F02D10C37374204D0BC
:10410000013B02E030272F550134944201D21F2C8D
:10411000F8D9F70707D59C4205D21F2C03D83027C2
:104120002F550134F5E7F70615D5770505D4002C92
:1041300003D0944224D09C4222D00F9A102A2BD034
:104140000F9A102A30D00F9A022A35D01F2C02D88D
:1041500030222A5501341F2C05D84A46002A31D076
:104160002D222A550134039602930194009543466B
:104170006246FFF753FF05B0C0BCB946B046F0BD7C
:10418000621E012C06D00F9F102F01D01400D4E71F
:10419000023CD2E71400D0E7B206D1D41F2CCFD80E
:1041A00078222A550134D1E7B206CCD51F2CCAD8C3
:1041B00058222A550134C9E71F2CC7D860322A5526
:1041C0000134C3E7720703D52B222A550134CAE70D
:1041D0003207C8D520222A550134C4E7F0B5DE469F
:1041E00057464E464546E0B593B081468A4608920A
:1041F00009931CAB10CB1B789B461E9D219B9846B8
:10420000002C03D1102342469A4390468023DB00C2
:1042100046461E4042461A4212D0002C22D00026AA
:104220000EE03033D9B2771C0AAB99552900200033
:1042300000F0D6FFAC4216D31F2F14D83E00040066
:104240002900200000F0CCFFCBB2092BE9D942466F
:10425000920605D54121C918C9B20A39C9B2E2E7A7
:104260006121F8E7270043460693209B05931F9B97
:10427000049303955B46029301970AAB0093099B55
:10428000089A51464846FFF720FF13B0F0BCBB46E2
:10429000B246A946A046F0BDF0B5DE4657464E46AA
:1042A0004546E0B595B0089009910A920B931E9E81
:1042B0001F9C20AB1B789B46229B9946239D269BE7
:1042C0009A463300234303D1103352469A43924611
:1042D0008023DB0057461F4052461A4219D0330054
:1042E00023432DD0002714E03033DAB27B1C9846EC
:1042F0000CABDA554A462B003000210000F0B2FF2B
:10430000A5421FD819D043461F2B1BD8474606008D
:104310000C004A462B003000210000F0A3FFD3B26E
:10432000092BE1D95246920605D54122D218D2B2C4
:104330000A3AD2B2DAE76122F8E7B145E3D901E0FF
:104340000023984653460693259B0593249B04938C
:104350004B4603935B460293434601930CAB009399
:104360000B9B0A9A09990898FFF7AFFE15B0F0BCAD
:10437000BB46B246A946A046F0BD0000F0B5DE46F9
:1043800057464E464546E0B591B083468A460C9264
:1043900098461A9C08941B9D099522002B0020002A
:1043A000290001F0EEF9002800D0E5E00122524298
:1043B000D74B2000290001F0DFF9002800D0DBE016
:1043C00001225242D34B2000290001F0BFF90028FE
:1043D00000D0D1E000220023089E3000099D290072
:1043E00001F0B4F9002800D0DDE0089809990690A2
:1043F00007918023DB001E9A1A400D921E9A1A42E2
:1044000001D106231C930698079904000D000A00A9
:104410000600024300D1D1E0080D4005400DBE4C1E
:10442000A44660440A03120BBC4B13431F0001F067
:10443000BBF9BB4ABB4B01F046F9BB4ABB4B01F091
:104440001BF904000D000022B94B3000390001F0C7
:104450000AF9B84AB84B01F036F902000B00200007
:10446000290001F009F901F0B7F9814601F09CF942
:1044700004000D00B14AB24B01F025F90022B14B06
:1044800001F0FAF801F0A8F90600AF4AAF4B20009E
:10449000290001F018F904000D00300001F084F942
:1044A000AB4AAC4B01F00FF902000B0020002900D1
:1044B00001F0D9F804000D0002000B0001F003F92F
:1044C0000A900B91A44BF31800261F0522002B0025
:1044D0002000290001F0D0F80E900F9122002B004F
:1044E00000208021C90501F0BEF804000D00002263
:1044F0009A4B0A980B9901F0C8F80022984B01F0EA
:10450000BBF802000B000A980B9901F0BEF80022DC
:10451000944B01F0B1F802000B000A980B9901F0DE
:10452000B4F802000B002000290001F0A5F80200F9
:104530000B000E980F9901F0A8F80022774B01F0BC
:104540009BF832003B0001F0BEF806000F000400AB
:104550000D00069A079B01F00FF9002830D00123C7
:104560005B429C46E14400227D4B3000390001F063
:104570008CF804000D0023E01E9B04931D9B039305
:104580001C9B0293089A099B0092019343460C9A44
:104590005146584600F0FCF811B0F0BCBB46B2469C
:1045A000A946A046F0BD0023002406930794069672
:1045B00080231B069C46654407951AE7002399460D
:1045C0004B466333C62B1ED804261E9B1B0526D5DF
:1045D0002B0023430FD0644A644B0698079901F0DF
:1045E000C3F8002879D00022614B0698079901F0A2
:1045F000ADF8002871D01C9B4B4506DD4A46981A41
:10460000431E1C9303E00526DFE700231C93802351
:10461000DB001E9A1A431E920026002399461D9B1A
:104620009E4264D29F1B02231E9A1A400A921E9A2F
:10463000134202D0002E00D000274B46002B07D09B
:1046400022002B000698079901F01FF806900791A9
:10465000002200230898099901F078F8002848D131
:10466000444B1E9A1340049303971C9B0293069B92
:10467000079C0093019443460C9A5146584600F01B
:1046800087F8002E00D187E71E9B9B063DD5452568
:10469000441C4346020051462800D8474B46DA17CF
:1046A0009B18534005220592013E04960022039276
:1046B0000A3202924A46D00F0190009343462200EC
:1046C00051465846FFF78AFD0A9B002B00D163E74D
:1046D00002005F460C9E1D9D54E01C9B002B9ED04B
:1046E0000D9B002B9BD01C9B013B1C9397E7002745
:1046F00099E7069C079D2200290080200006844639
:1047000061440B0006920793AAE76525C0E7C046FF
:10471000FFFFEF7FFFFFEFFF01FCFFFF0000F03F17
:10472000FB799F501344D33FB3C8608B288AC63FA0
:104730000000F83F61436F63A787D23F71A37909F7
:104740004F930A400000E03F1655B5BBB16B0240E5
:10475000EF39FAFE422EE63FFF03000000002C4036
:1047600000002440000018402D431CEBE2361A3FA5
:1047700080842E41FFF7FFFF541C43465146202002
:10478000B8472200931BAB42F6D3100004E7C046A3
:10479000F0B5DE4657464E464546E0B595B0069024
:1047A000079193469946209F1E9A1F9B100019005F
:1047B00000F0E7FF002831D101225242BF4B1E9882
:1047C0001F9900F0C3FF002837D101225242BC4B91
:1047D0001E981F9900F0D0FF00283DD10022B94B50
:1047E0001E981F9900F0C8FF002850D10022B64B38
:1047F0001E981F9900F0AAFF002848D1002200232C
:104800001E981F9900F0A2FF002850D1002398465F
:10481000229B5B0500D4B6E0002458E0229B039362
:10482000219B029303230193A84B00934B465A46C6
:1048300007990698FFF7F2FB0EE1229B0393219B59
:10484000029304230193A24B00934B465A460799C7
:104850000698FFF7E3FBFFE00423229A1A4022990F
:104860000B4210D09B4B002A0FD0042222990391B7
:1048700021990291019200934B465A460799069856
:10488000FFF7CCFBE8E0944BEDE70322EEE7229B39
:104890000493219B039302971E9B1F9C00930194FA
:1048A0004B465A4607990698FFF768FDD4E01E9AD2
:1048B0001F9B0020002100F0D6FE1E901F910123B7
:1048C0009846A5E70CAB30221A55013F01341F2C46
:1048D00001D8092FF6D81E981F9900F07DFF05001A
:1048E00000F062FF02000B001E981F9900F0BBFE53
:1048F000FA007A4B9B181A685B680A920B9300F0D7
:10490000E2FE0890099100F08BFF060000F048FFDE
:1049100002000B000898099900F0A5FE0890099183
:1049200000226F4B00F028FF00282ED00136300007
:1049300000F036FF02000B000A980B9900F00CFF04
:10494000002801D001350026002F2CD1280000F0CE
:104950002BFF02000B001E981F9900F084FE06003A
:104960000F0000225E4B00F0F1FE002846D100222D
:104970005B4B3000390000F0FFFE00283ED1EB0712
:104980003CD501353AE0062746E70022544B08980B
:10499000099900F0DBFE0028D6D1002E01D0F307E4
:1049A000D2D50136D0E7AA461F2C11D8013F0A21E3
:1049B000300000F015FC651C30310CAB19550A2194
:1049C000300000F00DFC092E0ED906002C00EBE79C
:1049D00055461F2C0CD87B1E002F09D00CAA302165
:1049E00011551F000134F4E72B0055461C00F0E779
:1049F0001F2C03D80CAB2E221A5501341F2C10D8B3
:104A00000A21280000F0C4FB661C30310CAB19559C
:104A10000A21280000F0BCFB051E01D03400EDE7A0
:104A200034000323229A1340012B1CD01F2C06D8DC
:104A30004346002B32D00CAB2D221A550134229B59
:104A40000393219B029301940CAB00934B465A466F
:104A500007990698FFF7E2FA15B0F0BCBB46B246DC
:104A6000A946A046F0BD219B002B13D04346002B46
:104A700002D10C3313420FD0219B013B219319002B
:104A800003E00CAB30221A5501348C42CED21F2CDD
:104A9000F7D9CBE72199F8E72199F6E7229B5B0745
:104AA00004D50CAB2B221A550134C8E7229B1B07F7
:104AB000C5D50CAB20221A550134C0E7FFFFEFFF2C
:104AC000FFFFEF7F65CDCD4165CDCDC1F4CC0010AA
:104AD000F8CC0010ECCC0010E8CC0010E0CE0010B8
:104AE0000000E03FF0B5DE4657464E464546E0B58D
:104AF00093B082468B4690461193002900D1EBE299
:104B000000275546119B1878002800D1E7E2252898
:104B100009D07C1C43463A005946A847119B0133F3
:104B200011932700EEE7013311930024119A1178B5
:104B30000B00203BD8B2102803D88300D048C358BC
:104B40009F460B00303BDBB2092B2CD92A292FD0F2
:104B500000230A93119B1A782E2A39D000239A46F3
:104B6000119A1378683BD9B2122976D88B00C549BF
:104B7000CB589F4601231C4301321192D6E70223F2
:104B80001C4301321192D1E704231C4301321192DC
:104B9000CCE708231C4301321192C7E710231C43C2
:104BA00001321192C2E711A8FFF726FA0A90D1E765
:104BB0001C9B1A1D1C921868002804DB0A90119B8C
:104BC00001331193C6E702231C4343420A93F6E7DD
:104BD0008022D20014435A1C11925A781300303BA1
:104BE000DBB2092B04D92A2A07D000239A46B7E75B
:104BF00011A8FFF701FA8246B2E71C9B1A1D1C920E
:104C00001868002804DB8246119B01331193A7E743
:104C10000020F8E780235B002343511C1191527858
:104C20006C2A01D01C0018E0C0239B001C430131FA
:104C3000119112E080232343511C11915278682A6C
:104C400001D01C0009E0C0231C430131119104E094
:104C500080235B001C4301321192119B18780300E2
:104C6000253BDAB2532A00D92CE29300864AD35866
:104C70009F4680239B001C4301321192EDE7802365
:104C80005B001C4301321192E7E7782809D05828CD
:104C900038D06F2838D0622838D010239C430A2699
:104CA00000E01026582833D0692803D0642801D0AA
:104CB0000C229443630501D50122944369282AD02C
:104CC000642828D0A30500D59FE0E30500D5B8E00F
:104CD000630600D4CAE01C9A111D1C911168FF22C2
:104CE0000A4005940A9B04935346039302960023BB
:104CF0000193009243463A0059462800FFF76EFAA6
:104D0000070027E01026CDE70826CBE70226C9E7F3
:104D100020221443C8E7A30520D4E30550D463063A
:104D200066D51C9A111D1C911168FF220A40D317E9
:104D3000D118594005940A9B049353460393029655
:104D4000D20F0192009143463A0059462800FFF7DE
:104D500045FA0700119B01331193D3E61C9BDA1D22
:104D600007218A43110008311C91116853689C4641
:104D7000DB170C930D930C9A0D9B100048400E907E
:104D8000624653400F930E980F990C9A0D9B801A10
:104D900099410E900F9108940A9B079353460693EE
:104DA0000496002305936346DA0F02920090019166
:104DB00043463A0059462800FFF76EFA0700C9E754
:104DC0001C9A111D1C911268D317D11859400594D3
:104DD0000A9B0493534603930296D20F01920091CB
:104DE00043463A0059462800FFF7F8F90700B1E7B3
:104DF000230605D51C9A111D1C910023D25E96E74F
:104E00001C9A111D1C91126891E71C9BDA1D072149
:104E10008A43110008311C9108940A9B079353465A
:104E20000693049600230593029313685468009335
:104E3000019443463A0059462800FFF72DFA07002F
:104E400088E71C9A111D1C9105940A9B04935346F4
:104E500003930296002301931368009343463A009C
:104E600059462800FFF7BAF9070073E723060DD566
:104E70001C9A111D1C9112681204120C31E7C046D5
:104E800000CD001044CD001090CD00101C9A111DD3
:104E90001C91126825E746281AD01C9B073307226D
:104EA00093431A0008321C9204940A9A03925246C1
:104EB00002925C681B680093019443463A0059468D
:104EC0002800FFF765FC0700119B0133119319E6D9
:104ED00020231C43E1E7672801D0472802D1802323
:104EE0001B011C43452801D0472801D120231C4326
:104EF0001C9B0733072293431A0008321C92049428
:104F00000A9A0392524602925C681B6800930194CD
:104F100043463A0059462800FFF730FA0700119B34
:104F200001331193EEE502231A00224092462342F8
:104F30001FD001241C9B1A1D1C927A1C91461878C4
:104F400043463A005946A8475346002B16D1119BB9
:104F5000013311934F46D5E5561C43465946202050
:104F6000B847230032005C1C9D42F5D83D00170075
:104F7000E0E701233A002F000A9DF4E74A46A946DC
:104F80000A9D06E0571C434659462020C847340076
:104F90003A00661CA542F5D84D469146D7E71C9BC2
:104FA0001A1D1C921B6899465346002B00D1013BE9
:104FB0004E4601E0013613003278002A02D05A1E14
:104FC000002BF7D14B46F21A10928023DB0026000B
:104FD0001E401C4203D0524501D953461093022370
:104FE0001A0022400B92234205D03A0037004C466B
:104FF000A946554620E03A00109B5F46B3462E0076
:1050000006E0551C434639002020B04723002A0003
:105010005C1C0A999942F4D835005E46BB46109450
:1050200037004C46A946554606E01D000134561C83
:1050300043465946C84732002078002804D0002F44
:10504000F4D06B1E002DF0D117004D460B9B002BAA
:1050500003D1119B0133119354E50A9F109B06E085
:10506000561C434659462020A847230032005C1CAA
:105070009F42F5D81700ECE721231C431C9B1A1D07
:105080001C921B68009305940823049353460393D2
:10509000102302930023019343463A005946280007
:1050A000FFF79CF80700119B013311932AE57C1C44
:1050B00043463A0059462520A847119B01331193D6
:1050C00027001FE57C1C43463A005946A847119B20
:1050D00001331193270015E50A4B9A4610E5AA46BD
:1050E000474502D343465A1E00E03A00434659461C
:1050F0000020D047380013B0F0BCBB46B246A946EA
:10510000A046F0BDE93F001000B585B002900391C4
:105110000121009313004A4202A90248FFF7E2FC72
:1051200005B000BDEB3F001001480421014B1847BA
:10513000A00400205951001010B5010018231B884D
:1051400014221088984710BD10B5010018231B8841
:1051500016221088984710BDF0B5C64600B5070066
:105160000E0000250123984600E00135B5420AD221
:10517000AC003C192068FFF7DFFF20600028F4D165
:1051800000239846F1E7404680BCB846F0BD0000D9
:10519000124A936F9B0815D29066D166002905D0FC
:1051A000FFE7FFE7FFE7516F106F704704B58021FD
:1051B0000906C2175140002800D0C84306F044FE3B
:1051C000002104BDF0B5146E556E576F166FFFF7D2
:1051D000E3FF1466556657671667F0BD000000D000
:1051E000114A936F9B0813D210665166002905D0AF
:1051F000FFE7FFE7FFE7516F106F704704B5002826
:1052000001D00020C04306F01FFE002104BDC046AF
:10521000F0B5146E556E576F166FFFF7E5FF146605
:10522000556657671667F0BD000000D094464E4A99
:10523000926F9208624601D230E0C046F0B54A4E05
:10524000B56F6D08FCD3346E756E776F366F00F0F6
:1052500025F89446444A14665566576716676246B1
:10526000F0BDC0469446404A926F9208624601D211
:1052700058E0C046F0B53C4EB56F6D08FCD3346EB7
:10528000756E776F366F00F04DF89446364A1466A7
:105290005566576716676246F0BDC046002B24DB93
:1052A00011D000293EDA00B5C943404200D1013196
:1052B00000F038F8C943404200D10131DB4352428B
:1052C00000D1013300BD002AEBD1002801D1002913
:1052D00005D00020C90FC90701D1C043410800B55E
:1052E00006F0AAFD0022002300BD00B500290ADB5C
:1052F000DB43524200D1013300F014F8C94340426D
:1053000000D1013100BDC943404200D10131DB432E
:10531000524200D1013300F005F8DB43524200D184
:10532000013300BD002923D1002B18D1002A0CD055
:10533000BC460D4F38667A6600210023FFE7FFE781
:10534000FFE77A6F386F67467047002801D007483B
:10535000010000B506F070FD0022002300BD020030
:105360000B00002000217047000000D0FFFFFFFF6E
:10537000002B00D0BFE0130C28D1002AE7D080B466
:10538000114F39667A66FFE7FFE730B4040C7B6F94
:10539000396F1B0423433B667A66FFE7FFE7FFE7AD
:1053A000C04684B27B6F3D6F1B0423433B667A6625
:1053B000FFE7FFE7C04600232C042D0C7A6F386FFF
:1053C00000196941B0BC7047000000D0F0B59446A8
:1053D0000025140E01D112020835140F01D112015B
:1053E0000435940F01D192000235D40F01D152003F
:1053F0000135D40B0134254F7C66254C3C660E0CE0
:1054000093B2FFE7FFE7FFE73C6F6643360C770395
:10541000BE467343DF0B5B04C01AB941130C7343E0
:10542000DB18C91ACE086643360CB64493B27343F0
:105430001F0F1B01C01AB941130C73431F0B1B052F
:10544000C01AB941860D8F023E436643360C092DC2
:1054500024DB520A7243801A7703460A6643360CED
:1054600016235B1BDE40DF40BF1964466643821B88
:105470007046043506330100D940A840C01900D356
:105480000131A24206D20023F0BD0000000000D08E
:10549000FFFFFFFF121B0130F3D3F1E709277F1B4A
:1054A000FE406446A2B27243801A00D20139220C37
:1054B0007243130C1204821A99410B007046043592
:1054C00013370100F940A840801900D30131002BA7
:1054D00002D1A2420AD2F0BD013000D30131121B29
:1054E000FAD2013BF8D1A24200D2F0BD013000D384
:1054F0000131121BF7E7F0B51C0C00D080E00CB4B2
:1055000000251C0A04D11B02160E33431202083573
:105510001C0B04D11B01160F3343120104359C0BE5
:1055200004D19B00960F334392000235DC0B02D16D
:1055300092185B4101351C00971864410134464FB5
:105540007C66464C3C660E0CFFE7FFE7FFE7C04673
:105550003C6F6643360C7703BE4697B27743C01B59
:1055600000D20139C01B00D201399FB27743C91B59
:10557000C91B170C77437E04FF0B801BB941CE0873
:105580006643360C0C2D33DBB644120B1F053A4331
:105590001B0B97B27743C01B00D201399FB27743F0
:1055A000C91B170C77433E043F0C801BB941860D85
:1055B0008F023E43664329277F1BFE400C3D774602
:1055C000AF40BF1930BCA2B2ABB272437343801A72
:1055D0009941220C7243130C1204801A9941020063
:1055E0000B000137001BA941F9D2781E0021F0BD44
:1055F0000C277F1BFE4077467F0BAF40FF19E0E78B
:1056000000245D1C07D0144F7D663966FFE7FFE775
:10561000FFE7FFE73C6F95B29EB265436643401BD0
:10562000B141150C1E0C6543664336042F0C3E43F6
:105630002D04401BB141994204D202000B0020000E
:105640000021F0BD01D19042F7D3801A9941013475
:105650009942F2D3F6E70000000000D0FFFFFFFF01
:1056600048404140484018B41B4B5B68FC460193DE
:1056700008BD04DF5359001018B4174B1B68FC46D3
:10568000019308BD00DF5D5900109446134A926FE4
:10569000920809D2624618B40F4BDB68FC460193AE
:1056A00008BD0CDF155C00100C4AF0B5146E556E89
:1056B000576F166F6246FFF7EEFF084A146655668D
:1056C00057671667F0BD18B4034B9B68FC460193FF
:1056D00008BD08DFB95A00103C130020000000D0BC
:1056E000FFB550404240504059404B40594000E0C7
:1056F000FFB5154F4C00640D03D0BC4204D10C0320
:1057000014D80020090D09055C00640D03D0BC42CB
:1057100004D11C030AD800221B0D1B0501264B4097
:1057200009D44B4003D58B4200D18242FFBD994240
:10573000FCD19042FFBD0B43DB1803431343F5D06C
:10574000C9434918FFBD0000FF07000000B5FFF77F
:10575000CFFF804100BDC04600B5FFF7C9FF01D9AA
:10576000002000BD012000BD00B5FFF7B9FF01D941
:10577000002000BD012000BD00B5FFF7B1FF804152
:1057800000BD012040054A00121804D85A00121822
:1057900001D80020704701207047002070470000AA
:1057A0000021002805D17047C1174840401AFAD09F
:1057B000C90713B5064B1B6898470CBC441CA24094
:1057C0001005120B0349091B09051943114310BDAC
:1057D0003C1400201F04000010B54C00620D802313
:1057E000D218DB00D21A5B057E2A10DD9E3A13DA4E
:1057F000CC170903490819435242D14064000134CF
:105800001532202A05DAD0400843604310BD00203D
:1058100010BD0846604310BDC80FC018013810BD48
:1058200018B4044B5B6AFC46019308BD24DFC55DD8
:10583000001000003C13002018B4044BDB6FFC4642
:10584000019308BD7CDF455E001000003C13002082
:1058500070B513231C78012C14D0012C14DC022CFD
:1058600002DC1F4A1F4B9A641F48FFF765FC1F4B61
:10587000186070BD99001A481A4A885001331F2BCE
:10588000F8D9EAE70023FAE71948FFF75DFC0500BD
:105890001848FFF759FC023803789B007F2B19DD6D
:1058A000802229000F4800F027FC022CD7D1124B90
:1058B0001A88B5231B029A4209D1104B1A88104B43
:1058C0009A4204D10F4B1A880F4B9A42C7D000203E
:1058D000FEF73EF90D4B0E4A32210E48FEF79EF8B8
:1058E000195900103C1300204C3300003C140020D8
:1058F000534400005346000054380000D8380000DC
:10590000494600009C3800005946000030CF001086
:10591000F0CF001090CF001007B56046002800D1EE
:1059200000BE01880A0A0230DF2AFAD1C9B2820811
:1059300004D3028840880004104300E00068024A53
:105940005050039007BD00003C1300200FB403BC6F
:105950000CBCF0B50124E407634000E0F0B50C0D89
:10596000CF0F661E3605891B640503D3C943404229
:1059700000D30131640D03D0661CF60A07D0E41B86
:1059800000207F00791C89078912803C24031D0DAB
:10599000DF0F6E1E36059B1B6D0503D3DB435242A2
:1059A00000D301336D0D03D06E1CF60A07D0ED1B3A
:1059B00000227F007B1C9B079B12803D2D032F1B29
:1059C000661B58D4A446202E46DA20371400BC406B
:1059D0001D00BD40F24033412A4380185941CB0F8E
:1059E00005D0C943C0430022644250415141624640
:1059F0004D0D28D10D0D07D100281FD0241940418D
:105A00004941013A0D0DF9D0640006D3013000D3AD
:105A10000131002C01D140084000013A0BD4941C04
:105A2000E40A04D112051144DB071944F0BDD9077B
:105A3000204B194300E0D9070020F0BD0029DDD13B
:105A4000002CDBD1F0BD0132C6074008CD0728434A
:105A50004908002EE1D0D9E73C2E29DA203E403714
:105A60001400BC4000D00124F24014431A00BB4093
:105A70001C43D317ACE7AC46202F08DA20360400CD
:105A8000B4400D00B540F84039412843A5E73C2F0C
:105A90000CDA203F40360400B44000D00124F84026
:105AA00004430800B1400C43C117EAE71000190095
:105AB000002494E70000F07FF0B50C0D661E36055B
:105AC000891BE60A6405640D02D0651CED0A04D04A
:105AD000002001210905803C2403A4461C0D671EFB
