:020000041000EA
:1000000000B5324B212058609868022188439860DF
:10001000D860186158612E4B002199600221596106
:100020000121F02299502B49196001219960352056
:1000300000F044F80222904214D00621196600F024
:1000400034F8196E01211966002018661A6600F04E
:100050002CF8196E196E196E052000F02FF8012189
:100060000842F9D1002199601B49196000215960AB
:100070001A491B48016001219960EB211966A021F2
:10008000196600F012F800219960164914480160C1
:100090000121996001BC002800D000471248134993
:1000A000086003C880F30888084703B5996A0420EC
:1000B0000142FBD001200142F8D103BD02B5186610
:1000C0001866FFF7F2FF186E186E02BD00000240BE
:1000D000000000180000070000035F00212200005C
:1000E000F4000018222000A00001001008ED00E03C
:1000F00000000000000000000000000074B24E7A12
:1001000000200420F7010010C3010010C5010010F9
:10011000C1010010C1010010C1010010C101001097
:10012000C1010010C1010010C1010010C701001081
:10013000C1010010C1010010C9010010CB01001065
:10014000CD010010CD010010CD010010CD01001037
:10015000CD010010CD010010CD010010CD01001027
:10016000CD010010CD010010CD010010CD01001017
:10017000CD010010CD010010CD010010CD01001007
:10018000CD010010CD010010CD010010CD010010F7
:10019000CD010010CD010010CD010010CD010010E7
:1001A000CD010010CD010010CD010010CD010010D7
:1001B000CD010010CD010010CD010010CD010010C7
:1001C00000BE00BE00BE00BE00BE00BE00F04BF888
:1001D000103800BEF2EB8871C0200010E82000103B
:1001E0003402001090A31AE700202149086006C8D5
:1001F00081F3088810471F48006800282FD10DA4FC
:100200000ECC002902D000F012F8F9E71A491B4A77
:10021000002000E001C19142FCD1194988471949E9
:1002200088471949884700BEFDE701C901C29A42C3
:10023000FBD37047E8200010C000002040020020DF
:100240006822001000000420000004206822001032
:1002500000100420001004200000000070470B482C
:1002600001F0B6FB0047EFF30580C0B27047000015
:1002700008ED00E0000000D0400200201006002041
:10028000B51100100D030010A11200105756000008
:1002900006005250ABB360532020001006005250AD
:1002A000861C030230200010060052505422A29DEA
:1002B0004020001005005250DE65F46868220010EE
:1002C000F8B5C04610B5064C2378002B07D1054B76
:1002D000002B02D0044800E000BF0123237010BDB2
:1002E0004005002000000000B81F0010044B10B5AE
:1002F000002B03D00349044800E000BF10BDC046F6
:100300000000000044050020B81F0010F0B5DE46D4
:100310004E4645465746E0B5424B83B01A68D02456
:1003200000926A461B792406137101F089FD15209D
:1003300000F092F8162000F08FF8122000F08CF8F0
:10034000132000F089F8142000F086F8192000F03E
:1003500083F880239B0363628023DB036362802630
:100360008023F6021B036662802563628023FA20E5
:100370005B03AD04636240006562656100F084FB6D
:1003800005236B449946A5610A23D024802798460B
:1003900024063F036D4680235B03A661A761A3612A
:1003A00080239B03A3618023DB03A36101232A78BD
:1003B000C82093400135636100F066FB4D45EAD1EA
:1003C0004346013BDBB29846002BE3D1FA20D02410
:1003D000800000F059FB0525240680231B0366617D
:1003E0009B46636180235B0363619A468027802379
:1003F000FA209B03FF03636140006761984600F0A9
:1004000043FB5B46A661A3615346FA20A3614346C2
:10041000013DA3614000A761EDB200F035FB002D66
:10042000DBD1B1E7B81F0010094A8300944640228F
:10043000634410B51C68C0006240C0241440802290
:10044000520113431C60034B9C466044416010BD45
:1004500004C00140004001400123D0228340120625
:1004600093629361094A8300944640226344196869
:10047000C0004A40C021114080225201134319603C
:10048000034B9C46052360444360704704C0014011
:1004900000400140F8B5CE464746914680B5EFF39F
:1004A000108C72B6104D2B68002BFCD0BFF35F8F01
:1004B000CB08C45CC7180720260001230840C640AB
:1004C0001A00324033420BD1834023433B70BFF3C9
:1004D0005F8F2A608CF31088C0BCB946B046F8BD67
:1004E000484600F0DFFEC0462C0100D00021044B3E
:1004F000044ABFF35F8F02C39342FAD17047C046EC
:10050000000100D0800100D0044A1078431CDBB207
:10051000172B00D9102313707047C0467C010020B0
:10052000024B18688007C00F7047C04600C00640E5
:10053000F8B5040006200D0001F042F8002844D070
:100540002A4B2B49E21853425A418023DB039C4635
:100550009205284B62441A60274B1A6010008B6882
:100560009843FBD1214B8021E3185A425341234A3F
:100570005B0049009952062001F022F82900C000D2
:1005800001F058FAC30921D1402701212600802516
:100590006162A36200232C36AD0135432B60062037
:1005A00001F00EF83900800001F044FA6023E26A9D
:1005B00053406E221A4080235B0133431A60104B74
:1005C000236310232B600D3BA364F8BD0D4A9342B7
:1005D00003D900230C4F0D49D8E77F22104001308A
:1005E00040089F0119003F180300CFE70080FCBFBF
:1005F00000C0004000E0004000F000400406002081
:1006000001030000FEFF0000C0FF3F00FFFF0000ED
:1006100083680B4810B584466144624409011201A5
:100620009A18591854684B6801209C4201D802D08E
:100630000020C0B210BD12680B689A42F9D8F7E7E3
:10064000FFFFFF0F40BF002000217047F8B557465D
:100650004E464546DE46E0B599460CAB1C780DABE0
:100660001B78060090469A460768002C11D1BC7B87
:10067000002C42D065003B682D19033D59194B7879
:10068000BB73002B00D1FB7300238B704B700B707E
:1006900004E065003B682D19033D5919B2682A4BE7
:1006A00094464246E3181B0163441A604A465A6066
:1006B0000A9A9A600B9ADA6000238B704B700B7069
:1006C0007B7B9B46002B2BD022005946B8687B6869
:1006D00098473A68002816D05B4658465B005B4452
:1006E0005519033BA870D118D35C002B00D06B7058
:1006F0005B460C707B73A34513D0F0BCBB46B2467F
:10070000A946A046F8BD5B465B005B44033BD3189B
:100710009C705119525D002A00D05A705B460B70D4
:100720007C7342464B46307D00F0CEFA051E06D063
:100730005346002B03D12100306800F0FDFC0E9BD6
:10074000002BDAD01D70D8E7FFFFFF0FF0B5DE46B3
:100750004E46574645460023E0B58DB00A936B4B95
:100760008200D3580B90994600239B464B46079333
:1007700000F04AFA079C06000F006268EFF310854C
:1007800072B61368002BFCD022000794BFF35F8F72
:100790002468637B9946002B67D092685C4B904637
:1007A0004B441B01984443461A685B6810001900CB
:1007B000801BB94100295FDD0B9800F085FA00230A
:1007C0000026984600279A46079C6368BFF35F8F10
:1007D0005A461A6085F310885346002B08D100282A
:1007E000C6D10DB0F0BCBB46B246A946A046F0BD8E
:1007F0000A9B414618024B461843D047089009917E
:100800006268EFF3108572B61368002BFCD0079472
:10081000BFF35F8F0899099A002A48DB114303D080
:10082000079B1B69002B5DD1079B1B68D97B0029A7
:1008300007D04A00521819688C4649466244033A68
:1008400051704A46DA734B46079A013BD168CA5C3D
:100850000132CA545B46079A13615368BFF35F8F36
:100860005A461A6085F3108882E7002300269846CE
:1008700000279A460020A7E7002901D100289BD134
:100880000021200000F0DAFB43461E685F689B6889
:10089000079A9A464346DB689846D3684B44013B27
:1008A0001B780A931B020343136100208CE7236922
:1008B000002BB9D033003C005B1A94411A0023008E
:1008C000A74219D89F421BD0594604910121039198
:1008D0004946029141460191514607980091FFF720
:1008E000B5FEB7E700F090F9089A099B06000F00E3
:1008F00092197B419942E5D901225242D317E3E78D
:100900009642E1D901225242D317DDE7E0050020EB
:10091000FFFFFF0FF8B557464E464546DE46E0B5A9
:10092000404D81468A466A68EFF3108872B61368B4
:10093000002BFCD0BFF35F8F2E68B47B002C39D026
:10094000670033683F19033FDB195A78B273002AF6
:1009500000D1F273A968344A8C464946A2181201A4
:100960006244116051465160304991600021D1606C
:10097000997059701970737B9B46002B35D02200FB
:100980001900B068736898473268002820D05B4629
:1009900058465B005B44D719033BB870D118D35C51
:1009A000002B00D07B705B460C7073735C451DD0D0
:1009B000002626E06B68BFF35F8F1C6088F3108809
:1009C00001204042F0BCBB46B246A946A046F8BD55
:1009D0005B465B005B44033BD3189C70D119D25D2E
:1009E000002A00D05A705B460B7074734A46534617
:1009F000287D00F069F9061EDAD02100286800F091
:100A00009BFBEB681B19013B19786B68BFF35F8F89
:100A100000221A6088F310880020002ED2D108022C
:100A20002043CFE780010020FFFFFF0F45060010A5
:100A300010B5104C6368002B00D010BD23000E4A87
:100A40001021206800F018FA032000F0D1F80320EC
:100A500000F0AAF90320094900F0F0F8FFF754FD6F
:100A6000074B9C46032360442375064B800060605F
:100A7000DC60E2E780010020110600104D07001045
:100A800040000034E0050020F8B5040000F0BCF898
:100A9000FA2206000F00200000230021920001F03E
:100AA00049F88019794104000D008F421AD817D0F7
:100AB00006267642F71736196F41AF4235D9002620
:100AC000002700F0A1F832003B00121A8B41002BE6
:100AD00016DC002B26D02900200000F09FF8F8BD7E
:100AE0008642E5D907267642F71700F08DF83200E6
:100AF0003B00121A8B4101246442E517002BE8DD0C
:100B000030003900FFF706FF0028E4DB3900094A0E
:100B1000536A994204D8906A8642DCD99942DAD164
:100B200020BFF5E7002AD6D0EAE7AF42C9D1A642F6
:100B3000C5D8C6E700400540F0B5D6464F46464604
:100B4000C0B5EFF305833F22134018001038EFF3D0
:100B5000108C72B6204D2A68002AFCD0BFF35F8F3C
:100B60000122110081401D4C884661631C49170019
:100B70000E788A463100C1400F400A4209D1BFF3C6
:100B80005F8F2F608CF31088E0BCBA46B146A84650
:100B9000F0BD14498200646A51588C420FD3124B45
:100BA000D25843469E4353461E70BFF35F8F0023C7
:100BB0002B608CF31088002AE6D09047E4E70B4ABC
:100BC0009B00904643441A681A60BFF35F8F00236E
:100BD0002B608CF31088D7E7280100D00040054037
:100BE0000E060020F40500205C050020D03F0540E3
:100BF00010B50100024A0348FFF74CFC10BDC04687
:100C0000C01F00100C060020034B596A0A00986AA6
:100C1000596A8A42FAD1704700400540064A536A31
:100C20009942FCD807D1044B02E05A6A914202D1A2
:100C30009A6A8242F9D370470040054070B50400BB
:100C40000D00EFF3108672B61A4A1368002BFCD021
:100C5000BFF35F8F002D1BD0200000F00FFD164961
:100C600081420AD0200000F011FD0121200000F097
:100C7000F3FC0123A340114A1360114BA400E5507B
:100C8000BFF35F8F00220B4B1A6086F3108870BD94
:100C90000B4BA200D5500122A2400A4920000B783C
:100CA00093430B70044900F01BFD0021200000F06D
:100CB000D3FCE5E7280100D0390B0010386005406F
:100CC0005C0500200E060020F0B54F46D64646468D
:100CD000C0B507002F4C616A0D00A66A616AA9427F
:100CE000FAD18B4208D805D00120E0BCBA46B14603
:100CF000A846F0BDB242F7D9EFF3108A72B6264883
:100D000001680029FCD0BFF35F8F0125BD40234956
:100D1000204C8846097889462943C9B28C46414609
:100D200060460870391D1E48890065630A51B90084
:100D30000B50216A0020294219D0616A0800A66A76
:100D4000616A8142FAD18B4219D801D1B24216D8D8
:100D5000CC451DD00F4B1F201D625D630123074052
:100D6000BB40104A1E38136043464A461A70BFF310
:100D70005F8F0022084B1A608AF31088B5E70020C5
:100D8000BFF35F8F0022044B1A608AF31088ACE730
:100D90000120ECE700400540280100D00E060020AD
:100DA000F405002080E200E0EFF3108C72B60A49EF
:100DB0000B68002BFCD0BFF35F8F01238340074AF1
:100DC0000748136202789A430270BFF35F8F0023D3
:100DD0000B608CF310887047280100D0004005405C
:100DE0000E060020024B9C4661448900016070475A
:100DF0004000003410B50400FFF786FB010020001E
:100E0000FFF7F0FFFF232371BFF35F8F10BDC046D4
:100E100070B5050014001600002915D00C00002A3A
:100E200012D080686B689847296800280ED073003C
:100E30009B196200033B1219CB18033A9C70881867
:100E40008A5C002A15D10670200070BD63001B1952
:100E50007200033B9219CB18033A9E7088188A5C83
:100E6000002A02D104703400EEE75A700470340096
:100E7000EAE75A700670E7E730B583600023CCB22A
:100E800043730133047342608373C4730D000068BD
:100E9000012C06D9421C0133DBB2137003329C4291
:100EA000F9D1FF2129404B0059180023401803387D
:100EB000437030BDF8B5CE46474606000C0080B5FD
:100EC000002907D04D0003686D18033D5A19577863
:100ED000002F04D12000C0BCB946B046F8BD79004F
:100EE000C919033988464344597889460021597005
:100EF000517073683A002100806898473368002871
:100F000014D042469A18947059195B5D002B00D09A
:100F100053700F70270049463000FFF7CBFF3900B0
:100F200002003000FFF774FF0400D3E74246414659
:100F30005D19AF709A185B5C002B00D06B70147059
:100F4000E9E7C046F0B557464546DE464E46E0B5B1
:100F50000D006B0001685B19DF1E0400C85D83B0E3
:100F60000192CA1900284CD043001B18033BCB1830
:100F70005E78B446002E16D1019E002E3ED0E67B50
:100F8000002E04D073009B19CB18033B5D70E573F2
:100F900000282FD10023537003B0F0BCBB46B246EB
:100FA000A946A046F0BD72006244033A89184A7807
:100FB000904600224A7091465A700100320020008B
:100FC000FFF726FF43468246002B07D05B002168CF
:100FD0004344033BCB185A78002A16D14246514667
:100FE0002000FFF715FF2168019BCA19002BC6D10D
:100FF0000028CFD043001B18033BCB180021997069
:10100000C8E7019B002BBAD1C4E750008018033811
:101010000918487883464846487058704146200071
:10102000FFF7F6FE594680462000FFF743FF414692
:1010300002002000FFF7ECFE8046CFE7F0B55746F0
:101040004546DE464E46E0B583B00191457B04003F
:101050006B0000685B19DF1EC15DC21900294ED00C
:101060004B005B18033BC3185E78B446002E18D1C2
:10107000019E002E40D0E67B002E04D073009B1909
:10108000C318033B5D70E573002931D100232800AC
:101090005370617303B0F0BCBB46B246A946A0468C
:1010A000F0BD72006244033A8018427890460022F4
:1010B000427091465A7020003200FFF7A9FE434665
:1010C0008246002B07D05B0021684344033BCB18CA
:1010D0005A78002A17D1424651462000FFF798FE61
:1010E000019B01002068C219002BC4D10029CDD07A
:1010F0004B005B18033BC31800209870C6E7019BA8
:10110000002BB8D1C2E7500080180338091848787E
:10111000834648464870587041462000FFF778FEE5
:10112000594680462000FFF7C5FE414602002000D8
:10113000FFF76EFE8046CEE770B5040000292CD084
:10114000437B8B422ED0056848004018033828188E
:101150008278002A21D053009B18033BEA5CEE18EA
:101160008A4202D11BE0002A08D053009B18033B9F
:10117000EB185A788A42F6D142785A70002301223D
:10118000837043702000FFF7DDFE617B02002000CA
:10119000FFF73EFE6073012000E0002070BD437841
:1011A0003370EBE701221900FFF7CCFE60730120DA
:1011B000F4E7C046F8B52B4A2B4B2C491A602C4A51
:1011C0002C4B1A6014008B689C43FBD12A4D2B4E8C
:1011D000B54208D2013E761BB60808CD98472300D9
:1011E0000134B342F9D100F07BF8254A214B1A6053
:1011F0001E4A9368DB43DB01DC09002BF9D1402256
:10120000204B214D214F9A675A671A67DA66BD4213
:101210000BD20026013F7F1BFF082800FFF7EAFDE5
:10122000083533000136BB42F7D1194E194DC022A3
:10123000A968300000F0E8FCAE60FFF757F900F055
:1012400083FBFFF7F5FB144D144EB54208D2013E67
:10125000761BB60808CD9847230001349E42F9D189
:10126000F8BDC046BFCDFFFF00E0004000C0004019
:10127000FE7F3C0000F000402C0200203C020020D9
:10128000FFFFFF0100F00140240200202C0200209B
:101290000000002000ED00E03C02002040020020A1
:1012A00000BEFDE70FB400B5084883B000F08CFD28
:1012B000049B002B07D005A91800019100F068FBE2
:1012C000034800F081FD00BEFDE7C046E41F0010AA
:1012D000F41F001010B50148FFF7E4FFF81F0010DD
:1012E00030B50C2083B000F071F9FFF719F9002830
:1012F0000ED09A4B9A4A1A605A609A60DA601A6164
:101300005A619A61DA611A62964A5A6203B030BD34
:10131000954CA06700F062F90122944B1A60636C4F
:10132000012BFCD10322924B1A608F4A936B012B45
:10133000FCD1C0228F4B92011A608F4B8F491A60EB
:1013400010008B689843031EFAD1022401218C4AB5
:101350008C480633009400F055F905238A4A012190
:101360008A48009400F04EF9894B5A68FF2A02D847
:10137000802252005A608022784C7D4B21691201F4
:10138000834D1A60002905D0606900F053FB0130DD
:101390000138FDD1E0217E4B02201A6811408022E5
:1013A00052012A431160196848400321014011602D
:1013B00004219A681142FCD08022802192012A43A4
:1013C00009011160802252005A60724B2361724BF6
:1013D0005968FF2900D85A600321644A6E4B116096
:1013E00002399A681142FCD0E0201A68104080222D
:1013F00052011A431060186848400321014002203E
:10140000116065498A681042FCD080229201134322
:10141000802212011A608022604B52004A60636190
:101420005F4B5968FF2900D85A6080225D4BE16903
:1014300012015B4D1A60002905D0606900F0FAFACC
:1014400001300138FDD1E02255490B681A40802354
:101450005B012B431A60802380229B012B431201E6
:101460001A6080223E4B52004A60E3614E4B59683D
:10147000FF2900D85A6080224C4B216A12014A4D44
:101480001A60002905D0606900F0D4FA01300138F3
:10149000FDD1E02244490B681A4080235B012B43B5
:1014A0001A60802380229B012B4312011A60802343
:1014B00080225B004B602A4BD20223623C4B59686E
:1014C000914200D25A6080223A4B616A1201384D33
:1014D0001A60002905D0606900F0ACFA01300138CB
:1014E000FDD1E02232490B681A4080235B012B4377
:1014F0001A60802380229B012B4312011A608023F3
:10150000DB024B60174B63622B4B5A68FF2A02D8F1
:10151000802252005A608022284BA1691201264D78
:101520001A60002905D0606900F084FA01300138A2
:10153000FDD1E02220490B681A4080235B012B4338
:101540001A60802380229B012B4312011A608023A2
:101550005B004B60114BA361D8E6C0466C050020D0
:10156000006CDC021BB70000008000403CB0004073
:1015700030B0004000E0004000F0004000C00040FB
:10158000002F68590080024000389C1C00C00240B7
:1015900030800040001BB7003C800040405973077A
:1015A0005480004054B000406080004060B0004073
:1015B0006C8000406CB000404880004048B0004063
:1015C000014B8000C05870476C0500208023024A00
:1015D0009B000343D362704700800540AA23064A5C
:1015E0001B0113602F230549D360054B1960536815
:1015F000002BFCDA7047C0460040024000B0FA0001
:1016000000600240F8B51E0001235B4243600023E6
:101610000400836001600C20170000F00BFA410108
:10162000091A8D01691AC90009188901380000F0EA
:1016300001FAC021231D890119432123A0600B60F9
:101640002268002AFCDA069B36041B031E4308238B
:10165000E6600B60F8BDC04601238340002904D03A
:10166000034A1360034A13607047034A1360FBE7A1
:1016700080E200E000E100E080E100E0024B103099
:101680009B688000C058704700ED00E070B50D0009
:10169000EFF3108672B60F4A1368002BFCD0BFF32D
:1016A0005F8F0D4B10309B6884001B590B4A93428F
:1016B00003D09D4201D0FFF70DFE074B9B681D51E3
:1016C000BFF35F8FBFF35F8F0022024B1A6086F378
:1016D000108870BD240100D000ED00E0CD010010A5
:1016E000F0B5DE4657464E464546E0B50C0083B0A1
:1016F000EFF3108A72B65A4A1368002BFCD0BFF37E
:101700005F8F1022914681444A46564B96009B6853
:101710009D59554B98469D4205D0A54216D0534F32
:10172000EB1B2F2B14D94F4B9B689D51BFF35F8F41
:10173000BFF35F8F00224A4B1A608AF3108803B010
:10174000F0BCBB46B246A946A046F0BD1D00EAE784
:10175000012383409B465A46454B1B681A40009222
:101760005A46444B1A60BFF35F8FFEF77CFD019031
:10177000002803D0814501D0FFF7ACFD01232A00EA
:101780009A431300DB1B5B4141495943090D9368A0
:101790009C4208D15AE043001B189B00FB18986834
:1017A000A04211D01A00062010560028F3DA009B40
:1017B000002B05D05A46304B1A602D4B1A60B2E709
:1017C0005A462C4B1A60AEE706201856002821DB3B
:1017D0004200111889007C188846A1689960E17957
:1017E000D97106216156997100291FDBA488F91A65
:1017F0006405241544440919E0240905490D24020F
:101800002143998012181D4B9200BF181A78187046
:10181000BA71CCE7019800280BD1FF3090711848BD
:101820009080164A107811709871C0E7BD210902A6
:10183000E7E7144A1449D21A083A5002400D01430E
:101840009980124952080A43DA80B0E70620105600
:1018500013000028BCDA019A002AEAD14546E0E7E5
:10186000240100D000ED00E0CD010010A80100200F
:1018700000E100E080E100E080E200E00D060020F1
:1018800000BDFFFFE201002000F0FFFF00F8FFFFB6
:10189000AAAA0000F8B5012504000543FEF7E3FC01
:1018A000EFF3108C72B6214A1368002BFCD0BFF303
:1018B0005F8F1F4E2200B7681E49521A5241214BBA
:1018C00053431B0D8200B8585BB2A8421CD00622BD
:1018D0008A569A421CD012228A569A4222D01E223E
:1018E0008A569A4220D02A228A5603209A4210D041
:1018F000114A11781370A171BFF35F8F00220B4B57
:101900001A608CF31088F8BDB1680C488850EFE776
:1019100000204200121892008918FF228A71084A9A
:101920008A80E5E70120F4E70220F2E7240100D0F5
:1019300000ED00E0A80100200D060020CD01001000
:1019400000BDFFFFAAAA0000F0B500220324FF2774
:10195000802620003D00094B11009C461040C0002D
:101960008540A14361440B680132AB43350085409B
:101970002B430B60202AECD1F0BDC04600E400E010
:1019800010B5002800D110BD00F010FAFBE7C046EA
:1019900010B5094A0300146884B0002C08D0012255
:1019A00000910648524203A9A047012004B010BD8F
:1019B00000F00AFA0020F9E7DC0500208119001088
:1019C00001480421014B1847F0010020F1190010D3
:1019D000142310B50100188804331B88984710BDE4
:1019E000162310B50100188802331B88984710BDD4
:1019F000F8B54746CE4680B50F1E19D01423994638
:101A0000043304000025012698464B4618884346B7
:101A100021681B88984701C4431E98410135404204
:101A20000640AF42F1D13000C0BCB946B046F8BD67
:101A30000126F8E7134A936F9B0813D2106651668C
:101A4000002905D0FFE7FFE7FFE7516F106F7047F0
:101A500004B5002801D00020C04300F095FA002111
:101A600004BDC046936F5B08FDD3F0B5946ED56E90
:101A7000576F166FFFF7E2FF9466D56657671667D4
:101A8000F0BD0000000000D0132370B51D78012DBB
:101A900010D00BDD1948FFF7A3FF194C010080227D
:101AA000200000F0B1F8022D01D070BD144C154B90
:101AB000A364FAE7134B124C23606360A360E360F6
:101AC00023616361A361E36123626362A362E362F2
:101AD00023636363A363E36323646364A364E364D2
:101AE00023656365A365E36523666366A366E366B2
:101AF00023676367A367E367A364D6E753440000E3
:101B000040030020091B001007B5604601880A0A3F
:101B10000230DF2AFAD1C9B2820804D30288408891
:101B20000004104300E00068014A5050039007BDD4
:101B30004003002051434343C9188C46110C83B223
:101B40004B4310B4040C614392B280B250436243E1
:101B50001C041B0C001910BC59411304120CC018B2
:101B60005141614470470000132310B512481C789E
:101B7000FFF736FF0100012C0AD003DD80220F4859
:101B800000F042F80E48FFF723FF0E4B186010BD1F
:101B90000A4C5422200000F037F80B4B6365A36514
:101BA000E36523666366A366E36623676367A367EB
:101BB000E3672362E361E5E7534600004004002049
:101BC0004C330000F0050020CD1B001007B5604627
:101BD00001880A0A0230DF2AFAD1C9B2820804D386
:101BE000028840880004104300E00068014A505019
:101BF000039007BD4004002001480421014B184711
:101C000000020020F1190010014B5B68184700002A
:101C100000020020F0B546464F46D6468046C0B585
:101C20000E00171E3FDD4B1E9946214B0125002457
:101C300000209A460DE04B461B5D0D3B5A42534136
:101C4000325DDBB20A2A0BD02B00013401359F42F2
:101C50001ADD002CEFD14346325D1B7C0A2AF3D1FA
:101C6000002BF1D1A04204DA4346211A1B68301838
:101C70009847434650461B68022198470134280084
:101C80002B0001359F42E4DC874204DD4346391ACC
:101C90001B6830189847F619013E33780D3B5A42BD
:101CA000534142461374E0BCBA46B146A846F0BD63
:101CB0007C200010F0B557464546DE464E46D02300
:101CC000E0B51B061C68354B83B007000D001800FB
:101CD00001A990469A4600F05FF98146002807D195
:101CE000019B9C4204D0504600F05EF901239946C6
:101CF0006B1C03D1380000F00DF90500284B1C685F
:101D0000002C2FD00A23274E9B4602E0E468002CCB
:101D100028D02268002AF9D03368002B01D0A342D2
:101D2000F4D1637C002B27D02A0039002000FFF774
:101D300071FF4346002BE9D06B465A461A71637C0B
:101D4000002B1DD0237C002B23D00121236801A868
:101D500098476B461B790D3B5A4253412374E46804
:101D6000002CD6D14B46002B0FD103B0F0BCBB46A4
:101D7000B246A946A046F0BD290038009047D8E7F2
:101D80000121236801A89847C0E7504600F0F4F805
:101D9000EBE70221044823689847DAE72402002091
:101DA000D4050020D80500207C20001010B582B09A
:101DB0006B4604000022D81D01210470FFF77AFF52
:101DC000200002B010BDC04670B5040000F0A2F8BB
:101DD0000122010005002000FFF76CFF084B1C6882
:101DE000002C06D06368002B05D09847E468002CCF
:101DF000F8D1280070BDE468002CF3D1F9E7C046A3
:101E0000D40500200D4A1368002B13D0834202D161
:101E100009E0984208D01A00DB68002BF9D10029AC
:101E200000D0D06070471A000029FBD1DB68D36076
:101E3000C160F7E70029F5D01060F3E7D405002072
:101E400010B500F043F810BDF0B50D1E15DD0E4BBA
:101E50000D271A680D4B4519D31859424B410C49AF
:101E60005B005E5E20210478A64207D09369194288
:101E7000FCD101301460A842F5D1F0BD936919423C
:101E8000FCD11760F2E7C046080600200080FCBFC6
:101E90000406002030B504000D1E12DD00201021C4
:101EA000094B013C1A689369194208D101309369C2
:101EB0001942FCD1136823548542F4D130BD002867
:101EC000FCD103204042F9E708060020E12110B5CB
:101ED0000B4B0C481B780C4B49021B780B4B1860C2
:101EE000FEF726FB02210020FEF79EFA02210120C8
:101EF000FEF79AFA01210648FFF784FF10BDC0469D
:101F0000E020001000400340E420001008060020FC
:101F10001002002010B583070AD00300032102E05D
:101F200001330B4205D01A78002AF9D1181A10BDD6
:101F3000030019680C4A0D4C8A188A4322420FD1BB
:101F40005968094A04338A188A43224208D15968D9
:101F5000054A04338A188A432242F1D000E0013353
:101F60001A78002AFBD1E1E7FFFEFEFE8080808028
:101F7000F8B5C0460000000001B40248844601BC28
:101F8000604700BF5101002001B40248844601BCF3
:101F9000604700BF7901002001B40248844601BCBB
:101FA000604700BF0D01002001B40248844601BC17
:081FB000604700BFC1000020E2
:101FB8001213141516000000486172647761726587
:101FC80020616C61726D20256420616C72656164AA
:101FD8007920636C61696D65640000000A2A2A2A09
:101FE8002050414E4943202A2A2A0A000A000000AC
:101FF80048617264206173736572740052656C6520
:1020080061736500626F6F74325F77323571303893
:1020180030000000302E3100312E312E3200000009
:102028007069636F0000000053656375656E6369CE
:10203800614C75636573000041707220323920323B
:102048003032310006005250BBFF3CB62820001049
:10205800060052503ABCA9111C200010060052502C
:10206800E182887F0C20001006005250D3F07542A0
:10207800042000100D0A0000554152542073746466
:10208800696E000055415254207374646F75740072
:102098005541525420737464696E202F2073746400
:1020A8006F7574000600525053B4F4A198200010C4
:0820B8000800525092000000E4
:1020C000B4020010A80200109C0200104C20001066
:1020D00090020010582000106420001070200010A2
:0820E000AC200010B820001034
:1020E80010B502680024EFF3108172B61368002B54
:1020F800FCD0BFF35F8F03797F2B0BD80368BFF346
:102108005F8F1C6081F3108820BF0268EFF3108195
:1021180072B6EBE7D0231B061B6803710368BFF395
:102128005F8F00221A6081F3108810BD03000068D9
:10213800EFF3108C72B60268002AFCD0BFF35F8FF1
:1021480004229A56002A0BDB00290FD000200A60CF
:102158001B68BFF35F8F00221A608CF310887047EA
:10216800D0221206126801201A71F1E70020EFE769
:102178000268EFF3108172B61368002BFCD0BFF32E
:102188005F8FFF23037140BF0368BFF35F8F002297
:102198001A6081F3108870477047C046100000002D
:1021A8009801002000000000400200209405002053
:1021B8000000000000000000A4050020000000004E
:1021C80000000000100000000000000000000100F6
:1021D80000000000000000000000020000000000F5
:1021E80000000000000003000000000000000000E4
:1021F8000000FF000000000000B5486801318E466D
:102208000047704609380149884700BD95180010F5
:10221800503300004C3300005433000052330000A8
:102228004D5300004D430000533400004334000078
:10223800491E001000000000951E0010000000005C
:10224800000100000000000000000000F91B001061
:10225800C1190010891A0010691B0010ED02001046
:04000005100001E9FD
:00000001FF
